:020000040800F2
:10000000F09F0220790200082D260008ED1B000851
:10001000F92000087D0B000899430008000000004B
:10002000000000000000000000000000C101000806
:100030001D180008000000001502000849390008DA
:10004000930200089302000893020008930200083C
:10005000930200089302000893020008930200082C
:10006000930200089302000893020008930200081C
:10007000930200089302000893020008930200080C
:1000800093020008930200089302000893020008FC
:10009000810B0008930200089302000893020008F5
:1000A00093020008930200089302000893020008DC
:1000B000453A0008930200089302000893020008E2
:1000C00093020008930200089302000893020008BC
:1000D00093020008FD3C0008093D0008153D00089A
:1000E000930200089302000893020008930200089C
:1000F000930200089302000893020008930200088C
:10010000930200089302000893020008930200087B
:10011000CD3C0008D93C0008693A00089302000869
:10012000930200089302000893020008930200085B
:10013000930200089302000893020008930200084B
:10014000930200089302000893020008930200083B
:10015000930200089302000893020008213D000862
:10016000930200089302000893020008930200081B
:10017000930200089302000893020008930200080B
:100180009302000893020008E53C0008F13C0008D7
:1001900093020008930200089302000893020008EB
:1001A000930200089302000893020008DFF80CD0C5
:1001B00000F07AFB00480047115C0008F09F022025
:1001C0002A4B19680868B0E8F04F80F30988BFF33C
:1001D0006F8F4FF0000080F311887047000000001F
:1001E00006480068006880F3088862B661B6BFF30D
:1001F0004F8FBFF36F8F00DF00BF00BF08ED00E03F
:10020000DFF80C00016841F470010160704700BF25
:1002100088ED00E0EFF30980BFF36F8F134B1A688E
:100220001EF0100F08BF20ED108A20E9F04F10607B
:1002300008B44FF0100080F31188BFF34F8FBFF365
:100240006F8F06F07DF84FF0000080F3118808BC36
:1002500019680868B0E8F04F1EF0100F08BFB0EC46
:10026000108A80F30988BFF36F8F70478C000020DD
:10027000EFF30580704700000648804706480047B6
:10028000FEE7FEE7FEE7FEE7FEE7FEE7FEE7FEE746
:10029000FEE7FEE7E9390008AD01000840EA010386
:1002A0009B0703D009E008C9121F08C0042AFAD22C
:1002B00003E011F8013B00F8013B521EF9D27047F0
:1002C000D2B201E000F8012B491EFBD27047002298
:1002D000F6E710B513460A4604461946FFF7F0FF45
:1002E000204610BD30B505462A460B4612F8010BD4
:1002F00013F8014B08B1A042F8D01CB1002802D07D
:100300006D1CF1E7284630BD2DE9FE4F804681EA9D
:100310000300C00F0C46009021F0004123F000457F
:10032000B8EB0200A94105D24046214690461C4642
:100330000B46024623F00040104347D0270DC7F379
:100340000A00C3F30A510290401A019040286BDA68
:10035000C3F3130040F4801B0098924620B10023A1
:10036000D2EB030A63EB0B0B01985946C0F1400234
:10037000504600F06CF906460D4650465946019A23
:1003800000F084F910EB08006141002487EA115263
:1003900084EAE7731A4340D0009A62B3019A012AB3
:1003A0004FEA075215DC001B61EB02014FF00042DF
:1003B00002EA0752CDE90042001C41F580113246A5
:1003C0002B4600F084F903B0BDE8F08F404621468B
:1003D000F9E7001B61EB0201001C41F580130018D6
:1003E0005B412018A2F5001747EB030140EAD570E6
:1003F000B6196D4111E06D084FEA360645EAC07541
:100400004FEA0752001B61EB0201001C41F580110D
:1004100049084FEA30000019514132462B4603B0DB
:10042000BDE8F04F00F044B90098012240000023DD
:10043000D0EB020263EBE073009821464FEAE074D0
:10044000B8EB000061EB0401E9E783F000435BE7F0
:1004500081F0004158E72DE9FE4F81EA030404F0E2
:10046000004421F0004100944FF0000B23F00043C2
:1004700050EA01045ED052EA03045BD0C3F30A548D
:10048000C1F30A552C44A4F2F3340194A0FB0254A6
:10049000C1F3130141F48011C3F3130343F4801338
:1004A00001FB024400FB034E840A970A44EA81548C
:1004B00047EA8357A4FB076802958D0A05FB078569
:1004C0004FEA932C04FB0C542705029D4FEA065873
:1004D00047EA1637B5EB08056EEB070C870E920E50
:1004E00047EA811742EA8312A7FB0201B6EB0B0130
:1004F00064EB00042B0D43EA0C335E1844EB1C50F4
:10050000DA465146E7FB0201C5F313044FEA0B3309
:1005100043EA14534FEA0432019C43EA0603A4F170
:100520000C040294009CCDE900B400F0D0F803B0B4
:10053000BDE8F08F00200146F9E70EB5C10F80EA53
:10054000E0700844CA07002140F233438DE80E00F2
:100550000A460B4600F0BBF803B000BD70B5C1F30E
:100560000A5201F000450024C1F3130140F2FF33A9
:1005700041F480119A4201DA002070BD40F2334309
:100580009A42A2F2334203DC524200F06FF800E0DC
:1005900090402C43F1D0404270BD00F0004230F05A
:1005A00000400AD0C10D01F56071C0F3160042EAA7
:1005B0000151C208400711437047002001467047AF
:1005C00030B50B46014600202022012409E021FA23
:1005D00002F59D4205D303FA02F5491B04FA02F520
:1005E0002844151EA2F10102F1DC30BD2DE9F05FB7
:1005F0000546002092469B46884606468146402492
:100600001BE0284641464746224600F02FF8534655
:100610005A46C01A914110D311461846224600F09E
:1006200016F82D1A67EB01084F46224601200021DB
:1006300000F00DF817EB00094E41201EA4F1010453
:10064000DFDC484631462A464346BDE8F09F202A73
:1006500004DB203A00FA02F1002070479140C2F119
:10066000200320FA03F3194390407047202A04DB4B
:10067000203A21FA02F00021704721FA02F3D0401B
:10068000C2F120029140084319467047202A06DB38
:10069000CB17203A41FA02F043EAE07306E041FA50
:1006A00002F3D040C2F1200291400843194670473E
:1006B00010B5141E73F1000408DA401C41F100016A
:1006C00092185B411A4301D120F0010010BD2DE9C1
:1006D000F04D92469B4611B1B1FA81F202E0B0FAB8
:1006E00080F220329046FFF7B2FF04460F4640EA00
:1006F0000A0041EA0B0153465A46084313D01146FB
:1007000053EA010019D0C8F140025046FFF7AEFF8E
:1007100005460E46504659464246FFF798FF0843A5
:1007200005D0012004E020463946BDE8F08D0020C8
:10073000054346EAE0762C4337430A986305E40A0A
:10074000A0EB08000022FD0A44EA47540A3002D513
:1007500000200146E9E7010510196941DDE9084576
:1007600000196941BDE8F04DA2E72DE9F04D81EA9D
:10077000030404F0004B21F0004514464FF0000A3A
:1007800023F0004150EA050220D054EA01021DD0B6
:10079000C5F30A570246C5F31303C1F31300C1F3AF
:1007A0000A5640F4801543F48013A7EB0608101B8B
:1007B000D64608F2FD3873EB050002D308F10108B4
:1007C00001E092185B41B8F1000F03DA0020014606
:1007D000BDE8F08D00204FF48011064684460EE0FF
:1007E000171B73EB050705D3121B63EB05030643C9
:1007F0004CEA010C49084FEA300092185B4150EA7C
:100800000107EDD152EA030012D082EA040083EA24
:100810000501084305D0101BAB4106D2012200237D
:1008200006E000224FF0004302E06FF00102531097
:100830001AEB06004CEB085110EB0A0041EB0B01E0
:10084000BDE8F04DFFF734BFC1F30A52C1F3130105
:1008500040F2FF3341F480119A4202DA002001464F
:10086000704740F233439A42A2F2334202DC5242D2
:10087000FFF7FCBEFFF7EBBE30B5041E71F10004BC
:1008800004DB4FF00044404264EB0101141E73F19D
:10089000000405DB1C464FF00043524263EB0403A7
:1008A000994208BF904230BD064C074D06E0E06813
:1008B00040F0010394E8070098471034AC42F6D3A7
:1008C000FFF778FC547900087479000870B501F0DE
:1008D00089FD11A003F05CFF124D18E0322000F0FA
:1008E00005FE322000F0ACFD0024E0B278220521A4
:1008F00000F01AFDE0B2142103F0FEFE287818B1D2
:10090000641CA4B2242CF0D3282005F01DFC287808
:100910000028E3D170BD0000BFAACABCC0CFBBAFE6
:100920000D0A0000640000207FB505F09BFB052147
:10093000002400911B48CDE901044FF400752346C3
:100940002A4619A11D48039405F0BEFF154804214D
:100950000091001DCDE9010400232A4618A11C487E
:10096000039405F0B1FF0F48032100910830CDE951
:10097000010400232A4617A11A48039405F0A4FF96
:100980000848022100910C30CDE9010400232A46D9
:1009900015A11848039405F097FFBDE87F4005F0C6
:1009A00081BB0000000000204D756C7469436F6DC1
:1009B0006D526561645F5461736B0000F925000836
:1009C0006261636B4D6F746F725F7461736B000073
:1009D000C55A000843616E53656E644D73675F547A
:1009E00061736B007D12000844656275675F546136
:1009F000736B0000211800087FB50121102002F060
:100A00001DFA1B4D284603F05DF8684603F054F9C3
:100A1000002440F2E7300190ADF8024042F2CF00EE
:100A2000ADF80000ADF808406946284603F006F925
:100A30000121284603F02CF80121284603F032F862
:100A400001221146284603F0F1F80121284603F05F
:100A50002FF836208DF80C000F208DF80D008DF842
:100A60000E4001208DF80F0003A801F0E1FD7FBDCD
:100A70000010004070B506460C46002000F0DCFF78
:100A8000042000F0E3FF20B908220021042001F037
:100A900087FB012000F0DAFF20B9082200210120A5
:100AA00001F07EFB052000F0D1FF20B908220021D3
:100AB000052001F075FB2E4D08220020696901F028
:100AC0006FFBA96A0A227143022001F069FB102121
:100AD000284800F09CFF0421274800F098FF2820B8
:100AE00005F032FB686B08224102032001F016FB7F
:100AF000E9690822012001F053FB686B4FF4C83606
:100B0000A04214DD00250FE008223146032001F049
:100B100005FB032000F090FF016808220320A1F5E7
:100B2000C83101F03DFB6D1CA542EDDB14E0002453
:100B30000FE008223146032001F0F0FA032000F014
:100B40007BFF016808220320A1F5C83101F028FBD2
:100B5000641C686BA042ECDC08220021032001F039
:100B60001FFBBDE8704008220021012001F018BBE6
:100B7000EC00002000140240001C0240FEE70000D0
:100B800070B51C4C88B00221204600F0FFF8002808
:100B90002ED0194D0221286800F040F802AA002149
:100BA000204600F065FA0298012821D10398052813
:100BB0001ED09DF8130005281AD110A003F0E8FDFF
:100BC000002402AE3019C17A11A003F0E1FD641CCB
:100BD000E4B2082CF6D310A003F0DAFDDDE905013C
:100BE000CDE9000102AC281D94E80E0002F0D2F815
:100BF00008B070BD0064004030130020BDD3CAD5DA
:100C0000B5BDC8CECEF1C3FCC1EE3A200000000055
:100C100025303258000000000D0A000030B50823CE
:100C200010240422B1F5007F1DD010DC202929D02A
:100C300007DC012921D0042922D0082900D1C46071
:100C400030BD402920D0B1F5807FF9D10BE00025DF
:100C5000B1F5004F06D008DCB1F5806F03D0B1F5D7
:100C6000006FEDD18561426030BDB1F5803F0DD0A0
:100C7000B1F5003FF8D1446030BD0549816030BD19
:100C8000C36030BD036130BD046130BD436030BD21
:100C900001010100094910B588424FF0010101D15D
:100CA0004C0601E04FF08064204602F0D3F8204665
:100CB000BDE81040002102F0CDB800000064004003
:100CC000F0B5827A2F4D012191402A6842F001024D
:100CD0002A602C4E1C3632688A433260294A047BD3
:100CE000294B0C32A4B914688C4314604488C7881B
:100CF00044EA0744877A03EBC707C7F840460488ED
:100D0000878844EA0744877A03EBC707C7F8444655
:100D1000047B012C12D114680C431460847A02689D
:100D200003EBC4044FEA3242C4F84026847A426896
:100D300003EBC4034FEA3242C3F84426114AC37A94
:100D4000121D002B136806D00B4313600D4A038954
:100D5000143213B104E08B43F7E713688B4313603D
:100D60000389012B02D113680B431360407B0128D8
:100D700002D1306808433060286820F00100286004
:100D8000F0BD000000660040006000400246002008
:100D900053690B424AD0B1F5807F3BD013DC082960
:100DA0002ED007DC012926D0022927D004293DD1E5
:100DB000D0682BE0102925D0202926D0402935D114
:100DC0001069102130E0B1F5004F2BD00BDCB1F5EC
:100DD000007F22D0B1F5806F22D0B1F5006F25D110
:100DE0009069702120E0B1F5803F11D0B1F5003F4E
:100DF0001CD15068E5E790680D4915E0D06802E025
:100E0000D068DEE7106903210EE0106908210BE0CD
:100E10005068FBE79069012106E09069022103E038
:100E2000906900E05068042100F069BA7047000042
:100E300001010100002A426901D00A4300E08A430F
:100E40004261704710B50368002223F0020303607B
:100E5000036843F0010303604FF6FF7300E0521C88
:100E60004468E40701D19A42F9D14268D2073ED0E2
:100E70008A79012A02683CD022F080020260CA7995
:100E8000012A026838D022F0400202600A7A012A60
:100E9000026834D022F0200202604A7A012A0268F5
:100EA00030D022F0100202608A7A012A02682CD027
:100EB00022F008020260CA7A012A026828D022F0D1
:100EC000040202608A78CC78920742EA04620C79C4
:100ED00042EA04424C79098842EA0452491E0A4314
:100EE000C261016821F001010160002114E00020CD
:100EF00010BD42F08002C1E742F04002C5E742F077
:100F00002002C9E742F01002CDE742F00802D1E723
:100F100042F00402D5E7491C4268D20701D0994249
:100F2000F9D14068C007E2D1012010BDF0B58BB007
:100F30000121082001F076FF474E092200213046AA
:100F400000F04EFD09220121304600F049FD022744
:100F50008DF8207001258DF8217000248DF8224035
:100F600007958DF8235007A9304600F0FDFC07A92E
:100F70003046079700F0F8FC0121480601F05EFFBB
:100F8000364E3046FFF786FE8DF807508DF8064046
:100F90000B208DF8040007208DF808508DF80240D2
:100FA0008DF805008DF809508DF8037010208DF82C
:100FB0000A40ADF800008DF80B4069463046FFF757
:100FC00041FF8DF816408DF817408DF81850ADF898
:100FD0000C40ADF81040ADF80E40ADF81240ADF841
:100FE00014408DF8195003A8FFF76AFE14208DF8FD
:100FF00024008DF825508DF826408DF8275009A83B
:1010000001F016FB012202213046FFF713FF0022F8
:1010100001213046FFF70EFF114CA80204F14C01EC
:101020002660A06004F16000E0600E486063142256
:10103000A1F13C00FFF732F90B48206343F2C820CE
:10104000E06204F1240000F005FF012005F018FA29
:10105000064908600BB0F0BD000C0240006400407F
:10106000301300201112000890630020300000208F
:1010700010B500EB0113D3F8B04114F0040414725E
:10108000D3F8B04133D0E4085460D3F8B04104F051
:1010900002045472D3F8B44104F00F049472D3F8EC
:1010A000B441240AD474D3F8B841D472D3F8B84107
:1010B000240A1473D3F8B841240C5473D3F8B841FC
:1010C000240E9473D3F8BC41D473D3F8BC41240AE2
:1010D0001474D3F8BC41240C5474D3F8BC311B0EE7
:1010E000937439B1016941F02001016110BD640DB3
:1010F0001460CAE7C16841F02001C16010BD30B57D
:101100000246002093685B0108D49068000101D575
:10111000012003E09068C00037D5022002EB0012E6
:10112000D2F8803103F00103C2F880310B7A73B337
:10113000D2F880414D681C434B7A43EAC5031C43F7
:10114000C2F880418B7A03F00F038B72D2F884319E
:1011500023F00F03C2F88431D2F884318C7A234310
:10116000C2F88431CB7ACC6843EA0423C2F88831D0
:10117000CB7B096943EA0121C2F88C11D2F88011B6
:1011800041F00101C2F8801130BD042030BDD2F819
:1011900080314C7A23430C8843EA4453C2F88031AF
:1011A000D0E70000002221B1012905D0022906D193
:1011B00012E08268114801E082681148024011493A
:1011C000501A8A4214D00ADCA2B16FF08060101865
:1011D0000FD002280CD10FE082680B48EEE7B0F583
:1011E000007F09D00949401803D0B0F5003F03D073
:1011F0000020704702207047012070470300000460
:101200000003000800010008000003100001FFF7C0
:101210000749C27A0A70027B4A70427B8A70827BDD
:10122000CA701039D0F80F004861014802F030BA96
:10123000400000202DE9F0410D46064600240A4FEB
:1012400008E0384601F0E5FD40B108A003F0A0FA3F
:10125000641CE4B2AC42F4D3BDE8F081315D3846A1
:1012600001F0BCFDF4E700005413002043616EB7A9
:10127000A2CBCDB6D3C1D0C2FA000000DFF868809F
:1012800086B00025404600F0F3FB48B305200090EF
:10129000019000208DF808008DF8090008208DF8D5
:1012A0000A0000246E46404601F052FA3119641CCF
:1012B000E4B2C872082CF6D30B486946243800689B
:1012C000FFF71DFF0646094F40F6FF7401E06D1C55
:1012D000ADB231463846FFF765FF08B9A542F6D3EF
:1012E000052004F031FFCDE75413002000640040D6
:1012F00000EB012000EB024000EB03607047024668
:1013000000200A4200D001207047034610B500209B
:10131000024605E013F8014B521C2044C0B2D2B281
:101320008A42F7D310BD00002DE9F047064600249D
:101330000D46204600F080FB042000F087FB20B91A
:101340000A220021042000F02BFF012000F07EFB88
:1013500020B90A220021012000F022FF052000F020
:1013600075FB20B90A220021052000F019FF242076
:101370001136B6FBF0F100FB11612E4E0A22B06A65
:101380004143022000F00CFFF16A0A22042000F021
:1013900007FF294F0121384600F03BFB4FF4806ADC
:1013A0005146384600F035FB282004F0CDFE234E90
:1013B0001021304600F02DFB4FF47A7004F0C4FE8B
:1013C0001021304600F023FB282004F0BDFE4FF42E
:1013D00096784FF4FA791CE0282004F0B5FE4046D8
:1013E00001F062F92021304600F011FB282004F0C2
:1013F000ABFE1021304600F00CFB484604F0A4FE82
:101400001021304600F003FB282004F09DFE641CF0
:10141000A4B2AC42E0D30121384600F0F8FA5146BC
:10142000384600F0F4FABDE8F0470A220021042013
:1014300000F0B6BEEC00002000140240001C024088
:1014400070B50446264808228169002000F0A8FEF5
:10145000244D2021284600F0DCFA282004F074FEF8
:10146000214E0821304600F0D4FA4FF4C87004F041
:101470006BFE1021284600F0CCFA282004F064FE10
:101480000421304600F0C5FA282004F05DFE6420F7
:10149000604304F059FE0421304600F0B8FA2820D9
:1014A00004F052FE1021284600F0B1FA4FF47A7091
:1014B00004F04AFE08220021012000F071FE0821FC
:1014C000304600F0A4FA282004F03EFE20212846F1
:1014D00000F09DFABDE87040282004F035BE000001
:1014E000EC00002000140240001C02402DE9F041F5
:1014F000012000F0ABFA20B964220021012000F0A5
:101500004FFE334808228169002000F049FE314E29
:101510002021304600F07DFA282004F015FE2E4DE3
:101520000821284600F075FA4FF4C87004F00CFE4C
:10153000012141F63722084601F0BAFF6F153946FE
:10154000304600F066FA282004F0FEFD042128460B
:1015500000F05FFA00242C2004F0F6FD0421284658
:1015600000F055FAB02004F0EFFD0421284600F009
:1015700050FA641C0A2CEEDB012002F007F84FF44D
:101580007A7004F0E1FD0421284600F040FA28209A
:1015900004F0DAFD43F26E41012000F07DFF394690
:1015A000304600F034FA4FF4FA7004F0CDFD082113
:1015B000284600F02CFA282004F0C6FD20213046F1
:1015C00000F025FABDE8F041282004F0BDBD000080
:1015D000EC00002000140240001C024070B5164DC3
:1015E0000024286820F0300028602868286004E083
:1015F000641CE4B2012000F033F90421284600F015
:10160000FFF910B1C82CF3D30FE0C82C0DD2002481
:1016100004E0641CE4B2012000F022F90421284611
:1016200000F0EEF918B1F02C04D3012070BDF02CBD
:10163000EFD3FAE7002070BD0000024070B500F063
:10164000ADF800F08DF8FFF7C9FFCC2000F0B4F83A
:10165000BE2000F0B1F800F073F8044600F070F816
:10166000072805D9C043E143C0B2CCB2002500E051
:10167000012504EB002000B2FEF75FFF9FED081B81
:1016800053EC112BFEF7E7FEFEF768FF00B225B121
:1016900000EE100AB8EEC00A70BD4042F8E7000044
:1016A000000000000000E43F1CB50121084601F0E5
:1016B000B9FB0420009001208DF8040000218DF872
:1016C00006108DF8070002208DF8050069460448D1
:1016D00000F04AF900F044F8FFF780FF1CBD00005D
:1016E0000000024010B5154C206820F0300020604A
:1016F000206840F0100020600421204600F087F9A7
:10170000022000F0ADF80421204600F082F92068A4
:1017100020F030002060206820600C2000F0A0F84D
:101720000421204600F06CF908B1012400E00024F7
:10173000322000F095F8204610BD00000000024065
:1017400070B500250124FFF7CDFFC001641C40EAFD
:101750005500E4B2C5B2082CF5D9284670BD00008A
:1017600010B50D4C206820F030002060206840F05B
:10177000100020600421204600F049F940F2EE20DC
:1017800000F06EF80421204600F043F9BDE8104057
:101790000F2000F065B800000000024010B5FFF710
:1017A000DFFFFFF71BFFCC2000F006F8BDE810407C
:1017B000442000F001B8000070B5174E05463068AF
:1017C00020F030003060306840F0100030600124BC
:1017D00015F0010F4FEA55054FF0040130460AD0CD
:1017E00000F015F9022000F03BF80421304600F02B
:1017F00010F93C2009E000F00AF93C2000F030F834
:101800000421304600F005F9022000F029F8641C9C
:10181000E4B2082CDCD970BD000002407047000023
:1018200004F0CCF90C4800210C4C816100F1180542
:10183000C161094900230A221831206804F078FEAA
:1018400028B1EA78A97868782B1D00F053F81420A5
:1018500004F07AFCEDE700000000002038000020D2
:10186000002206E00021491CC9B22829FBD3521CE2
:1018700092B28242F6D3704770B502F08FFD0546F2
:1018800001224FF440010A4802F0ECFD084C09A087
:10189000217802F07DFF2278242A00D80AB924207A
:1018A0002070294607A002F073FF284670BD000093
:1018B00024000020C7E5CFB4B8F6CAFD3D25640D6D
:1018C0000A000000426C656E64696E675F436C6578
:1018D000616E696E675F417373656D626C792044F8
:1018E0006574656374526573756C74203D2025645E
:1018F0000D0A000010B5612905D103A002F048FFD0
:1019000004490020087010BDCDA3D6B9C0CFBBAF2D
:101910000D0A0000640000207CB50121084601F09A
:1019200081FA00208DF8050001218DF804108DF852
:101930000600022084020B4D8DF8070069462846F8
:10194000009400F011F82146284600F062F8640087
:1019500069462846009400F007F82146284600F022
:1019600058F87CBD00000240F0B5002201274FF07E
:10197000030C0B6807FA02F52B40AB422CD106682A
:1019800053000CFA03F4A64306600E79D0F800E089
:101990009E4046EA0E0606600E79012E01D0022E08
:1019A00012D18668A64386604E79D0F808E09E4042
:1019B00046EA0E0686604668AE43466045688E7904
:1019C0009640B6B235434560C568A543C560CC793D
:1019D0009C40C3681C43C460521C102AC9D3F0BD8C
:1019E0004B07DB0E9A40C90810B500EB8100016A75
:1019F0000F249C40A1430162016A1143016210BDA2
:101A00000246002012690A4200D00120704741833B
:101A10007047018370470000C0EBC000054900EB30
:101A2000800001EB8000B0F84010C06B89B2FFF776
:101A3000E7BF0000F8960020C0EBC000024900EBB1
:101A4000800001EB80007047F896002010B5044636
:101A5000002100F01DF848B1642004F0B5FA00211F
:101A6000204600F015F808B1012010BD002010BD7F
:101A70000179012905D0428801888A4203D3501A8E
:101A800004E0008902E00089401A104480B27047E7
:101A900070B50D46C0EBC0000A4900EB800001EBB9
:101AA000800405EB450004EB8000018AC06889B220
:101AB000FFF7A6FF6119097A814201D1012070BDAB
:101AC000002070BDF896002010B5022806D0082826
:101AD00008D105A0BDE8104002F05ABE01F056FD45
:101AE00006A0F7E710BD0000CDA3D6B9C7E5CFB477
:101AF000BCD3D1F9D5EB0D0A00000000B5E7BBFA65
:101B0000D4CBB6AFB3ACCAB10D0A00002DE9F04199
:101B1000064630308046FFF7ABFF05005AD04FF441
:101B200080612D48FEF7D3FB308EB16B42192A4FEE
:101B30008A4204D8F16B2A46014438460AE0091A61
:101B40008CB2F16B224601442348FEF7A7FB2A1B07
:101B50003819F16BFEF7A2FB2049306C884231D175
:101B6000002420E0385DAA281CD13819417AA52923
:101B700018D11B4982784A70C2788A700379CB7079
:101B800043790B7183794B71C3798B71007A612A28
:101B9000C8714FF000034FF00A020BD011480068E3
:101BA00004F0B6FD641CAC42DCD30B4800F0ECFD45
:101BB000002405E00C48F2E7404600F0C9FD641C33
:101BC000AC42F9D3B06BA84204D14046BDE8F04125
:101BD00000F040B9BDE8F081300F00200010014056
:101BE00025000020340000203800002001A002F071
:101BF000CFFDFBE7486172644661756C74000000BC
:101C00002DE9FC5F0121BB2001F00CF901208DF8CA
:101C100005008DF8040000218DF806108DF80700EE
:101C20004020009069462C48FFF79EFE022000905D
:101C300069462A48FFF798FEDFF8A4B04FF4004445
:101C4000694658460094FFF78FFEA511694625485E
:101C50000095FFF789FE2611694620480096FFF798
:101C600083FEDFF884A06711694650460097FFF7AE
:101C70007BFE4FF4807869461C48CDF80080FFF762
:101C800073FE4FF4005969461848CDF80090FFF7ED
:101C90006BFE40211048FFF7BCFE02210F48FFF702
:101CA000B8FE21465846FFF7B4FE29460D48FFF717
:101CB000B0FE31460948FFF7ACFE39465046FFF703
:101CC000A8FE41460948FFF7A4FE49460748FFF72A
:101CD000A0FEBDE8FC9F000000000240000402409E
:101CE0000014024000100240001C0240000C0240A0
:101CF0002DE9F05F012140F2FF1001F093F84FF45D
:101D00008C614A48FEF7E3FA0020484A0123C0EB01
:101D1000C00101EB810102EB8101401CCB7108285D
:101D2000F5D3DFF80C91DFF80CA1DFF80CB100253A
:101D30009046C5EBC50000EB800605EB450709EBB7
:101D4000870008EB860407C8303407C40AEB870015
:101D500007C884E807000BEB8700183407C807C4DE
:101D60002B2036496843014420462B22603CFEF775
:101D700095FA3348405D6071324850F8251032487A
:101D800048F826100026405DA07118E006EB4600DA
:101D900004EB80012D4801F10C0C00EB87000DC80D
:101DA0008CE80D002A48A219405D107201F1100064
:101DB000CA6801461046FFF7D7FD761CF6B2E079F7
:101DC000B042E3D804F13401206BFFF7CDFD04F1FC
:101DD0004001E06BFFF7C8FD04F15801606DFFF7AB
:101DE000C3FDB4F8580081B2606DFFF710FE3220D9
:101DF00004F0AAF9B4F8580081B2606DFFF709FE4B
:101E0000A08E81B2206BFFF704FE322004F09CF913
:101E1000A08E81B2206BFFF7FAFD2146E8B201F0F7
:101E200011FA6D1C082D84D3BDE8F09FF8960020B0
:101E3000906D0008F06D0008306D0008B06E00086D
:101E4000087000082070000810700008506E00082C
:101E5000187000080021018041800171D0E9021052
:101E6000FEF735BA0121412000F0DCBF11481E21E8
:101E7000416381630521C1634FF4FA7101604160E0
:101E80004A008260C160016144F6440141614FF43F
:101E90006171816146F29051C16146F6781101622B
:101EA0004FF44861816245F6C051C16246F2A81103
:101EB00001637047EC0000202DE9F84F044600252F
:101EC000574F216C2846B94200D12520DFF85481B4
:101ED000DFF85491DFF854A1DFF854B1554E414575
:101EE00001D1262018E0494501D1272014E05145B1
:101EF00001D1342010E0594501D135200CE0B14228
:101F000001D1472008E04C4A914201D1522003E020
:101F10004A4A914200D153208DF8000002208DF8EA
:101F2000010000208DF8020001208DF803006846B2
:101F300000F07EFB206CB84201D0B04204D10121F8
:101F4000606C00F093FF03E00121606C00F076FF0D
:101F5000216820690843012100F064FF206CB84229
:101F600003D0404501D0484501D107250CE050453C
:101F700009D0584507D0B04205D02F49884202D039
:101F80002E49884200D10825208980B200F0B6FB96
:101F900001462A466068FFF723FD208B80B200F0DF
:101FA000ADFB01462A466069FFF71AFD0021206C4F
:101FB00001F0C5FE04F108016068FFF7D5FC04F1EB
:101FC00018016069FFF7D0FC04F14801206C01F0B2
:101FD000FFFE012240F22551206C01F0E0FE0022BC
:101FE00040F22771206C01F0DAFE4021206C01F0F4
:101FF0009DFE0121206C01F0A2FE4021206C01F029
:1020000095FE04F13000FFF725FF04F12000FFF7F3
:1020100021FF012004F034FAE065BDE8F88F0000EC
:10202000001001400044004000480040004C0040C7
:10203000005000400014014000780040007C004047
:1020400010B500220221012004F03FFA0149C860C6
:1020500010BD000030000020054900220A60087011
:10206000020A4A70020C8A70000EC8700846704757
:102070002000002070B544211C48FEF728F94FF4D9
:10208000801544222946194802F0ECF940211748EE
:10209000FFF73BF9154E316C814226D0EC0044220B
:1020A0002146304602F0DEF940213046FFF72DF997
:1020B000316C814219D0FFF7D9FE0D4E280B02F08A
:1020C0008BF905F58055B542F8D30A4DE01704EBBE
:1020D0001050001302F080F904F58054AC42F5DB97
:1020E000BDE87040014801F093B870BDEC000020DD
:1020F0000010100000108000FEE7000010B5012065
:1021000004F0BEF90449086000F0F6FFFFF778FD1F
:10211000BDE81040FFF7ECBD500000202DE9F04174
:1021200017460D468046FFF787FC0446FDB1206840
:102130002844B0F57A3F28DA3946404600F0C0F925
:1021400020684619314612A002F022FBA079B8B1EE
:1021500000212A46404601F0A3F93946404602F0E4
:10216000B9FA78B14046266000F0B8F905E0394682
:10217000404600F0B3F8002800D00120BDE8F0810F
:102180000121E6E7404601F001FA0020F6E70000F1
:10219000746D70706F73203D2025640D0A0000007F
:1021A0002DE9F04117460D460646FFF745FC04466B
:1021B000006839462843304613D000F081F9206882
:1021C000A8421CDAA5EB0002A07988B14FF000010B
:1021D000304601F065F93946304602F07BFA48B1E5
:1021E00061E000F07BF8002800D00120BDE8F0811C
:1021F0000121EDE7304601F0C9F90020F6E752DD94
:102200000DB9022E05D0421BA179304601F048F9E4
:1022100009E03946304600F061F80028E6D042E097
:10222000052003F091FF3046FFF710FC40B930461F
:10223000FFF7F2FB20B9304600F03AF90028EFD062
:10224000304601F0A3F905BBB4F88920A1793046E6
:1022500001F02EF902E0052003F076FF3046FFF78B
:10226000F5FB20B9304600F023F90028F3D03046C2
:1022700001F08CF9142003F067FF134836B1012EEA
:1022800006D0042E13D0052E13D00CE0026800E017
:102290004268A179304601F003F9642003F054FF4D
:1022A000304601F073F92560032E04D007E0C268C0
:1022B000EFE70269EDE7294604A002F069FA30462B
:1022C00000F00CF991E70000EC00002063757450F9
:1022D0006F73203D2025640D0A0000002DE9F041B8
:1022E000884605460027FFF7A7FB044641462846D7
:1022F00000F0E6F84146284602F0ECF9002804D048
:10230000002617E0022F02D90020BDE8F0813348F3
:1023100030F81520A079C8B10021284601F0C0F896
:10232000642003F011FF4146284602F0D3F978B14A
:102330007F1CFFB22846FFF789FB0028E2D1B4F8E2
:102340008920A179284601F0B3F808E00121E4E7EB
:10235000284601F01BF9D7E7052003F0F5FE2846D3
:10236000FFF774FB20B9284600F0A2F80028F3D04C
:10237000284601F00BF9761CF6B2022EDAD3284675
:1023800000F0ACF8142003F0DFFE154845B1012D34
:1023900008D0022D08D0042D16D0052D16D00FE040
:1023A000026814E0426812E08268A179284601F0D0
:1023B00077F84FF4FA7003F0C7FE284601F0E6F80C
:1023C000002020600120A0E7C26800E00269A17936
:1023D000284601F065F86420EDE700005400002075
:1023E000EC00002070B500260A2231460120FFF7DC
:1023F000D7FE60B30A2200210420FFF7D1FE40B3CC
:102400000A2200210520FFF7CBFE20B30A2200217B
:102410000220FFF7C5FE00B300210A220846FFF79D
:10242000BFFEE0B11A48082281690020FFF7B8FE1C
:102430000A2200210320FFF7B3FE90B13220FFF7FC
:1024400055F83220FEF7FCFF0024124D16E0022062
:1024500070BD102070BD202070BD042070BD012013
:1024600070BD082070BDE0B264220321FEF75CFF5E
:10247000E0B2142102F040F9641CA4B2287884422E
:10248000F1D30A2200210220FFF78AFE304670BDF8
:10249000EC00002024000020C0EBC000034A00EB49
:1024A000800002EB8000A0F889107047F8960020A9
:1024B000024901EBC000C07870470000589B002023
:1024C000054B03EBC0025170012103F830100020CE
:1024D0009070D07070470000589B0020034A002184
:1024E00002F8301002EBC00081707047589B00204A
:1024F0001FB51C208DF80C0000248DF80D408DF8C0
:102500000E4001208DF80F0003A800F091F8012182
:10251000084600F093FC42F2CF00ADF80000ADF8A1
:102520000840ADF802404FF08044204601F0CAFA5E
:1025300042F20F7101916946204601F07FFB0121B3
:10254000204601F0AFFA01221146204601F06EFB51
:102550000121204601F0ACFA40210748FDF7B7FE03
:10256000054906484860C8604861C8614862C86259
:102570004863C8631FBD0000589B0020C91A0008AB
:102580002DE9F04100240D4D2746012615F83400B1
:1025900070B105EBC400417811B1491E417007E0EC
:1025A000867005F83470C670611C05A002F0F0F862
:1025B000641C082CEADBBDE8F0810000589B002079
:1025C000B5E7BBFA2564B6A8CAB1C6F7B3ACCAB1C1
:1025D0000D0A000070B50024064D264605EBC40127
:1025E000887818B18E704968E0B28847641C082C5E
:1025F000F4DB70BD589B002000F006F800F0C2FC30
:10260000142003F0A1FDF7E770B5074D002404EB9B
:10261000440005EB40102146FFF778FA641CE4B251
:10262000082CF4D370BD000030010020704700007A
:1026300030B50F23C27801780125FAB1144A126827
:1026400001F1E02102F4E062C2F5E062C2F3072288
:10265000C2F10404D3404278A24084781C40144361
:10266000220181F80024007800F01F018D4040090C
:10267000800000F1E020C0F8005130BD01F01F00E3
:1026800085404809800000F1E020C0F8805130BD4D
:102690000CED00E002490843024908607047000061
:1026A0000000FA050CED00E02DE9F0410024124F86
:1026B0000546642620213846FFF7ABF9B5FBF6F056
:1026C000400003F041FD20213846FFF7A0F9B5FB9B
:1026D000F6F0C00003F038FD641C052CEADB202175
:1026E0003846FFF796F90A20B5FBF0F0BDE8F04157
:1026F00000EB800003F028BD001C024000210123F4
:1027000003FA01F2024201D0C8B27047491C89B2F3
:102710001029F5D30020704710B50B4604464178C8
:102720000078814201D1002010BDA16800EB80003B
:1027300001EB800114221846FDF7B0FD2078616896
:10274000401C90FBF1F201FB12002070012010BD33
:1027500030B54388018800228B4201D1037983B1CF
:10276000C36800245A5C5C5401888368491CB1FB2F
:10277000F3F503FB151189B2018043888B4200D128
:102780000471104630BD000070B5064652A1FDF739
:10279000A9FD00287CD052A001F0FAFF5FA001F053
:1027A000F7FF4FA001F0F4FF6BA001F0F1FF73A061
:1027B00001F0EEFF7D4801F0EBFF7D4801F0E8FFFE
:1027C0007C4801F0E5FF7C4801F0E2FF7B4801F026
:1027D000DFFF7B4801F0DCFF7AA001F0D9FF87A082
:1027E00001F0D6FF93A001F0D3FF9FA001F0D0FF2E
:1027F000ACA001F0CDFFB9A001F0CAFFC54801F0BF
:10280000C7FFC54801F0C4FFC44801F0C1FFC44878
:1028100001F0BEFFC34801F0BBFFC34801F0B8FFA1
:10282000C24801F0B5FFC24801F0B2FFC14801F053
:10283000AFFFC14801F0ACFFC04801F0A9FFC0489C
:1028400001F0A6FFBF4801F0A3FFBF4801F0A0FFC1
:10285000BE4801F09DFFBE4801F09AFFBD4801F05F
:1028600097FFBDA001F094FFC9A001F091FFD5A092
:1028700001F08EFF00E00BE0E0A001F089FFEBA08B
:1028800001F086FFF5A001F083FF15A001F080FFA5
:10289000FEA13046FDF726FDA8B10220FFF7CCF8D7
:1028A00005460024FAA0296801F072FFE0B2782200
:1028B0000321FEF739FDE0B2142101F01DFF641C75
:1028C000A4B2242CEED3F4A13046FDF70BFD002872
:1028D00000D0E5E1ECE100006C69737400000000D9
:1028E0002A2A2A2A2A2A2A2A2A2A2A2A2A2A2A2A48
:1028F0002A2A2A2A2A2A2A2A2A2A2A2A2A2A2A2A38
:102900002A2A2A2A2A2A2A2A2A2A2A2A2A2A2A2A27
:102910002A2A2A2A2A2A2A2A0D0A00002A2A2A2AA8
:102920002A2A202020202020202020202020202093
:1029300020B5F7CAD4B2CBB5A52020202020202076
:10294000202020202020202020202020202A2A2A69
:102950002A2A2A0D0A000000C7EBD1A1D4F1CAE44B
:10296000C8EBC3FCC1EEA3A8CAAEC1F9BDF8D6C678
:10297000B7A2CBCDA3A90D0A00000000C3FCC1EE95
:10298000A3BA414130353042303130303030303010
:10299000303030304135A3ACB6AFD7F7A3BABFAAB9
:1029A000BBFAB3F5CABCBBAF0D0A000054720008F5
:1029B000BC720008247300088C730008F8730008C8
:1029C00064740008C3FCC1EEA3BA41413035303015
:1029D0003331303030303030303030304135A3ACEE
:1029E000B6AFD7F7A3BACBAEC6BDB5E7BBFA284D95
:1029F000543129B8B4CEBB0D0A000000C3FCC1EEAF
:102A0000A3BA41413035303133313030303030309D
:102A1000303030304135A3ACB6AFD7F7A3BAB4B934
:102A2000D6B1B5E7BBFA284D543229B8B4CEBB0DA8
:102A30000A000000C3FCC1EEA3BA41413035303278
:102A40003331303030303030303030304135A3AC7D
:102A5000B6AFD7F7A3BAB7B4D3A6C5CC284D543375
:102A600029B8B4CEBB0D0A00C3FCC1EEA3BA4141E4
:102A7000303530333331303030303030303030304A
:102A80004135A3ACB6AFD7F7A3BABEABC3DCB1C375
:102A9000B5E7BBFA32284D543429B8B4CEBB0D0A81
:102AA00000000000C3FCC1EEA3BA41413035303410
:102AB0003331303030303030303030304135A3AC0D
:102AC000B6AFD7F7A3BAC7E5CFB4B1DBB5E7BBFA6A
:102AD000284D543529B8B4CEBB0D0A00C3FCC1EE55
:102AE000A3BA4141303530353331303030303030B9
:102AF000303030304135A3ACB6AFD7F7A3BAB2C14E
:102B0000CAC3B1DBB5E7BBFA284D543629B8B4CEF9
:102B1000BB0D0A001C7700088C7700083C76000883
:102B2000A8760008E4780008FC77000870780008B0
:102B3000AC7000085871000804710008387500086E
:102B40009C750008F4750008D0740008AC7100088A
:102B5000F47100084C700008C3FCC1EEA3BA4141F7
:102B60003035313044423030303030303030303039
:102B70004135A3ACB6AFD7F7A3BAB1A3B4E6C9E861
:102B8000D6C3B5C4CFB5CDB3B2CECAFD0D0A0000D1
:102B9000C3FCC1EEA3BA414130353130444330303B
:102BA00030303030303030304135A3ACB6AFD7F7AD
:102BB000A3BAB6C1C8A1CFB5CDB3B2CECAFD0D0A76
:102BC00000000000C3FCC1EEA3BA414130353130F2
:102BD0003430303030303030303030304135A3ACEC
:102BE000B6AFD7F7A3BABBF1C8A1CFC2CEBBBBFA71
:102BF000B0E6B1BEBAC50D0A00000000C3FCC1EECC
:102C0000A3BA414130353130363030303030303099
:102C1000303030304135A3ACB6AFD7F7A3BABFAA36
:102C2000CABCC0CFBBAF0D0A00000000C3FCC1EEA0
:102C3000A3BA414130353130363130303030303068
:102C4000303030304135A3ACB6AFD7F7A3BACDA3FF
:102C5000D6B9C0CFBBAF0D0A00000000C3FCC1EE67
:102C6000A3BA414130353130373030303030303038
:102C7000303030304135A3ACB6AFD7F7A3BABBF193
:102C8000C8A1CEC2B6C80D0A0000000071780000CD
:102C900025640D0A000000006E65787400000000D5
:102CA000BDE8704001214FF44862022000F0F8BBFB
:102CB00070BD00002DE9FC410121A02000F0B2F818
:102CC00000208DF8050001258DF804508DF80600D0
:102CD00002208DF8070004202C4F009069463846EA
:102CE000FEF742FE04213846FEF791FE08200090D0
:102CF00069463846FEF738FE08213846FEF787FE5B
:102D00001026694638460096FEF72EFE10213846FA
:102D1000FEF77DFE2024694638460094FEF724FE27
:102D200020213846FEF773FE0096194E694630465C
:102D3000FEF71AFE10213046FEF769FE694630465E
:102D40000094FEF711FE20213046FEF760FE2401BC
:102D5000694630460094FEF707FE21463046FEF7EE
:102D600056FE6400694630460094FEF7FDFD21469C
:102D70003046FEF74CFE694630460095FEF7F4FDFE
:102D800001213046FEF743FEBDE8FC81001C0240F5
:102D9000001402400FB410B5044642786168501C1C
:102DA00090FBF1F301FB13002178884203D100204E
:102DB00010BC5DF814FB02EB8200A168142201EB49
:102DC000800003A9FDF76AFA60786168401C90FBF7
:102DD000F1F201FB120060700120E9E742880388EC
:102DE0009A4202D10379012B11D0C36899544188CA
:102DF0008268491CB1FBF2F302FB131189B24180D6
:102E00000288914201D10121017101207047002007
:102E1000704741880288914202D10079012800D090
:102E200000207047044A0029116801D0014300E0E6
:102E3000814311607047000030380240044A002985
:102E4000116801D0014300E0814311607047000028
:102E500040380240044A0029116801D0014300E0D3
:102E6000814311607047000020380240044A002965
:102E7000116801D0014300E08143116070470000F8
:102E800044380240044A0029116801D0014300E09F
:102E900081431160704700002438024070B5204B18
:102EA0001968204C11F00C0104D01F4E042903D0E6
:102EB000082903D004601BE0066019E0184A121FBD
:102EC0001168C1F38055116801F03F0115B1B6FBDF
:102ED000F1F101E0B4FBF1F114681268C4F3881455
:102EE0006143C2F30142521C5200B1FBF2F1016096
:102EF00019680F2202EA11110C4A545C0168E14082
:102F000041601C68072505EA9424145D21FA04F445
:102F100084601B6805EA5333D25CD140C16070BD48
:102F2000083802400024F40040787D016800002049
:102F300010B504460179407981421AD0A268401C3C
:102F400090FBF2F302FB1300884202D109A001F0CA
:102F50001FFC0B4800218163C163016400F138014B
:102F6000201DFFF7D9FB0648616BBDE810403830E3
:102F7000084710BDB6D3C1D0C2FA0D0A0000000048
:102F80003013002070B5064D0024C4EBC40005EBDF
:102F9000C000FFF7CDFF641C14F0FF04F5D070BD36
:102FA000301300200021491C8029FCD306490A88DF
:102FB0009207FCD5044A121D10800888C007FCD077
:102FC0001088C0B270470000083401400029018811
:102FD00002D041F0400101E021F040010180704742
:102FE0000246002012890A4200D0012070478089E1
:102FF00070478181704730B502884C8802F4415394
:103000000A88CD8822438C882C4322430C89224392
:103010004C8922438C892243CC8922431A43028063
:10302000828B22F400628283098A018230BD000013
:103030002DE9F04188B001210C20FFF7F3FE0225B5
:103040008DF8185000248DF81A4001260C20274FC7
:103050008DF81B6005908DF8195005A93846FEF7CC
:1030600083FC0820DFF88880059005A94046FEF71C
:103070007BFC052203214046FEF7B2FC052202211B
:103080003846FEF7ADFC052203213846FEF7A8FCC2
:1030900001218803FFF7D2FE164F00213846FFF7C3
:1030A00095FFADF800404FF48270ADF80200ADF826
:1030B00008602802ADF80A003020ADF80C000720A7
:1030C000ADF80440ADF81000ADF80650ADF80E4074
:1030D00069463846FFF78FFF01213846FFF776FF34
:1030E000FF2000F05FF808B0BDE8F0810008024062
:1030F000000C024000380040F0B5012187B00846BE
:10310000FFF790FE02258DF8185000248DF81A4024
:1031100001264FF4E040214F8DF81B6005908DF89B
:10312000195005A93846FEF71FFC05220C21384628
:10313000FEF756FC05220D213846FEF751FC05220C
:103140000E213846FEF74CFC01214803FFF78EFEA6
:10315000134F00213846FFF739FFADF800404FF418
:103160008270ADF80200ADF808602802ADF80A00E0
:103170003020ADF80C000720ADF80440ADF8100089
:10318000ADF80650ADF80E4069463846FFF733FFFC
:1031900001213846FFF71AFF07B0F0BD00100240CA
:1031A0000034014070B506460024114D03E0641C54
:1031B000E4B2C82C0FD802212846FFF711FF0028DF
:1031C000F5D031462846FFF714FF002405E0641CC3
:1031D000E4B2C82C01D9002070BD01212846FFF7B8
:1031E000FFFE0028F3D02846FFF701FFC0B270BDF4
:1031F0000038004001460548028822F0380202806B
:1032000002880A4302800121FFF7E0BE0038004037
:1032100010B504464021FEF778F8206402F022FF42
:1032200044224FF48011064801F088F944224FF4FB
:103230000001034801F082F902F034FF012010BDC3
:10324000EC00002070B50C4601F160020546042335
:10325000012100F09DF8022304F16402194628467A
:1032600000F096F8042304F166020321284600F0DA
:103270008FF8042304F16A021946284600F088F802
:10328000022304F16E020521284600F081F8022392
:1032900004F170020621284600F07AF8022304F1B6
:1032A00072020721284600F073F8022304F1740229
:1032B0000821284600F06CF8022304F1760215215B
:1032C000284600F065F8012304F178020921284618
:1032D00000F05EF8012304F179020A21284600F08B
:1032E00057F8012304F17A020B21284600F050F828
:1032F000012304F17B020C21284600F049F8022347
:1033000004F17C020D21284600F042F8012304F16B
:103310007E020E21284600F03BF8012304F17F02D3
:103320000F21284600F034F8012304F18002102117
:10333000284600F02DF8012304F1810211212846CE
:1033400000F026F8012304F183021321284600F03F
:103350001FF8012304F184021421284600F018F814
:10336000012304F185021621284600F011F80123FB
:1033700004F186021721284600F00AF804F18702BA
:103380002846BDE870400223182100F001B8000073
:103390002DE9F0411C461D4E002315460F46804680
:1033A0005A1E1946306803F0C3F80121404600F068
:1033B00087F8052002F008FE3846FFF7F3FD0520E8
:1033C00002F002FE0021404600F07AF8032C00D9FA
:1033D0000324641E11D40121404600F071F8052039
:1033E00002F0F2FD285DFFF7DDFD052002F0ECFDA7
:1033F0000021404600F064F8EBE73068BDE8F0419A
:1034000000231A46194603F083B90000500000203B
:103410002DE9FC4700241E460A9D009405238DF8E3
:1034200000308DF801008DF80210274601948DF8C8
:1034300003201A48FEF70EFD0120E94600EB95082F
:103440001BE0B4EB950F1CD1A80714D0002005F0A9
:103450000302494608E000EB840301EB000CF35C37
:10346000401C8CF8043080B28242F4D808216846AF
:10347000FDF7E0FE0197641CA4B2A045E1D8BDE8C9
:10348000FC870020494600EB84020B18401CB25C0C
:1034900080B21A710428F6D3E8E700005413002024
:1034A00007B541F04001042302AAFFF771FF0EBDEA
:1034B00007B541F05001042302AAFFF769FF0EBDD2
:1034C0002DE9F05F03462C48DFF8A890DFF8ACA0A8
:1034D0004515DFF8ACB0C614DFF8A8E02A4A4FF46F
:1034E000004407154FF4807C4FF40058F9B1082BC5
:1034F0003DD2DFE803F00407090C0F111416402138
:10350000484610E002210EE0214650460BE02946D5
:10351000584608E0314606E03946704603E0614609
:1035200000E041461046BDE8F05FFEF770BA082B98
:103530001DD2DFE803F00407090C0F111416402117
:10354000484610E002210EE0214650460BE0294695
:10355000584608E0314606E03946704603E06146C9
:1035600000E041461046BDE8F05FFEF752BABDE804
:10357000F09F0000000002400004024000140240DE
:1035800000100240001C0240000C024010B5C0EBCD
:10359000C0000A4900EB800001EB8004A08E81B2DC
:1035A000206BFEF736FA142002F014FBA08E81B2D5
:1035B000206BBDE81040FEF72ABA0000F896002004
:1035C0001CB500212E4A00910191106840F4803012
:1035D00010604FF4A043106800F400300190009890
:1035E000401C0090019810B900989842F3D11068DF
:1035F000800342D50120019021484030016841F00C
:10360000805101601F49086840F4404008601C4830
:10361000083003680360036843F4004303600368F1
:1036200043F4A0530360041F174B2360136843F057
:103630008073136013689B01FCD50A6842F48032E2
:103640000A604A68D203FCD50A6842F400320A6074
:103650004A689203FCD50D4A40F205711160016879
:1036600021F003010160016841F00201016001687D
:10367000C1F381010229FAD11CBD01911CBD0000DA
:10368000003802400070004019544007003C0240DE
:103690007CB5064600200190F379B27971793079D2
:1036A000FDF726FEB2786A4D0424522A79D02CDC2C
:1036B000312A4AD00CDC162A47D004DC012A4DD02E
:1036C000152A4AD141E0202A3FD0302A45D13CE09A
:1036D000402A3AD00CDC382A56D0392A3DD1002372
:1036E0000A223146286803F013F801285AD043E033
:1036F000502A5CD0512A30D100230A223146286852
:1037000003F006F801285FD036E0AC2A1DD014DCA7
:10371000602A78D00CDC532A68D0542A1DD10023AB
:103720000A223146286802F0F3FF01286ED023E018
:10373000612A7DD0702A10D107E0AD2A05D0DA2A9F
:1037400003D0DB2A01D0DC2A07D100230A2231462C
:10375000286802F0DDFF01280ED17CBD00230A227B
:103760003146286802F0D4FF012805D1012201ABBF
:1037700011460B20009404E0002201ABBB21009411
:1037800063E0FFF745FE7CBD00230A22314628682E
:1037900002F0BEFF0128EFD1012201AB38210094D5
:1037A00053E016E0012201AB392100944DE00023E3
:1037B0000A223146286802F0ABFF0128DCD1012241
:1037C00001AB5021009440E0012201AB5121009453
:1037D0003BE000230A223146286802F099FF0128C5
:1037E000CAD1012201AB522100942EE000230A220B
:1037F0003146286802F08CFF0128BDD1012201ABBF
:103800005321009421E006E000E011E0012201AB29
:103810005421009419E000230A223146286802F05E
:1038200077FF0128A8D1012201AB602100940CE0B0
:10383000084800230A223146006802F069FF012887
:103840009AD1012201AB61210094102099E7000078
:1038500034000020380000202DE9F04107461546CD
:103860000E460020FEF7E8F80420FEF7EFF820B936
:10387000052200210420FEF793FC0120FEF7E6F864
:1038800020B9052200210120FEF78AFC0520FEF761
:10389000DDF820B9052200211046FEF781FC274CF7
:1038A000052200206169FEF77BFCA16A0A227943A8
:1038B0000220FEF775FC10212148FEF7A8F804212C
:1038C0002048FEF7A4F8282002F03EFC606B082296
:1038D00041020320FEF722FCE16908220120FEF7E5
:1038E0005FFC690208220320FEF718FC0822002171
:1038F0000120FEF713FCA06B082241020320FEF713
:103900000DFCA16A0A2271430220FEF749FCE1691D
:1039100008220120FEF744FCE06B0822410203204C
:10392000FEF73EFC082200210320FEF739FCBDE82B
:10393000F041082200210120FEF732BCEC000020FB
:1039400000140240001C024010B5102080F31188C2
:10395000BFF34F8FBFF36F8F03F09AF818B104498C
:103960004FF080500860002080F3118810BD0000E7
:1039700004ED00E070B50021194B012401EB81003A
:1039800003EB4000D0F802206AB1D0F80220521EAA
:10399000C0F8022007D144700278012A03D1D0F880
:1039A0000620C0F80220491CC9B21029E6D30D4CEC
:1039B0006068401C606060686FF0004100258842CC
:1039C00000D1656002F0EAF82078401CC0B2207097
:1039D000052804D32570BDE8704002F0E1B870BD41
:1039E0005896002048000020124810B5016841F4A4
:1039F000700101601048016841F0010101600E4A48
:103A000000210832116002680C4B1A400260031D4D
:103A10000B4A1A60026822F48022026006480C30C9
:103A20000160FFF7CDFD03494FF000608039086069
:103A300010BD000088ED00E000380240FFFFF6FEF8
:103A40001030002410B501218C07204600F0E2F868
:103A5000002807D00121204600F027F8BDE81040DB
:103A6000FEF78EBD10BD000010B5084C01212046A8
:103A700000F0D0F8002807D0FFF77CFF2046BDE813
:103A80001040012100F011B810BD000000100040EE
:103A90000029018802D041F0800101E021F080017D
:103AA00001807047C94301827047C9430182704752
:103AB0000029018802D041F0010101E021F001015B
:103AC00001807047464910B5884206D10121084659
:103AD000FFF7D8F9002101205BE0B0F1804F09D059
:103AE000404988420DD101210220FFF7B3F900219E
:103AF000022070E001210846FFF7ACF90021012007
:103B000069E03949884206D101210420FFF7A2F972
:103B1000002104205FE03549884206D101210820B8
:103B2000FFF798F90021082055E03149884206D175
:103B300001211020FFF78EF9002110204BE02D49C4
:103B4000884206D101212020FFF784F9002120209E
:103B500041E02949884206D101210220FFF792F96C
:103B60000021022015E02549884202D101210C04E0
:103B70000AE02349884202D101214C0404E0214992
:103B800088420AD101218C042046FFF77BF90021ED
:103B90002046BDE81040FFF775B91B49884206D1A1
:103BA00001214020FFF756F90021402013E017497A
:103BB000884206D101218020FFF74CF900218020A6
:103BC00009E0134988420AD1841501212046FFF7F4
:103BD00041F900212046BDE81040FFF73BB910BD78
:103BE000000001400004004000080040000C0040BC
:103BF000001000400014004000040140004001405B
:103C0000004401400048014000180040001C0040F2
:103C10000020004002460020138A92890B4202EAEB
:103C2000010202D0002A00D001207047002A8289B8
:103C300001D00A4300E08A438281704730B5028890
:103C4000164C174DA0420DD0A8420BD0B0F1804FBA
:103C500008D0144B984205D0134B984202D0134B16
:103C6000984203D122F070034A881A43104B9842BD
:103C700006D0104B984203D022F440730A891A43AD
:103C800002804A68C2620A880285A04201D0A84226
:103C900001D1897A01860121818230BD0000014075
:103CA000000401400004004000080040000C0040F7
:103CB00000100040001400404FF0FF31416000212F
:103CC000018001814180817270470000014800F04D
:103CD00027BB000050020020014800F021BB00007B
:103CE000B0020020014800F01BBB00007003002060
:103CF000014800F015BB0000D0030020014800F08F
:103D00000FBB000030010020014800F009BB00009B
:103D100090010020014800F003BB0000F0010020EA
:103D2000014800F0FDBA000010030020C9430180E3
:103D300070470A0A01219140C94301807047002958
:103D4000818902D041F4005101E021F400518181C8
:103D500070470246002012880A4200D001207047B6
:103D600070B501F01F0501260024C1F3421306FAC5
:103D700005F2012B0FD0022B0FD0838A4FEA1121BD
:103D80000088134206FA01F600EA060001D000B1ED
:103D90000124204670BD8389F0E7038AEEE710B561
:103DA000C1F3421301F01F040121A140012B07D0F0
:103DB000022B07D01430002A026805D00A4304E021
:103DC0000C30F8E71030F6E78A43026010BD0000BF
:103DD0007FB50446008A0D46C98820F4405001434F
:103DE0002182A08941F20C618843A9882A89114364
:103DF0006A8902431143A181A08A20F44071A889F5
:103E00000843A0826846FFF749F81A48844202D066
:103E10001948844201D1039800E00298A18909045D
:103E200000EBC00101EB0010296801D5490000E05A
:103E30008900B0FBF1F06422B0FBF2F109010B093B
:103E40006FF018056B4300EB8300A3891D044FF04E
:103E5000320306D503EBC000B0FBF2F000F0070020
:103E600005E003EB0010B0FBF2F000F00F00084398
:103E700020817FBD00100140001401408088C0F304
:103E800008007047C1F30801818070477047704790
:103E90007047704770477047704770472DE9F05F73
:103EA0004FF44071FE48FCF712FAFD4CFD484FF00C
:103EB000400BC4E9010B0025A573E57302202073B4
:103EC0000120607302202060F6488026C4E90506C0
:103ED000A577E57702202077012060770220206116
:103EE00004F54070C4E90E608030C4E90A60EE4811
:103EF000A06510206064ED4820644FF4E130A064B8
:103F0000A4F84C50A4F84E50A4F85050A4F85450C3
:103F10000C27A4F852702046E565FDF7CDFFE44874
:103F200060662020A06684F86E5084F86F500220EE
:103F300084F86C00012084F86D0008202066DC48BD
:103F4000C4E91D0B84F87E5084F87F50022084F869
:103F50007C00012084F87D000820206704F5806043
:103F6000C4F89C00B00004F5C061C4F89800C4E92E
:103F70002201D048C4F8B800B002C4F8A4004FF43D
:103F80001658CD48C4F8A880C4F8A000A4F8AC50D6
:103F9000A4F8AE50A4F8B050A4F8B450A4F8B2708D
:103FA000A1F5B460C4F8BC50FDF786FFDFF80CA3A0
:103FB000F000C4E931A084F8CE5084F8CF5002203C
:103FC00084F8CC00012084F8CD00C002C4E935A0FB
:103FD0004FF00409C4F8C09084F8DE5084F8DF5034
:103FE000022084F8DC00012084F8DD0004F5006084
:103FF000C4F8D090C4E93E608030C4E93A60B0486B
:10400000C4F81801F002C4F80401AE48C4F80881ED
:10401000C4F80001A4F80C51A4F80E51A4F81051F2
:10402000A4F81451A4F8127104F1C000C4F81C5192
:10403000FDF742FFA4480121C4E9490184F82E514B
:1040400084F82F51022184F82C11012184F82D11BC
:10405000C4F82011C4F834010220C4F8380184F8EF
:104060003E5184F83F5184F83C0184F83D1104F539
:104070001060C4F83011C4E956608030C4E9526061
:104080009248C4F87801C804C4F864019048C4F8A0
:104090006881C4F86001A4F86C51A4F86E51A4F8CA
:1040A0007051A4F87451A4F8727104F59070C4F8BA
:1040B0007C51FDF701FF7001C4E961A084F88E51C5
:1040C00084F88F51022084F88C01012084F88D013E
:1040D000C4F880917648C4F89891C4F8940184F8A3
:1040E0009E5184F89F51022084F89C01012084F89D
:1040F0009D010820C4F8900104F52060C4E96E60B9
:104100008030C4E96A607348C4F8D8017003C4F809
:10411000C4017148C4F8C881C4F8C001A4F8CC51E6
:10412000A4F8CE51A4F8D051A4F8D451A4F8D27177
:1041300004F5C070C4F8DC51FDF7BEFEC4E979ABEC
:1041400084F8EE5184F8EF51022084F8EC0101204C
:1041500084F8ED01C4F8E091C4E97DA684F8FE512D
:1041600084F8FF51022084F8FC01012084F8FD014D
:1041700004F53060C4F8F091C4E986608030C4E989
:1041800082605648C4F838022020C4F824025448FB
:10419000C4F82882C4F82002A4F82C52A4F82E52A5
:1041A000A4F83052A4F83452A4F8327204F5F07036
:1041B000C4F83C52FDF780FE4A48C4E9910684F8F1
:1041C0004E5284F84F52022184F84C12012184F897
:1041D0004D122021C4F84012C4E9950B84F85E52B8
:1041E00084F85F52022084F85C02012084F85D02AA
:1041F00004F54060C4F85012C4E99E608030C4E900
:104200009A603948C4F898024806C4F884023748CE
:10421000C4F88882C4F88002A4F88C52A4F88E52A4
:10422000A4F89052A4F89452A4F8927204F5107075
:10423000C4F89C52FDF740FE2D480221C4E9A901B3
:1042400084F8AE5284F8AF5284F8AC12012184F89D
:10425000AD121021C4F8A012C4F8B4020120C4F8B1
:10426000B80284F8BE5284F8BF52022084F8BC021F
:10427000012084F8BD0204F55060C4F8B012C4E90E
:10428000B6608030C4E9B2601A48C4F8F802C806C3
:10429000C4F8E4021848C4F8E882C4F8E0022DE04B
:1042A00030010020000402408D3E00080010014053
:1042B000000C02408F3E000800440040000802400D
:1042C000913E00080048004000000240933E000874
:1042D000004C0040953E000800500040973E00080A
:1042E0000014014000140240993E0008007800408C
:1042F000001002409B3E0008007C0040A4F8EC52F5
:10430000A4F8EE52A4F8F052A4F8F452A4F8F27211
:1043100004F52870C4F8FC52BDE8F05FFDF7CCBD91
:1043200070B5044640F22555006C2946FFF718FD8C
:104330000028206C12D0FFF7A1FDC3B204F13000B9
:104340000646FEF766FD18B919463046FEF746FDEB
:104350002946206CBDE87040FFF7EBBC40F22775A2
:104360002946FFF7FDFC002815D004F12000034684
:10437000FDF77EFB40B11846FEF7EAF90146206CD6
:10438000BDE87040FFF77EBD2946206CBDE8704057
:104390000022FFF704BD70BDFEE7000010B500F07D
:1043A0008BF8074C0146208006A000F0F1F9208828
:1043B000A0F56F41173901D0012010BD002010BDBC
:1043C000660000205732355158585F5459504520E7
:1043D0003D202530780D0A0070B5040300F0FCF88C
:1043E00000F0A6F80D4D10212846FDF710FB202007
:1043F000FEF7D8FEC4F30740FEF7D4FEC4F307204F
:10440000FEF7D0FEE0B2FEF7CDFE10212846FDF704
:1044100000FBBDE8704000F08BB8000000100240C7
:104420001CB501211020FEF7FDFC1020009001209A
:104430008DF805008DF8040000218DF80610084C59
:104440008DF8070069462046FDF78EFA10212046B8
:10445000FDF7DFFAFEF7ECFD3020FEF7CBFE1CBDCA
:10446000001002402DE9F041124F0C460646154659
:1044700010213846FDF7CBFA0320FEF793FEC4F374
:104480000740FEF78FFEC4F30720FEF78BFEE0B275
:10449000FEF788FE002405E0FF20FEF783FE30557E
:1044A000641CA4B2AC42F7D33846BDE8F0411021F9
:1044B000FDF7AFBA0010024070B5114E0024102174
:1044C0003046FDF7A4FA9020FEF76CFE0020FEF7C0
:1044D00069FE0020FEF766FE0020FEF763FEFF2067
:1044E000FEF760FE44EA0025FF20FEF75BFE40EA8F
:1044F000050410213046FDF78CFA204670BD0000FF
:104500000010024070B5094C10212046FDF77FFADB
:104510000520FEF747FEFF20FEF744FE054610216A
:104520002046FDF776FA284670BD000000100240D4
:1045300010B5FFF7E7FFC007FBD110BD2DE9F05F15
:10454000C1F30B06DFF88C800F0BC6F580548A464A
:1045500081461546A24200D8144639038B464FF4D3
:1045600080524046FFF77EFF002006E0321818F820
:104570000210FF2903D1401C80B2A042F6D3A04212
:1045800021D23846FFF728FF002006E019F8002066
:104590008319401C08F8032080B2A042F6D3594684
:1045A0004FF48052404600F029F8A5420FD0281B56
:1045B000A144A244002685B24FF480547F1CA5423A
:1045C000CBD82C46C9E7224651464846EBE7BDE822
:1045D000F09F0000989B002010B5074C102120464A
:1045E000FDF715FA0620FEF7DDFD2046BDE8104078
:1045F0001021FDF70EBA0000001002402DE9F04135
:104600000746C8B2C0F580740E461546A24200D8CF
:1046100014464FF4807822463146384600F00EF8B2
:10462000A54208D0281B2744264485B24446A5420B
:10463000F1D82C46EFE7BDE8F08100002DE9F0410C
:1046400015460C460646FFF7C7FF124F10213846A5
:10465000FDF7DDF90220FEF7A5FDC4F30740FEF7E4
:10466000A1FDC4F30720FEF79DFDE0B2FEF79AFD21
:10467000002404E0305DFEF795FD641CA4B2AC425A
:10468000F8D310213846FDF7C4F9BDE8F041FFF733
:104690004FBF0000001002401CB501210820FEF7AA
:1046A000C1FB00208DF8050001218DF804108DF864
:1046B000060002208DF807001020054C0090694686
:1046C0002046FDF751F910212046FDF7A2F91CBD47
:1046D000000C024010B5044607E02046FDF79CF9A7
:1046E000012808D0142001F075FA2046FDF7E0FEFD
:1046F0000028F2D0002010BD70B504460D460420FD
:10470000FDF7A4F920B9052200210420FDF748FD9A
:104710000120FDF79BF920B9052200210120FDF7BA
:104720003FFD0520FDF792F920B905220021104632
:10473000FDF736FD24201734B4FBF0F100FB1141E6
:10474000114C0A22A06A41430220FDF729FD216B8A
:104750000A220520FDF724FD0C4C10212046FDF710
:1047600058F96420684301F0EFFC10212046FDF762
:104770004EF9282001F0E8FCBDE870400A22002133
:104780000520FDF70DBD0000EC000020001C0240DC
:104790000FB4054B10B503A9044A029800F0DAF8EB
:1047A00010BC5DF814FB0000ED5B0008E800002081
:1047B00002E008C8121F08C1002AFAD170477047EA
:1047C000002001E001C1121F002AFBD17047000048
:1047D0002DE9FF5F82B00021DDE90430020DDDF834
:1047E00040B0034318D044F61050A2F2FF324243C7
:1047F0001514119801281FD0A5EB0B00401C5FEA8F
:10480000000A4FF000064E4FDFF83891B046504690
:1048100015D5CAF1000413E0119801244AA3012818
:1048200001D16FEA0B010298119AC0E90031C0E989
:10483000024206B0BDE8F09FCBF10000DFE704467E
:104840000021404A491842EB0450CDE9001012E023
:10485000E00707D032463B4640464946FBF7FBFDA2
:104860008046894632463B4610461946FBF7F3FD23
:1048700006460F466410002CEAD1DDE90401DDE9AB
:104880000023BAF1000F06DAFBF7E5FD42464B467E
:10489000FBF7E1FD05E0FBF768FF42464B46FBF7FF
:1048A00064FF04460E460022284BFBF7E5FF03D8C1
:1048B0004FF0FF30014607E00022254B20463146ED
:1048C000FBF722FDFBF7C0FF102409E0002C0ADBF8
:1048D0000A220023FBF78AFE039B30321A55641E1E
:1048E00050EA0102F2D1641C039AC4F1110314448A
:1048F000119A012A03D0012208430DD10AE008438E
:1049000004D000204FF0110B119072E7A3EB0B05C0
:104910006D1E0DE05B4504DD4FF0000205F1010561
:1049200004E003DA4FF00002A5F10105002AECD003
:1049300002981199C0E90231C0E9004579E7000009
:10494000000014400000F03F300000000000F04381
:104950000000E03F2DE9FF4F95B09B468946064693
:1049600000250FE2252877D100242746F84A0121A7
:10497000059400E0044316F8013F203B01FA03F0E0
:104980001042F7D130782A2811D06FF02F033078F9
:10499000A0F13002092A16D8059A44F0020402EB6D
:1049A000820203EB42021044761C0590EFE759F8AF
:1049B000042B0592002A03DA504244F40054059077
:1049C00044F00204761C30782E2816D116F8010F18
:1049D00044F004042A280DD06FF02F023078A0F1A3
:1049E0003003092B09D807EB870302EB4303C718F1
:1049F000761CF3E759F8047B761C30786C280FD0CE
:104A000006DC4C2817D068280DD06A2814D104E0A1
:104A1000742810D07A280FD10DE044F400140AE075
:104A200044F4801401E044F440147278824202D1CC
:104A300004F58014761C761C307866280BD013DCC5
:104A4000582877D009DC002875D04528F6D04628AC
:104A5000F4D047281AD19DE118E0632835D06428A6
:104A600079D0652812D195E1702873D008DC6728C9
:104A7000F1D069286FD06E280DD06F2806D1B5E02F
:104A800073282CD0752875D0782874D05A46179979
:104A900090476D1C75E1C4F30250022809D0032829
:104AA0000DD0D9F8001004280DD00D6009F10409CB
:104AB00067E1D9F80010EA17C1E90052F6E7D9F822
:104AC00000100D80F2E70D70F0E719F8041B8DF867
:104AD000001000208DF80100EA46012003E059F89B
:104AE00004AB4FF0FF3061074FF0000102D40DE03E
:104AF00008F101018846B9420FDA8045F8DB1AF85F
:104B000008100029F4D108E008F10101884681422B
:104B1000FADB1AF808100029F6D105985B46A0EBDD
:104B2000080721463846179A00F094FA284400EB0B
:104B3000080507E04DE029E10DE01AF8010B5A469F
:104B400017999047B8F10108F7D25B4621463846DD
:104B5000179A13E142E00A220092C4F302524FF086
:104B6000000A022A08D059F804CB032A4FEAEC7154
:104B70000AD00DE029E02AE009F1070121F007023F
:104B8000F2E802C1914609E00FFA8CFC4FEAEC71A1
:104B9000042A03D14FFA8CFC4FEAEC71002907DAA2
:104BA0000A460021DCF1000C61EB02012D2202E03B
:104BB000220504D52B228DF80420012203E0E20710
:104BC00001D02022F7E7904659E00A2102E01022A6
:104BD0000DE010214FF0000A00910BE010224FF081
:104BE000000A44F004040827009203E008224FF072
:104BF000000A0092C4F30252022A05D059F804CBED
:104C00000021032A08D009E009F1070121F0070279
:104C1000F2E802C1914605E01FFA8CFC042A01D19A
:104C20000CF0FF0C4FF00008220728D5702806D0A2
:104C3000009B83F0100353EA0A0305D00EE04022E4
:104C40008DF80420012208E05CEA010206D030223F
:104C50008DF804208DF8050002229046009B83F019
:104C6000080353EA0A030AD15CEA010201D1620790
:104C700005D530228DF804204FF001087F1E5828FA
:104C800004D034A003900EA802900DE036A0F9E7FE
:104C900053466046009AFBF7A9FC84460398825C61
:104CA0000298401E029002705CEA0100F0D1029866
:104CB00006A9081A00F1200A600702D524F48034FE
:104CC00000E00127574502DDA7EB0A0000E00020C5
:104CD00000EB0A01009005984144401A0590E0035A
:104CE00006D45B462146179A059800F0B3F90544AF
:104CF000002706E001A85A46C05D179990476D1C31
:104D00007F1C4745F6DBE0030CD55B462146179A2E
:104D1000059800F09FF9054404E030205A461799A1
:104D200090476D1C0099481E00900029F5DC08E0B2
:104D3000029802995A460078491C029117999047A7
:104D40006D1CBAF10001AAF1010AF1DC65E1000075
:104D50000928010030313233343536373839616251
:104D60006364656600000000303132333435363715
:104D700038394142434445460000000000F058F9EC
:104D80000544761C307800287FF4ECAD19B0284635
:104D9000BDE8F08F620700D4062709F1070222F070
:104DA000070CFCE80223E14603F000485FEA080C28
:104DB00002D00FF2702C0DE05FEA045C02D50FF216
:104DC000682C07E05FEAC47C02D00FF2602C01E09F
:104DD000AFF2700C4FF0FF3823F00043CDF850C015
:104DE00065280CD006DC452809D046281DD0472868
:104DF0003DD13DE0662818D067287ED138E00021FB
:104E0000112F01DB112000E0781CCDE9000106A97B
:104E10000EA8FFF7DDFCDDE90F010E9A03910021DA
:104E2000009207F1010A04914DE04FF00040009715
:104E3000CDE9011006A90EA8FFF7CAFCDDE90F02B3
:104E400003920E9B11990022DDF80CA000930492AE
:104E500011B9791C00EB010AB7EB0A0004D4C0F1C8
:104E6000FF3007F1010A0490AAEB0700019044E02B
:104E7000012F00DA01270021112F01DD112000E0B0
:104E80003846CDE9000106A90EA8FFF7A1FCDDE92F
:104E90000F010E9A0391002104910092BA46210756
:104EA0000CD40399514500DA8A46BAF1010F05DDA9
:104EB000009AAAF10101515C302908D0B84202DA07
:104EC00010F1040F06DA0121CDE9011015E0AAF175
:104ED0000101E9E7002805DC049901440491AAEBEB
:104EE000000102E0411C514500DD8A460499401A48
:104EF000401C01904FF000400290200704D401981C
:104F0000504501DBCDF8048000208DF84F00029859
:104F10000DF14F07B0F1004F25D02B200E900298D5
:104F20004FF0020800280CDA404202902D200E902B
:104F300007E00A210298FBF743FB3031029007F8A3
:104F4000011DB8F10001A8F10108F2DC0298002867
:104F5000EFD1791E0E980870307800F0200040F0F4
:104F6000450007F8020D12A8C01B00F107081498AD
:104F7000007800B1012000EB0A01019801EBE0711B
:104F800005984144401A401E0590E00306D45B4654
:104F90002146179A059800F05DF8054414980078AA
:104FA00018B15A46179990476D1CE00324D55B460B
:104FB0002146179A059800F04DF805441CE0049826
:104FC000002807DBDDE90301884203DD0098405C2F
:104FD000179901E0179930205A469047049805F137
:104FE0000105401C04900198401E019004D12E2020
:104FF0005A46179990476D1CBAF10001AAF1010AAF
:10500000DDDC05E017F8010B5A46179990476D1C37
:10501000B8F10001A8F10108F4DC5B462146179ABB
:105020000598ABE62D0000002B00000020000000DA
:105030002DE9F041044600251E461746880404D495
:1050400005E039462020B0476D1C641EF9D528467E
:10505000BDE8F0812DE9F041044600251E4690464A
:10506000C80301D5302700E02027880404D505E0D7
:1050700041463846B0476D1C641EF9D52846BDE848
:10508000F08100002DE9FC5F824600201F46019060
:1050900016468846DB78BA7879783878FCF728F9AC
:1050A00005467878B978000200EB0140397804248D
:1050B00042184FF0010BB8F1510F78D039DCB8F13C
:1050C000310F75D020DCB8F1160F72D00EDCB8F1BC
:1050D000010F6FD0B8F1150F6DD1FE4DF0074FF0F5
:1050E0000401284668D0FCF794FC43E3B8F1200F94
:1050F0007ED0B8F1300FEFD1BAF1060F5BD2DFE806
:105100000AF0FEFDFCFBFAF9B8F1380F71D0B8F1E6
:10511000390F6FD0B8F1400F6DD0B8F1500FDBD11F
:1051200078223046FCF700F9022201AB50210094AE
:10513000F0E2DFF8A493B8F1AC0F7DD03DDCB8F11C
:10514000540F7AD00EDCB8F1520F77D0B8F1530F6C
:10515000C2D1F9783046FEF77FFB022201AB532122
:105160000094D7E2B8F1600F69D0B8F1700FB3D1F5
:10517000FCF764FAB2EE041AC0EE010A10EE905A7F
:1051800000EE905AB8EE600A10EE100AFBF705FA2E
:1051900041EC100BD1A053EC102BFFF7F9FA284685
:1051A000FCF75AFF0122034670210094B2E2BBE2F1
:1051B00040E217E30BE1B6E2DAE2B8F1AD0F7DD0E1
:1051C000B8F1DA0F7BD0B8F1DB0F79D0B8F1DC0F92
:1051D00091D1D9F81400FCF73FFF03460122DC21EE
:1051E00000200094FEF714F9322000F0ADFF03E038
:1051F0004CE388E28FE2F3E3D9F81410BAA0FFF78A
:10520000C7FAD9F81800FCF727FF03460222DC2171
:1052100000200094FEF7FCF8322000F095FFD9F84A
:105220001810B7A0FFF7B4FAD9F80000FCF714FF84
:1052300003220346DC2103E04AE387E27DE2F0E358
:1052400000200094FEF7E4F8322000F07DFFD9F84A
:105250000010B1A0FFF79CFAD9F81C00FCF7FCFE87
:1052600003460122DC2110460094FEF7D1F83220DB
:1052700000F06AFFD9F81C10ADA0FFF789FAD9F841
:105280002000FCF7E9FE03460222DC210120009405
:10529000FEF7BEF8322000F057FFD9F82010AAA080
:1052A000FFF776FAD9F80400FCF7D6FE034603228E
:1052B000DC2101200094FEF7ABF802E0BAE31AE328
:1052C000B0E3322000F040FFD9F80410A4A0FFF7AB
:1052D0005FFAD9F80800FCF7BFFE03460122DC2183
:1052E00002200094FEF794F8322000F02DFFD9F848
:1052F000081005E08EE1DCE0CBE09FE08EE074E09A
:105300009DA0FFF745FAD9F82800FCF7A5FE034653
:105310000222DC2110460094FEF77AF8322000F0D9
:1053200013FFD9F828109AA0FFF732FAD9F82C0009
:10533000FCF792FE03460122DC2104200094FEF7D4
:1053400067F8322000F000FFD9F82C1095A0FFF785
:105350001FFAD9F80C00FCF77FFE03460222DC217D
:1053600004200094FEF754F8322000F0EDFED9F846
:105370000C1094A0FFF70CFAD9F83000FCF76CFE83
:1053800003460122DC2105200094FEF741F832207B
:1053900000F0DAFED9F8301090A0FFF7F9F9D9F84B
:1053A0001000FCF759FE03460222DC210520009480
:1053B000FEF72EF8322000F0C7FED9F810108FA0AB
:1053C000FFF7E6F9012201ABDC21009448E3FCF78A
:1053D00053FA8DF80400FDF705F88DF80500022258
:1053E000012101AB0B2000943BE30120FCF72EFBD5
:1053F00020B9082200210120FCF7D2FE082229460C
:105400000020FCF7CDFE0020FCF716FB0068FCF73F
:1054100023FE0122034630210094ACE208222946F3
:105420000120FCF7BDFE0120FCF706FB0068FCF73D
:1054300013FE0122034630210094B7E20120FCF75D
:1054400005FB20B9082200210120FCF7A9FE042059
:10545000FCF7FCFA20B9082200210420FCF7A0FE8A
:105460000520FCF7F3FA20B9082200210520FCF7FB
:1054700097FE082229460220FCF792FE0220FCF744
:10548000DBFA0068FCF7E8FD0122034630210094B6
:1054900046E2082229460320FCF782FE0320FCF79F
:1054A000CBFA0068FCF7D8FD0122034630210094B6
:1054B00013E1082229460420FCF772FE0420FCF7C1
:1054C000BBFA0068FCF7C8FD0122034630210094B6
:1054D0007EE20000001C0240EC000020CEC2B6C8F4
:1054E000A3BA25660D0A00004D315F4D6F76654900
:1054F0006E5F595F506F73203D2025640D0A0000D8
:105500004D315F436C65616E696E675F506F7320EC
:105510003D2025640D0A00004D315F4F66667365BE
:10552000745F5374657073203D2025640D0A00007C
:105530004D325F4D6F7665496E5F5A5F506F7320D5
:105540003D2025640D0A00004D325F436C65616E9D
:10555000696E675F506F73203D2025640D0A00005F
:105560004D325F4F66667365745F53746570732068
:105570003D2025640D0A00004D335F4F666673655C
:10558000745F5374657073203D2025640D0A00001C
:105590004D335F4469765F506F73203D2025640D65
:1055A0000A0000004D355F4D6F7665546F5F54758E
:1055B000726E7461626C655F506F73203D2025646C
:1055C0000D0A00004D4D355F4F66667365745F537D
:1055D00074657073203D2025640D0A004D365F4DC3
:1055E0006F7665546F5F5475726E7461626C655F3F
:1055F000506F73203D2025640D0A00004D365F4F2B
:1056000066667365745F5374657073203D2025640E
:105610000D0A0000082229460520FCF7C1FD0520DF
:10562000FCF70AFA0068FCF717FD01220346302157
:105630000094E0E1BAF1060F75D2DFE80AF0031634
:105640002045505A0120FCF701FA20B90822002118
:105650000120FCF7A5FD002108220846FCF7A0FD6B
:10566000012201AB3121009485E1082200210120B3
:10567000FCF796FD012201AB3121009496E1012057
:10568000FCF7E4F920B9082200210120FCF788FD8D
:105690000420FCF7DBF920B9082200210420FCF7E4
:1056A0007FFD0520FCF7D2F920B908220021052052
:1056B000FCF776FD082200210220FCF771FD002393
:1056C0000122312100942BE1082200210320FCF764
:1056D00067FD012201AB312100940320C1E10822C2
:1056E00000210420FCF75CFD012201AB3121009474
:1056F0006EE1082200210520FCF752FD012201ABDA
:105700003121009477E1A8B2FBF7F0FE022201AB51
:1057100038210094A4E1A8B2FBF792FE022201AB6B
:10572000392100949CE128E1A9B23046FEF7E4FF5C
:10573000022201AB5121009492E1A9B23046FBF75D
:1057400099F9022201AB5221009489E124202136EB
:10575000B6FBF0F100FB1161D9F828000A224143A1
:105760000220FCF71DFD022201AB5421009477E1D9
:10577000FCF74DF901AB3246152110200094FDF7DE
:1057800047FEB0074FF00801284602D5FCF741F963
:1057900001E0FCF73CF901AB3246152110200094E2
:1057A000FDF736FE70074FF01001284602D5FCF7D2
:1057B00030F901E0FCF72BF901AB3246152110203E
:1057C0000094FDF725FE30074FF02001284602D552
:1057D000FCF71FF901E0FCF71AF901AB324615217D
:1057E00000943DE1AD4DF0074FF01001284602D086
:1057F000FCF70FF901E0FCF70AF901AB324616217C
:1058000010200094FDF704FEB0074FF02001284659
:1058100002D5FCF7FEF801E0FCF7F9F801AB3246DF
:10582000162110200094FDF7F3FD70074FF400716E
:10583000284602D5FCF7EDF801E0FCF7E8F801ABEB
:105840003246162110200094FDF7E2FD30074FF498
:105850008061284602D5FCF7DCF801E0FCF7D7F8B8
:1058600001AB3246162110200094FDF7D1FDF00661
:105870004FF00101284602D5FCF7CBF801E0FCF718
:10588000C6F801AB324616210094E9E04FF40061FE
:10589000834D4F007EB1012E6FD12846FCF7B9F839
:1058A00039462846FCF7B5F88DF804B001AB012263
:1058B00000942021D4E02846FCF7A9F83946284670
:1058C000FCF7A5F88DF804B001AB00220094F0E7D6
:1058D0000025E8B278220321FBF726FDE8B2142167
:1058E000FEF70AFF6D1CADB2242DF2D3012201ABED
:1058F000AC210094B4E05046BAF1040F5ED011DC44
:1059000008B301283AD0BAF1020FC5D1012E4FD009
:10591000022EC1D1C9F8285001AB02220094DA212D
:1059200002209EE005285CD0BAF1200FB4D1012EF0
:1059300069D0022E6DD0032EAED1C9F83C5001AB18
:10594000032200946AE0012E09D0022E0DD0032E0E
:10595000A2D1C9F8005001AB032200940AE0C9F8B3
:10596000145001AB0122009404E0C9F8185001ABB7
:1059700002220094DA21002073E074E0012E09D0A5
:10598000022E0DD0032E6ED1C9F8045001AB0322B4
:1059900000940AE0C9F81C5001AB0122009404E015
:1059A000C9F8205001AB02220094DA21012058E00E
:1059B000C9F8085001AB01220094B0E7012E09D0CC
:1059C000022E50D1C9F80C5001AB02220094DA210A
:1059D000042046E0C9F82C5001AB01220094F6E700
:1059E0004DE0012E09D0022E3DD1C9F8105001AB77
:1059F00002220094DA21052033E0C9F8305001ABCF
:105A000001220094F6E7C9F8345001AB012200945A
:105A100004E0C9F8385001AB02220094DA212020BA
:105A20001FE035E01F48FDF7F3FB012201ABDB214E
:105A3000009415E04FF44001012E16D0022E12D131
:105A400001221948FEF70EFD174D18A02978FEF720
:105A50009FFE28788DF8040001AB02220094AD214E
:105A60001020FDF7D5FCBDE8FC9F01223846FEF76B
:105A700065FD8DF8046001AB01220094EFE70F484B
:105A8000FEF786FE0A2001220C4B40210090E7E73A
:105A90000B4981F800B0FAF719FFE4E7001402405F
:105AA00000000240EC00002024000020C7E5CFB435
:105AB000B8F6CAFD3D25640D0A00000040700008DC
:105AC00064000020FCF7BCFA00F06CF80C480021E0
:105AD0000C4C016100F110054161094900230A22C3
