:020000040800F2
:10000000007D02207902000829370008F92800083D
:10001000FD31000801180008B56900080000000063
:10002000000000000000000000000000C101000806
:10003000652300080000000015020008355C000878
:10004000930200089302000893020008930200083C
:10005000930200089302000893020008930200082C
:10006000930200089302000893020008930200081C
:10007000930200089302000893020008930200080C
:1000800093020008930200089302000893020008FC
:100090000518000893020008930200089302000864
:1000A00093020008930200089302000893020008DC
:1000B000355D0008930200089302000893020008CF
:1000C00093020008930200089302000893020008BC
:1000D00093020008396500089302000893020008A3
:1000E000930200089302000893020008930200089C
:1000F000930200089302000893020008930200088C
:10010000930200089302000893020008930200087B
:100110009302000893020008515D00089302000852
:10012000930200089302000893020008930200085B
:10013000930200089302000893020008930200084B
:10014000930200089302000893020008930200083B
:10015000930200089302000893020008930200082B
:10016000930200089302000893020008930200081B
:10017000930200089302000893020008930200080B
:100180009302000893020008930200082965000802
:1001900093020008930200089302000893020008EB
:1001A000930200089302000893020008DFF80CD0C5
:1001B00000F0FAF80048004729740008007D02208A
:1001C0002A4B19680868B0E8F04F80F30988BFF33C
:1001D0006F8F4FF0000080F311887047000000001F
:1001E00006480068006880F3088862B661B6BFF30D
:1001F0004F8FBFF36F8F00DF00BF00BF08ED00E03F
:10020000DFF80C00016841F470010160704700BF25
:1002100088ED00E0EFF30980BFF36F8F134B1A688E
:100220001EF0100F08BF20ED108A20E9F04F10607B
:1002300008B44FF0100080F31188BFF34F8FBFF365
:100240006F8F07F057FE4FF0000080F3118808BC55
:1002500019680868B0E8F04F1EF0100F08BFB0EC46
:10026000108A80F30988BFF36F8F7047C8000020A1
:10027000EFF30580704700000648804706480047B6
:10028000FEE7FEE7FEE7FEE7FEE7FEE7FEE7FEE746
:10029000FEE7FEE7CD5C0008AD01000840EA01037F
:1002A0009B0703D009E008C9121F08C0042AFAD22C
:1002B00003E011F8013B00F8013B521EF9D27047F0
:1002C000D2B201E000F8012B491EFBD27047002298
:1002D000F6E710B513460A4604461946FFF7F0FF45
:1002E000204610BD30B505462A460B4612F8010BD4
:1002F00013F8014B08B1A042F8D01CB1002802D07D
:100300006D1CF1E7284630BD2DE9F05F0546002061
:1003100092469B4688460646814640241BE0284676
:1003200041464746224600F02FF853465A46C01A27
:10033000914110D311461846224600F016F82D1AA6
:1003400067EB01084F4622460120002100F00DF81E
:1003500017EB00094E41201EA4F10104DFDC4846E2
:1003600031462A464346BDE8F09F202A04DB203A66
:1003700000FA02F1002070479140C2F1200320FAF8
:1003800003F3194390407047202A04DB203A21FAF6
:1003900002F00021704721FA02F3D040C2F120029E
:1003A0009140084319467047064C074D06E0E06847
:1003B00040F0010394E8070098471034AC42F6D3AC
:1003C000FFF7F8FEB8950008D895000870B5022030
:1003D00002F08AF8064600208F49087003F086F87C
:1003E00013E110218D48FFF772FF4FF47F718C48A5
:1003F000FFF76DFF8B48816A0A22032002F012FF8B
:100400008848C16A0A22002002F00CFF8548016A70
:100410000A22042002F006FF642007F02BFC0A22C7
:100420000021042002F0FEFE7E48416A0A220320D9
:1004300002F0F8FEB6F88920B07908B9012000E092
:1004400000200146022004F080FC00247DE0754875
:10045000006B744A126C02FB04010A22002002F0B5
:10046000E1FE4FF4FA7007F005FC01F0C9FE6E4999
:1004700009780A2212FB014101EB0111684A02F8D6
:10048000110001F0BDFE0546674800780A2212FB04
:1004900000412A4665A006F0BFFC322007F0EAFBC7
:1004A000614800780A2111FB004000EB00105C4914
:1004B00011F81000002843D05B4909780A2212FB8A
:1004C0000141C8B2012106F023FC574909780A22EC
:1004D00012FB014101EB0111514A02EB410101F113
:1004E000120010224D49FFF7D9FE10214B48FFF7AB
:1004F000EEFE0020534908704B4800780A2212FB98
:10050000004151A006F088FC002510E04648007824
:100510000A2212FB004000EB0010414A02EB4000AF
:100520001230415D4CA006F077FC681CC5B2102D5E
:10053000ECDB43A006F070FC0021012004F04CFD30
:100540001E2007F097FB601CC4B20A2CFFF67FAF99
:10055000022004F097FC00244FE0334800780A2181
:1005600011FB004000EB00102D4911F81000B0B352
:100570003A48005D012815D02A48806B294A126C40
:1005800002FB04010A22002002F04CFE26490978F1
:100590000A2212FB014101EB0111214A12F811005C
:1005A00005F062FF1F48C06B1E4A126C02FB04017B
:1005B0000A22002002F036FE1B4800780A2111FBB7
:1005C000004000EB0010164911F81000012807D177
:1005D0001448C16C0A22052002F024FE06E00AE05D
:1005E0001048816C0A22052002F01CFE0A2200211C
:1005F000052002F017FE601CC4B20A2CADDB0948CE
:10060000416C0A22002002F00DFE154800780028F7
:100610007FF4E7AE70BD000096000020540C00206F
:10062000880100202801002092000020B5DA25640E
:10063000BAC5CAD4B9DCB8DFB6C8CEAAA3BA256495
:100640000D0A000030000020B5DA2564BAC5CAD40E
:10065000B9DCC2EBA3BA00002563000084050020CA
:10066000980000201FB507F063FA0020234A0523F5
:10067000CDE901200093039003464FF4007220A1BE
:10068000234807F093FF0020224A0623CDE90120EA
:100690000093039003464FF400721FA1224807F015
:1006A00085FF0020214A0423CDE901200093039017
:1006B00003464FF400721EA1214807F077FF002087
:1006C000204A0323CDE901200093039003464FF411
:1006D00000721DA1204807F069FF00201F4A022375
:1006E000CDE901200093039003464FF400721CA152
:1006F0001F4807F05BFF07F045FA1FBD0000002010
:10070000556172745263764D73675F5461736B0009
:10071000816800080400002043616E5263764D73C7
:10072000675F5461736B0000112100080C0000200A
:100730004261636B576F726B315F5461736B000082
:10074000F11500080800002043616E53656E644D8A
:1007500073675F5461736B00612100081000002013
:100760004261636B576F726B325F5461736B000051
:10077000C51700081FB50121102003F051FD1B48CB
:1007800005F014FB01A805F035FC0020ADF80C00C5
:10079000ADF8060040F2E730029042F2CF00ADF82B
:1007A000040001A9114805F0E3FB01210F4805F001
:1007B000DFFA01210D4805F0E7FA012211460B4846
:1007C00005F0CDFB0121094805F0E4FA36208DF84B
:1007D00000000F208DF8010000208DF8020001209C
:1007E0008DF80300684602F0A1FF1FBD0010004015
:1007F0000FB589B0002008900C98C07804900C9830
:10080000807803900C98407802900C9800780190C2
:1008100002A90EC901F0E0FC07900020069001201B
:1008200005900A98602876D00CDC302824D004DCAF
:10083000012810D002286FD160E131286DD0402806
:10084000F9D1FDE3622869D0DA2868D0DB2867D0C7
:10085000DC28F0D130E301F087FD8DF8200002F0B4
:1008600045FE8DF82100042008AB022201210090F2
:100870000B2004F0EFF912E3099809287ED2DFE893
:1008800000F0051C33C15066AB957E000A2204209F
:10089000079902F0C7FC042001F026FE00680690CC
:1008A000069802F027FC04900420009001223021D9
:1008B0000020049B04F0CEF9A5E00A22032007994A
:1008C00002F0B0FC032001F00FFE006806900698CD
:1008D00002F010FC04900420009001223021104608
:1008E000049B04F0B7F98EE00A220020079902F079
:1008F00099FC002001F0F8FD00680690069802F0CF
:10090000F9FB049004200090012230210220049B76
:1009100004F0A0F977E0FCE3FCE376E0FBE357E1C9
:10092000BEE20A220520079902F07CFC052001F0B6
:10093000DBFD00680690069802F0DCFB04900420C2
:10094000009001223021049B04F084F95BE00A222C
:100950000120079902F066FC012001F0C5FD006846
:100960000690069802F0C6FB049004200090012235
:1009700030210520049B04F06DF944E042E00A2296
:100980000620079902F04EFC062001F0ADFD00683C
:100990000690069802F0AEFB04900420009001221D
:1009A00030210820049B04F055F92CE0072007991A
:1009B00005F08EFB072001F097FD00680690069871
:1009C00002F098FB049004200090012230210720BF
:1009D000049B04F03FF916E00820079905F078FB26
:1009E000082001F081FD00680690069802F082FB65
:1009F000049004200090012230210620049B04F082
:100A000029F900E000BF00BF35E70998092872D234
:100A1000DFE800F0051321712F3C64584A000A22D8
:100A20000021042002F0FEFB042008AB012231214A
:100A30000090002004F00EF95EE00A22002103205D
:100A400002F0F0FB042008AB012230210090104698
:100A500004F000F950E00A220021084602F0E2FB0F
:100A6000042008AB012230210090022004F0F2F8AB
:100A700042E00A220021052002F0D4FB042008AB4A
:100A800001223021009004F0E5F835E00A2200212F
:100A9000012002F0C7FB042008AB012230210090A6
:100AA000052004F0D7F827E00A220021062002F0F2
:100AB000B9FB042008AB012230210090082004F08B
:100AC000C9F819E0072005F03DFB042008AB01221E
:100AD00030210090072004F0BDF80DE0082005F05B
:100AE00031FB042008AB012230210090062004F0E5
:100AF000B1F801E0FFE700BF00BFBCE60B9800289B
:100B000053D0FEA006F088F90B98012802D00228E5
:100B10003FD115E0002004900BE0049907980841AC
:100B200000F00101F84A049811540498401CC0B226
:100B3000049004981E28F0DB0120F449087028E096
:100B4000F2480078012803D00120F049087020E025
:100B50000020EE490870049017E0EB490498085C07
:100B600001280ED00498095C049A0798104100F0FF
:100B7000010008B1022000E000200143E24A04988D
:100B800011540498401CC0B2049004981E28E4DB61
:100B900000BF00BFDD48007818B1DDA006F03CF9C9
:100BA00069E6002004F034FA05E0DFA006F034F92D
:100BB000012004F02DFA042008AB02221146009017
:100BC000102004F047F81E21CF48FFF780FB52E6C3
:100BD0000998092874D2DFE800F005254573B2DED4
:100BE000F2F1F0000B98012802D0022818D10BE096
:100BF000D04907980862042008AB0122DA2100904E
:100C0000002004F027F80BE0CA4907988860042008
:100C100008AB0222DA210090002004F01BF800BF8C
:100C200000BF3BE10B98012802D0022818D10BE04D
:100C3000C04907988862042008AB0122DA2100909D
:100C4000002004F007F80BE0BA4907984862042036
:100C500008AB0222DA210090002003F0FBFF00BF66
:100C600000BF1BE10B98092867D2DFE800F066059A
:100C7000111D2A36424E5A00AE490798C862042018
:100C800008AB0122DA210090022003F0E3FF54E0D8
:100C9000A84907980863042008AB0222DA210090D3
:100CA000104603F0D7FF48E0A249079808640420E3
:100CB00008AB0322DA210090022003F0CBFF3CE0D6
:100CC000EBE09C4907984864042008AB0246DA210F
:100CD0000090022003F0BEFF2FE096490798C863FA
:100CE000042008AB0522DA210090022003F0B2FFB5
:100CF00023E0904907980860042008AB0622DA2117
:100D00000090022003F0A6FF17E08A490798486385
:100D1000042008AB0722DA210090022003F09AFF9A
:100D20000BE0844907988863042008AB0822DA2185
:100D30000090022003F08EFF00BF00BFAEE00B98D2
:100D4000012804D002280DD0032822D115E07949CA
:100D500007988864042008AB0122DA21009003F090
:100D600079FF16E073490798C864042008AB022293
:100D7000DA21009003F06EFF0BE06E490798C8601F
:100D8000042008AB0322DA210090022003F062FF66
:100D900000BF00BF82E00B98012802D002281BD1BF
:100DA0000EE0644907980865042008AB0122DA21A7
:100DB0000090052003F04EFF0EE05DE03CE00DE00A
:100DC0005C4907984860042008AB0222DA210090B1
:100DD000052003F03FFF00BF00BF5FE00B98012834
:100DE00004D002280ED0032824D117E051490798D7
:100DF0000861042008AB0122DA210090062003F0EC
:100E000029FF17E04B4907984865042008AB0222E8
:100E1000DA210090062003F01DFF0BE045490798FA
:100E20008865042008AB0322DA210090062003F035
:100E300011FF00BF00BF31E00B98012802D002284B
:100E400018D10BE03B4907984861042008AB012208
:100E5000DA210090072003F0FDFE0BE035490798EA
:100E6000C861042008AB0222DA210090072003F0B9
:100E7000F1FE00BF00BF11E00B9801280BD12D49F6
:100E800007988861042008AB0122DA21009007202E
:100E900003F0E0FE00BF00BF00E000BF00BF94E32E
:100EA000244803F051FC042008AB0122DB21009010
:100EB000102003F0CFFE88E31E48006A039002F082
:100EC00019F90490042000900122DC210020049BE9
:100ED00003F0C0FE322006F0CDFE1648006A01463F
:100EE000049015A005F098FF12488068039002F066
:100EF00001F9049004200090022229E0CEDE6C6902
:100F000073BCECB2E20D0A00840500202E00002024
:100F1000303231303032D6B8C1EEBDD3CADCB2BBCC
:100F2000C8AB0D0A00000000D3D06C6973BCECB2F2
:100F3000E20D0A00280100204D355F5261636B5FAE
:100F4000496E5F506F73203D2025640D0A0000003C
:100F5000DC210020049B03F07DFE322006F08AFE97
:100F6000FE48806801460490FDA005F055FFFB484F
:100F7000806A039002F0BEF80490042000900122E1
:100F8000DC211046049B03F065FE322006F072FE61
:100F9000F248806A01460490F7A005F03DFFEF4853
:100FA000406A039002F0A6F8049004200090022208
:100FB000DC210120049B03F04DFE322006F05AFE96
:100FC000E648406A01460490F0A005F025FFE3489A
:100FD000C06A039002F08EF8049004200090012271
:100FE000DC210220049B03F035FE322006F042FE95
:100FF000DA48C06A01460490EBA005F00DFFD7481F
:10100000006B039002F076F8049004200090022216
:10101000DC211046049B03F01DFE322006F02AFE60
:10102000CE48006B01460490E5A005F0F5FECB48E4
:10103000006C039002F05EF804900420009000E041
:10104000A2E20322DC210220049B03F003FE3220F3
:1010500006F010FEC148006C01460490DFA005F0C8
:10106000DBFEBE48406C039002F044F8049004207C
:1010700000900246DC210220049B03F0EBFD3220AD
:1010800006F0F8FDB548406C01460490D9A005F083
:10109000C3FEB248C06B039002F02CF80490042009
:1010A00000900522DC210220049B03F0D3FD3220B6
:1010B00006F0E0FDA948C06B01460490D3A005F0FE
:1010C000ABFEA6480068039002F014F804900420D8
:1010D00000900622DC210220049B03F0BBFD32209D
:1010E00006F0C8FD9D48006801460490CEA005F0BA
:1010F00093FE9A48406B039001F0FCFF049004209B
:1011000000900722DC210220049B03F0A3FD322083
:1011100002E045E258E249E206F0ACFD8F48406B40
:1011200001460490C6A005F077FE8C48806B0390C2
:1011300001F0E0FF0490042000900822DC2102204E
:10114000049B03F087FD322006F094FD8348806BFA
:1011500001460490C2A005F05FFE8048806C0390B9
:1011600001F0C8FF0490042000900122DC21049BC0
:1011700003F070FD322006F07DFD7848806C01465A
:101180000490BFA005F048FE7448C06C039001F0C5
:10119000B1FF0490042000900222DC21049B03F0A4
:1011A00059FD322006F066FD6C48C06C0146049083
:1011B000B9A005F031FE6948C068039001F09AFFBC
:1011C0000490042000900322DC21049B03F042FDE4
:1011D000322006F04FFD6148C06801460490B4A07B
:1011E00005F01AFE5D48006D039001F083FF049046
:1011F000042000900122DC210520049B03F02AFD3D
:10120000322006F037FD5548006D01460490AEA02F
:1012100005F002FE51484068039001F06BFF049016
:10122000042000900222DC210520049B03F012FD23
:10123000322006F01FFD4948406801460490A8A0EE
:1012400005F0EAFD45480069039001F053FF049062
:10125000042000900122DC210620049B03F0FAFC0C
:10126000322006F007FD3D48006901460490A2A027
:1012700005F0D2FD3948406D039001F03BFF04902A
:10128000042000900222DC210620049B03F0E2FCF3
:10129000322006F0EFFC3148406D014604909CA0DE
:1012A00005F0BAFD2D48806D039001F023FF0490F6
:1012B000042000900322DC210620049B03F0CAFCDA
:1012C000322006F0D7FC2548806D0146049096A098
:1012D00005F0A2FD21484069039001F00BFF049046
:1012E000042000900122DC210720049B03F0B2FCC3
:1012F000322006F0BFFC194840690146049090A0D6
:1013000005F08AFD1548C069039001F0F3FE0490D2
:10131000042000900222DC210720049B03F09AFCA9
:10132000322006F0A7FC0D48C069014604908AA04F
:1013300005F072FD09488069039001F0DBFE04901E
:10134000042000900122DC210820049B03F082FC91
:10135000322006F08FFC0148806907E12801002057
:101360004D355F4F66667365745F537465707320A7
:101370003D2025640D0A00004D345F576F726B5F8E
:10138000506F73203D2025640D0A00004D345F52DC
:1013900061636B5F526F6C6C6261636B5F506F7304
:1013A000203D2025640D0A004D315F5261636B5F63
:1013B000576F726B5F506F73203D2025640D0A00DC
:1013C0004D315F5261636B5F546F5F5363616E5F5A
:1013D000506F73203D2025640D0A00004D315F528F
:1013E00061636B5F4D696E5F506F73203D202564B4
:1013F0000D0A00004D315F5261636B5F456E645FA3
:10140000506F73203D2025640D0A00004D315F525E
:1014100061636B5F546F5F50696563655F506F73A5
:10142000203D2025640D0A004D315F4F66667365CF
:10143000745F5374657073203D2025640D0A0000AD
:101440004D315F5261636B5F546F5F5363616E5FD9
:101450005261636B5F506F73203D2025640D0A005D
:101460004D315F5261636B5F546F5F5368616B69AD
:101470006E675F506F73203D2025640D0A000000E9
:101480004D365F486967685F547562655F506F737A
:10149000203D2025640D0A004D365F4C6F775F5468
:1014A0007562655F506F73203D2025640D0A000052
:1014B0004D365F4F66667365745F53746570732055
:1014C0003D2025640D0A00004D325F5261636B5F61
:1014D0004F75745F506F73203D2025640D0A000026
:1014E0004D325F4F66667365745F53746570732029
:1014F0003D2025640D0A00004D375F4F6666736519
:10150000745F5374657073203D2025640D0A0000DC
:101510004D375F436C616D704C6F775F506F732018
:101520003D2025640D0A00004D375F436C616D70EE
:10153000486967685F506F73203D2025640D0A007D
:101540004D385F4F66667365745F537465707320C2
:101550003D2025640D0A00004D385F4F70656E5FB9
:10156000506F73203D2025640D0A00000146049051
:1015700017A005F051FC042008AB0122DC210090EB
:10158000102003F067FB20E0174805F045FC0A2017
:10159000154B012240210090102003F05BFB14E06A
:1015A000012012490870FEF711FF0EE0012291029E
:1015B00005A805F0D3FA042008AB012262210090AF
:1015C000102003F047FB00E000BF00BF0DB000BDDE
:1015D0004D395F4F66667365745F53746570732031
:1015E0003D2025640D0A0000008F000898000020AF
:1015F00005F0A8FE0B4800210160416011E00023C6
:101600000A2208490848006806F0C2FD30B1054BBF
:10161000DA78997858781B1DFFF7EAF8142006F05D
:1016200029FBECE7140000203C0000202DE9FC47DA
:1016300081460E4617461C4600200190E378A278AA
:101640006178207800F0C8FD8046072E16D004DCB3
:10165000042E07D0062E72D11CE00A2E2AD0612E4D
:10166000F9D123E0012044490870042001AB012294
:1016700001460090102003F0EDFA7AE001203F4986
:101680000870042001AB012207210090102003F014
:10169000E1FA6EE001203A490870042001AB012212
:1016A00006210090102003F0D5FA62E000203549B1
:1016B00008705EE0012F02D0022F33D10FE000202E
:1016C00007E048FA00F101F001012F4A1154411CD2
:1016D000C8B20A28F5DB01202C49087022E02B480B
:1016E0000078012803D00120284908701AE0002062
:1016F0002649087000BF12E02349095C01290CD07B
:101700002149095C48FA00F202F001020AB1022202
:1017100000E0002211431C4A1154411CC8B20A289F
:10172000EADB00BF00BF1948007818B118A005F027
:1017300073FB1EE01CA005F06FFB002507E017E01F
:101740001148415D1CA005F067FB681CC5B20A2D5D
:10175000F6DB1AA005F060FB01201949087004208F
:1017600001AB02220A210090102003F073FA00E07E
:1017700000BF00BFBDE8FC87960000202D000020C0
:101780009700002098000020A20500202E000020D5
:10179000303231303041D6B8C1EEBDD3CADCB2BB35
:1017A000C8AB0D0A00000000BDD3CAD5B5BD6C6939
:1017B00073D0C5CFA23A0000256400000D0A0000D6
:1017C0002F00002005F0CAFD0B4800210160416098
:1017D00011E000230A2208490848006806F0D8FCF6
:1017E00030B1054BDA78997858781B1DFFF71EFF4A
:1017F000142006F03FFAECE71C0000204000002017
:1018000000BFFEE710B588B002211B4800F03CF98C
:1018100000282FD019490868022100F041F803AAD6
:101820000021154800F0DCFA0398012822D1049821
:1018300002281FD09DF8170002281BD110A005F028
:10184000EBFA002407E00DF11700015D11A005F08F
:10185000E3FA601CC4B2082CF5DB10A005F0DCFA3A
:10186000DDE90601CDE900010448001D03A90EC908
:1018700002F078FC08B010BD00640040580E002053
:10188000BDD3CAD5B5BDC8CECEF1C3FCC1EE3A209A
:101890000000000025303258000000000D0A000052
:1018A000B1F5007F3AD00FDC202928D006DC0129D1
:1018B0001CD004291DD0082940D11DE0402921D089
:1018C000B1F5807F3AD126E0B1F5004F31D006DC8A
:1018D000B1F5806F25D0B1F5006F2FD124E0B1F5BF
:1018E000803F12D0B1F5003F28D111E0154A826047
:1018F00025E00822C26022E01022C2601FE0082218
:1019000002611CE01022026119E00822426016E028
:101910001022426013E00422426010E00422426080
:101920000DE0042242600AE000228261042242604B
:1019300005E0002282610422426000E000BF00BF97
:10194000704700000101010010B504460B488442B5
:1019500009D10121480602F073FC00214FF000700C
:1019600002F06EFC08E00121880602F069FC00210B
:101970004FF0806002F064FC10BD00000064004085
:1019800010B50021837A012202FA03F13D4A126860
:1019900042F001023B4B1A603A4A1C3212688A43F9
:1019A000384B1C331A60027BCAB9364A0C321268B3
:1019B0008A43344B0C331A604288C38842EA03439B
:1019C000304A4032847A42F834300288838842EACE
:1019D00003432C4A4032847A02EBC4025360027BF8
:1019E000012A19D1274A0C3212680A43254B0C33BD
:1019F0001A604288038842EA0343224A4032847ACA
:101A000042F83430C288838842EA03431D4A403298
:101A1000847A02EBC4025360C27A3AB9194A121DA1
:101A200012688A43174B1B1D1A6006E0154A121DE7
:101A300012680A43134B1B1D1A60028932B9114AFE
:101A4000143212688A430F4B14331A600289012A38
:101A500006D10C4A143212680A430A4B14331A6036
:101A6000427B012A06D1074A1C3212680A43054B01
:101A70001C331A60034A126822F00102014B1A60FB
:101A800010BD00000066004070B504460D460026FB
:101A900060692840002871D0B5F5807F5CD010DCEB
:101AA000082D35D006DC012D20D0022D24D0042DA8
:101AB00072D127E0102D31D0202D35D0402D6BD1A3
:101AC00038E0B5F5004F60D009DCB5F5007F49D0AE
:101AD000B5F5806F4CD0B5F5006F5DD14FE0B5F531
:101AE000803F2DD0B5F5003F56D12FE0A0682D499D
:101AF00000F07CFB064651E0E068032100F076FB35
:101B000006464BE0E068082100F070FB064645E021
:101B1000E068102100F06AFB06463FE020690321DF
:101B200000F064FB064639E02069082100F05EFB06
:101B3000064633E02069102100F058FB06462DE0F0
:101B40006068082100F052FB064627E0606810211B
:101B500000F04CFB064621E0A069012100F046FBA5
:101B600006461BE0A069022100F040FB064615E096
:101B7000A069042100F03AFB06460FE00FE0A069DF
:101B8000702100F033FB064608E06068042100F095
:101B90002DFB064602E0FFE7002600BF00E000261E
:101BA000304670BD010101001AB143690B43436126
:101BB00002E043698B434361704730B50246002021
:101BC0000023146824F002041460146844F0010433
:101BD000146000E05B1C546804F001041CB94FF66B
:101BE000FF74A342F6D1546804F001040CB900203C
:101BF0006CE08C79012C04D1146844F080041460EA
:101C000003E0146824F080041460CC79012C04D122
:101C1000146844F04004146003E0146824F04004A5
:101C200014600C7A012C04D1146844F02004146070
:101C300003E0146824F0200414604C7A012C04D1D1
:101C4000146844F01004146003E0146824F01004D5
:101C500014608C7A012C04D1146844F008041460D8
:101C600003E0146824F008041460CC7A012C04D139
:101C7000146844F00404146003E0146824F00404BD
:101C800014608C78A407CD7844EA05640D7944EAA1
:101C900005444D7944EA05540D886D1E2C43D461EA
:101CA000146824F001041460002300E05B1C5468F5
:101CB00004F001041CB14FF6FF74A342F6D154683E
:101CC00004F001040CB1002000E0012030BD000050
:101CD00000B58BB00121082002F092FA0922002100
:101CE0003D4800F0B1FB092201213B4800F0ACFB6C
:101CF0000120099002208DF828008DF8290000208D
:101D00008DF82A0001208DF82B0009A9324800F037
:101D100053FB0220099009A92F4800F04DFB012137
:101D2000480602F07DFA2D48FFF70EFE01208DF8DF
:101D30001F008DF820008DF8210000208DF8220072
:101D40008DF81E008DF823008DF81A0002208DF802
:101D50001B000B208DF81C0007208DF81D001020A3
:101D6000ADF8180006A91D48FFF727FF00208DF8E1
:101D700012008DF8130001208DF814000020ADF83A
:101D80000800ADF80A00ADF80C00ADF80E00ADF893
:101D9000100001208DF8150002A8FFF7F1FD1420B6
:101DA0008DF8040001208DF8050000208DF8060054
:101DB00001208DF8070001A801F0B8FC01220221E2
:101DC0000648FFF7F1FE002201210448FFF7ECFE70
:101DD00000F076F90BB000BD000C0240006400403A
:101DE00010B500F5D87303EB01131B6803F004036F
:101DF0001372137A53B900F5D87303EB01131B6800
:101E000040F2FF7404EA5353136009E000F5D873FD
:101E100003EB01131B686FF0604404EAD3035360C3
:101E200000F5D87303EB01131B6803F00203537230
:101E300000F5D87303EB01135B6803F00F03937293
:101E400000F5D87303EB01135B681B0AD37400F52C
:101E5000D87303EB01139B68D37200F5D87303EBBF
:101E600001139B681C0A147300F5D87303EB01136C
:101E70009B681C0C547300F5D87303EB01139B682B
:101E80001B0E937300F5D87303EB0113DB68D37358
:101E900000F5D87303EB0113DB681C0A147400F51A
:101EA000D87303EB0113DB681C0C547400F5D87372
:101EB00003EB0113DB681B0E937421B9C36843F075
:101EC0002003C36003E0036943F02003036110BDF6
:101ED00010B502460020936803F08063B3F1806F71
:101EE00000D110E0936803F00063B3F1006F01D1FB
:101EF000012008E0936803F08053B3F1805F01D1C3
:101F0000022000E00420042874D002F5C07303EB23
:101F100000131B6803F0010402F5C07303EB001308
:101F20001C600B7A7BB94B7A0C8843EA445302F568
:101F3000C07404EB00142468234302F5C07404EB5E
:101F40000014236010E00B7A4C6843EAC4034C7A17
:101F5000234302F5C07404EB00142468234302F504
:101F6000C07404EB001423608B7A03F00F038B72B0
:101F700002F5C07303EB00135B6823F00F0402F556
:101F8000C07303EB00135C6002F5C07303EB001336
:101F90005B688C7A234302F5C07404EB0014636021
:101FA0008B7B1C064B7B44EA03440B7B44EA0323F4
:101FB000CC7A234302F5C07404EB0014A3608B7C3D
:101FC0001C064B7C44EA03440B7C44EA0323CC7B91
:101FD000234302F5C07404EB0014E36002F5C07300
:101FE00003EB00131B6843F0010402F5C07303EB1D
:101FF00000131C6010BD000010B50246002321B183
:10200000012907D002290FD109E090681D4C00EA90
:1020100004030BE090681C4C00EA040306E090689F
:102020001A4C00EA040301E0002300BF00BF184C73
:10203000181BA34216D007DC83B16FF080601844F0
:1020400070B1022818D111E0B0F5007F10D0114C0A
:10205000204448B1B0F5003F0ED10BE002230DE063
:1020600000230BE0002309E0002307E0012305E043
:10207000012303E0012301E0002300BF00BFD8B229
:1020800010BD00000300000400030008000003105E
:10209000000100080001FFF710B50446E07A074987
:1020A0000870207B4870607B8870A07BC870D4F873
:1020B0000F004860084603F031FC10BD6C000020A2
:1020C00010B50D480D49086001150C4881600C4998
:1020D000C1600C480949086314220B4907481030B5
:1020E000FEF7DCF809490548C1624FF4805141858B
:1020F000243000F0EDFE10BD00640040580E0020BA
:10210000B40E002099200008A00E0020B45E00202C
:1021100004E002F061F9142005F0ACFDF9E70000DD
:1021200070B505460E4600240DE0084802F05DF843
:1021300020B9295D054802F03AF802E004A004F055
:102140006BFE601CC4B2B442EFDB70BD7C0E00209D
:1021500043616EB7A2CBCDB6D3C1D0C2FA0D0A008F
:1021600086B00026002531E0194800F0DCF900288F
:1021700029DD02200190029000208DF80C008DF8DE
:102180000D0008208DF80E00002407E0104801F033
:10219000B6FB0DF10F010855601CC4B2082CF5DB2D
:1021A0000B492439086801A9FFF792FE064601E0B1
:1021B000681C85B231460748FFF71EFF18B940F684
:1021C000FF708542F4DB052005F054FDCCE70000EC
:1021D0007C0E00200064004030B50446002004EB73
:1021E000012505EB024505EB036030BD02460020EA
:1021F00002EA01030BB1012000E00020704700005B
:1022000010B51021104800F042F948B9642005F0DB
:1022100037FC10210C4800F03AF990B9022010BDAB
:102220000821094800F033F948B9642005F028FC7A
:102230000821054800F02BF918B90120EFE700202C
:10224000EDE700BFEBE700000018024030B50246A2
:102250000020002305E012F8015B2C18E0B25C1CA2
:10226000E3B28B42F7DB30BD7FB505460C4602205A
:102270008DF8000050208DF8010054208DF80200E8
:1022800030208DF8030033208DF8040032208DF8C3
:10229000050030208DF8060033208DF8070034202B
:1022A0008DF8080030208DF80900012C03D1312071
:1022B0008DF80A0002E030208DF80A000D208DF81C
:1022C0000B000A208DF80C0000F00CFF0D2269466F
:1022D000284604F021FB134AA2F5FA71284602F0C1
:1022E0006FFA1148B0F8F401062815D10E48B0F87D
:1022F000F401801E0C49085C0D280DD10846B0F889
:10230000F401401E085C0A2806D1214607A004F00B
:1023100083FD012004B070BD21460BA004F07CFDBC
:102320000020F7E70478002010760020C9A8C2EB4F
:10233000C6F7B3D6D0F8BCA4BBEE73746174653D28
:1023400025642C4F4B0D0A00C9A8C2EBC6F7B3D6C3
:10235000D0F8BCA4BBEE73746174653D25642C4E4B
:10236000470D0A007047000010B5002404F024FB5C
:102370000446012002F044F804EB4000C4B22146B8
:1023800002A004F049FD204610BD000053616D70AD
:102390006C655F4C6F64696E675F417373656D62F6
:1023A0006C7920446574656374526573756C742030
:1023B0003D2025640D0A0000F0B50A4600210023E7
:1023C000002400BF3DE0012505FA01F3156805EA88
:1023D00003049C4234D105684F000326BE40B54338
:1023E000056015794E00B5400668354305601579DE
:1023F000012D02D01579022D16D185684F000326D4
:10240000BE40B543856055794E00B540866835437A
:102410008560456801268E40B543456045689679DC
:102420008E40B6B235434560C5684F000326BE40B6
:10243000B543C560D5794E00B540C6683543C56023
:10244000491C1029BFD3F0BDF0B5002300244D076F
:10245000ED0E02FA05F3CE1000F1200555F82650D6
:102460004E07F70E0F26BE40B543CF1000F12006F1
:1024700046F82750CE1000F1200555F8265045EAC1
:102480000304CE1000F1200545F82640F0BD0246B9
:10249000002013690B400BB1012000E000207047C1
:1024A00041837047018370470146C81F00EB40021B
:1024B000C2EB4010014A02EBC0007047407400209C
:1024C00070B50446C4EBC40000EB8000054901EB85
:1024D00080054022525B91B2E86BFFF7D8FF0646B9
:1024E000304670BD546F00200146C1EBC10000EBC7
:1024F0008000024A02EB800070470000546F002009
:1025000010B504460021204600F026F848B16420AA
:1025100005F0B6FA0021204600F01EF808B10120AF
:1025200010BD0020FCE7014600220879012801D1F6
:10253000C888704748880B88984204DB48880B8815
:10254000C01A82B205E0C8880B88C01A4B881844AC
:1025500082B21046EDE700002DE9F04105460C4639
:10256000072D21DAC5EBC50000EB80001F4901EB08
:10257000800604EB440306F10C0202EB830292880E
:1025800091B204EB440306F10C0252F82300FFF76A
:102590007EFF074606F10800005DB84202D1012027
:1025A000BDE8F0810020FBE7E81F00EB4001C1EB34
:1025B00040100F4901EBC00604EB440306F10C0286
:1025C00002EB8302928891B204EB440306F10C0201
:1025D00052F82300FFF75BFF074606F10800005D95
:1025E000B84201D10120DBE70020D9E7546F002079
:1025F0004074002001460020054B8A6B9A4201D1AD
:10260000252004E0034B8A6B9A4200D15320704787
:1026100000100140007C004010B5044603F0FCFAB5
:1026200000F064FF092C0FD2DFE804F0050607086C
:10263000090A0B0C0D0008E007E006E005E004E0E5
:1026400003E002E001E000E000BF00BF10BD0000B9
:102650002DE9F0410546884605F12C00FFF763FFA0
:102660000446002C7DD04FF480619248FDF72FFE88
:10267000A88D0119688E814207DCAA8D686B8118CC
:1026800022468C48FDF70AFE11E0688EA98D401A9B
:1026900086B2AA8D686B811832468648FDF7FEFD2A
:1026A000A21B844B9819696BFDF7F8FD00BF8249A6
:1026B000A86B88425FD100264CE07E48805DAA2846
:1026C00046D17C4906F10900085CA52840D1B01C20
:1026D000085C7A4948707749F01C085C7749887033
:1026E0007449301D085C7549C8707249701D085CDA
:1026F000724908716F49B01D095C704841716D499C
:10270000F01D095C6D4881716A4906F10800095C99
:102710006A48C171807861280BD0684880780428A5
:1027200007D066488078062803D064488078072858
:1027300007D100230A2261496148006805F034FE90
:1027400006E000230A225D495E48006805F02CFE81
:10275000701C86B2A642B0DB564801F0F1F80026A4
:1027600006E0A5E005F12C0001F0C9F8701C86B266
:10277000A642F7DB90E05449A86B8842FAD10026C4
:1027800087E05248007801283AD14A48805D022803
:102790007DD1A01E4749085C0D2878D1601E085CD9
:1027A0000A2874D1142C72DA082C70DD002719E085
:1027B000012047490870701C38443E49085C45496F
:1027C000C855E01E801B4449087001204349087029
:1027D0004048C15D42A004F01FFB00203B49087047
:1027E000781C87B2E01EB842E2DC3EA004F014FB85
:1027F0000A2005F03FFA05F12C0000F069FB46E0E5
:102800002C48805D022842D12A49701C085C4C2863
:102810003DD0B01C085C4C2839D0A01E085C0D28A7
:1028200035D1601E085C0A2831D1142C2FDA082C0F
:102830002DDD00271EE0701C38441E49085C4C2822
:1028400000D115E0012022490870701C3844194954
:10285000085C2049C855E01E801B1F4908700120F4
:102860001E4908701B48C15D1DA004F0D5FA00BFC9
:10287000781C87B2E01EB842DDDC1AA004F0CCFA66
:102880000A2005F0F7F905F12C0000F021FB701C7F
:1028900086B2A642FFF675AF688EA04208D105F158
:1028A0002C0000F015FB10A004F0B6FABDE8F08192
:1028B00000BFFBE754080020001001403400002056
:1028C000400000203C000020007C00409A000020D6
:1028D00095000020540C00203000002099000020BA
:1028E000256300000D0A0000B4AEBFDABDD3CAD51F
:1028F000B6D3C1D0C2FA000000BFFEE71CB501216B
:1029000040F2B31001F07CFC01208DF805008DF839
:10291000040000208DF8060001208DF807004020FB
:10292000009069463148FFF747FD02200090694654
:102930002F48FFF741FD4FF40040009069462D48B5
:10294000FFF73AFD4FF40070009069462A48FFF700
:1029500033FD4FF40060009069462548FFF72CFDD9
:102960004FF48060009069462448FFF725FD4FF43E
:102970000070009069461F48FFF71EFD4FF400608D
:10298000009069461E48FFF717FD20200090694619
:102990001948FFF711FD40211448FFF783FD02217C
:1029A0001348FFF77FFD4FF400411248FFF77AFD0F
:1029B0004FF400711048FFF775FD4FF400610C48AB
:1029C000FFF770FD4FF480610C48FFF76BFD4FF48B
:1029D00000710848FFF766FD4FF400610848FFF7F3
:1029E00061FD20210448FFF75DFD1CBD0000024091
:1029F000000402400014024000100240001C02408B
:102A0000002002401CB5012140F2FF1001F0F8FB4C
:102A100000208DF8050001208DF8040000208DF8BD
:102A2000060001208DF807001020009069461F481D
:102A3000FFF7C2FC0120009069461C48FFF7BCFC70
:102A40000220009069461948FFF7B6FC4FF48060F9
:102A5000009069461648FFF7AFFC40200090694699
:102A60001448FFF7A9FC4FF48070009069461048A5
:102A7000FFF7A2FC10210D48FFF712FD01210B48C2
:102A8000FFF70EFD02210948FFF70AFD4FF48061B0
:102A90000748FFF705FD40210648FFF701FD4FF409
:102AA00080710348FFF7FCFC1CBD000000140240CD
:102AB000002002400010024070B5012140F2FF10DA
:102AC00001F09EFB4FF47571F548FDF700FC002006
:102AD00009E00121C0EBC00202EB8202F04B03EBE4
:102AE0008202D171401C0728F3D3002434E1C4EBE7
:102AF000C40000EB8000EA4901EB800004EB4401D4
:102B0000E84A02EB81030ECB30300EC0C4EBC400A8
:102B100000EB8000E24901EB800104EB4400E24A53
:102B200002EB80030DCB3C310DC1C4EBC40000EBC4
:102B30008000DB4901EB800004EB4401DB4A02EB3F
:102B400081030ECB54300EC02B226243D84BD118D8
:102B5000C4EBC40202EB8202D14B03EB820202F10E
:102B600060002B22FDF79AFBD248005DC4EBC40144
:102B700001EB8101CA4A02EB81014871CE4850F84D
:102B80002400C4EBC40101EB810142F82100CB48D1
:102B9000005DC4EBC40101EB810102EB810188718E
:102BA00000253EE0C4EBC40000EB8000BC4901EB13
:102BB00080000C3005EB450100EB810004EB440183
:102BC000BF4A02EB8102D2E900319268C0E90031CC
:102BD0008260BC48015DC4EBC40000EB8000B04AD9
:102BE00002EB800008304155C4EBC40202EB8202C4
:102BF000AB4B03EB82020C3205EB450302EB830285
:102C0000111DC4EBC40202EB8202A54B03EB82024E
:102C10000C3205EB450352F82300FFF7CDFB681C8F
:102C2000C5B2C4EBC40000EB80009D4901EB8000FD
:102C3000C079A842B6DCC4EBC40202EB82020B46A8
:102C400003EB820202F13401C4EBC40202EB820204
:102C500003EB8202106BFFF7AFFBC4EBC40202EB85
:102C600082028F4B03EB820202F14001C4EBC402EB
:102C700002EB820203EB8202D06BFFF79DFBC4EBF9
:102C8000C40202EB8202864B03EB820202F158017E
:102C9000C4EBC40202EB820203EB8202506DFFF729
:102CA0008BFBC4EBC40202EB82027D4B03EB82027E
:102CB000B2F8582091B2C4EBC40202EB820203EBDB
:102CC0008202506DFFF7ECFB322004F0D3FFC4EB1F
:102CD000C40202EB8202724B03EB8202B2F858206C
:102CE00091B2C4EBC40202EB820203EB8202506D8C
:102CF000FFF7D8FBC4EBC40202EB8202684B03EB84
:102D00008202928E91B2C4EBC40202EB820203EB08
:102D10008202106BFFF7C6FB322004F0ABFFC4EB5E
:102D2000C40202EB82025E4B03EB8202928E91B2EE
:102D3000C4EBC40202EB820203EB8202106BFFF7CA
:102D4000AFFBC4EBC40202EB8202554B03EB8201E2
:102D5000E0B201F0D1FD641C072CFFF4C8AE4FF4C3
:102D6000E8715948FDF7B3FA002009E0012100EBB2
:102D70004002C2EB4012544B03EBC202D171401C23
:102D80000228F3D3002487E04A49E01D085CC4EB25
:102D9000C40101EB8101424A02EB810148714649BD
:102DA000E01D51F82000C4EBC40101EB810142F8A1
:102DB00021004249E01D085C04EB4401C1EB4411D1
:102DC000414A02EBC101887104EB440202EBC402E8
:102DD0003E4B03EB021104EB4402C2EB44123A4BAC
:102DE00003EBC20202F13000B022FDF757FA04EB08
:102DF0004402C2EB4412344B03EBC201E21DD0B2D9
:102E000001F01FFE00253CE004EB4400C0EB441041
:102E10002D4901EBC0000C3005EB450100EB8101B1
:102E2000E01D00EB4000264A02EB80030DCB0DC1F4
:102E30002449E01D095C04EB4400C0EB4410224A25
:102E400002EBC0000830415504EB4402C2EB4412CF
:102E50001D4B03EBC2020C3205EB450302EB830270
:102E6000111D04EB4402C2EB4412174B03EBC202E8
:102E70000C3205EB450352F82300FFF79DFA681C5E
:102E8000C5B204EB4400C0EB44100F4901EBC00095
:102E9000C079A842B8DC641C022CFFF475AF70BD89
:102EA000546F0020208B0008748B0008CC8A000827
:102EB000348C0008C18E0008DC8E0008CA8E000821
:102EC000C88B0008D38E000840740020618D000874
:102ED00010B504460020208060802071E188A06841
:102EE000FDF7F5F910BD000010B54FF47F710248F1
:102EF000FDF7EDF910BD0000880100201CB501218F
:102F0000412001F07DF900208DF804008DF80700C4
:102F10004FF48060009069460748FFF74DFA08209B
:102F2000009069460548FFF747FA1020009069466F
:102F30000248FFF741FA1CBD0000024000180240A1
:102F40004AF2F870204908624FF4FA70886040F63F
:102F5000B830886242F6F82048624FF42F7008605B
:102F60004FF4FA70C86244F62060086346F2A2206B
:102F7000486349F6783088631448C86342F6041001
:102F800008644FF47A3048644FF49670C86042F693
:102F9000F820886445F6CC30C8644FF4FA70486075
:102FA00045F2082008651420086142F2D87048658F
:102FB00042F2341088654FF4967048614FF42F70D8
:102FC000C861DC208861704728010020946F0100EF
:102FD000F8B5044600252046FFF70CFB8DF80000ED
:102FE00002208DF8010000208DF8020001208DF8EC
:102FF0000300684600F09AFB3749A06B884203D073
:103000003649A06B884204D10121E06B01F028F918
:1030100003E00121E06B01F003F92268216941EA34
:103020000200012101F0ECF82B49A06B884201D18C
:10303000072504E02A49A06B884200D10825218990
:1030400088B200F02FFC06462A4631466068FFF73A
:10305000FBF9218B88B200F025FC06462A46314652
:103060006069FFF7F1F90021A06B03F085FA04F124
:1030700008016068FFF7A0F904F118016069FFF723
:103080009BF904F14001A06B03F0DEFA012240F24B
:103090002551A06B03F0B3FA002240F22771A06B18
:1030A00003F0ADFA4021A06B03F04EFA0121A06BB2
:1030B00003F062FA4021A06B03F046FA04F12C0001
:1030C000FFF706FF04F12000FFF702FF012004F0E4
:1030D000F5FF2065F8BD000000100140001401401C
:1030E000007C004010B50248FFF7F2FE10BD000062
:1030F0002C0600200146064800220260024611709C
:10310000080A5070080C9070080ED0701046704776
:103110002400002010B54FF480610848FFF7B7F98C
:1031200050B9642004F0ACFC4FF480610348FFF711
:10313000AEF908B9012010BD0020FCE700000240F4
:1031400010B520210748FFF7A2F948B9642004F020
:1031500097FC20210348FFF79AF908B9012010BD18
:103160000020FCE70008024070B5002560212048DF
:10317000FDF7ADF860224FF480111D4803F080FC8C
:103180005C211B48FFF762F805461948C06DA8424C
:103190002DD060224FF40001154803F071FC5C2132
:1031A0001348FFF753F805461148C06DA8421ED0DA
:1031B000FFF7C6FE4FF4801404E0200B03F01CFC64
:1031C00004F580540B488442F7D34FF4000408E020
:1031D0002646E11704EB1151081303F00DFC04F52A
:1031E000805405488442F3DB014801F0ADFA70BD1C
:1031F00028010020001010000010800000BFFEE732
:1032000010B5012004F05AFF0549086001F004FAE6
:10321000FFF774FBFFF750FCFFF7F4FB10BD000055
:103220007C0000202DE9F04106460D461746304649
:10323000FFF75AF904464FF00008206850B94DB91D
:103240003946304600F0ACF810B90020BDE8F081F6
:103250000120FBE73946304600F0C6F92068A84255
:1032600017DA2068A5EB0008A07908B9012000E072
:10327000002001464246304601F056FD39463046B0
:1032800003F0ADFD00287CD1304601F0FBFD0020AD
:10329000DCE72068A8427ADD2068A0EB0508A17968
:1032A0004246304601F040FD02E0052004F0E2FC19
:1032B0003046FFF725F940B93046FFF701F920B94C
:1032C000304600F089F90028EFD0304601F0DAFDF1
:1032D000002D5CD1B4F88920A179304601F035FD8C
:1032E00002E0052004F0C6FC3046FFF709F920B9DA
:1032F000304600F071F90028F3D0304601F0C2FDED
:103300005EB926480268A179304601F00DFD6420BF
:1033100004F0B0FC304601F0B5FD012E0BD11F4882
:103320004268A179304601F0FFFC642004F0A2FC61
:10333000304601F0A7FD052E0BD11848C268A179CF
:10334000304601F0F1FC642004F094FC304601F0BA
:1033500099FD042E0BD111488268A179304601F005
:10336000E3FC642004F086FC304601F08BFD062E61
:103370000DD10A488269A179304601F0D5FC64205C
:1033800000E004E004F076FC304601F07BFD2560AF
:10339000304600F03DF9012058E7000028010020E8
:1033A0002DE9F0410546884600262846FFF79CF89F
:1033B00004464146284600F017F94146284603F0E6
:1033C0000EFD10B90020BDE8F08100273CE01EE0B2
:1033D000022E01DD0020F6E7424830F81520A079E2
:1033E00008B9012000E000200146284601F09CFCBD
:1033F000642004F03FFC4146284603F0F0FC20B96D
:10340000284601F03FFD0020DDE7701CC6B22846CB
:10341000FFF776F80028DBD1B4F88920A179284697
:1034200001F093FC02E0052004F024FC2846FFF79D
:1034300067F820B9284600F0CFF80028F3D02846D6
:1034400001F020FD781CC7B2022FC0DB284600F037
:10345000DFF85DB924480268A179284601F064FCD0
:10346000642004F007FC284601F00CFD012D0BD16F
:103470001D484268A179284601F056FC642004F0FA
:10348000F9FB284601F0FEFC042D0BD1164882689A
:10349000A179284601F048FC642004F0EBFB2846A3
:1034A00001F0F0FC052D0BD10F48C268A179284628
:1034B00001F03AFC642004F0DDFB284601F0E2FC58
:1034C000062D0BD108488269A179284601F02CFC11
:1034D000642004F0CFFB284601F0D4FC00202060DB
:1034E000012070E7800000202801002010B5002492
:1034F0000A2200210320FFF795FE08B944F00204D8
:103500003348816A0A220320FFF78CFE0A22002139
:103510000520FFF787FE08B944F0080400210720C2
:1035200002F0D6FD08B944F040040A22002106202A
:10353000FFF778FE08B944F080040021082002F06B
:10354000C7FD08B944F0200401229102214803F08C
:1035500097FA20480078012815D100201D490870ED
:10356000012291021B4803F0F9FA1948816D0820E5
:1035700002F0AEFD1648C169072002F0A9FD002146
:10358000082002F0A5FD1248C169072002F0A0FD45
:103590000A2200210120FFF745FE08B944F010047B
:1035A0000A2200210420FFF73DFE08B944F001047F
:1035B0000F2200210846FFF735FE08B944F0040445
:1035C0000348C16A0A220020FFF72CFE204610BDE6
:1035D000280100209B0000200146024800EBC100AA
:1035E000C078704706780020084A02EBC00251708C
:1035F0000122064B03F83020002203EBC0039A702F
:10360000024B03EBC003DA7070470000067800201D
:103610000021034A02F8301002EBC002917070479B
:103620000678002010B502F0E8FE48210848FCF7B3
:103630004EFE08480649486001460548C1604161A0
:10364000C1614162C1624163C163416410BD000058
:10365000067800201926000810B5002400BF25E0D8
:10366000144810F8340000B3124800EBC40040784E
:10367000002809DD0F4800EBC4004078401E0D49CA
:1036800001EBC401487010E001200A4901EBC401BC
:1036900088700020074901F83400012001EBC401C3
:1036A000C870611C04A003F0B7FB641C092CD7DBB5
:1036B00010BD000006780020B5E7BBFA2564B6A867
:1036C000CAB1C6F7B3ACCAB10D0A000010B50024E8
:1036D00010E00A4800EBC400807850B10020074990
:1036E00001EBC4018870E0B2044A02EBC4025168E5
:1036F0008847641C092CECDB10BD00000678002014
:1037000010B500240BE0C4EBC40101EB4101054AF4
:1037100002EB81002146FEF79BFF601CC4B2022C25
:10372000F1DB10BDAC0500207047000070B5002132
:1037300000230F22C4781CB3174C246804F4E064FF
:10374000C4F5E064C4F30721C1F10404E3B20A4103
:1037500044789C40E1B28478144021430C07210E48
:103760000E4C05786155047804F01F050124AC4027
:1037700005786D11AD0005F1E025C5F8004109E0BF
:10378000047804F01F050124AC40054D067876113D
:1037900045F8264070BD00000CED00E000E400E0BC
:1037A00080E100E002490143024A116070470000D5
:1037B0000000FA050CED00E07FB505460C4602203E
:1037C0008DF8000050208DF8010054208DF8020083
:1037D00030208DF803008DF8040032208DF80500AC
:1037E00030208DF8060038208DF8070036208DF83F
:1037F0000800012C03D141208DF8090002E032209D
:103800008DF8090030208DF80A000D208DF80B008E
:103810000A208DF80C00FFF765FC0D22694628464A
:1038200003F07AF81048B0F8F401062815D10E48D4
:10383000B0F8F401801E0C49085C0D280DD1084633
:10384000B0F8F401401E085C0A2806D1214607A002
:1038500003F0E2FA012004B070BD21460AA003F093
:10386000DBFA0020F7E7000010760020D6BBCAE4A0
:10387000B3F6B2BBCDACCCF5C2EB73746174653DED
:1038800025642C4F4B0D0A00D6BBCAE4B3F6B2BB7D
:10389000CDACCCF5C2EB73746174653D25642C4EE0
:1038A000470D0A000246002100BF07E001208840C2
:1038B000104008B1C8B27047481C81B21029F5DB2E
:1038C0000020F8E770B504460D46607821788842FC
:1038D00001D1002070BD227802EB8202A06800EBCB
:1038E000820114222846FCF7D9FC2078401C61682C
:1038F00090FBF1F201FB120020700120EAE710B505
:10390000014600204A880B889A4201D10A79AAB15F
:103910000B888A68D05C0B888A681A44002313706D
:103920000A88521CCB8892FBF3F403FB14220A8012
:103930004A880B889A4201D100220A7110BD00000A
:1039400010B5044655A12046FCF7CCFC002866D0F3
:1039500054A003F061FA62A003F05EFA51A003F0F4
:103960005BFA6EA003F058FA75A003F055FA80A038
:1039700003F052FA8B4803F04FFA8B4803F04CFAED
:103980008A4803F049FA8A4803F046FA894803F066
:1039900043FA894803F040FA884803F03DFA88A0CA
:1039A00003F03AFA95A003F037FAA0A003F034FA36
:1039B000AAA003F031FAB5A003F02EFABF4803F035
:1039C0002BFABF4803F028FABE4803F025FABE4898
:1039D00003F022FABD4803F01FFABD4803F01CFAB9
:1039E000BC4803F019FABC4803F016FABB4803F0D0
:1039F00013FABBA003F010FAC7A003F00DFAD3A08E
:103A000003F00AFADFA003F007FAEBA003F004FAD0
:103A1000F5A003F001FA23A003F0FEF97DE3FEA177
:103A20002046FCF75FFCC8B101210846FEF71CFCEC
:103A30000FE0FC48406BA0F52F710A220020FFF731
:103A4000F1FBF848406B00F52F710A220020FFF7C8
:103A5000E9FBF54800780028EBD05EE3F3A12046AF
:103A6000FCF740FC20B100210120FEF7FDFB54E3F0
:103A7000F1A12046FCF736FC70B1EA48C16A0A227F
:103A80000020FFF7CFFBE748016A0A220420FFF776
:103A9000C9FB0A220021D1E1DFE100006C697374E7
:103AA000000000002A2A2A2A2A2A2A2A2A2A2A2A1E
:103AB0002A2A2A2A2A2A2A2A2A2A2A2A2A2A2A2A66
:103AC0002A2A2A2A2A2A2A2A2A2A2A2A2A2A2A2A56
:103AD0002A2A2A2A2A2A2A2A2A2A2A2A0D0A0000D7
:103AE0002A2A2A2A2A2A202020202020202020209A
:103AF0002020202020B5F7CAD4B2CBB5A5202020A5
:103B000020202020202020202020202020202020B5
:103B1000202A2A2A2A2A2A0D0A000000C7EBD1A14E
:103B2000D4F1CAE4C8EBC3FCC1EEA3A8CAAEC1F984
:103B3000BDF8D6C6B7A2CBCDA3A90D0A00000000E0
:103B4000C3FCC1EEA3BA4141303230423031303093
:103B500030303030303030304135A3ACB6AFD7F7ED
:103B6000A3BABFAABBFAB3F5CABCBBAF0D0A00002B
:103B7000C3FCC1EEA3BA4141303231303032303073
:103B800030303030303030304135A3ACB6AFD7F7BD
:103B9000A3BAC5FAC1BFBFAACABCBCECB2E20D0A47
:103BA000000000000C8F0008708F0008D08F000804
:103BB000F49000083C90000850910008989000088C
:103BC000C3FCC1EEA3BA4141303230303331303022
:103BD00030303030303030304135A3ACB6AFD7F76D
:103BE000A3BAD1F9B1BEBCDCC8EBB9ECB5E7BBFAFE
:103BF000284D543529B8B4CEBB0D0A00C3FCC1EE24
:103C0000A3BA41413032303133313030303030308E
:103C1000303030304135A3ACB6AFD7F7A3BAB5E7F3
:103C2000BBFA34B8B4CEBB0D0A000000C3FCC1EE31
:103C3000A3BA41413032303233313030303030305D
:103C4000303030304135A3ACB6AFD7F7A3BAB5E7C3
:103C5000BBFA31B8B4CEBB0D0A000000C3FCC1EE04
:103C6000A3BA41413032303433313030303030302B
:103C7000303030304135A3ACB6AFD7F7A3BAB5E793
:103C8000BBFA36B8B4CEBB0D0A000000C3FCC1EECF
:103C9000A3BA4141303230353331303030303030FA
:103CA000303030304135A3ACB6AFD7F7A3BAB5E763
:103CB000BBFA32B8B4CEBB0D0A0000004C95000828
:103CC000649400088093000894920008F49300081C
:103CD0000893000820920008AC910008DC940008CA
:103CE000C3FCC1EEA3BA41413032313044423030DE
:103CF00030303030303030304135A3ACB6AFD7F74C
:103D0000A3BAB1A3B4E6C9E8D6C3B5C4CFB5CDB3A1
:103D1000B2CECAFD0D0A0000C3FCC1EEA3BA4141F8
:103D20003032313044433030303030303030303069
:103D30004135A3ACB6AFD7F7A3BAB6C1C8A1CFB5CA
:103D4000CDB3B2CECAFD0D0A00000000C3FCC1EE27
:103D5000A3BA41413032313034303030303030303D
:103D6000303030304135A3ACB6AFD7F7A3BABBF192
:103D7000C8A1CFC2CEBBBBFAB0E6B1BEBAC50D0A70
:103D800000000000C3FCC1EEA3BA41413032313023
:103D90003436303030303030303030304135A3AC14
:103DA000B6AFD7F7A3BAC9A8C2EBCCEDBCD3CFEE60
:103DB000C4BF0D0A00000000C3FCC1EEA3BA41411C
:103DC00030323130363030303030303030303030EA
:103DD0004135A3ACB6AFD7F7A3BABFAACABCC0CF10
:103DE000BBAF0D0A00000000C3FCC1EEA3BA414105
:103DF00030323130363130303030303030303030B9
:103E00004135A3ACB6AFD7F7A3BACDA3D6B9C0CFCF
:103E1000BBAF0D0A000000006F70656E7363616ECA
:103E2000000000002801002099000020636C6F73DF
:103E3000657363616E000000636331000420FFF767
:103E4000F1F9B648006BB54A126CC2EBC202811898
:103E50000A220020FFF7E6F95FE1B1A12046FCF756
:103E600041FAD0B1AD48C16A0A220020FFF7DAF961
:103E7000AA48016A0A220420FFF7D4F90A22002185
:103E80000420FFF7CFF9A548026B006C02EBC001DC
:103E90000A220020FFF7C6F93FE1A2A12046FCF765
:103EA00021FAE0B19D48C16A0A220020FFF7BAF961
:103EB0009A48016A0A220420FFF7B4F90A22002175
:103EC0000420FFF7AFF99548006B944A126C02EB9F
:103ED000C20281180A220020FFF7A4F91DE192A175
:103EE0002046FCF7FFF9E8B18C48C16A0A2200209D
:103EF000FFF798F98948016A0A220420FFF792F92E
:103F00000A2200210420FFF78DF98448006B834AC0
:103F1000126C02EB820200EB42010A220020FFF742
:103F200081F9FAE081A12046FCF7DCF9F0B17B4889
:103F3000C16A0A220020FFF775F97848016A0A224F
:103F40000420FFF76FF90A2200210420FFF76AF925
:103F50007248006B714A126C02EB420303EBC2021F
:103F600081180A220020FFF75DF9D6E070A12046F3
:103F7000FCF7B8F9E8B16948C16A0A220020FFF7E6
:103F800051F96648016A0A220420FFF74BF90A2218
:103F900000210420FFF746F96048006B5F4A126C6D
:103FA00002EB420200EB82010A220020FFF73AF9FD
:103FB000B3E060A12046FCF795F9E8B15748C16A23
:103FC0000A220020FFF72EF95448016A0A22042031
:103FD000FFF728F90A2200210420FFF723F94F48B0
:103FE000026B006C00EB800303EBC00011180A2287
:103FF0000020FFF717F990E04FA12046FCF772F977
:10400000E8B14648C16A0A220020FFF70BF943488D
:10401000016A0A220420FFF705F90A220021042080
:10402000FFF700F93D48006B3C4A126CC2EBC2023C
:1040300000EB42010A220020FFF7F4F86DE03FA1F7
:104040002046FCF74FF9E0B13448C16A0A2200204B
:10405000FFF7E8F83148016A0A220420FFF7E2F886
:104060000A2200210420FFF7DDF82C48006B2B4AC0
:10407000126CC2EB021281180A220020FFF7D2F85C
:104080004BE02FA12046FCF72DF9D0B12348C16A9F
:104090000A220020FFF7C6F82048016A0A220420FD
:1040A000FFF7C0F80A2200210420FFF7BBF81B48E5
:1040B000026B006C02EB00110A220020FFF7B2F83D
:1040C0002BE021A12046FCF70DF930B11348816C9B
:1040D0000A220520FFF7A6F81FE01DA12046FCF7E5
:1040E00001F930B10D48C16C0A220520FFF79AF89A
:1040F00013E019A12046FCF7F5F830B141F25A223D
:104100000121022000F021FE07E014A12046FCF767
:10411000E9F810B1012002F0A7F910BD2801002034
:1041200063633200636333006363340063633500A9
:104130006363360063633700636338006363390089
:1041400063633130000000006D74356700000000CB
:104150006D74356C000000007331000079616F7977
:10416000756E00000FB410B504466078401C61689D
:1041700090FBF1F201FB12002178884203D100206C
:1041800010BC5DF814FB627802EB8202A16801EBBF
:104190008200142203A9FCF781F86078401C616852
:1041A00090FBF1F201FB120060700120E8E710B50E
:1041B000024650881388984204D11079012801D111
:1041C000002010BD53889068C1545088401CD3888B
:1041D00090FBF3F403FB140050805088138898423E
:1041E00001D1012010710120EBE7014648880A88BF
:1041F000904203D10879012800D170470020FCE7E4
:1042000029B1064A12680243044B1A6004E0034ACB
:1042100012688243014B1A60704700003038024038
:1042200029B1064A12680243044B1A6004E0034AAB
:1042300012688243014B1A60704700004038024008
:1042400029B1064A12680243044B1A6004E0034A8B
:1042500012688243014B1A60704700002038024008
:1042600029B1064A12680243044B1A6004E0034A6B
:1042700012688243014B1A607047000044380240C4
:1042800029B1064A12680243044B1A6004E0034A4B
:1042900012688243014B1A607047000024380240C4
:1042A000F0B5002100220024022500260223324F0F
:1042B0003F6807F00C0121B1042905D0082937D146
:1042C00005E02E4F076036E02D4F076033E02A4FA0
:1042D0003F1F3F68C7F38056274F3F1F3F6807F0D7
:1042E0003F036EB1264FB7FBF3F7DFF88CC0ACF19C
:1042F000040CDCF800C0CCF3881C07FB0CF40CE0C9
:104300001E4FB7FBF3F7DFF870C0ACF1040CDCF81C
:1043100000C0CCF3881C07FB0CF4174F3F1F3F680D
:10432000C7F301477F1C7D00B4FBF5F7076002E08F
:10433000124F076000BF00BF0F4F3F6807F0F0014A
:104340000909104F7A5C0768D74047600A4F3F68F9
:1043500007F4E051890A0B4F7A5C4768D7408760C1
:10436000054F3F6807F46041490B064F7A5C476888
:10437000D740C760F0BD0000083802400024F400B8
:1043800040787D01A200002010B5044621796079B3
:10439000814218D06079401CA16890FBF1F201FBCA
:1043A00012002179884202D107A002F035FD0948A8
:1043B00000210160416081600146201DFFF782FA03
:1043C0000448216B884710BDB6D3C1D0C2FA0D0A8C
:1043D000000000008C0E002010B500240AE004EB61
:1043E000840101EBC401054A02EB8100FFF7CCFF19
:1043F000601CC4B2012CF2DB10BD0000580E00207E
:1044000038B504464FF4FB711C48FBF760FF0220EF
:104410008DF8000056208DF801000D208DF8020067
:104420000A208DF80300FEF75DFE0422694620464F
:1044300002F072FA124A1149204600F0C1F90F4801
:10444000B0F8F401232813D10C48B0F8F401801E11
:104450000A49085C0D280BD10846B0F8F401401E4B
:10446000085C0A2804D107A002F0D6FC002038BD61
:1044700008A002F0D1FC0120F9E70000107600202E
:10448000047800204352313030C1ACBDD3D5FDB3E8
:10449000A30D0A004352313030C1ACBDD3CAA7B01E
:1044A000DC0D0A000146002200E0521C802AFCD3E9
:1044B00000BF0A4A128802F00202002AF9D0074A15
:1044C000121D118000BF054A128802F00102002A65
:1044D000F9D0024A121D1288D0B270470834014048
:1044E00021B1028842F04002028004E002884FF6C7
:1044F000BF731A40028070470246002013890B40A8
:104500000BB1012000E00020704701468889704708
:104510008181704710B50022028802F441520B8855
:104520004C8823438C882343CC8823430C89234322
:104530004C8923438C892343CC8923431A4302802B
:10454000838B4FF2FF74234083830B8A038210BD59
:1045500000B587B001210C20FFF752FE02208DF834
:10456000180000208DF81A0001208DF81B00022091
:104570008DF819000C20059005A92448FDF71CFFB3
:104580000820059005A92248FDF716FF0522032102
:104590001F48FDF759FF052202211C48FDF754FF73
:1045A000052203211948FDF74FFF01218803FFF77A
:1045B00037FE00211748FFF793FF0020ADF80000F9
:1045C0004FF48270ADF802000020ADF80400022024
:1045D000ADF806000120ADF808004002ADF80A0071
:1045E0003020ADF80C000020ADF80E000720ADF82B
:1045F000100069460748FFF78DFF01210548FFF7C6
:104600006FFFFF2000F062F807B000BD0008024015
:10461000000C02400038004000B587B00121084678
:10462000FFF7EEFD02208DF8180000208DF81A002B
:1046300001208DF81B0002208DF819004FF4E04096
:10464000059005A91F48FDF7B7FE05220C211D485E
:10465000FDF7FAFE05220D211A48FDF7F5FE0522A9
:104660000E211848FDF7F0FE01214803FFF7F8FD81
:1046700000211548FFF734FF0020ADF800004FF48B
:104680008270ADF802000020ADF804000220ADF801
:1046900006000120ADF808004002ADF80A00302005
:1046A000ADF80C000020ADF80E000720ADF81000AA
:1046B00069460548FFF72EFF01210348FFF710FF69
:1046C00007B000BD001002400034014070B505463F
:1046D000002405E0601CC4B2C82C01DD002070BDC0
:1046E00002210E48FFF708FF0028F3D029460B48A7
:1046F000FFF70EFF002405E0601CC4B2C82C01DDEA
:104700000020ECE701210548FFF7F6FE0028F3D072
:104710000248FFF7FAFEC0B2E1E7000000380040AF
:1047200010B50446074800884FF6C7710840054990
:104730000880084600882043088001210148FFF7CF
:10474000CFFE10BD0038004010B504465C21204665
:10475000FDF77CFDE06503F0EBF960224FF480117A
:10476000064802F0FBF960224FF40001034802F012
:10477000F5F903F007FA012010BD00002801002020
:104780001CB501210220FFF73BFD00208DF805003C
:1047900001208DF8040000208DF8060002208DF81D
:1047A0000700C001009069460448FDF705FE4FF47C
:1047B00080710248FDF776FE1CBD00000004024037
:1047C0002DE9F04105460C4616464FF4C87003F03B
:1047D00051FA00203E4908804FF4FA713D48FBF73A
:1047E00076FDC5EBC50101EB41013B4A02EB8101BE
:1047F00001F12C00FDF797FE002866D064E0C5EBC0
:10480000C50101EB4101344A02EB810101F12C00A9
:10481000FDF789FE002853D0C5EBC50101EB41012E
:104820002D4A02EB810101F12C00FFF768F82849BD
:104830000A880988491C264B198026498854012D6D
:1048400042D10846007802283ED118460088801ED2
:10485000085C0D2838D118460088401E085C0A28DC
:1048600032D118460088232807D123222046FBF79F
:1048700015FD23203080BDE8F081154800880E2802
:1048800012D100270BE01349781C085C30382070E7
:10489000641C217811A002F0BFFA781CC7B20B2F5C
:1048A000F1DB0B203080E6E70948008806280BD1B1
:1048B0000848016821608088A08006203080DAE7FF
:1048C00009A002F0A9FAD6E799E700BFD3E70000F4
:1048D00032000020640C0020AC05002062756620C8
:1048E0003D2025630D0A0000C9A8C2EBC6F7B4ED50
:1048F000CEF30D0A0000000070B505460C460423F7
:1049000004F160020121284600F05CF9022304F161
:1049100064021946284600F055F9042304F16602A2
:104920000321284600F04EF9042304F16A021946D7
:10493000284600F047F9022304F16E0205212846BB
:1049400000F040F9022304F170020621284600F02D
:1049500039F9022304F172020721284600F032F9E6
:10496000022304F174020821284600F02BF90223E7
:1049700004F176021521284600F024F9012304F100
:1049800078020921284600F01DF9012304F179027B
:104990000A21284600F016F9012304F17A020B21BE
:1049A000284600F00FF9012304F17B020C21284670
:1049B00000F008F9022304F17C020D21284600F0E2
:1049C00001F9012304F17E020E21284600F0FAF8D5
:1049D000012304F17F020F21284600F0F3F80123A0
:1049E00004F180021021284600F0ECF8012304F1C4
:1049F00081021121284600F0E5F8012304F1830229
:104A00001321284600F0DEF8012304F1840214216A
:104A1000284600F0D7F8012304F185021621284624
:104A200000F0D0F8012304F186021721284600F097
:104A3000C9F8022304F187021821284600F0C2F8C1
:104A400070BD70B505460C4600212846226B01F06A
:104A50006FFC10212846E26C01F06AFC20212846F8
:104A6000226E01F065FC21212846626E01F060FC97
:104A700023212846A26E01F05BFC24212846E26E29
:104A800001F056FC25212846226F01F051FC262119
:104A90002846626F01F04CFC27212846A26F01F0E6
:104AA00047FC28212846E26F01F042FC8020025991
:104AB0002A21284601F03CFC842002592B2128465B
:104AC00001F036FC882002592C21284601F030FCE8
:104AD0008C2002592D21284601F02AFC90200259F1
:104AE0003321284601F024FC942002593421284621
:104AF00001F01EFC982002593821284601F018FCCC
:104B0000A02002593A21284601F012FCA4200259A3
:104B10003D21284601F00CFCA820025960212846BE
:104B200001F006FCAC2002596121284601F000FC8E
:104B300062212846D4F8B02001F0FAFB6321284610
:104B4000D4F8B42001F0F4FB64212846D4F8B8204E
:104B500001F0EEFB65212846D4F8BC2001F0E8FB0B
:104B600066212846D4F8C02001F0E2FB67212846E0
:104B7000D4F8C42001F0DCFB68212846D4F8C82012
:104B800001F0D6FB69212846D4F8CC2001F0D0FBF7
:104B90006C212846D4F8D02001F0CAFB6D212846AC
:104BA000D4F8D42001F0C4FB6E212846D4F8D820D4
:104BB00001F0BEFB70212846D4F8DC2001F0B8FBE0
:104BC00070BD00002DE9F04780460C4617461D4693
:104BD00000235A1E19461E48006803F0D9FA012125
:104BE000404600F0C3F8052002F04AFF2046FFF7D8
:104BF00059FC052002F044FF0021404600F0B6F8C1
:104C00004FF00009032D02DD4FF0030900E0A94633
:104C1000A9F1010611E00121404600F0A7F80520A6
:104C200002F02EFFB85DFFF73DFC052002F028FFE3
:104C30000021404600F09AF8761E002EEBDA0023A1
:104C40001A4619460248006803F0AEFBBDE8F0873B
:104C50007C0000202DE9FC478046894692461F468D
:104C60000A9C0026002500200090019002208DF86B
:104C700000008DF801808DF802908DF803A0244883
:104C8000FEF726F900BF39E0E11704EB9171B6EBAE
:104C9000A10F1FD1E11704EB91718910A4EB8101E1
:104CA00051B3002507E0042000FB0650395C01A841
:104CB0004155681C85B2E11704EB91718910A4EB92
:104CC0008101A942EFDC08216846FDF729FA00209E
:104CD000019011E0002507E0042000FB0650395C3C
:104CE00001A84155681C85B2042DF5DB08216846F2
:104CF000FDF716FA00200190701C86B2E11704EB54
:104D00009171012202EBA101B142BDDCBDE8FC873B
:104D10007C0E002000EB0012024B03EB42025170AC
:104D2000704700008801002037B582B005460C4668
:104D3000002001900498019044F04001042304AA4B
:104D40002846FFF73FFF05B030BD37B582B00546B6
:104D50000C46002001900498019044F05001042377
:104D600004AA2846FFF72EFF05B030BD70B50446F3
:104D70000D46012D3CD1092C39D2DFE804F0050A9B
:104D80000F151B21272D330040213848FDF788FBE4
:104D90002DE002213648FDF783FB28E04FF4004167
:104DA0003448FDF77DFB22E04FF400713248FDF7F7
:104DB00077FB1CE04FF400612D48FDF771FB16E016
:104DC0004FF480612D48FDF76BFB10E04FF400714C
:104DD0002848FDF765FB0AE04FF400612848FDF71D
:104DE0005FFB04E020212448FDF75AFB00BF3CE0B4
:104DF000092C39D2DFE804F0050A0F151B21272DF5
:104E0000330040211948FDF74DFB2DE002211848E1
:104E1000FDF748FB28E04FF400411648FDF742FB40
:104E200022E04FF400711448FDF73CFB1CE04FF406
:104E300000610F48FDF736FB16E04FF480610F4824
:104E4000FDF730FB10E04FF400710A48FDF72AFB34
:104E50000AE04FF400610A48FDF724FB04E020213A
:104E60000548FDF71FFB00BF00BF70BD00000240FA
:104E7000000402400014024000100240001C0240E6
:104E80000020024070B50546C5EBC50000EB800070
:104E9000084901EB8004A28E91B2206BFDF702FB62
:104EA000142002F067FAA28E91B2206BFDF7F8FA97
:104EB00070BD0000546F00200CB5002001900090E0
:104EC0004148006840F480303F49086000BF3E48D8
:104ED000006800F4003000900198401C0190009898
:104EE00018B90198B0F5A04FF1D13748006800F427
:104EF000003010B10120009001E0002000900098E7
:104F0000012860D130484030006840F080502E4980
:104F1000403108602D48006840F440402B4908604B
:104F200029480830006828490831086008460068A8
:104F300040F4004008600846006840F4A050086053
:104F40002348091F0860081F006840F08070091F8F
:104F5000086000BF1C48006800F000700028F9D00D
:104F60001A48006840F480301849086000BF1748AC
:104F7000406800F480300028F9D01448006840F4FC
:104F800000301249086000BF1048406800F400304B
:104F90000028F9D040F205700E4908600A48083030
:104FA000006820F0030008490831086008460068DE
:104FB00040F00200086000BF03480830006800F0BD
:104FC0000C000828F8D10CBD0038024000700040E9
:104FD00019544007003C024038B505460C460220F3
:104FE0008DF80000012C03D12B208DF8010002E088
:104FF0002D208DF801000D208DF802000A208DF87B
:10500000030004226946284601F086FC38BD0000F2
:105010002DE9FE4307460220FDF766FA8046002090
:105020000290FE490870022500261021FC48FBF77B
:105030004EF94FF47F71FB48FBF749F9FEE3FA485C
:10504000816A0A220320FEF7EDF8F748C16A0A22B6
:105050000020FEF7E7F8F448016A0A220420FEF770
:10506000E1F8642002F006FEFEF754F8E8B9EFA07C
:1050700001F0D2FE0020F3490870F34908700A22BB
:1050800000210420FEF7CEF80A2200210320FEF7BB
:10509000C9F80021082001F01BF8E348C16A0A2280
:1050A0000020FEF7BFF8BDE8FE830A22002104209D
:1050B000FEF7B8F8DC48416A0A220320FEF7B2F88E
:1050C000D948416B0A220020FEF7ACF8FEF70AF837
:1050D0004FF4FA7002F0CEFD01210846FFF77CFF85
:1050E0000120DA4908700020D9490870D9490870B0
:1050F0001AE0D748007878B9CB48406BA0F52F71FB
:105100000A220020FEF78EF8C748406B00F52F7189
:105110000A220020FEF786F8142D00D10CE0294663
:10512000CDA001F079FE6D1CC948007820B9C948AE
:10513000007808B9052EDCDD00BF3146C8A001F0BB
:105140006BFEC3480078012846D1052E44DC0020C0
:10515000BF490870BF49087006EBC601C54A02EB9B
:105160004101881C1021FBF7B2F806EBC601C14AC9
:1051700002EB4101881C1022A949FBF78FF8AA21F4
:1051800006EBC600BB4A02EB4000801CBA4A12780C
:1051900081541020009006EBC600B64901EB400098
:1051A000831C002208211020FFF754FD00240BE08F
:1051B00006EBC600AF4A02EB4000801C015DAFA0C9
:1051C00001F02AFE601CC4B2102CF1DBACA001F08F
:1051D00023FE761C022503E000209D49087002256D
:1051E00000209A49087000210120FFF7F5FE0A21EE
:1051F0000020FEF7D5F88C48016B0A220020FEF74C
:1052000011F8B8F8892098F8060008B9012000E0E4
:10521000002001460220FFF798FD01210846FDF716
:1052200023F810217E48FBF752F84FF47F717D4838
:10523000FBF74DF8FDF756FF002494E17A48006B28
:10524000794A126C02FB04010A220020FDF7EAFFF2
:105250004FF47A7002F00EFDFCF7D2FF794909781D
:105260000A2212FB014101EB01116E4A02F8110002
:10527000FCF7C6FF8146734800780A2212FB004102
:105280004A4680A001F0C8FD322002F0F3FC6D48D0
:1052900000780A2111FB004000EB0010614911F871
:1052A000100000286FD06FE029467CA001F0B4FD0B
:1052B000284605EBD0714910A5EB4101022915D113
:1052C0005948006B584A126C02FB0400A0F5FA51D1
:1052D0000A220020FDF7A6FF5348006B524A126CC9
:1052E00002FB04010A220020FDF79CFF294605EB82
:1052F000D1725210A5EB4202032A07D0284605EBD3
:10530000D0725210A5EB4202012A17D14648006B19
:10531000454A126C02FB0400A0F5FA510A22002053
:10532000FDF780FF4048006B3F4A126C02FB04000F
:10533000A0F52F710A220020FDF774FF284605EB27
:10534000D0714910A5EB4101B9B93748006B364A15
:10535000126C02FB0400A0F5FA510A220020FDF7AE
:1053600061FF3148006B304A126C02FB040000F50B
:105370002F710A220020FDF755FF0A2002F07AFC67
:105380006D1E0DB90EE0B8E03148007850B92D49D6
:1053900009780A2212FB0141C8B2012101F0B8FCD0
:1053A000002881D000BF0020294908700225254926
:1053B00009780A2212FB014101EB0111194A02EBA3
:1053C000410101F1120010221549FAF767FFAA22E4
:1053D0001C4800780A2111FB004000EB0010114925
:1053E00001EB4000123024490978491C4254154809
:1053F00000780A2111FB0040C1B2124800780A224D
:1054000012FB004000EB0010064A02EB4000123095
:10541000194A127881541021014845E09600002075
:10542000540C00208801002028010020CEDECAD4C0
:10543000B9DCBCDCA3ACB2E2CAD4BDE1CAF80D0A47
:105440000000000092000020930000209A0000203D
:10545000990000209500002025640D0A000000003E
:10546000B5DA2564BAC5CAD4B9DCBCDCC2EBA3BAD0
:10547000000000004E78002030000020256300006E
:105480000D0A0000B5DA2564BAC5CAD4B9DCB8DFA4
:10549000B6C8CEAAA3BA25640D0A0000636E7420B4
:1054A0003D2025640D0A0000FAF711FFFE48007840
:1054B0000A2212FB0041FDA001F0AEFC4FF00009F2
:1054C00014E0F94800780A2212FB004000EB0010BB
:1054D000FA4A02EB4000123010F80910AFF26400F3
:1054E00001F09AFC09F1010000F0FF09B9F1100F79
:1054F000E7DBAFF2740001F08FFCEB4800780A2183
:1055000011FB0040C0B28DF80800E748007811FB9D
:10551000004000EB0010E94911F810008DF8090077
:10552000042002AB0122032100901020FFF792FB20
:10553000142002F09FFB10200090DB4800780A2125
:1055400011FB004000EB0010DC4901EB400000F1D2
:105550001203022203211020FFF77CFB142002F02B
:1055600089FB601CC4B20A2CFFF668AE00200190D3
:105570000220FFF787FC00210120FCF775FE012FB8
:1055800027D1042001AB0322114600901020FFF721
:1055900061FB02E0052002F06DFBC948007801289C
:1055A000F8D10020C649087000BF0FE0C549095C6A
:1055B000012909D1BC4A12780A2313FB020202EB2B
:1055C0000212BE4B03F81210411CC8B20A28EDDBD0
:1055D0000EE000200AE0BC49095C012904D100EB7F
:1055E0000012B64B03F81210411CC8B21E28F2DBA1
:1055F00000241CE1AC4800780A2111FB0040C0B235
:105600008DF80400A848007811FB004000EB001062
:10561000AA4911F810008DF80500A34800780A2166
:1056200011FB004000EB0010A44911F81000002805
:1056300072D0012F1ED1A348005D012842D0A1489D
:10564000005D02283ED0A148806BA04A126C02FB8C
:1056500004010A220020FDF7E5FD934909780A229A
:1056600012FB014101EB0111944A12F8110000F004
:10567000FBFE27E08C4800780A2111FB004092498C
:10568000085C01281ED0884800780A2111FB0040E0
:105690008D49085C022815D08C48806B8B4A126CAF
:1056A00002FB04010A220020FDF7BCFD7E490978B7
:1056B0000A2212FB014101EB0111804A12F811008C
:1056C00000F0D2FE8148C06B804A126C02FB0401DC
:1056D0000A220020FDF7A6FD012F25D17948005DA3
:1056E000022806D17948816C0A220520FDF79AFD2F
:1056F00043E06D4800780A2111FB004000EB0010E8
:105700006E4911F81000012807D17048C16C0A22B7
:105710000520FDF787FD30E087E06C48816C0A22A8
:105720000520FDF77FFD28E05F4800780A2111FB86
:1057300000406549085C022806D16448816C0A2251
:105740000520FDF76FFD18E0574800780A2111FB8E
:10575000004000EB0010594911F81000012806D153
:105760005A48C16C0A220520FDF75CFD05E0574848
:10577000816C0A220520FDF755FD0A2002F07AFA15
:1057800044B9042001AB0322022100901020FFF74E
:1057900061FA07E0042001AB0322014600901020CB
:1057A000FFF758FA35E04A48007801282ED10A223E
:1057B00000210520FDF736FD4448416C0A220020F7
:1057C000FDF730FD4148016D0A220120FDF72AFD59
:1057D0000A2200210120FDF725FD00203249087032
:1057E0003C4908700A2200210420FDF71BFD0A2213
:1057F00000210320FDF716FD3448C16A0A2200206B
:10580000FDF710FD0020324908704CE40A2002F038
:1058100031FA314800780028C5D000202E490870A0
:105820000A2200210520FDF7FDFC601CC4B20A2CF1
:10583000FFF6E0AE2548416C0A2200E064E000205B
:10584000FDF7F0FC17E0FDF77BFC40B1042001AB55
:105850000122052100901020FFF7FCF900E00BE089
:1058600002E00A2002F006FA1C4800780028F8D06E
:1058700000201A490870E6E700BF1448016D0A22AB
:105880000120FDF7CFFC0A2200210120FDF7CAFC10
:1058900005480078401C0449087008460078032831
:1058A00031D1002008701BE092000020B5DA256499
:1058B000BAC5CAD4B9DCC2EBA3BA00008801002083
:1058C0002F000020A20500208405002028010020D0
:1058D0002D0000209300002096000020970000205B
:1058E0000C4908700A2200210420FDF79BFC0A22C3
:1058F00000210320FDF796FC0748C16A0A22002018
:10590000FDF790FC02E000BFFFF799BB00BF00BFAE
:105910007BE7000093000020280100207CB50446AE
:1059200000200190E379A27961792079FCF754FC99
:105930000546A07831284FD010DC062870D006DC50
:1059400001281CD0022859D004286AD196E00728E3
:1059500068D00A2871D03028F7D12BE062287CD09B
:1059600006DC40287AD0602879D06128EDD11EE18C
:10597000DA2875D0DB2874D0DC28E6D1C6E0002315
:105980000A222146A248006802F00EFD012808D133
:10599000042001AB0122114600900B20FFF75AF9B9
:1059A00007E0042001AB0022BB2100901020FFF78C
:1059B00051F92AE100230A2221469548006802F0A5
:1059C000F3FC012807D0042001AB0022BB2100908A
:1059D0001020FFF73FF918E100230A2221468C48E6
:1059E000006802F0E1FC012807D0042001AB00228E
:1059F000BB2100901020FFF72DF906E100230A22B9
:105A000021468348006802F0CFFC01280CD1042015
:105A100001AB0122022100901020FFF71BF90BE0DF
:105A20003EE0F1E096E008E0042001AB0022BB215B
:105A300000901020FFF70EF9E7E000230A2221462C
:105A40007448006802F0B0FC01280ED1042001ABBC
:105A500001220A210090102004E0C3E068E08BE0FE
:105A600030E041E0FFF7F6F807E0042001AB002248
:105A7000BB2100901020FFF7EDF8C6E000230A22BA
:105A800021466448006802F08FFC012807D00420FA
:105A900001AB0022BB2100901020FFF7DBF8B4E03F
:105AA00000230A2221465B48006802F07DFC0128A1
:105AB00007D0042001AB0022BB2100901020FFF78B
:105AC000C9F8A2E000230A2221465148006802F0EA
:105AD0006BFC012807D0042001AB0022BB21009001
