:020000040800F2
:10000000187A022079020008692200082D150008DC
:10001000DD1C000895050008B54B00080000000035
:10002000000000000000000000000000C101000806
:10003000930F000800000000150200089D3D000815
:10004000930200089302000893020008930200083C
:10005000930200089302000893020008930200082C
:10006000930200089302000893020008930200081C
:10007000930200089302000893020008930200080C
:1000800093020008930200089302000893020008FC
:1000900099050008930200089302000893020008E3
:1000A00093020008930200089302000893020008DC
:1000B0009D3E000893020008930200089302000886
:1000C00093020008930200089302000893020008BC
:1000D000930200081D4200082D4200083D4200081E
:1000E000930200089302000893020008930200089C
:1000F000930200089302000893020008930200088C
:10010000930200089302000893020008930200087B
:10011000DD410008ED410008B93E000893020008E7
:10012000930200089302000893020008930200085B
:10013000930200089302000893020008930200084B
:10014000930200089302000893020008930200083B
:100150009302000893020008930200084D42000831
:10016000930200089302000893020008930200081B
:10017000930200089302000893020008930200080B
:100180009302000893020008FD4100080D42000898
:1001900093020008930200089302000893020008EB
:1001A000930200089302000893020008DFF80CD0C5
:1001B00000F0FAF80048004781640008187A02202D
:1001C0002A4B19680868B0E8F04F80F30988BFF33C
:1001D0006F8F4FF0000080F311887047000000001F
:1001E00006480068006880F3088862B661B6BFF30D
:1001F0004F8FBFF36F8F00DF00BF00BF08ED00E03F
:10020000DFF80C00016841F470010160704700BF25
:1002100088ED00E0EFF30980BFF36F8F134B1A688E
:100220001EF0100F08BF20ED108A20E9F04F10607B
:1002300008B44FF0100080F31188BFF34F8FBFF365
:100240006F8F06F083FE4FF0000080F3118808BC2A
:1002500019680868B0E8F04F1EF0100F08BFB0EC46
:10026000108A80F30988BFF36F8F70479C000020CD
:10027000EFF30580704700000648804706480047B6
:10028000FEE7FEE7FEE7FEE7FEE7FEE7FEE7FEE746
:10029000FEE7FEE7353E0008AD01000840EA010335
:1002A0009B0703D009E008C9121F08C0042AFAD22C
:1002B00003E011F8013B00F8013B521EF9D27047F0
:1002C000D2B201E000F8012B491EFBD27047002298
:1002D000F6E710B513460A4604461946FFF7F0FF45
:1002E000204610BD30B505462A460B4612F8010BD4
:1002F00013F8014B08B1A042F8D01CB1002802D07D
:100300006D1CF1E7284630BD2DE9F05F0546002061
:1003100092469B4688460646814640241BE0284676
:1003200041464746224600F02FF853465A46C01A27
:10033000914110D311461846224600F016F82D1AA6
:1003400067EB01084F4622460120002100F00DF81E
:1003500017EB00094E41201EA4F10104DFDC4846E2
:1003600031462A464346BDE8F09F202A04DB203A66
:1003700000FA02F1002070479140C2F1200320FAF8
:1003800003F3194390407047202A04DB203A21FAF6
:1003900002F00021704721FA02F3D040C2F120029E
:1003A0009140084319467047064C074D06E0E06847
:1003B00040F0010394E8070098471034AC42F6D3AC
:1003C000FFF7F8FEFC8500081C8600080EB500202B
:1003D0000290042002A900230122CDE900100B2184
:1003E000032003F013F901F0EFFD1FE0012002F0FC
:1003F000C5FA02F0E1FB022002F0C0FA02F0DCFBD9
:10040000032002F0BBFA02F0D7FB042002F0B6FA98
:1004100002F0D2FB052002F0B1FA02F0CDFB064853
:10042000007800B906E0322006F050FC024800785F
:100430000028DBD100BF0EBD6D0000201FB506F007
:10044000A3FB00201C4A0523CDE901200093039063
:1004500003464FF4007219A11D4807F0D3F800209D
:100460001C4A0423CDE901200093039003464FF476
:10047000007219A11C4807F0C5F800201B4A03238D
:10048000CDE901200093039003464FF4007218A1B8
:100490001B4807F0B7F800201A4A0123CDE90120D4
:1004A0000093039003464FF4007217A1194807F018
:1004B000A9F806F093FB1FBD000000204D756C7479
:1004C00069436F6D6D526561645F5461736B0000C9
:1004D0002D220008080000206261636B4D6F746F6D
:1004E000725F7461736B00005163000804000020A8
:1004F00043616E53656E644D73675F5461736B0047
:10050000D90E00080C00002044656275675F5461D5
:10051000736B0000950F00081FB50121102002F039
:10052000C7FB1B4803F0F6FC01A803F017FE0020F0
:10053000ADF80C00ADF8060040F2E730029042F250
:10054000CF00ADF8040001A9114803F0C5FD012159
:100550000F4803F0C1FC01210D4803F0C9FC012242
:1005600011460B4803F0AFFD0121094803F0C6FC1A
:1005700036208DF800000F208DF8010000208DF846
:10058000020001208DF80300684601F06FFE1FBDD8
:100590000010004000BFFEE700B587B002211C48F4
:1005A00000F02EF990B31B490868022100F034F8DE
:1005B00002AA0021164800F0D7FA0298012811D1AA
:1005C000039803280ED09DF8130003280AD1DDE913
:1005D0000501CDE900010F48001D02A90EC902F076
:1005E00009FB13E00298042810D1039803280DD0CA
:1005F0009DF81300032809D1DDE90501CDE90001CB
:100600000448001D02A90EC902F0F4FA07B000BDAB
:10061000006400401C1D0020B1F5007F3AD00FDCC3
:10062000202928D006DC01291CD004291DD0082946
:1006300040D11DE0402921D0B1F5807F3AD126E09C
:10064000B1F5004F31D006DCB1F5806F25D0B1F5A2
:10065000006F2FD124E0B1F5803F12D0B1F5003FFB
:1006600028D111E0154A826025E00822C26022E00C
:100670001022C2601FE0082202611CE01022026109
:1006800019E00822426016E01022426013E00422C2
:10069000426010E0042242600DE0042242600AE061
:1006A000002282610422426005E00022826104226D
:1006B000426000E000BF00BF704700000101010080
:1006C00010B504460B48844209D10121480602F0C6
:1006D000FFFA00214FF0007002F0FAFA08E0012161
:1006E000880602F0F5FA00214FF0806002F0F0FA7F
:1006F00010BD00000064004010B50021837A012283
:1007000002FA03F13D4A126842F001023B4B1A60C3
:100710003A4A1C3212688A43384B1C331A60027BF7
:10072000CAB9364A0C3212688A43344B0C331A6009
:100730004288C38842EA0343304A4032847A42F80E
:1007400034300288838842EA03432C4A4032847A58
:1007500002EBC4025360027B012A19D1274A0C32F2
:1007600012680A43254B0C331A604288038842EA18
:100770000343224A4032847A42F83430C288838864
:1007800042EA03431D4A4032847A02EBC4025360BA
:10079000C27A3AB9194A121D12688A43174B1B1DB7
:1007A0001A6006E0154A121D12680A43134B1B1DFE
:1007B0001A60028932B9114A143212688A430F4B07
:1007C00014331A600289012A06D10C4A14321268C5
:1007D0000A430A4B14331A60427B012A06D1074AA6
:1007E0001C3212680A43054B1C331A60034A126814
:1007F00022F00102014B1A6010BD000000660040AB
:1008000070B504460D46002660692840002871D066
:10081000B5F5807F5CD010DC082D35D006DC012DCD
:1008200020D0022D24D0042D72D127E0102D31D0FC
:10083000202D35D0402D6BD138E0B5F5004F60D07C
:1008400009DCB5F5007F49D0B5F5806F4CD0B5F522
:10085000006F5DD14FE0B5F5803F2DD0B5F5003F7D
:1008600056D12FE0A0682D4900F07CFB064651E0F0
:10087000E068032100F076FB06464BE0E0680821C3
:1008800000F070FB064645E0E068102100F06AFBCE
:1008900006463FE02069032100F064FB064639E08C
:1008A0002069082100F05EFB064633E02069102134
:1008B00000F058FB06462DE06068082100F052FB6E
:1008C000064627E06068102100F04CFB064621E058
:1008D000A069012100F046FB06461BE0A069022149
:1008E00000F040FB064615E0A069042100F03AFB49
:1008F00006460FE00FE0A069702100F033FB0646CA
:1009000008E06068042100F02DFB064602E0FFE7E6
:10091000002600BF00E00026304670BD0101010046
:100920001AB143690B43436102E043698B4343615E
:10093000704730B5024600200023146824F00204FA
:100940001460146844F00104146000E05B1C5468F7
:1009500004F001041CB94FF6FF74A342F6D15468A9
:1009600004F001040CB900206CE08C79012C04D156
:10097000146844F08004146003E0146824F08004D8
:100980001460CC79012C04D1146844F04004146044
:1009900003E0146824F0400414600C7A012C04D1A4
:1009A000146844F02004146003E0146824F0200468
:1009B00014604C7A012C04D1146844F010041460C3
:1009C00003E0146824F0100414608C7A012C04D124
:1009D000146844F00804146003E0146824F0080468
:1009E0001460CC7A012C04D1146844F0040414601F
:1009F00003E0146824F0040414608C78A407CD7814
:100A000044EA05640D7944EA05444D7944EA055405
:100A10000D886D1E2C43D461146824F00104146009
:100A2000002300E05B1C546804F001041CB14FF685
:100A3000FF74A342F6D1546804F001040CB1002005
:100A400000E0012030BD000000B58BB0012108207E
:100A500002F01EF909220021404800F03DFB092266
:100A600001213E4800F038FB0120099002208DF85A
:100A700028008DF8290000208DF82A0001208DF82B
:100A80002B0009A9354800F0DFFA0220099009A9D6
:100A9000324800F0D9FA0121480602F009F930483D
:100AA000FFF70EFE01208DF81F008DF820008DF855
:100AB000210000208DF822008DF81E008DF8230003
:100AC0008DF81A0002208DF81B000B208DF81C00F9
:100AD00007208DF81D001020ADF8180006A9204849
:100AE000FFF727FF00208DF812008DF8130001207A
:100AF0008DF814000020ADF80800ADF80A00ADF83C
:100B00000C00ADF80E00ADF8100001208DF81500B6
:100B100002A8FFF7F1FD14208DF8040001208DF8E4
:100B2000050000208DF8060001208DF8070001A8BF
:100B300001F09CFB012202210948FFF7F1FE00228F
:100B400001210748FFF7ECFE00F07EF9012006F0D6
:100B5000E1FA044908600BB000BD0000000C02403F
:100B6000006400403000002010B500F5D87303EB9E
:100B700001131B6803F004031372137A53B900F5D1
:100B8000D87303EB01131B6840F2FF7404EA53535C
:100B9000136009E000F5D87303EB01131B686FF0D5
:100BA000604404EAD303536000F5D87303EB0113E8
:100BB0001B6803F00203537200F5D87303EB0113B3
:100BC0005B6803F00F03937200F5D87303EB011316
:100BD0005B681B0AD37400F5D87303EB01139B68A1
:100BE000D37200F5D87303EB01139B681C0A1473CE
:100BF00000F5D87303EB01139B681C0C547300F5CC
:100C0000D87303EB01139B681B0E937300F5D87325
:100C100003EB0113DB68D37300F5D87303EB011307
:100C2000DB681C0A147400F5D87303EB0113DB684E
:100C30001C0C547400F5D87303EB0113DB681B0E16
:100C4000937421B9C36843F02003C36003E00369D0
:100C500043F02003036110BD10B5024600209368E5
:100C600003F08063B3F1806F00D110E0936803F06C
:100C70000063B3F1006F01D1012008E0936803F035
:100C80008053B3F1805F01D1022000E004200428EA
:100C900074D002F5C07303EB00131B6803F001046A
:100CA00002F5C07303EB00131C600B7A7BB94B7A1F
:100CB0000C8843EA445302F5C07404EB0014246822
:100CC000234302F5C07404EB0014236010E00B7A98
:100CD0004C6843EAC4034C7A234302F5C07404EB26
:100CE00000142468234302F5C07404EB001423604D
:100CF0008B7A03F00F038B7202F5C07303EB0013C2
:100D00005B6823F00F0402F5C07303EB00135C6013
:100D100002F5C07303EB00135B688C7A234302F582
:100D2000C07404EB001463608B7B1C064B7B44EAAD
:100D300003440B7B44EA0323CC7A234302F5C074BB
:100D400004EB0014A3608B7C1C064B7C44EA034438
:100D50000B7C44EA0323CC7B234302F5C07404EBF1
:100D60000014E36002F5C07303EB00131B6843F04B
:100D7000010402F5C07303EB00131C6010BD0000FA
:100D800010B50246002321B1012907D002290FD155
:100D900009E090681D4C00EA04030BE090681C4CCD
:100DA00000EA040306E090681A4C00EA040301E03C
:100DB000002300BF00BF184C181BA34216D007DC4D
:100DC00083B16FF08060184470B1022818D111E02F
:100DD000B0F5007F10D0114C204448B1B0F5003F71
:100DE0000ED10BE002230DE000230BE0002309E00D
:100DF000002307E0012305E0012303E0012301E0D4
:100E0000002300BF00BFD8B210BD000003000004E3
:100E10000003000800000310000100080001FFF7B4
:100E200010B50446E07A07490870207B4870607B63
:100E30008870A07BC870D4F80F004860084602F0A4
:100E4000C1FD10BD4800002010B50D480D490860D7
:100E500001150C4881600C49C1600C4809490863C0
:100E600014220B4907481030FFF718FA09490548C2
:100E7000C1624FF480714185243000F03BFD10BD0C
:100E8000006400401C1D0020781D0020210E000879
:100E9000641D0020786D002070B505460E460024C4
:100EA0000DE0084801F0E9FE20B9295D054801F090
:100EB000C6FE02E004A004F0CFF8601CC4B2B44245
:100EC000EFDB70BD401D002043616EB7A2CBCDB6F5
:100ED000D3C1D0C2FA00000086B00026002531E060
:100EE000194800F05CF9002829DD032001900290E8
:100EF00000208DF80C008DF80D0008208DF80E00F4
:100F0000002407E0104801F024FA0DF10F01085504
:100F1000601CC4B2082CF5DB0B492439086801A910
:100F2000FFF79AFE064601E0681C85B23146074885
:100F3000FFF726FF18B940F6FF708542F4DB142056
:100F400005F0C4FECCE70000401D00200064004016
:100F500030B50446002004EB012505EB024505EB06
:100F6000036030BD0246002002EA01030BB10120FC
:100F700000E00020704730B502460020002305E065
:100F800012F8015B2C18E0B25C1CE3B28B42F7DB79
:100F900030BD704705F048FA0B4800210160416000
:100FA00011E000230A2208490848006806F01CF9ED
:100FB00030B1054BDA78997858781B1D00F02EF87F
:100FC000142005F083FEECE7180000203800002014
:100FD00010B5002403F0F0FD044600F03BFE04EBE6
:100FE0004000C4B2214602A004F036F8204610BDED
:100FF000436172645F5472616E736665725F4173C0
:1010000073656D626C7920446574656374526573B1
:10101000756C74203D2025640D0A000030B56129EF
:1010200002D0DE2908D103E00024054D2C7004E035
:101030000124044D2C7000E000BF00BF30BD000053
:101040006D0000206E000020F0B50A46002100234C
:10105000002400BF3DE0012505FA01F3156805EA0B
:1010600003049C4234D105684F000326BE40B543BB
:10107000056015794E00B540066835430560157961
:10108000012D02D01579022D16D185684F00032657
:10109000BE40B543856055794E00B54086683543FE
:1010A0008560456801268E40B54345604568967960
:1010B0008E40B6B235434560C5684F000326BE403A
:1010C000B543C560D5794E00B540C6683543C560A7
:1010D000491C1029BFD3F0BDF0B5002300244D07F3
:1010E000ED0E02FA05F3CE1000F1200555F826505A
:1010F0004E07F70E0F26BE40B543CF1000F1200675
:1011000046F82750CE1000F1200555F8265045EA44
:101110000304CE1000F1200545F82640F0BD02463C
:10112000002013690B400BB1012000E00020704744
:10113000418370470183704770B50446C4EBC40017
:1011400000EB8000054901EB80054022525B91B223
:10115000E86BFFF7E4FF0646304670BD186F0020CD
:101160000146C1EBC10000EB8000024A02EB8000A7
:1011700070470000186F002010B50446002120467B
:1011800000F026F848B1642005F0A6FC00212046B6
:1011900000F01EF808B1012010BD0020FCE7014658
:1011A00000220879012801D1C888704748880B8837
:1011B000984204DB48880B88C01A82B205E0C888D0
:1011C0000B88C01A4B88184482B21046EDE7000025
:1011D0002DE9F04106460C46C6EBC60000EB800048
:1011E0000E4901EB800504EB440305F10C0202EB10
:1011F0008302928891B204EB440305F10C0252F889
:101200002300FFF78CFF074605F10800005DB84298
:1012100002D10120BDE8F0810020FBE7186F00201B
:1012200001460020174B8A6B9A4200D12520164BAD
:101230008A6B9A4201D1262022E0144B8A6B9A4293
:1012400001D127201CE0124B8A6B9A4201D1342035
:1012500016E0104B8A6B9A4201D1352010E00E4BFC
:101260008A6B9A4201D147200AE00C4B8A6B9A4262
:1012700001D1522004E00A4B8A6B9A4200D15320DC
:10128000704700000010014000440040004800404A
:10129000004C004000500040001401400078004025
:1012A000007C004010B50446022C02D0082C0BD163
:1012B00006E0204602F0DCFA05A003F0CDFE04E0D3
:1012C00007A003F0C9FE00E000BF00BF10BD000092
:1012D000B5E7BBFAD4CBB6AFB3ACCAB10D0A0000C8
:1012E000CDA3D6B9C7E5CFB4BCD3D1F9D5EB0D0AA0
:1012F000000000002DE9F0410446884604F12C006E
:10130000FFF74DFF0546002D75D04FF480617B48F7
:10131000FEF7DDFFA08D4119608E814207DCA28DB2
:10132000606B81182A467548FEF7B8FF11E0608EA1
:10133000A18D401A86B2A28D606B811832466F482B
:10134000FEF7ACFFAA1B6D4B9819616BFEF7A6FF69
:1013500000BF6B49A06B884257D1002644E0674824
:10136000805DAA283ED1654906F10900085CA528E0
:1013700038D1B01C085C634948706049F01C085CB7
:10138000604988705D49301D085C5E49C8705B49E2
:10139000701D085C5B4908715849B01D095C5948CB
:1013A00041715649F01D095C56488171534906F157
:1013B0000800095C5348C1718078612803D0514806
:1013C0008078DE2807D100230A224E494E48006863
:1013D00006F016F806E000230A224A494B48006846
:1013E00006F00EF8701C86B2AE42B8DB434800F03F
:1013F000D1FF002606E07EE004F12C0000F0A9FFFA
:10140000701C86B2AE42F7DB6DE04149A06B8842AA
:1014100069D1002665E03948805D0D2830D1374913
:10142000701C085C0A282BD10D2D29DC0F213948AE
:10143000FEF74DFF324631493648FEF72FFFAA220C
:10144000681E34490A5434A003F006FE002706E063
:101450002A48C15D33A003F0FFFD781CC7B2B74234
:10146000F6DB31A003F0F8FD012002F0F7F90A20C5
:1014700005F02CFC04F12C0000F03CFABDE8F081F2
:101480001E48805D0D282AD10D2D28DC0F21214812
:10149000FEF71DFF324619491E48FEF7FFFEAA223D
:1014A000681E1C490A541CA003F0D6FD002706E064
:1014B0001248C15D1BA003F0CFFD781CC7B2B74234
:1014C000F6DB19A003F0C8FD012002F0C7F90A20DD
:1014D00005F0FCFB04F12C0000F00CFACEE7701CC8
:1014E00086B2AE4297DB608EA84204D104F12C0094
:1014F00000F000FAC2E700BFC0E70000A816002015
:101500000010014026000020380000203400002098
:101510000044004079730020C4DAC9A8C2EB3A2025
:1015200000000000256300000D0A000000BFFEE778
:101530001CB50121BB2001F0ABFB01208DF805009B
:101540008DF8040000208DF8060001208DF80700BA
:101550004020009069462D48FFF776FD022000905C
:1015600069462B48FFF770FD4FF400400090694634
:101570002848FFF769FD4FF400700090694626483F
:10158000FFF762FD4FF40060009069462048FFF7C6
:101590005BFD4FF48060009069462048FFF754FDE2
:1015A0004FF48070009069461D48FFF74DFD4FF4E1
:1015B0000050009069461A48FFF746FD4021134845
:1015C000FFF7B8FD02211248FFF7B4FD4FF40041C8
:1015D0001048FFF7AFFD4FF400710F48FFF7AAFD69
:1015E0004FF400610A48FFF7A5FD4FF480610B48F6
:1015F000FFF7A0FD4FF480710948FFF79BFD4FF402
:1016000000510748FFF796FD1CBD00000000024096
:10161000000402400014024000100240001C02407E
:10162000000C024070B5012140F2FF1001F030FBC8
:101630004FF48C61A548FEF74AFE002009E0012125
:10164000C0EBC00202EB8202A04B03EB8202D1711D
:10165000401C0828F3D3002433E1C4EBC40000EBA2
:1016600080009A4901EB800004EB4401984A02EBA8
:101670008103D3E900219B68C0E90D130263C4EB29
:10168000C40000EB8000914901EB800104EB4400B1
:10169000904A02EB80030DCB3C310DC1C4EBC4007A
:1016A00000EB8000894901EB800004EB44018A4A89
:1016B00002EB81030ECB54300EC02B226243874BCA
:1016C000D118C4EBC40202EB8202804B03EB82020E
:1016D00002F160002B22FEF7E1FD8148005DC4EBC2
:1016E000C40101EB8101794A02EB810148717D4817
:1016F00050F82400C4EBC40101EB810142F8210041
:101700007948005DC4EBC40101EB810102EB81016A
:10171000887100253AE0C4EBC40000EB80006B49FF
:1017200001EB80000C3005EB450100EB810004EB80
:1017300044016E4A02EB81030ECB0EC06C48015D82
:10174000C4EBC40000EB8000604A02EB800008306C
:101750004155C4EBC40202EB82025C4B03EB8202F4
:101760000C3205EB450302EB8302111DC4EBC402EE
:1017700002EB8202554B03EB82020C3205EB450370
:1017800052F82300FFF760FC681CC5B2C4EBC4002C
:1017900000EB80004D4901EB8000C079A842BADC23
:1017A000C4EBC40202EB82020B4603EB820202F19D
:1017B0003401C4EBC40202EB820203EB8202106B21
:1017C000FFF742FCC4EBC40202EB82023F4B03EB87
:1017D000820202F14001C4EBC40202EB820203EB7D
:1017E0008202D06BFFF730FCC4EBC40202EB820232
:1017F000364B03EB820202F15801C4EBC40202EB48
:10180000820203EB8202506DFFF71EFCC4EBC402A0
:1018100002EB82022D4B03EB8202B2F8582091B208
:10182000C4EBC40202EB820203EB8202506DFFF7AD
:101830007FFC322005F04AFAC4EBC40202EB8202BC
:10184000224B03EB8202B2F8582091B2C4EBC402DF
:1018500002EB820203EB8202506DFFF76BFCC4EBDC
:10186000C40202EB8202194B03EB8202928E91B208
:10187000C4EBC40202EB820203EB8202106BFFF79F
:1018800059FC322005F022FAC4EBC40202EB8202BA
:101890000E4B03EB8202928E91B2C4EBC40202EBB8
:1018A000820203EB8202106BFFF742FCC4EBC4021E
:1018B00002EB8202054B03EB8201E0B201F058FD1E
:1018C000641C082CFFF4C9AE70BD0000186F002026
:1018D000907B0008F07B0008307B0008B07C00089B
:1018E000087E0008207E0008107E0008507C00085A
:1018F000187E000810B5044600202080608020710A
:10190000E188A068FEF7E3FC10BD000010B54FF4BD
:1019100061710248FEF7DBFC10BD0000640100208D
:101920001CB50121452001F0B3F900208DF8040019
:101930008DF807004FF48060009069460E48FFF76D
:1019400083FB4FF40070009069460C48FFF77CFB66
:101950008020009069460A48FFF776FB202000901F
:1019600069460748FFF770FB4FF400700090694626
:101970000148FFF769FB1CBD00000240000802405F
:10198000001802404FF4FA701F49086048608860F0
:101990006420C8604FF4FA700861486140008861B3
:1019A00043F6F040C86147F2F85008624FF42F4008
:1019B00048624EF6080088620020C8621348086337
:1019C0000020486340F26C70886344F27400C8637E
:1019D00047F67C1008644BF2842048644EF68C3045
:1019E00088644FF21860C8644FF4C850086540F22C
:1019F000262048654FF60C00886540F2DC50C8652B
:101A000048F2606008667047FC000020A086010074
:101A1000F8B5044600252046FFF702FC8DF80000CB
:101A200002208DF8010000208DF8020001208DF8C1
:101A30000300684600F01AFC4949A06B884203D0B5
:101A40004849A06B884204D10121E06B01F050F9B4
:101A500003E00121E06B01F02BF92268216941EAE2
:101A60000200012101F014F93D49A06B884201D127
:101A7000072528E03C49A06B884201D1072522E0D8
:101A80003A49A06B884201D107251CE03849A06B78
:101A9000884201D1082516E03649A06B884201D161
:101AA000082510E02F49A06B884201D108250AE0E3
:101AB0003149A06B884201D1082504E02F49A06B71
:101AC000884200D10825218988B200F015FC06461D
:101AD0002A4631466068FFF7FFFA218B88B200F092
:101AE0000BFC06462A4631466069FFF7F5FA0021ED
:101AF000A06B02F0CBFB04F108016068FFF7A4FAC9
:101B000004F118016069FFF79FFA04F14001A06B2E
:101B100002F024FC012240F22551A06B02F0F9FBF7
:101B2000002240F22771A06B02F0F3FB4021A06B72
:101B300002F094FB0121A06B02F0A8FB4021A06BF6
:101B400002F08CFB04F12C00FFF7D4FE04F120001E
:101B5000FFF7D0FE012005F0DDFA6065F8BD00005A
:101B600000100140001401400044004000480040C3
:101B7000004C00400050004000780040007C0040D5
:101B800010B5044604EB440101EBC401034A02EB27
:101B9000C10101F12C00FFF7ADFE10BDE8040020EB
:101BA000014606480022026002461170080A507081
:101BB000080C9070080ED07010467047200000206E
:101BC00070B5002568212048FEF781FB68224FF49C
:101BD00080111D4803F054F864211B48FFF7CBF92E
:101BE00005461948406EA8422DD068224FF40001E6
:101BF000154803F045F864211348FFF7BCF9054682
:101C00001148406EA8421ED0FFF7BCFE4FF480146E
:101C100004E0200B02F0F0FF04F580540B488442EE
:101C2000F7D34FF4000408E02646E11704EB115106
:101C3000081302F0E1FF04F5805405488442F3DB09
:101C4000014801F077FA70BDFC0000200010100080
:101C50000010800010B54FF4FB711748FEF737FBFA
:101C60000120FFF78DFF09221449012002F054FFE3
:101C7000134A1149012001F097FA0F48B0F8F40116
:101C8000072813D10C48B0F8F401C01E0A49085CBB
:101C9000022806D00846B0F8F401C01E085C0328EC
:101CA00004D108A003F0D8F9002010BD08A003F06B
:101CB000D3F90120F9E7000088730020407E000876
:101CC0007C750020C4DAC9A8C2EB4F4B0D0A000096
:101CD000C4DAC9A8C2EB4E470D0A000000BFFEE7F8
:101CE00010B5012005F016FA0449086001F08AF9E0
:101CF000FFF71EFCFFF796FC10BD00005800002007
:101D00002DE9F04106460D4617463046FFF728FA02
:101D100004464FF00008206850B94DB939463046A6
:101D200000F0ACF810B90020BDE8F0810120FBE71D
:101D30003946304600F0F0F92068A84217DA2068EA
:101D4000A5EB0008A07908B9012000E000200146B9
:101D50004246304601F0BCFC3946304603F0D8F824
:101D600000287CD1304601F083FD0020DCE72068AC
:101D7000A8427ADD2068A0EB0508A17942463046EA
:101D800001F0A6FC02E0052004F0A0FF3046FFF7BA
:101D9000F3F940B93046FFF7CFF920B9304600F0EB
:101DA000B3F90028EFD0304601F062FD002D5CD180
:101DB000B4F88920A179304601F09BFC02E00520AF
:101DC00004F084FF3046FFF7D7F920B9304600F021
:101DD0009BF90028F3D0304601F04AFD5EB9264851
:101DE0000268A179304601F073FC642004F06EFFB4
:101DF000304601F03DFD012E0BD11F484268A1790C
:101E0000304601F065FC642004F060FF304601F0CC
:101E10002FFD022E0BD118488268A179304601F0BF
:101E200057FC642004F052FF304601F021FD032EE0
:101E30000BD11148C268A179304601F049FC6420F9
:101E400004F044FF304601F013FD042E0DD10A4882
:101E50000269A179304601F03BFC642000E004E017
:101E600004F034FF304601F003FD2560304600F0F9
:101E700067F9012058E70000FC0000202DE9F0413F
:101E80000546884600262846FFF76AF9044641467B
:101E9000284600F041F94146284603F039F810B9C8
:101EA0000020BDE8F08100273CE01EE0022E01DDAD
:101EB0000020F6E7424830F81520A07908B9012043
:101EC00000E000200146284601F002FC642004F0F6
:101ED000FDFE4146284603F01BF820B9284601F0D4
:101EE000C7FC0020DDE7701CC6B22846FFF744F9A6
:101EF0000028DBD1B4F88920A179284601F0F9FB4C
:101F000002E0052004F0E2FE2846FFF735F920B98B
:101F1000284600F0F9F80028F3D0284601F0A8FC84
:101F2000781CC7B2022FC0DB284600F009F95DB962
:101F300024480268A179284601F0CAFB642004F015
:101F4000C5FE284601F094FC012D0BD11D484268C6
:101F5000A179284601F0BCFB642004F0B7FE2846B6
:101F600001F086FC022D0BD116488268A179284623
:101F700001F0AEFB642004F0A9FE284601F078FCD5
:101F8000032D0BD10F48C268A179284601F0A0FBB0
:101F9000642004F09BFE284601F06AFC042D0BD15E
:101FA00008480269A179284601F092FB642004F0F8
:101FB0008DFE284601F05CFC00202060012070E7C7
:101FC0005C000020FC00002010B500240A22002143
:101FD0000420FFF795FE18B944F02004204610BDF8
:101FE0004448806D434AD26D811A0A220420FFF7CB
:101FF00087FE0A2200210220FFF782FE18B944F072
:1020000004042046EBE73B48816B0A220220FFF7DD
:1020100077FE0A2200210320FFF772FE18B944F070
:1020200008042046DBE70A2200210520FFF768FEAE
:1020300018B944F020042046D1E72E48C16C0A228A
:102040000220FFF75DFE2B48016D0A220320FFF7F7
:1020500057FE2848416D0A220420FFF751FE06E092
:1020600025A002F0F9FF4FF4487004F02FFE254838
:1020700000780028F4D01F48816D0A220420FFF761
:102080003FFE1C48816D0A220420FFF739FE0A2218
:1020900000210320FFF734FE1648806D154AD26DEB
:1020A000811A0A220420FFF72BFE1248816B0A22B4
:1020B0000220FFF725FE0A2200210120FFF720FE63
:1020C00018B944F00204204689E70A220021084694
:1020D000FFF716FE18B944F0010420467FE70548D3
:1020E00081690A220020FFF70BFE002005490870D5
:1020F000204674E7FC000020B5C8B4FDC7E5BFA8C2
:102100000D0A00006E0000200146024800EBC100ED
:10211000C07870477E750020084A02EBC0025170FB
:102120000122064B03F83020002203EBC0039A7013
:10213000024B03EBC003DA70704700007E7500208D
:102140000021034A02F8301002EBC0029170704780
:102150007E75002010B502F00AF840210748FEF70E
:10216000B6F807480549486001460448C160416126
:10217000C1614162C1624163C16310BD7E750020CF
:10218000A512000810B5002400BF25E0144810F87F
:10219000340000B3124800EBC4004078002809DD89
:1021A0000F4800EBC4004078401E0D4901EBC4010C
:1021B000487010E001200A4901EBC401887000203A
:1021C000074901F83400012001EBC401C870611C0B
:1021D00004A002F041FF641C082CD7DB10BD0000F6
:1021E0007E750020B5E7BBFA2564B6A8CAB1C6F76C
:1021F000B3ACCAB10D0A000010B5002410E00A48C3
:1022000000EBC400807850B10020074901EBC40105
:102210008870E0B2044A02EBC40251688847641C2B
:10222000082CECDB10BD00007E75002006E000F0FD
:1022300007F800F019FE142004F048FDF7E700004D
:1022400010B500240BE004EB440101EBC401054A86
:1022500002EBC1002146FFF74DF8601CC4B2082C08
:10226000F1DB10BDE80400207047000070B50021CC
:1022700000230F22C4781CB3174C246804F4E064D4
:10228000C4F5E064C4F30721C1F10404E3B20A41D8
:1022900044789C40E1B28478144021430C07210E1D
:1022A0000E4C05786155047804F01F050124AC40FC
:1022B00005786D11AD0005F1E025C5F8004109E094
:1022C000047804F01F050124AC40054D0678761112
:1022D00045F8264070BD00000CED00E000E400E091
:1022E00080E100E002490143024A116070470000AA
:1022F0000000FA050CED00E00246002100BF07E0F7
:1023000001208840104008B1C8B27047481C81B213
:102310001029F5DB0020F8E770B504460D4660781B
:102320002178884201D1002070BD227802EB820220
:10233000A06800EB820114222846FDF7AFFF207849
:10234000401C616890FBF1F201FB1200207001203B
:10235000EAE710B5014600204A880B889A4201D16D
:102360000A79AAB10B888A68D05C0B888A681A44FB
:10237000002313700A88521CCB8892FBF3F403FBF2
:1023800014220A804A880B889A4201D100220A71DD
:1023900010BD00003EB5054641A12846FDF7A2FF4D
:1023A000002869D040A002F057FE4EA002F054FE73
:1023B0003DA002F051FE5AA002F04EFE61A002F0D4
:1023C0004BFE6CA002F048FE7AA002F045FE87A00A
:1023D00002F042FE924802F03FFE924802F03CFEBC
:1023E000914802F039FE914802F036FE904802F022
:1023F00033FE90A002F030FE9DA002F02DFEAC480E
:1024000002F02AFEABA002F027FEBA4802F024FE3A
:10241000B94802F021FEB94802F01EFEB84802F0A9
:102420001BFEB84802F018FEB74802F015FEB74888
:1024300002F012FEB64802F00FFEB64802F00CFEA3
:10244000B54802F009FEB54802F006FEB4A002F05D
:1024500003FEC1A002F000FECCA002F0FDFDD9A059
:1024600002F0FAFDE6A002F0F7FDF1A002F0F4FDA3
:102470000DA002F0F1FD7FE2F9A12846FDF732FF41
:1024800018B1012002F058FD76E2F8A12846FDF7C8
:1024900029FF0028EFD000200290002431E2000044
:1024A0006C697374000000002A2A2A2A2A2A2A2A20
:1024B0002A2A2A2A2A2A2A2A2A2A2A2A2A2A2A2A7C
:1024C0002A2A2A2A2A2A2A2A2A2A2A2A2A2A2A2A6C
:1024D0002A2A2A2A2A2A2A2A2A2A2A2A2A2A2A2A5C
:1024E0000D0A00002A2A2A2A2A2A20202020202019
:1024F000202020202020202020B5F7CAD4B2CBB540
:10250000A520202020202020202020202020202046
:1025100020202020202A2A2A2A2A2A0D0A00000008
:10252000C7EBD1A1D4F1CAE4C8EBC3FCC1EEA3A8A8
:10253000CAAEC1F9BDF8D6C6B7A2CBCDA3A90D0AC4
:1025400000000000C3FCC1EEA3BA41413033304269
:102550003031303030303030303030304135A3AC75
:10256000B6AFD7F7A3BABFAABBFAB3F5CABCBBAF25
:102570000D0A0000C3FCC1EEA3BA41413033313033
:10258000313130305858285858B1EDCABEC8A1BCB6
:10259000B8BAC5BFA8293030303030304135A3AC8F
:1025A000B6AFD7F7A3BAC8A15858BAC5BFA80D0A85
:1025B00000000000C3FCC1EEA3BA4141303331300A
:1025C0003132303030303030303030304135A3AC03
:1025D000B6AFD7F7A3BAB2E9D1AFCAC7B7F1D7BC84
:1025E000B1B8BAC3BDF8BFA80D0A0000C3FCC1EE64
:1025F000A3BA4141303331303133303030303030B4
:10260000303030304135A3ACB6AFD7F7A3BAB2A65D
:10261000BFA8BDF8B7B4D3A6C5CC0D0A0000000012
:102620003C7F0008AC7F00081C80000894800008F4
:1026300004810008C3FCC1EEA3BA414130333030FD
:102640003331303030303030303030304135A3AC81
:10265000B6AFD7F7A3BABFA8BAD0BAE1D2C6B5E72A
:10266000BBFA284D543129B8B4CEBB0D0A00000086
:10267000C3FCC1EEA3BA4141303330313331303085
:1026800030303030303030304135A3ACB6AFD7F7D2
:10269000A3BABFA8CCF5B3F6BAD0C7FDB6AFB5E7BD
:1026A000BBFA284D543229B8B4CEBB0D0A00000045
:1026B000B07E0008C3FCC1EEA3BA414130333033D1
:1026C0003331303030303030303030304135A3AC01
:1026D000B6AFD7F7A3BABFA8CCF5BBBBCFF2C7FD47
:1026E000B6AFB5E7BBFA284D543429B8B4CEBB0D0C
:1026F0000A000000F87E000860820008D48200080A
:1027000048830008BC83000830840008A4840008C3
:102710007C81000814850008E88100088485000891
:10272000C3FCC1EEA3BA41413033313044423030B2
:1027300030303030303030304135A3ACB6AFD7F721
:10274000A3BAB1A3B4E6C9E8D6C3B5C4CFB5CDB377
:10275000B2CECAFD0D0A0000C3FCC1EEA3BA4141CE
:10276000303331304443303030303030303030303E
:102770004135A3ACB6AFD7F7A3BAB6C1C8A1CFB5A0
:10278000CDB3B2CECAFD0D0A00000000C3FCC1EEFD
:10279000A3BA414130333130343030303030303012
:1027A000303030304135A3ACB6AFD7F7A3BABBF168
:1027B000C8A1CFC2CEBBBBFAB0E6B1BEBAC50D0A46
:1027C00000000000C3FCC1EEA3BA414130333130F8
:1027D0003439303030303030303030304135A3ACE7
:1027E000B6AFD7F7A3BABCECB2E9BFA8BAD0CEA2B5
:1027F000B6AFBFAAB9D8D7B4CCAC0D0A0000000060
:10280000C3FCC1EEA3BA41413033313036303030F1
:1028100030303030303030304135A3ACB6AFD7F740
:10282000A3BABFAACABCC0CFBBAF0D0A000000004C
:10283000C3FCC1EEA3BA41413033313036313030C0
:1028400030303030303030304135A3ACB6AFD7F710
:10285000A3BACDA3D6B9C0CFBBAF0D0A000000000C
:102860006F70656E7363616E00000000626F6B6174
:1028700000000000012000F081F800F09DF9042024
:1028800002A90023AB22CDE90010102100F0BEFE0A
:10289000022000F073F800F08FF9042002A9002351
:1028A000AB22CDE90010102100F0B0FE032000F0B3
:1028B00065F800F081F9042002A90023AB22CDE9DC
:1028C0000010102100F0A2FE042000F057F800F0E4
:1028D00073F9042002A90023AB22CDE900101021D6
:1028E00000F094FE052000F049F800F065F904209E
:1028F00002A90023AB22CDE90010102100F086FED2
:10290000641C042CB6DB012000F038F800F054F908
:10291000042002A90023AB22CDE90010102100F011
:1029200075FE022000F02AF800F046F9042002A902
:102930000023AB22CDE90010102100F067FE032038
:1029400000F01CF800F038F9042002A90023AB22A3
:10295000CDE90010102100F059FE042000F00EF81F
:1029600000F02AF9042002A90023AB22CDE90010CF
:10297000102100F04BFE00BF3EBD000010B5044624
:102980000A2200210320FFF7BBF9062C4BD2DFE817
:1029900004F04A03101D2A373748816B0A220220AF
:1029A000FFF7AEF9344881690A220020FFF7A8F941
:1029B00039E03148C16B0A220220FFF7A1F92E4805
:1029C000C1690A220020FFF79BF92CE02A48016C1C
:1029D0000A220220FFF794F92748016A0A22002000
:1029E000FFF78EF91FE02448416C0A220220FFF70E
:1029F00087F92148416A0A220020FFF781F912E095
:102A00001D48816C0A220220FFF77AF91A48816A70
:102A10000A220020FFF774F91748016E0A220520E8
:102A2000FFF76EF900BF00BF1348016B0A220120B7
:102A3000FFF766F91048416B0A220120FFF760F9A1
:102A40000A2200210846FFF75BF90B48C16C0A22F5
:102A50000220FFF755F90848016D0A220320FFF70D
:102A60004FF90548416D0A220420FFF749F901207A
:102A70000249087010BD0000FC0000206C0000201E
:102A80001CB504460A2200210320FFF739F9062C61
:102A90004BD2DFE804F04A03101D2A374348816B0C
:102AA0000A220220FFF72CF9404881690A220020FF
:102AB000FFF726F939E03D48C16B0A220220FFF7F3
:102AC0001FF93A48C1690A220020FFF719F92CE0E2
:102AD0003648016C0A220220FFF712F93348016AD6
:102AE0000A220020FFF70CF91FE03048416C0A224F
:102AF0000220FFF705F92D48416A0A220020FFF75E
:102B0000FFF812E02948816C0A220220FFF7F8F84A
:102B10002648816A0A220020FFF7F2F82348016E56
:102B20000A220520FFF7ECF800BF00BF1F48016B29
:102B30000A220120FFF7E4F81C48416B0A22012019
:102B4000FFF7DEF8012002F0F7F940B10F20184B33
:102B5000012247210090102000F0F8FC0AE000203C
:102B60000190042001AB022247210090102000F0C8
:102B7000EDFC00BF0A2200210846FFF7C1F80B4810
:102B8000C16C0A220220FFF7BBF80848016D0A2237
:102B90000320FFF7B5F80548416D0A220420FFF72E
:102BA000AFF80120034908701CBD0000FC000020A4
:102BB000797300206C00002010B50C48816D0A224A
:102BC0000420FFF79DF80020094908700A2200211F
:102BD0000320FFF795F80548806D044AD26D811AED
:102BE0000A220420FFF78CF810BD0000FC00002032
:102BF0006C0000200FB410B504466078401C61687A
:102C000090FBF1F201FB12002178884203D10020F1
:102C100010BC5DF814FB627802EB8202A16801EB44
:102C20008200142203A9FDF739FB6078401C61681B
:102C300090FBF1F201FB120060700120E8E710B593
:102C4000024650881388984204D11079012801D196
:102C5000002010BD53889068C1545088401CD38810
:102C600090FBF3F403FB14005080508813889842C3
:102C700001D1012010710120EBE7014648880A8844
:102C8000904203D10879012800D170470020FCE769
:102C900029B1064A12680243044B1A6004E0034A51
:102CA00012688243014B1A607047000030380240BE
:102CB00029B1064A12680243044B1A6004E0034A31
:102CC00012688243014B1A6070470000403802408E
:102CD00029B1064A12680243044B1A6004E0034A11
:102CE00012688243014B1A6070470000203802408E
:102CF00029B1064A12680243044B1A6004E0034AF1
:102D000012688243014B1A60704700004438024049
:102D100029B1064A12680243044B1A6004E0034AD0
:102D200012688243014B1A60704700002438024049
:102D3000F0B5002100220024022500260223324F94
:102D40003F6807F00C0121B1042905D0082937D1CB
:102D500005E02E4F076036E02D4F076033E02A4F25
:102D60003F1F3F68C7F38056274F3F1F3F6807F05C
:102D70003F036EB1264FB7FBF3F7DFF88CC0ACF121
:102D8000040CDCF800C0CCF3881C07FB0CF40CE04E
:102D90001E4FB7FBF3F7DFF870C0ACF1040CDCF8A2
:102DA00000C0CCF3881C07FB0CF4174F3F1F3F6893
:102DB000C7F301477F1C7D00B4FBF5F7076002E015
:102DC000124F076000BF00BF0F4F3F6807F0F001D0
:102DD0000909104F7A5C0768D74047600A4F3F687F
:102DE00007F4E051890A0B4F7A5C4768D740876047
:102DF000054F3F6807F46041490B064F7A5C47680E
:102E0000D740C760F0BD0000083802400024F4003D
:102E100040787D017600002010B504462179607964
:102E2000814218D06079401CA16890FBF1F201FB4F
:102E300012002179884202D107A002F00DF9094859
:102E400000210160416081600146201DFFF764FAA6
:102E50000448216B884710BDB6D3C1D0C2FA0D0A11
:102E600000000000501D002010B500240AE004EB13
:102E7000840101EBC401054A02EB8100FFF7CCFF9E
:102E8000601CC4B2012CF2DB10BD00001C1D002030
:102E90000146002200E0521C802AFCD300BF0A4AEF
:102EA000128802F00202002AF9D0074A121D11808E
:102EB00000BF054A128802F00102002AF9D0024A36
:102EC000121D1288D0B270470834014021B1028827
:102ED00042F04002028004E002884FF6BF731A40BD
:102EE000028070470246002013890B400BB101207D
:102EF00000E0002070470146888970478181704753
:102F000010B50022028802F441520B884C882343FA
:102F10008C882343CC8823430C8923434C89234347
:102F20008C892343CC8923431A430280838B4FF23D
:102F3000FF74234083830B8A038210BD00B587B0E2
:102F400001210C20FFF7A4FE02208DF818000020BC
:102F50008DF81A0001208DF81B0002208DF8190051
:102F60000C20059005A92448FEF76EF8082005906E
:102F700005A92248FEF768F8052203211F48FEF73D
:102F8000ABF8052202211C48FEF7A6F80522032112
:102F90001948FEF7A1F801218803FFF789FE0021F7
:102FA0001748FFF793FF0020ADF800004FF4827040
:102FB000ADF802000020ADF804000220ADF80600D4
:102FC0000120ADF808004002ADF80A003020ADF84D
:102FD0000C000020ADF80E000720ADF81000694687
:102FE0000748FFF78DFF01210548FFF76FFFFF201E
:102FF00000F062F807B000BD00080240000C02407B
:103000000038004000B587B001210846FFF740FEB8
:1030100002208DF8180000208DF81A0001208DF88C
:103020001B0002208DF819004FF4E040059005A91F
:103030001F48FEF709F805220C211D48FEF74CF841
:1030400005220D211A48FEF747F805220E211848DF
:10305000FEF742F801214803FFF74AFE0021154818
:10306000FFF734FF0020ADF800004FF48270ADF898
:1030700002000020ADF804000220ADF80600012097
:10308000ADF808004002ADF80A003020ADF80C00A1
:103090000020ADF80E000720ADF810006946054885
:1030A000FFF72EFF01210348FFF710FF07B000BD17
:1030B000001002400034014070B50546002405E0D0
:1030C000601CC4B2C82C01DD002070BD02210E4876
:1030D000FFF708FF0028F3D029460B48FFF70EFF43
:1030E000002405E0601CC4B2C82C01DD0020ECE720
:1030F00001210548FFF7F6FE0028F3D00248FFF74C
:10310000FAFEC0B2E1E700000038004010B5044606
:10311000074800884FF6C7710840054908800846EF
:1031200000882043088001210148FFF7CFFE10BD31
:103130000038004010B5044664212046FDF71BFF0F
:10314000606603F021FD68224FF48011064801F00B
:1031500005FE68224FF40001034801F0FFFD03F073
:103160003DFD012010BD0000FC0000201CB5012128
:103170000820FFF78DFD00208DF8050001208DF857
:10318000040000208DF8060002208DF80700802042
:10319000009069460348FDF757FF80210148FDF77D
:1031A000C9FF1CBD000C02402DE9F04105460C464C
:1031B0001646082D01DDBDE8F0814FF4C87003F01C
:1031C00085FD00205B4908804FF4FA715A48FDF7ED
:1031D0007EF805EB450101EBC501584A02EBC10140
:1031E00001F12C00FDF7DBFF00287DD09EE005EB10
:1031F000450101EBC501514A02EBC10101F12C006F
:10320000FDF7CDFF002870D005EB450101EBC501AE
:103210004A4A02EBC10101F12C00FFF79AF8454937
:103220000A880988491C434B198043498854072D53
:1032300043D108460078022878D118460088801EBD
:10324000085C0D2872D118460088401E085C0A28C8
:103250006CD1184601883AA001F0FEFE354800887E
:10326000232807D1232234492046FDF717F82320CD
:103270003080A0E72F4800880E2812D100270BE0ED
:103280002D49781C085C30382070641C217831A0EE
:1032900001F0E2FE781CC7B20B2FF1DB0B2030806F
:1032A00089E724480088062840D123480168216026
:1032B0008088A080062030807DE71E480088C01EE0
:1032C0001D49085C022805D01A480088C01E085C09
:1032D000032810D117480088072827D1164801680D
:1032E00021608188A18001E021E01BE08079A0714C
:1032F000072030805FE70F480088801E0E49085C79
:10330000332813D10B480088401E085C31280DD1AA
:103310000846016821608188A1808079A07107201A
:10332000308048E70EA001F097FE44E75FE700BF5A
:1033300041E7000024000020281B0020E8040020B2
:10334000675F52784275664C656E203D2025640D9E
:103350000A000000627566203D2025630D0A00000A
:10336000C9A8C2EBC6F7B4EDCEF30D0A0000000009
:1033700070B505460C46042304F16002012128467D
:1033800000F09CF8022304F164021946284600F07C
:1033900095F8042304F166020321284600F08EF814
:1033A000042304F16A021946284600F087F8022334
:1033B00004F16E020521284600F080F8022304F192
:1033C00070020621284600F079F8022304F1720207
:1033D0000721284600F072F8022304F17402082144
:1033E000284600F06BF8022304F1760215212846E6
:1033F00000F064F8012304F178020921284600F066
:103400005DF8012304F179020A21284600F056F8FC
:10341000012304F17A020B21284600F04FF8012322
:1034200004F17B020C21284600F048F8022304F145
:103430007C020D21284600F041F8012304F17E02B0
:103440000E21284600F03AF8012304F17F020F21F3
:10345000284600F033F8012304F1800210212846A9
:1034600000F02CF8012304F181021121284600F01C
:1034700025F8012304F183021321284600F01EF8E9
:10348000012304F184021421284600F017F80123D7
:1034900004F185021621284600F010F8012304F1FA
:1034A00086021721284600F009F8022304F187025A
:1034B0001821284600F002F870BD00002DE9F04701
:1034C00080460C4617461D4600235A1E19461E48C4
:1034D000006803F089FE0121404600F01BF9052039
:1034E00003F0FAFA2046FFF7D3FC052003F0F4FAC4
:1034F0000021404600F00EF94FF00009032D02DDD7
:103500004FF0030900E0A946A9F1010611E00121ED
:10351000404600F0FFF8052003F0DEFAB85DFFF743
:10352000B7FC052003F0D8FA0021404600F0F2F87D
:10353000761E002EEBDA00231A4619460248006870
:1035400003F05EFFBDE8F087580000202DE9FC473E
:103550008046894692461F460A9C00260025002088
:103560000090019003208DF800008DF801808DF807
:1035700002908DF803A02448FEF7BCF900BF39E0A3
:10358000E11704EB9171B6EBA10F1FD1E11704EB2A
:1035900091718910A4EB810151B3002507E004204B
:1035A00000FB0650395C01A84155681C85B2E11743
:1035B00004EB91718910A4EB8101A942EFDC082191
:1035C0006846FDF769FC0020019011E0002507E046
:1035D000042000FB0650395C01A84155681C85B2E7
:1035E000042DF5DB08216846FDF756FC002001900C
:1035F000701C86B2E11704EB9171012202EBA1016C
:10360000B142BDDCBDE8FC87401D00202DE9FC5F18
:103610000746884691469A46DDE90CB40026002507
:103620000020009001908DF800708DF801808DF8D9
:1036300002908DF803A02548FEF75CF900BF3BE03F
:10364000E11704EB9171B6EBA10F20D1E11704EB68
:1036500091718910A4EB810161B3002508E0042079
:1036600000FB06501BF8001001A84155681C85B2EC
:10367000E11704EB91718910A4EB8101A942EEDC02
:1036800008216846FDF708FC0020019012E00025A3
:1036900008E0042000FB06501BF8001001A841556B
:1036A000681C85B2042DF4DB08216846FDF7F4FBA5
:1036B00000200190701C86B2E11704EB9171012289
:1036C00002EBA101B142BBDCBDE8FC9F401D002024
:1036D00037B582B005460C46002001900498019051
:1036E00044F04001042304AA2846FFF7E7FE05B092
:1036F00030BD37B582B005460C46002001900498D5
:10370000019044F05001042304AA2846FFF7D6FE96
:1037100005B030BD70B504460D46012D36D1082CDC
:1037200033D2DFE804F004090E141A20262C4021BD
:103730003248FDF7FDFC28E002213148FDF7F8FC96
:1037400023E04FF400412F48FDF7F2FC1DE04FF459
:1037500000712D48FDF7ECFC17E04FF4006128489C
:10376000FDF7E6FC11E04FF480612848FDF7E0FC2E
:103770000BE04FF480712648FDF7DAFC05E04FF4CA
:1037800000512348FDF7D4FC00BF36E0082C33D2AB
:10379000DFE804F004090E141A20262C40211748F3
:1037A000FDF7C8FC28E002211548FDF7C3FC23E023
:1037B0004FF400411348FDF7BDFC1DE04FF40071CC
:1037C0001148FDF7B7FC17E04FF400610C48FDF716
:1037D000B1FC11E04FF480610C48FDF7ABFC0BE04D
:1037E0004FF480710A48FDF7A5FC05E04FF4005145
:1037F0000748FDF79FFC00BF00BF70BD00000240FE
:10380000000402400014024000100240001C02406C
:10381000000C024070B505460C46012C05D1D4229F
:103820000021284601F0C8FB16E0022C05D1D52264
:103830000021284601F0C0FB0EE0032C05D1D62262
:103840000021284601F0B8FB06E0042C04D1D72261
:103850000021284601F0B0FB70BD000008B1012135
:1038600000E00021014A11707047000078730020C9
:1038700070B50546C5EBC50000EB8000084901EBBB
:103880008004A28E91B2206BFDF754FC142002F04C
:10389000D7FDA28E91B2206BFDF74AFC70BD0000EF
:1038A000186F00200CB5002001900090414800687E
:1038B00040F480303F49086000BF3E48006800F493
:1038C000003000900198401C0190009818B90198B0
:1038D000B0F5A04FF1D13748006800F4003010B1C6
:1038E0000120009001E0002000900098012860D1A4
:1038F00030484030006840F080502E494031086028
:103900002D48006840F440402B49086029480830A1
:1039100000682849083108600846006840F4004003
:1039200008600846006840F4A05008602348091F5A
:103930000860081F006840F08070091F086000BF21
:103940001C48006800F000700028F9D01A48006890
:1039500040F480301849086000BF1748406800F400
:1039600080300028F9D01448006840F40030124933
:10397000086000BF1048406800F400300028F9D00B
:1039800040F205700E4908600A480830006820F0CF
:1039900003000849083108600846006840F002004A
:1039A000086000BF03480830006800F00C000828D9
:1039B000F8D10CBD00380240007000401954400797
:1039C000003C02401CB5044600200190A078462827
:1039D00072D014DC132870D008DC012824D002280F
:1039E0003DD011286AD0122869D1B0E0242867D0D0
:1039F00030284FD031287DD04028F5D12EE1DB286A
:103A000072D008DC472870D060286FD061286ED053
:103A1000DA28E9D1ECE0DC286AD0DE2851D0DF28B2
:103A200067D0E128E0D14FE100230A222146D9489E
:103A3000006803F0E5FC012808D1042001AB012255
:103A4000114600900B20FFF781FD07E0042001AB39
:103A50000022BB2100901020FFF778FD98E10023A1
:103A60000A222146CB48006803F0CAFC012808D18D
:103A7000042001AB0122022100901020FFF766FD17
:103A800007E0042001AB0022BB2100901020FFF7CB
:103A90005DFD7DE100230A222146BE48006803F057
:103AA000AFFC012807D0042001AB0022BB2100900D
:103AB0001020FFF74BFD6BE14EE163E02CE066E187
:103AC0007BE000230A222146B348006803F098FCFB
:103AD000012807D0042001AB0022BB210090102058
:103AE000FFF734FD54E105E094E0C9E0FEE018E1A1
:103AF000A2E0D7E000230A222146A648006803F08E
:103B00007FFC012807D0042001AB0022BB210090DC
:103B10001020FFF71BFD3BE100230A2221469D48B0
:103B2000006803F06DFC012808D1042001AB0122DC
:103B3000112100901020FFF709FD07E0042001ABE0
:103B40000022BB2100901020FFF700FD20E10023A0
:103B50000A2221468F48006803F052FC012808D150
:103B6000042001AB0122122100901020FFF7EEFC8F
:103B700007E0042001AB0022BB2100901020FFF7DA
:103B8000E5FC05E100230A2221468248006803F093
:103B900037FC012808D1042001AB01221321009039
:103BA0001020FFF7D3FC07E0042001AB0022BB216B
:103BB00000901020FFF7CAFCEAE000230A22214609
:103BC0007448006803F01CFC012808D1042001ABF4
:103BD0000122242100901020FFF7B8FC07E0042008
:103BE00001AB0022BB2100901020FFF7AFFCCFE01B
:103BF00000230A2221466748006803F001FC0128DF
:103C000007D0042001AB0022BB2100901020FFF759
:103C10009DFCBDE000230A2221465E48006803F0B7
:103C2000EFFB012807D0042001AB0022BB2100904C
:103C30001020FFF78BFCABE000230A2221465548F9
:103C4000006803F0DDFB012807D0042001AB00224F
:103C5000BB2100901020FFF779FC99E000230A2295
:103C600021464C48006803F0CBFB012807D0042014
:103C700001AB0022BB2100901020FFF767FC87E01A
:103C800000230A2221464348006803F0B9FB0128BB
:103C900007D0042001AB0022BB2100901020FFF7C9
:103CA00055FC75E000230A2221463A48006803F0DB
:103CB000A7FB012807D0042001AB0022BB21009004
:103CC0001020FFF743FC63E000230A22214631481D
:103CD000006803F095FB012807D0042001AB002207
:103CE000BB2100901020FFF731FC51E000230A2295
:103CF00021462848006803F083FB012808D10420EE
:103D000001AB0122602100901020FFF71FFC07E0AB
:103D1000042001AB0022BB2100901020FFF716FC0D
:103D200036E000230A2221461B48006803F068FBA6
:103D3000012808D1042001AB01226121009010204C
:103D4000FFF704FC07E0042001AB0022BB21009038
:103D50001020FFF7FBFB1BE000230A2221460D4841
:103D6000006803F04DFB012808D1042001AB0122BB
:103D7000462100901020FFF7E9FB07E0042001AB8B
:103D80000022BB2100901020FFF7E0FB00E000BF05
:103D900000BF1CBD340000203800002010B500BF5B
:103DA0001020EFF3118180F31188BFF34F8FBFF321
:103DB0006F8F00BF03F0DEFC18B14FF08050034955
:103DC0000860002080F3118800BF10BD04ED00E002
:103DD00010B5002408E004EB8401134A02EB410013
:103DE00002F003FB601CC4B2102CF4DB0F48006827
:103DF000401C0E490860084600686FF00041884288
:103E000002D100200949086002F0EAFA0848007867
:103E1000401CC0B206490870052803DB002008706A
:103E200002F0E2FA10BD0000786E00205000002081
:103E30005400002010B51548006840F47000134984
:103E400008601348006840F0010011490860002034
:103E50000F49083108600E4800680E4908400C49B7
:103E600008600D48091D0860081F006820F48020C4
:103E7000091F0860002006490C310860FFF712FD99
:103E80004FF0006001498039086010BD88ED00E006
:103E900000380240FFFFF6FE1030002410B501216B
:103EA000880700F0FFF828B10121880700F023F807
:103EB000FEF768F910BD000010B50121054800F0BB
:103EC000F1F828B1FFF784FF0121024800F013F850
:103ED00010BD00000010004021B1028842F08002B5
:103EE000028004E002884FF67F731A400280704718
:103EF000CA4302827047CA430282704721B10288D6
:103F000042F00102028004E002884FF6FE731A407C
:103F10000280704710B504465548844208D10121FB
:103F20000846FEF7F5FE00210120FEF7F1FE9DE0B8
:103F3000B4F1804F08D101210846FEF7C9FE0021E7
:103F40000120FEF7C5FE91E04A48844208D10121D4
:103F50000220FEF7BDFE00210220FEF7B9FE85E03B
:103F60004548844208D101210420FEF7B1FE00211A
:103F70000420FEF7ADFE79E04048844208D10121DB
:103F80000820FEF7A5FE00210820FEF7A1FE6DE047
:103F90003B48844208D101211020FEF799FE002100
:103FA0001020FEF795FE61E03648844208D10121D9
:103FB0002020FEF78DFE00212020FEF789FE55E02F
:103FC0003148844208D101210220FEF7A1FE0021E0
:103FD0000220FEF79DFE49E02C48844209D10121D0
:103FE0000804FEF795FE00214FF48030FEF790FEA6
:103FF0003CE02748844209D101214804FEF788FEAD
:1040000000214FF40030FEF783FE2FE02148844268
:1040100009D101218804FEF77BFE00214FF48020A6
:10402000FEF776FE22E01C48844208D101214020A0
:10403000FEF74EFE00214020FEF74AFE16E017482C
:10404000844208D101218020FEF742FE0021802019
:10405000FEF73EFE0AE01248844207D10121801596
:10406000FEF736FE0021A015FEF732FE10BD00005F
:10407000000001400004004000080040000C004027
:1040800000100040001400400004014000400140C6
:10409000004401400048014000180040001C00405E
:1040A0000020004030B50246002000230024158A7D
:1040B00005EA0103958905EA010413B10CB1012059
:1040C00000E0002030BD1AB183890B43838102E0F8
:1040D00083898B438381704700220288184B984262
:1040E0000ED0184B98420BD0B0F1804F08D0164B31
:1040F000984205D0154B984202D0154B984204D1F6
:104100004FF68F731A404B881A43124B984207D0D0
:10411000114B984204D04FF6FF431A400B891A43C3
:1041200002804B68C3620B880385054B984202D01E
:10413000044B984201D18B7A038601238382704716
:10414000000001400004014000040040000800405D
:10415000000C004000100040001400404FF0FF3100
:1041600041600021018001814180817270471FB54B
:104170001C208DF80C0000208DF80D008DF80E002D
:1041800001208DF80F0003A8FEF770F80121084602
:10419000FEF78EFD42F2CF00ADF800000020ADF832
:1041A0000800ADF802004FF08040FFF7B3FE42F286
:1041B0000F70019069464FF08040FFF78DFF01219D
:1041C0008807FFF795FE012211469007FFF77BFF56
:1041D00001218807FFF792FE1FBD000010B50248BD
:1041E00000F060FC10BD0000F005002010B5024892
:1041F00000F058FC10BD00004806002010B5024831
:1042000000F050FC10BD0000F806002010B5024878
:1042100000F048FC10BD00005007002010B5024817
:1042200000F040FC10BD0000E804002010B502487A
:1042300000F038FC10BD00004005002010B5024819
:1042400000F030FC10BD00009805002010B50248B9
:1042500000F028FC10BD0000A006002001F4007250
:10426000B2F5007F00D100BFCA430280704710B58D
:104270000022002340F66A14A14200D100BF0A12B6
:1042800001249440A3B2DC43048010BD21B1828993
:1042900042F40052828104E082894DF6FF731A4095
:1042A0008281704702460020B1F5007F00D100BF37
:1042B00013880B400BB1012000E00020704770B55F
:1042C0000246002400230025002040F66A16B14271
:1042D00000D100BFC1F3421501F01F03012606FA09
:1042E00003F3012D02D19689334006E0022D02D15D
:1042F000168A334001E0968A33400C12012606FAF2
:1043000004F41688344013B10CB1012000E0002001
:1043100070BDF0B50346002400260025002040F6BD
:104320006A17B94200D100BF1846C1F3421401F028
:104330001F06012707FA06F5012C01D10C3004E015
:10434000022C01D1103000E014301AB107682F435D
:10435000076002E00768AF430760F0BD2DE9FF4743
:1043600005460E460024A14600BFA046B08900B114
:1043700000BF2C8A24F44054F08804432C82AC897A
:1043800041F20C608443B088318908437189084345
:104390000443AC81AC8A24F44074B0890443AC82F9
:1043A0006846FEF7C5FC2048854202D01F4885427A
:1043B00002D1DDF80C9001E0DDF80890A88900F446
:1043C000004040B109EBC90000EB09103168490019
:1043D000B0FBF1F707E009EBC90000EB0910316809
:1043E0008900B0FBF1F76420B7FBF0F0040120096D
:1043F000642101FB1078A88900F4004040B132200C
:1044000000EBC800B0FBF1F000F00700044308E047
:10441000322000EB08106421B0FBF1F000F00F0037
:1044200004432C81BDE8FF870010014000140140C7
:1044300001468888C0F308007047C1F308028280F3
:10444000704710B50446204600F02BF810BD10B59B
:104450000446204600F025F810BD10B5044620465D
:1044600000F01FF810BD10B50446204600F019F802
:1044700010BD10B50446204600F013F810BD10B56D
:104480000446204600F00DF810BD10B50446204645
:1044900000F007F810BD10B50446204600F001F802
:1044A00010BD704710B54FF43071FE48FBF70FFF99
:1044B000FD48FC494860402088600021F94881732C
:1044C000C17302210173012141730220F549086083
:1044D000F549F44841618021816100218177C177EC
:1044E00002210177012141770220EE490861EF495D
:1044F000EC48416380214186ED4981628021C1847D
:10450000EC48E84908651020C863EB4888634FF41D
:10451000E13008640021E348A0F84410A0F84610F8
:10452000A0F84810A0F84C100C21A0F84A10002068
:10453000DC4948650846FDF76BFAE049D948C16592
:1045400020210166002180F8661080F867100221A2
:1045500080F86410012180F865100820D149886531
:10456000D649D048C16640210167002180F8761005
:1045700080F87710022180F87410012180F87510FE
:1045800008218166CE49C0F88C104FF48061A0F8F4
:104590008A10CC49C0F880104FF48061A0F87E10DA
:1045A000C949C0F8A8104FF40031C0F89410C749A9
:1045B000C0F890104FF41651C0F898100021A0F8E0
:1045C0009C10A0F89E10A0F8A010A0F8A4100C2138
:1045D000A0F8A2100021C0F8AC105830FDF718FA6E
:1045E000BB49B048C0F8B4100915C0F8B810002194
:1045F00080F8BE1080F8BF10022180F8BC100121A5
:1046000080F8BD100420A749C1F8B000B049A54802
:10461000C0F8C410C914C0F8C810002180F8CE102A
:1046200080F8CF10022180F8CC10012180F8CD1045
:104630000421C0F8C010A749C0F8E4108021A0F8F8
:10464000E210A549C0F8D8108021A0F8D610A349DF
:10465000C0F800114FF48021C0F8EC10A049C0F858
:10466000E8104FF41651C0F8F0100021A0F8F41033
:10467000A0F8F610A0F8F810A0F8FC100C21A0F893
:10468000FA100021C0F80411B030FDF7C1F99549C6
:104690008448C0F80C110121C0F81011002180F8E5
:1046A000161180F81711022180F81411012180F8E9
:1046B000151101207B49C1F808018A497948C0F8E1
:1046C0001C110221C0F82011002180F8261180F869
:1046D0002711022180F82411012180F82511C0F84A
:1046E00018118149C0F83C118021A0F83A117F4986
:1046F000C0F830118021A0F82E117D49C0F8581162
:104700004FF40021C0F844117A49C0F840114FF429
:104710001651C0F848110021A0F84C11A0F84E1114
:10472000A0F85011A0F854110C21A0F8521100214A
:10473000C0F85C1100F58470FDF76AF964495948C6
:10474000C0F864118914C0F86811002180F86E1156
:1047500080F86F11022180F86C11012180F86D1131
:1047600004205049C1F8600154494E48C0F8741102
:104770000421C0F87811002180F87E1180F87F11A3
:10478000022180F87C11012180F87D110821C0F8F8
:1047900070115949C0F894118021A0F8921157491D
:1047A000C0F888118021A0F886115549C0F8B011D1
:1047B0004FF48011C0F89C115249C0F898114FF481
:1047C0001651C0F8A0110021A0F8A411A0F8A6115C
:1047D000A0F8A811A0F8AC110C21A0F8AA11002192
:1047E000C0F8B41100F5B070FDF712F938492D4842
:1047F000C0F8BC114021C0F8C011002180F8C611DA
:1048000080F8C711022180F8C411012180F8C51178
:1048100004202449C1F8B8012D492248C0F8CC1120
:104820008021C0F8D011002180F8D61180F8D7116E
:10483000022180F8D411012180F8D5110421C0F89B
:10484000C8113149C0F8EC118021A0F8EA112F49B4
:10485000C0F8E0118021A0F8DE112D49C0F808123F
:104860002021C0F8F4112B49C0F8F0114FF4165173
:10487000C0F8F8110021A0F8FC11A0F8FE11A0F872
:104880000012A0F804120C21A0F802120021C0F8B6
:104890000C1200F5DC70FDF7BBF81F490148C0F8A9
:1048A00014123BE0E804002000040240A8070020A6
:1048B000280800204344000800100140000C02407A
:1048C000A8080020A80C00204F4400080044004025
:1048D00000080240A8100020281100205B440008B6
:1048E0000048004000000240A811002028120020CB
:1048F00067440008004C0040A81200202813002044
:104900007344000800500040A81300202814002021
:104910007F44000800140140001402408021C0F8C8
:104920001812002180F81E1280F81F12022180F850
:104930001C12012180F81D1220204F49C1F81002DD
:104940004E494D48C0F824124021C0F828120021D9
:1049500080F82E1280F82F12022180F82C120121EB
:1049600080F82D122021C0F820124549C0F84412C9
:104970008021A0F842124349C0F838128021A0F8E3
:1049800036124149C0F860124FF08041C0F84C1215
:104990003E49C0F848124FF41651C0F85012002199
:1049A000A0F85412A0F85612A0F85812A0F85C1201
:1049B0000C21A0F85A120021C0F8641200F504700E
:1049C000FDF726F832492C48C0F86C120221C0F8D5
:1049D0007012002180F8761280F87712022180F898
:1049E0007412012180F8751210202349C1F8680261
:1049F00027492148C0F87C120121C0F8801200210B
:104A000080F8861280F88712022180F88412012132
:104A100080F885121021C0F878121E49C0F89C1247
:104A20008021A0F89A121C49C0F890128021A0F8A9
:104A30008E121A49C0F8B8124FF00041C0F8A41203
:104A40001749C0F8A0124FF41651C0F8A81200215F
:104A5000A0F8AC12A0F8AE12A0F8B012A0F8B412F0
:104A60000C21A0F8B2120021C0F8BC1200F51A7097
:104A7000FCF7CEFF10BD0000E80400200014024047
:104A8000A8140020281500208B440008007800405E
:104A900000100240A81500202816002097440008A6
:104AA000007C004070B50446002540F22551A06B03
:104AB000FFF705FC98B1A06BFFF7BAFCC5B204F193
:104AC0002C00FEF7DAF820B9294604F12C00FEF795
:104AD000B6F840F22551A06BFFF7C9FB1BE040F28E
:104AE0002771A06BFFF7EBFBA8B104F12000FCF7E6
:104AF00056FB002809DD04F12000FDF72AFC0546DD
:104B00002946A06BFFF799FC05E0002240F22771CF
:104B1000A06BFFF7FEFB70BD2DE9F04104460E4689
:104B2000174604EB440101EBC401214A02EBC10129
:104B300000235A1E486D194602F056FB002518E066
:104B400004EB440101EBC401194A02EBC10101F17C
:104B50002000FEF792F858B9715D04EB440202EBB5
:104B6000C402134B03EBC20202F12000FEF767F808
:104B70006D1CBD42E4D304EB440101EBC4010C4ABB
:104B800002EBC10100231A46486D194602F038FCB9
:104B900004EB440101EBC401054A02EBC10101220F
:104BA000886B40F22771FFF7B4FBBDE8F08100008D
:104BB000E804002000BFFEE710B500F08BF80849BC
:104BC00008800846018807A000F046FA04480088DB
:104BD0004EF61771884201D1002010BD0120FCE77C
:104BE000740000205732355158585F5459504520B1
:104BF0003D202530780D0A0010B50446240300F04E
:104C000009F900F0A1F810210B48FCF791FA2020D7
:104C1000FEF752FAC4F30740FEF74EFAC4F307203A
:104C2000FEF74AFAE0B2FEF747FA10210248FCF715
:104C300081FA00F089F810BD001002401CB5012176
:104C40001020FEF725F81020009001208DF80500B7
:104C50008DF8040000208DF8060001208DF8070073
:104C600069460648FCF7F0F910210448FCF762FA9F
:104C7000FEF764F93020FEF749FA1CBD001002402F
:104C80002DE9F04106460C46174610211048FCF766
:104C90004FFA0320FEF710FAC4F30740FEF70CFAB0
:104CA000C4F30720FEF708FAE0B2FEF705FA002584
:104CB00005E0FF20FEF700FA7055681C85B2BD4282
:104CC000F7DB10210248FCF735FABDE8F08100005F
:104CD0000010024010B5002410210F48FCF728FAFC
:104CE0009020FEF7E9F90020FEF7E6F90020FEF734
:104CF000E3F90020FEF7E0F9FF20FEF7DDF944EAD2
:104D00000024FF20FEF7D8F9044310210248FCF7E5
:104D100011FA204610BD00000010024010B500241A
:104D200010210848FCF704FA0520FEF7C5F9FF201A
:104D3000FEF7C2F9044610210248FCF7FBF92046B1
:104D400010BD00000010024010B500BFFFF7E6FFE5
:104D500000F001000028F9D110BD00002DE9F05F3E
:104D600081460F461646DFF8A8B04FEA1738C7F35A
:104D70000B0ACAF58054A64200DC344644E04FEAF0
:104D800008314FF480525846FFF77AFF002508E0BB
:104D90000AEB05001BF80000FF2800D003E0681CA8
:104DA00085B2A542F4DB00BFA54216DA4046FFF704
:104DB00023FF002507E019F8050005EB0A010BF8B1
:104DC0000100681C85B2A542F5DB4FEA08314FF4BB
:104DD0008052584600F02EF804E0224639464846F4
:104DE00000F028F8A64200D10FE008F101084FF0CA
:104DF000000AA1442744301B86B2B6F5805F02DD6D
:104E00004FF4805400E03446B9E700BFBDE8F09F9E
:104E1000BE75002010B510210548FCF789F9062061
:104E2000FEF74AF910210248FCF784F910BD000092
:104E3000001002402DE9F04107460E461446F0B23C
:104E4000C0F58075AC4200DC254612E02A463146AA
:104E5000384600F013F8AC4200D10BE02F442E444A
:104E6000601B84B2B4F5807F02DD4FF4807500E0F2
:104E70002546EBE700BFBDE8F08100002DE9F041D9
:104E800006460C461746FFF7C5FF10211048FCF7F1
:104E90004FF90220FEF710F9C4F30740FEF70CF9B2
:104EA000C4F30720FEF708F9E0B2FEF705F9002584
:104EB00004E0705DFEF700F9681C85B2BD42F8DBC6
:104EC00010210348FCF736F9FFF73EFFBDE8F081FB
:104ED000001002401CB501210820FDF7D9FE00207A
:104EE0008DF8050001208DF8040000208DF80600E3
:104EF00002208DF807001020009069460348FCF757
:104F0000A3F810210148FCF715F91CBD000C024064
:104F100070B504460D4608E02046FCF70DF901285F
:104F200000D170BD142001F08BFA2046FDF7ECF89B
:104F30000028F1D00020F4E770B5054600240020D9
:104F4000FEF78CFC03212846FEF764FC322001F0BA
:104F5000BDFE2846FCF714FE17E0C82001F0B6FE9F
:104F60000E480078012808D10DA000F075F8012145
:104F70002846FEF74FFC012070BD601CC4B2322CE5
:104F800003DD0AA000F068F800E0E6E700BF0121B9
:104F90002846FEF73FFC0020EEE700007873002073
:104FA000C9A8C2EBCDEAB3C90D0A0000C9A8C2EB7B
:104FB000CAA7B0DC0D0A0000FEB507460C46154630
:104FC00000267E208DF8000000208DF801000820CA
:104FD0008DF8020001208DF80300200A8DF80400EE
:104FE000E0B28DF805008DF80650AB208DF8070073
:104FF000CD208DF8080000BF06E00922694638463A
:10500000FFF78AFD701CC6B2092EF6DB3846FCF7A6
:10501000B7FD0F4AA2F5FA713846FEF7C5F80D48FC
:10502000B0F8F401072810D10A48B0F8F401801E46
:105030000849085C332808D10846B0F8F401401E3E
:10504000085C312801D10120FEBD0020FCE70000F2
:105050007C750020887300200FB4054B10B503A9A0
:10506000044A029800F018F810BC5DF814FB000028
:105070005D640008F800002002E008C8121F08C1A3
:10508000002AFAD170477047002001E001C1121FC9
:10509000002AFBD1704700002DE9FF4F8DB09B46E1
:1050A0000F460446002606E025280BD05A460F99E5
:1050B0009047641C761C20780028F5D111B030464A
:1050C000BDE8F08F0025A8460122984900E005437D
:1050D00014F8013F203B02FA03F00842F7D1207890
:1050E0002E2817D114F8010F45F004052A280ED0F8
:1050F0006FF02F022078A0F1300109290AD808EBBF
:10510000880102EB410100EB0108641CF2E757F84B
:10511000048B641C20786C280DD004DC4C2812D041
:105120006A2811D104E074280DD07A280CD10AE045
:1051300045F4001507E0617845F48015814202D1FD
:10514000641C05F58015641C2278692A45D008DCAA
:10515000002AB3D0582A69D0632A10D0642A08D113
:105160003BE0702A67D0732A13D0752A5CD0782A66
:105170005CD010465A460F999047761CD3E017F83A
:10518000040B8DF8000000208DF80100E946012095
:1051900003E057F8049B4FF0FF3069074FF000051C
:1051A00001D40AE06D1C45450DDA8542FADB19F899
:1051B00005100029F6D106E06D1C8542FCDB19F8CC
:1051C00005100029F8D12E4404E019F8010B5A46C5
:1051D0000F9990476D1EF8D2A5E00A200021CDE975
:1051E0000801C5F3025002280DD001CFC117031EDC
:1051F00071F100030DDA4FF0000CD0EB0C006CEBFA
:1052000001012D2308E0FF1D27F00707F7E8020141
:10521000EDE72B0504D52B238DF8283001233BE047
:10522000EB0739D02023F7E70A2000E01020002107
:10523000CDE9080107E01020002145F00405CDE983
:1052400008014FF00808C5F3025002280FD001CF23
:1052500000214FF0000A2B071FD5702A0DD0DDE981
:1052600008C38CF0100C5CEA030C0CD015E0FF1D99
:1052700027F00707F7E80201EBE740228DF8282026
:105280004FF0010A0BE050EA010306D030238DF8FD
:1052900028308DF8292002239A46582A04D024A2C7
:1052A0000DF120090B9209E026A2F9E7DDE90823B8
:1052B000FBF72AF80B9B9B5C09F8013D50EA0102C1
:1052C000F4D1ADEB090020300890680701D44FF00D
:1052D00001080899884502DDA8EB010000E00020E4
:1052E0008046002506E00AA85A46405D0F9990477F
:1052F0006D1C761C5545F6DB04E030205A460F99AC
:105300009047761CB8F10001A8F10108F5DC05E032
:1053100019F8010B5A460F999047761C0899481EB8
:1053200008900029F4DC641CC5E60000092801008F
:10533000303132333435363738396162636465660B
:1053400000000000303132333435363738394142CD
:1053500043444546000000000FB587B0002006908A
:105360000A98C07803900A98807802900A9840784A
:1053700001900A980078009001A90EC9FBF7E8FD9A
:10538000059000200490089846287CD013DC132850
:105390007AD009DC01281FD002282FD0112874D020
:1053A000122840F0D18746E1302838D031286DD01E
:1053B0004028F6D1FEE3DB2869D006DC472867D019
:1053C000602866D0DA28ECD15CE1DC287CD0DF28CC
:1053D0007BD0E128E5D1EEE3FBF7FAFD8DF818006C
:1053E000FCF7F2FD8DF81900042006AB0222012122
:1053F00000900B20FEF7AAF800F0A7BFF848006E57
:105400000522014603901046FCF77AFC042006AB07
:105410000222114600901020FEF798F8ECE707985A
:1054200006287DD2DFE800F0031A3952698105228F
:1054300000200599FCF764FC0020FBF791FE006852
:1054400004900498FCF7ACFB039004200090012228
:1054500030210020039BFEF779F87EE00522012031
:105460000599FCF74DFC0120FBF77AFE00680490DB
:105470000498FCF795FB0390042000900122302152
:105480001046039B06E0BBE3F1E0C6E067E085E27F
:10549000B7E3B7E3FEF75AF85FE00522022005996B
:1054A000FCF72EFC0220FBF75BFE006804900498DA
:1054B000FCF776FB039004200090012230210220AB
:1054C000039BFEF743F848E074E29CE305220320C7
:1054D0000599FCF715FC0320FBF742FE00680490D9
:1054E0000498FCF75DFB039004200090012230211A
:1054F0000320039BFEF72AF82FE0052204200599DC
:10550000FCF7FEFB0420FBF72BFE006804900498D8
:10551000FCF746FB0390042000900122302100E0BC
:105520001AE0039BFEF712F817E0052210460599D2
:10553000FCF7E6FB0520FBF713FE006804900498D7
:10554000FCF72EFB0390042000900122302105205F
:10555000039BFDF7FBFF00E000BF00BF4CE707988F
:10556000062857D2DFE800F003111F2D3B48052223
:1055700000210846FCF7C4FB042006AB01223121C0
:1055800000900020FDF7E2FF45E005220021012008
:10559000FCF7B6FB042006AB012231210090104637
:1055A000FDF7D4FF37E0052200210220FCF7A8FB1D
:1055B000042006AB0122312100900220FDF7C6FF36
:1055C00029E0052200210320FCF79AFB042006AB0A
:1055D0000122312100900320FDF7B8FF1BE00522D6
:1055E00000210420FCF78CFB042006AB01223121B2
:1055F0000090FDF7ABFF0EE0052200211046FCF7FE
:105600007FFB042006AB0122312100900520FDF72D
:105610009DFF00E000BF00BFEEE60A98007803900F
:10562000FDF7ACF9042006AB0222112100901020F6
:10563000FDF78CFFE0E66B48007801280BD10420D1
:1056400006AB0122122100901020FDF77FFF66A01B
:10565000FFF702FD0AE0042006AB022212210090AF
:105660001020FDF773FF64A0FFF7F6FCC4E6FDF71A
:10567000A3FA042006AB0222132100901020FDF7AC
:1056800065FFB9E60798062879D2DFE800F00356EF
:1056900093F1F0EF099807284DD2DFE800F04C04B1
:1056A000101C283440004E4905988861042006AB40
:1056B0000122DA2100900020FDF748FF3BE0484935
:1056C0000598C861042006AB0222DA210090002070
:1056D000FDF73CFF2FE0424905980862042006AB25
:1056E0000322DA2100900020FDF730FF23E03C493F
:1056F00005984862042006AB0246DA21009000209B
:10570000FDF724FF17E0364905988862042006ABB0
:105710000522DA2100900020FDF718FF0BE0304948
:1057200005980860042006AB0622DA2100900020CC
:10573000FDF70CFF00BF00BF2EE10998012806D03D
:10574000022810D003281BD0042831D124E024499A
:105750000598C862042006AB0122DA2100901046A9
:10576000FDF7F4FE24E01E4905980863042006AB0B
:105770000222DA2100900120FDF7E8FE18E00AE19C
:10578000174905984863042006AB0322DA210090EC
:105790000120FDF7DBFE0BE011490598486004206D
:1057A00006AB0246DA2100900120FDF7CFFE00BFD4
:1057B00000BFF1E00998082873D2DFE800F0720416
:1057C00027333F4B5A66064905988863042006AB89
:1057D0000122DA2100900220FDF7B8FE61E000000E
:1057E000FC0000206C000020D7BCB1B8BAC3BDF8E3
:1057F000BFA80D0A00000000C3BBD3D0D7BCB1B80E
:10580000BAC3BDF8BFA80D0A00000000FE49059804
:10581000C863042006AB0222DA2100901046FDF78F
:1058200095FE3EE0F84905980864042006AB032283
:10583000DA2100900220FDF789FE32E0F249059856
:105840004864042006AB0246DA2100900220FDF7EE
:105850007DFE26E0EC4905988864042006AB05220D
:10586000DA2100900220FDF771FE1AE073E03AE0C1
:1058700019E0E5490598C864042006AB0622DA2140
:1058800000900220FDF762FE0BE0DF49059888607A
:10589000042006AB0722DA2100900220FDF756FE15
:1058A00000BF00BF78E00998012802D0022818D173
:1058B0000BE0D5490598C860042006AB0122DA2127
:1058C00000900320FDF742FE0BE0CF4905980865E4
:1058D000042006AB0222DA2100900320FDF736FEF9
:1058E00000BF00BF58E00998012806D002280FD059
:1058F000032818D004282CD120E0C3490598486516
:10590000042006AB0122DA210090FDF71FFE20E003
:10591000BD4905988865042006AB0222DA21009073
:10592000FDF714FE15E0B84905980861042006ABA0
:105930000322DA210090FDF709FE0AE0B24905983A
:10594000C865042006AB0246DA210090FDF7FEFD93
:1059500000BF00BF20E00998012802D0022818D11A
:105960000BE0A94905984861042006AB0122DA2121
:1059700000900520FDF7EAFD0BE0A34905980866B5
:10598000042006AB0222DA2100900520FDF7DEFD9F
:1059900000BF00BF00E000BF00BF2DE59A48FDF743
:1059A000C9FB042006AB0122DB2100901020FDF78B
:1059B000CDFD21E5944880690290FCF7F1F8039051
:1059C000042000900122DC210020039BFDF7BEFD96
:1059D000322001F07BF98C488069014603908BA04E
:1059E000FFF73AFB8848C0690290FCF7D9F80390AA
:1059F000042000900222DC210020039BFDF7A6FD7D
:105A0000322001F063F98048C0690146039085A007
:105A1000FFF722FB7C48006A0290FCF7C1F8039074
:105A2000042000900322DC210020039BFDF78EFD63
:105A3000322001F04BF97448006A014603907FA0C0
:105A4000FFF70AFB7048406A0290FCF7A9F8039040
:105A5000042000900246DC210020039BFDF776FD28
:105A6000322001F033F96848406A0146039079A07A
:105A7000FFF7F2FA6448806A0290FCF791F803900D
:105A8000042000900522DC210020039BFDF75EFD31
:105A9000322001F01BF95C48806A0146039073A034
:105AA000FFF7DAFA584800680290FCF779F803909B
:105AB000042000900622DC210020039BFDF746FD18
:105AC000322001F003F950480068014603906DA0B0
:105AD000FFF7C2FA4C48C06A0290FCF761F80390E5
