:020000040800F2
:10000000D075022079020008D9250008A51B000838
:10001000F1240008F50400089944000800000000DD
:10002000000000000000000000000000C101000806
:10003000611300080000000015020008ED360008FA
:10004000930200089302000893020008930200083C
:10005000930200089302000893020008930200082C
:10006000930200089302000893020008930200081C
:10007000930200089302000893020008930200080C
:1000800093020008930200089302000893020008FC
:10009000F904000893020008930200089302000884
:1000A00093020008930200089302000893020008DC
:1000B000ED3700089302000893020008930200083D
:1000C00093020008930200089302000893020008BC
:1000D00093020008013B0008113B0008213B000887
:1000E000930200089302000893020008930200089C
:1000F000930200089302000893020008930200088C
:10010000930200089302000893020008930200087B
:10011000C13A0008D13A00080938000893020008E3
:10012000930200089302000893020008930200085B
:10013000930200089302000893020008930200084B
:10014000930200089302000893020008930200083B
:10015000930200089302000893020008313B000854
:10016000930200089302000893020008930200081B
:10017000930200089302000893020008930200080B
:100180009302000893020008E13A0008F13A0008DF
:1001900093020008930200089302000893020008EB
:1001A000930200089302000893020008DFF80CD0C5
:1001B00000F0FAF8004800470D530008D0750220FF
:1001C0002A4B19680868B0E8F04F80F30988BFF33C
:1001D0006F8F4FF0000080F311887047000000001F
:1001E00006480068006880F3088862B661B6BFF30D
:1001F0004F8FBFF36F8F00DF00BF00BF08ED00E03F
:10020000DFF80C00016841F470010160704700BF25
:1002100088ED00E0EFF30980BFF36F8F134B1A688E
:100220001EF0100F08BF20ED108A20E9F04F10607B
:1002300008B44FF0100080F31188BFF34F8FBFF365
:100240006F8F05F0C9FD4FF0000080F3118808BCE6
:1002500019680868B0E8F04F1EF0100F08BFB0EC46
:10026000108A80F30988BFF36F8F7047A8000020C1
:10027000EFF30580704700000648804706480047B6
:10028000FEE7FEE7FEE7FEE7FEE7FEE7FEE7FEE746
:10029000FEE7FEE785370008AD01000840EA0103EC
:1002A0009B0703D009E008C9121F08C0042AFAD22C
:1002B00003E011F8013B00F8013B521EF9D27047F0
:1002C000D2B201E000F8012B491EFBD27047002298
:1002D000F6E710B513460A4604461946FFF7F0FF45
:1002E000204610BD30B505462A460B4612F8010BD4
:1002F00013F8014B08B1A042F8D01CB1002802D07D
:100300006D1CF1E7284630BD2DE9F05F0546002061
:1003100092469B4688460646814640241BE0284676
:1003200041464746224600F02FF853465A46C01A27
:10033000914110D311461846224600F016F82D1AA6
:1003400067EB01084F4622460120002100F00DF81E
:1003500017EB00094E41201EA4F10104DFDC4846E2
:1003600031462A464346BDE8F09F202A04DB203A66
:1003700000FA02F1002070479140C2F1200320FAF8
:1003800003F3194390407047202A04DB203A21FAF6
:1003900002F00021704721FA02F3D040C2F120029E
:1003A0009140084319467047064C074D06E0E06847
:1003B00040F0010394E8070098471034AC42F6D3AC
:1003C000FFF7F8FE78710008987100081FB505F076
:1003D00021FB0020154A0623CDE90120009303905C
:1003E00003464FF4007212A1164806F051F800209F
:1003F000154A0523CDE901200093039003464FF4ED
:10040000007212A1154806F043F80020144A042394
:10041000CDE901200093039003464FF4007211A12F
:10042000144806F035F805F01FFB1FBD0000002042
:100430004D756C7469436F6D6D526561645F546195
:10044000736B00009D250008080000206261636B4B
:100450004D6F746F725F7461736B0000055200081A
:100460000400002043616E53656E644D73675F54F2
:1004700061736B00150E00081FB50121102002F0FA
:10048000F1FB1B4803F0EEF901A803F00FFB00207D
:10049000ADF80C00ADF8060040F2E730029042F2F1
:1004A000CF00ADF8040001A9114803F0BDFA012105
:1004B0000F4803F0B9F901210D4803F0C1F90122F9
:1004C00011460B4803F0A7FA0121094803F0BEF9D1
:1004D00036208DF800000F208DF8010000208DF8E7
:1004E000020001208DF80300684602F077F81FBD76
:1004F0000010004000BFFEE710B588B002211B4885
:1005000000F03CF900282FD019490868022100F0BA
:1005100041F803AA0021154800F0E4FA03980128E5
:1005200022D1049806281FD09DF8170006281BD159
:1005300010A004F0C3F9002407E00DF11700015DDD
:1005400011A004F0BBF9601CC4B2082CF5DB10A0AC
:1005500004F0B4F9DDE90601CDE900010448001D0D
:1005600003A90EC902F020FB08B010BD00640040D2
:10057000F41C0020BDD3CAD5B5BDC8CECEF1C3FC96
:10058000C1EE3A2000000000253032580000000083
:100590000D0A0000B1F5007F3AD00FDC202928D0E9
:1005A00006DC01291CD004291DD0082940D11DE0FA
:1005B000402921D0B1F5807F3AD126E0B1F5004F36
:1005C00031D006DCB1F5806F25D0B1F5006F2FD1A9
:1005D00024E0B1F5803F12D0B1F5003F28D111E001
:1005E000154A826025E00822C26022E01022C26023
:1005F0001FE0082202611CE01022026119E00822BB
:10060000426016E01022426013E00422426010E0D3
:10061000042242600DE0042242600AE0002282616E
:100620000422426005E0002282610422426000E070
:1006300000BF00BF704700000101010010B5044673
:100640000B48844209D10121480602F01BFB00211E
:100650004FF0007002F016FB08E00121880602F05E
:1006600011FB00214FF0806002F00CFB10BD000078
:100670000064004010B50021837A012202FA03F1E0
:100680003D4A126842F001023B4B1A603A4A1C3262
:1006900012688A43384B1C331A60027BCAB9364A47
:1006A0000C3212688A43344B0C331A604288C38878
:1006B00042EA0343304A4032847A42F834300288B6
:1006C000838842EA03432C4A4032847A02EBC40214
:1006D0005360027B012A19D1274A0C3212680A435F
:1006E000254B0C331A604288038842EA0343224AAE
:1006F0004032847A42F83430C288838842EA034325
:100700001D4A4032847A02EBC4025360C27A3AB97D
:10071000194A121D12688A43174B1B1D1A6006E006
:10072000154A121D12680A43134B1B1D1A600289D9
:1007300032B9114A143212688A430F4B14331A60CB
:100740000289012A06D10C4A143212680A430A4B64
:1007500014331A60427B012A06D1074A1C32126800
:100760000A43054B1C331A60034A126822F0010247
:10077000014B1A6010BD00000066004070B50446D1
:100780000D46002660692840002871D0B5F5807FAD
:100790005CD010DC082D35D006DC012D20D0022DD8
:1007A00024D0042D72D127E0102D31D0202D35D04A
:1007B000402D6BD138E0B5F5004F60D009DCB5F5C0
:1007C000007F49D0B5F5806F4CD0B5F5006F5DD195
:1007D0004FE0B5F5803F2DD0B5F5003F56D12FE065
:1007E000A0682D4900F062FB064651E0E068032155
:1007F00000F05CFB06464BE0E068082100F056FB89
:10080000064645E0E068102100F050FB06463FE058
:100810002069032100F04AFB064639E020690821DF
:1008200000F044FB064633E02069102100F03EFB57
:1008300006462DE06068082100F038FB064627E0F8
:100840006068102100F032FB064621E0A06901211A
:1008500000F02CFB06461BE0A069022100F026FBFD
:10086000064615E0A069042100F020FB06460FE0D3
:100870000FE0A069702100F019FB064608E06068EF
:10088000042100F013FB064602E0FFE7002600BF4C
:1008900000E00026304670BD010101001AB1436935
:1008A0000B43436102E043698B434361704730B5BA
:1008B000024600200023146824F002041460146827
:1008C00044F00104146000E05B1C546804F001046F
:1008D0001CB94FF6FF74A342F6D1546804F001042A
:1008E0000CB900206CE08C79012C04D1146844F020
:1008F0008004146003E0146824F080041460CC7950
:10090000012C04D1146844F04004146003E014681E
:1009100024F0400414600C7A012C04D1146844F0D3
:100920002004146003E0146824F0200414604C7A5E
:10093000012C04D1146844F01004146003E014681E
:1009400024F0100414608C7A012C04D1146844F053
:100950000804146003E0146824F008041460CC7ADE
:10096000012C04D1146844F00404146003E01468FA
:1009700024F0040414608C78A407CD7844EA05645C
:100980000D7944EA05444D7944EA05540D886D1EFD
:100990002C43D461146824F001041460002300E0A7
:1009A0005B1C546804F001041CB14FF6FF74A342B1
:1009B000F6D1546804F001040CB1002000E00120DD
:1009C00030BD000000B58BB00121082002F03AF9DB
:1009D00009220021404800F041FE092201213E4841
:1009E00000F03CFE0120099002208DF828008DF8CF
:1009F000290000208DF82A0001208DF82B0009A97C
:100A0000354800F0E3FD0220099009A9324800F0C2
:100A1000DDFD0121480602F025F93048FFF70EFE02
:100A200001208DF81F008DF820008DF82100002096
:100A30008DF822008DF81E008DF823008DF81A0025
:100A400002208DF81B000B208DF81C0007208DF86C
:100A50001D001020ADF8180006A92048FFF727FF59
:100A600000208DF812008DF8130001208DF814007D
:100A70000020ADF80800ADF80A00ADF80C00ADF8A4
:100A80000E00ADF8100001208DF8150002A8FFF748
:100A9000F1FD14208DF8040001208DF805000020E0
:100AA0008DF8060001208DF8070001A801F096FDE1
:100AB000012202210948FFF7F1FE00220121074827
:100AC000FFF7ECFE00F07EF9012005F069FA044919
:100AD00008600BB000BD0000000C02400064004044
:100AE0002800002010B500F5D87303EB01131B6834
:100AF00003F004031372137A53B900F5D87303EBB0
:100B000001131B6840F2FF7404EA5353136009E0B9
:100B100000F5D87303EB01131B686FF0604404EA1F
:100B2000D303536000F5D87303EB01131B6803F084
:100B30000203537200F5D87303EB01135B6803F0F3
:100B40000F03937200F5D87303EB01135B681B0A64
:100B5000D37400F5D87303EB01139B68D37200F5CF
:100B6000D87303EB01139B681C0A147300F5D87348
:100B700003EB01139B681C0C547300F5D87303EB53
:100B800001139B681B0E937300F5D87303EB0113DD
:100B9000DB68D37300F5D87303EB0113DB681C0A21
:100BA000147400F5D87303EB0113DB681C0C547448
:100BB00000F5D87303EB0113DB681B0E937421B9A6
:100BC000C36843F02003C36003E0036943F02003DC
:100BD000036110BD10B502460020936803F08063E6
:100BE000B3F1806F00D110E0936803F00063B3F1BC
:100BF000006F01D1012008E0936803F08053B3F146
:100C0000805F01D1022000E00420042874D002F5A6
:100C1000C07303EB00131B6803F0010402F5C073FB
:100C200003EB00131C600B7A7BB94B7A0C8843EA08
:100C3000445302F5C07404EB00142468234302F506
:100C4000C07404EB0014236010E00B7A4C6843EA94
:100C5000C4034C7A234302F5C07404EB00142468E7
:100C6000234302F5C07404EB001423608B7A03F075
:100C70000F038B7202F5C07303EB00135B6823F064
:100C80000F0402F5C07303EB00135C6002F5C07340
:100C900003EB00135B688C7A234302F5C07404EB0A
:100CA000001463608B7B1C064B7B44EA03440B7B84
:100CB00044EA0323CC7A234302F5C07404EB001406
:100CC000A3608B7C1C064B7C44EA03440B7C44EA07
:100CD0000323CC7B234302F5C07404EB0014E360D0
:100CE00002F5C07303EB00131B6843F0010402F527
:100CF000C07303EB00131C6010BD000010B502466A
:100D0000002321B1012907D002290FD109E0906801
:100D10001D4C00EA04030BE090681C4C00EA04033D
:100D200006E090681A4C00EA040301E0002300BFCB
:100D300000BF184C181BA34216D007DC83B16FF01C
:100D40008060184470B1022818D111E0B0F5007F1E
:100D500010D0114C204448B1B0F5003F0ED10BE04B
:100D600002230DE000230BE0002309E0002307E04D
:100D7000012305E0012303E0012301E0002300BF7C
:100D800000BFD8B210BD000003000004000300083B
:100D900000000310000100080001FFF710B5044631
:100DA000E07A07490870207B4870607B8870A07BE0
:100DB000C870D4F80F004860084602F033FC10BD3C
:100DC0004400002010B50D480D49086001150C487D
:100DD00081600C49C1600C480949086314220B4921
:100DE00007481030FFF75AFA09490548C1624FF425
:100DF00080714185243000F0D7FE10BD00640040B2
:100E0000F41C0020501D00209D0D00083C1D0020FA
:100E1000506D002086B00025002404F059FA1A48CD
:100E20000021016041602EE000230A221649174884
:100E3000006805F01FF918B3062001900290002009
:100E40008DF80C008DF80D0008208DF80E000E486E
:100E50000168CDF80F104068CDF813000C49086800
:100E600001A9FFF7B7FE054601E0601C84B22946E0
:100E70000848FFF743FF18B940F6FF708442F4DBDF
:100E80000A2004F069FECFE70C0000203C0000209F
:100E9000F41C00200064004030B50446002004EB40
:100EA000012505EB024505EB036030BD024600203D
:100EB00002EA01030BB1012000E00020704730B5C9
:100EC00002460020002305E012F8015B2C18E0B276
:100ED0005C1CE3B28B42F7DB30BD00001CB5002088
:100EE000019038E2002000F0C5FFA8B1F948007871
:100EF00090B90120F74908701021F74800F0DAFB9B
:100F00000120F6490870042001AB0122492100901C
:100F1000112002F05FFA16E0002000F0ABFF90B95C
:100F2000EC48007801280ED10020EA490870102111
:100F3000E94800F0C1FB042001AB002249210090E8
:100F4000112002F047FA012000F094FFA8B1E44814
:100F5000007890B90120E24908702021DE4800F0B5
:100F6000A9FB0120DF490870042001AB01224921BF
:100F70000090122002F02EFA16E0012000F07AFF15
:100F800090B9D748007801280ED10020D4490870C4
:100F90002021D14800F090FB042001AB0022492120
:100FA0000090122002F016FA022000F063FFA8B1B0
:100FB000CD48007890B90120CB4908704021C6483F
:100FC00000F078FB0120C9490870042001AB012220
:100FD00049210090132002F0FDF916E0022000F0F4
:100FE00049FF90B9C048007801280ED10020BE49C1
:100FF00008704021B84800F05FFB042001AB0022DC
:1010000049210090132002F0E5F9032000F032FF9F
:10101000A8B1B748007890B90120B549087080217F
:10102000AD4800F047FB0120B2490870042001AB35
:10103000012249210090142002F0CCF916E003208F
:1010400000F018FF90B9AA48007801280ED10020BE
:10105000A74908708021A04800F02EFB042001ABB6
:10106000002249210090142002F0B4F9042000F07D
:1010700001FFA8B1A048007890B901209E490870EE
:1010800010219E4800F016FB01209D4908700420A5
:1010900001AB012249210090152002F09BF916E0D6
:1010A000042000F0E7FE90B99348007801280ED1A3
:1010B0000020914908701021904800F0FDFA0420AA
:1010C00001AB002249210090152002F083F9052090
:1010D00000F0D0FE90B18B48007878B901208949A2
:1010E00008700103884800F0E5FA042001AB0122F2
:1010F00049210090162002F06DF917E0052000F05C
:10110000B9FE98B97F48007801280FD100207D49A9
:1011100008704FF480517C4800F0CEFA042001ABF7
:10112000002249210090162002F054F9062000F018
:10113000A1FE90B17548007878B901207349087014
:101140004103714800F0B6FA042001AB01224921A5
:101150000090172002F03EF917E0062000F08AFE0A
:1011600098B96A48007801280FD1002067490870B3
:101170004FF40051644800F09FFA042001AB0022B4
:1011800049210090172002F025F9072000F072FE97
:1011900090B15F48007878B901205D4908708103FB
:1011A000594800F087FA042001AB01224921009040
:1011B000182002F00FF917E0072000F05BFE98B945
:1011C0005348007801280FD10020514908704FF48E
:1011D00080414D4800F070FA042001AB0022492103
:1011E0000090182002F0F6F8082000F043FE90B1BD
:1011F0004848007878B9012046490870C103424840
:1012000000F058FA042001AB012249210090192076
:1012100002F0E0F817E0082000F02CFE98B93D48F5
:10122000007801280FD100203A4908704FF400419E
:10123000354800F041FA042001AB0022492100901A
:10124000192002F0C7F8092000F014FE90B13248CE
:10125000007878B90120304908700102274800F071
:1012600029FA042001AB0122492100901A2002F042
:10127000B1F817E0092000F0FDFD98B92648007884
:1012800001280FD10020244908704FF480711B48B9
:1012900000F012FA042001AB0022492100901A202C
:1012A00002F098F80A2000F0E5FD90B11B480078A4
:1012B00078B90120194908704102104800F0FAF984
:1012C000042001AB0122492100901B2002F082F88A
:1012D0003EE025E060000020000002407000002099
:1012E00061000020710000206200002072000020D8
:1012F000630000207300002064000020000802400A
:101300007400002065000020000C024066000020F0
:101310006700002068000020690000206A000020AB
:101320000A2000F0A7FD98B90B48007801280FD1DA
:101330000020094908704FF40071084800F0BCF91A
:10134000042001AB0022492100901B2002F042F84A
:10135000322004F001FCC5E56A00002000080240CC
:101360007047000030B585B000240020049004F0E0
:1013700051FB00207D4A0323CDE901200093039017
:1013800003464FF400727AA17E4805F081F80020F0
:101390007D4A0223CDE901200093039003464FF4D8
:1013A00000727AA17E4805F073F800207D4A01237F
:1013B000CDE901200093039003464FF400727AA117
:1013C0007C4805F065F804F04FFB03F067F804462D
:1013D000022001F05BF804EB4000C4B2042001F0ED
:1013E00055F804EB8000C4B2052001F04FF804EB7F
:1013F000C000C4B2012001F049F804EB0010C4B2EF
:10140000072001F043F804EB4010C4B221466AA063
:1014100003F054FA4FF4FA7004F09EFB002000F041
:1014200029FD0546042004AB2A46492100901120DD
:1014300001F0D0FF322004F08FFB012000F01AFDF4
:101440000546042004AB2A4649210090122001F0F1
:10145000C1FF322004F080FB022000F00BFD0546A6
:10146000042004AB2A4649210090132001F0B2FF6A
:10147000322004F071FB032000F0FCFC0546042040
:1014800004AB2A4649210090142001F0A3FF32202A
:1014900004F062FB042000F0EDFC0546042004ABE0
:1014A0002A4649210090152001F094FF322004F0D3
:1014B00053FB052000F0DEFC0546042004AB2A4661
:1014C00049210090162001F085FF322004F044FBF2
:1014D000062000F0CFFC0546042004AB2A46492133
:1014E0000090172001F076FF322004F035FB072032
:1014F00000F0C0FC0546042004AB2A4649210090B8
:10150000182001F067FF322004F026FB082000F0CD
:10151000B1FC0546042004AB2A464921009019205D
:1015200001F058FF322004F017FB092000F0A2FC64
:101530000546042004AB2A46492100901A2001F0F8
:1015400049FF322004F008FB0A2000F093FC054616
:10155000042004AB2A46492100901B2001F03AFFE9
:10156000322004F0F9FA204605B030BD54000020C6
:10157000436865636B5F43617264426F785F546177
:10158000736B0000DD0E0008580000205363616E8D
:101590005F43617264426F785F5461736B00000057
:1015A000413100085C0000204C45445F5461736B7E
:1015B0000000000081210008446574656374526571
:1015C00073756C74203D2025640D0A00F0B50A4641
:1015D00000210023002400BF3DE0012505FA01F3AE
:1015E000156805EA03049C4234D105684F000326C0
:1015F000BE40B543056015794E00B54006683543D9
:1016000005601579012D02D01579022D16D1856856
:101610004F000326BE40B543856055794E00B54066
:10162000866835438560456801268E40B543456030
:10163000456896798E40B6B235434560C5684F001F
:101640000326BE40B543C560D5794E00B540C66897
:101650003543C560491C1029BFD3F0BDF0B5002348
:1016600000244D07ED0E02FA05F3CE1000F120051F
:1016700055F826504E07F70E0F26BE40B543CF1043
:1016800000F1200646F82750CE1000F1200555F84D
:10169000265045EA0304CE1000F1200545F8264007
:1016A000F0BD0246002013690B400BB1012000E0A1
:1016B0000020704741837047018370470146002234
:1016C0000879012801D1C888704748880B8898425A
:1016D00004DB48880B88C01A82B205E0C8880B88F2
:1016E000C01A4B88184482B21046EDE7014600202C
:1016F000174B8A6B9A4200D12520164B8A6B9A426F
:1017000001D1262022E0144B8A6B9A4201D1272076
:101710001CE0124B8A6B9A4201D1342016E0104B28
:101720008A6B9A4201D1352010E00E4B8A6B9A42A7
:1017300001D147200AE00C4B8A6B9A4201D152201A
:1017400004E00A4B8A6B9A4200D153207047000094
:10175000001001400044004000480040004C0040A0
:10176000005000400014014000780040007C004020
:101770002DE9F04104460F4604F12C00FFF79EFFCF
:101780000546002D71D04FF48061E548FEF79FFDBE
:10179000A08D4119608E814207DCA28D606B81189B
:1017A0002A46DF48FEF77AFD11E0608EA18D401ACF
:1017B00086B2A28D606B81183246D948FEF76EFD65
:1017C000AA1BD74B9819616BFEF768FD00BFD5497E
:1017D000A06B884253D1002640E0D148805DAA2802
:1017E0003AD1CF4906F10900085CA52834D1B01CD4
:1017F000085CCD494870CA49F01C085CCA49887029
:10180000C749301D085CC849C870C549701D085CCF
:10181000C5490871C249B01D095CC3484171C0493E
:10182000F01D095CC0488171BD4906F10800095CE2
:10183000BD48C1718078612807D100230A22BA49C6
:10184000BA48006804F022FD06E000230A22B649E7
:10185000B748006804F01AFD701C86B2AE42BCDBCB
:10186000AF4800F04FFF002606E057E104F12C00DE
:1018700000F027FF701C86B2AE42F7DB45E1AD49B0
:10188000A06B88423AD1002635E0A548805D0D283E
:101890002FD1102D2DDC0A2E2BDD1021A648FEF7AE
:1018A00016FD32469E49A448FEF7F8FCAA21A2483C
:1018B0008155A2A003F002F84FF0000809E09E480D
:1018C00010F80810A1A002F0F9FF08F1010000F0E3
:1018D000FF08B045F3DB9EA002F0F0FF01210320DA
:1018E00001F004FE0A2004F037F904F12C0000F0A6
:1018F0005BF9701C86B2AE42C7DB06E19549A06B6E
:1019000088423DD1002638E08548805D0D2832D1DF
:10191000102D30DC0A2E2EDD102187483338FEF7DB
:10192000D6FC32467E4984483338FEF7B7FCAA21FC
:1019300081483338815588A002F0C0FF4FF000087D
:1019400009E0774810F8081080A002F0B7FF08F10E
:10195000010000F0FF08B045F3DB7DA002F0AEFF10
:101960000121002001F0C2FD0A2004F0F5F804F185
:101970002C0000F019F9701C86B2AE42C4DBC4E042
:101980007949A06B88423DD1002638E06448805DEB
:101990000D2832D1102D30DC0A2E2EDD10216648A4
:1019A0002238FEF794FC32465D4963482238FEF740
:1019B00075FCAA216048223881556CA002F07EFF98
:1019C0004FF0000809E0564810F808105FA002F038
:1019D00075FF08F1010000F0FF08B045F3DB5CA0E3
:1019E00002F06CFF0121084601F080FD0A2004F09E
:1019F000B3F804F12C0000F0D7F8701C86B2AE42A8
:101A0000C4DB82E05D49A06B88423DD1002638E00E
:101A10004348805D0D2832D1102D30DC0A2E2EDD9A
:101A2000102145481138FEF752FC32463C494248E5
:101A30001138FEF733FCAA213F481138815550A0D8
:101A400002F03CFF4FF0000809E0354810F808109C
:101A50003EA002F033FF08F1010000F0FF08B0459E
:101A6000F3DB3BA002F02AFF0121022001F03EFD42
:101A70000A2004F071F804F12C0000F095F8701CB5
:101A800086B2AE42C4DB40E04149A06B88423CD103
:101A9000002638E02248805D0D2832D1102D30DC40
:101AA0000A2E2EDD102124481130FEF710FC32469C
:101AB0001B4921481130FEF7F1FBAA211E481130C5
:101AC000815534A002F0FAFE4FF0000809E01448F6
:101AD00010F808101DA002F0F1FE08F1010000F05E
:101AE000FF08B045F3DB1AA002F0E8FE0121042054
:101AF00001F0FCFC0A2004F02FF804F12C0000F0A7
:101B000053F8701C86B2AE42C4DB608EA84205D189
:101B100004F12C0000F048F8BDE8F08100BFFBE7BD
:101B200080160020001001401E0000203000002020
:101B30002C00002000440040246F0020BFA8BAD031
:101B4000CBC4C9A8C2EBA3BA000000002563000003
:101B50000D0A000000480040BFA8BAD0D2BBC9A8F7
:101B6000C2EBA3BA0000000000500040BFA8BAD0EA
:101B7000B6FEC9A8C2EBA3BA0000000000140140E1
:101B8000BFA8BAD0C8FDC9A8C2EBA3BA0000000024
:101B9000007C0040BFA8BAD0CEE5C9A8C2EBA3BA6A
:101BA0000000000000BFFEE710B5044600202080C2
:101BB00060802071E188A068FEF789FB10BD0000FD
:101BC00010B54FF461710248FEF781FB10BD0000B3
:101BD0003C0100201CB50121452001F033F8002014
:101BE0008DF804008DF8070001208DF80700C00271
:101BF000009069462448FFF7E9FC4FF480600090AC
:101C000069462148FFF7E2FC4FF4007000906946F6
:101C10001E48FFF7DBFC4FF48060009069461B48CC
:101C2000FFF7D4FC4FF40060009069461748FFF7B7
:101C3000CDFC4FF48050009069461548FFF7C6FC74
:101C40004FF40050009069461148FFF7BFFC4FF475
:101C50008040009069460E48FFF7B8FC4FF4004002
:101C6000009069460A48FFF7B1FC4FF4807000907D
:101C700069460548FFF7AAFC4FF4007000906946DA
:101C80000148FFF7A3FC1CBD000C0240000002400D
:101C90000004024040F252300F49086001204860C1
:101CA00043F6081088604000C8604AF618300861A2
:101CB0004EF2204048614FF62C3088610748C861D9
:101CC0000748086243F6A06048624FF47A40886291
:101CD0008011C862704700000801002058150100FB
:101CE000E4380100F8B5044600252046FFF7FEFC65
:101CF0008DF8000002208DF8010000208DF8020010
:101D000001208DF80300684600F068FC4949A06B8B
:101D1000884203D04849A06B884204D10121E06B7E
:101D200000F0C0FF03E00121E06B00F09BFF2268A0
:101D3000216941EA0200012100F084FF3D49A06BC6
:101D4000884201D1072528E03C49A06B884201D197
:101D5000072522E03A49A06B884201D107251CE003
:101D60003849A06B884201D1082516E03649A06B9E
:101D7000884201D1082510E02F49A06B884201D18B
:101D800008250AE03149A06B884201D1082504E00A
:101D90002F49A06B884200D10825218988B200F024
:101DA00063FC06462A4631466068FFF757FC218BE4
:101DB00088B200F059FC06462A4631466069FFF7B2
:101DC0004DFC0021A06B01F0D3FE04F10801606816
:101DD000FFF7FCFB04F118016069FFF7F7FB04F162
:101DE0004001A06B01F02CFF012240F22551A06BB5
:101DF00001F001FF002240F22771A06B01F0FBFE11
:101E00004021A06B01F09CFE0121A06B01F0B0FE0F
:101E10004021A06B01F094FE04F12C00FFF7C4FEFA
:101E200004F12000FFF7C0FE012004F0B9F860655E
:101E3000F8BD0000001001400014014000440040C3
:101E400000480040004C0040005000400078004036
:101E5000007C004010B5044604EB440101EBC401D2
:101E6000034A02EBC10101F12C00FFF79DFE10BDFA
:101E7000C004002010B504460B2C77D2DFE804F034
:101E800006192C3F5265798C9FB2C5004FF4006152
:101E90006848FFF706FC50B9642003F063FD4FF477
:101EA00000616448FFF7FDFB08B9012010BD002068
:101EB000FCE74FF480615F48FFF7F3FB50B9642003
:101EC00003F050FD4FF480615A48FFF7EAFB08B970
:101ED0000120EBE70020E9E74FF400715648FFF7D7
:101EE000E0FB50B9642003F03DFD4FF4007152480F
:101EF000FFF7D7FB08B90120D8E70020D6E74FF459
:101F000080614D48FFF7CDFB50B9642003F02AFDF6
:101F10004FF480614848FFF7C4FB08B90120C5E7CA
:101F20000020C3E74FF400614348FFF7BAFB50B904
:101F3000642003F017FD4FF400613F48FFF7B1FB49
:101F400008B90120B2E70020B0E74FF480513B48C8
:101F5000FFF7A7FB58B9642003F004FD4FF480514C
:101F60003648FFF79EFB10B901209FE760E0002094
:101F70009CE74FF400513148FFF793FB50B96420C0
:101F800003F0F0FC4FF400512C48FFF78AFB08B92E
:101F900001208BE7002089E74FF480412748FFF7B5
:101FA00080FB50B9642003F0DDFC4FF480412348EE
:101FB000FFF777FB08B9012078E7002076E74FF4B8
:101FC00000411E48FFF76DFB50B9642003F0CAFCC6
:101FD0004FF400411948FFF764FB08B9012065E799
:101FE000002063E74FF480711248FFF75AFB50B9A5
:101FF000642003F0B7FC4FF480710E48FFF751FBEB
:1020000008B9012052E7002050E74FF40071094859
:10201000FFF747FB50B9642003F0A4FC4FF40071B4
:102020000448FFF73EFB08B901203FE700203DE7E9
:1020300000BF3BE7000C02400000024000040240E9
:102040001CB501210D2000F0FDFD00208DF80500DC
:1020500001208DF8040000208DF8060002208DF884
:1020600007001020009069464248FFF7AFFA0120B0
:102070008DF807001020009069463F48FFF7A6FA48
:102080002020009069463C48FFF7A0FA40200090CD
:1020900069463948FFF79AFA802000906946364829
:1020A000FFF794FA1020009069463448FFF78EFA43
:1020B0004FF48050009069462E48FFF787FA4FF49E
:1020C0000050009069462B48FFF780FA4FF480409B
:1020D000009069462748FFF779FA4FF400400090D6
:1020E00069462448FFF772FA4FF480700090694601
:1020F0002248FFF76BFA4FF40070009069461F48C2
:10210000FFF764FA10211B48FFF7D6FA10211A488E
:10211000FFF7D2FA20211848FFF7CEFA40211648DF
:10212000FFF7CAFA80211448FFF7C6FA10211348B6
:10213000FFF7C2FA4FF480510E48FFF7BDFA4FF493
:1021400000510C48FFF7B8FA4FF480410948FFF7F7
:10215000B3FA4FF400410748FFF7AEFA4FF480712D
:102160000648FFF7A9FA4FF400710448FFF7A4FAF4
:102170001CBD0000000C02400000024000080240AC
:102180001CB5002001901CE18E480078012828D160
:102190008D480078012824D101038C48FFF78AFA82
:1021A0004FF4FA7003F0D8FC4FF480518748FFF7E2
:1021B00083FA4FF4FA7003F0CFFC0520FFF75AFEC4
:1021C00078B100207F4908704FF480517F48FFF7B5
:1021D00071FA042001AB012249210090162001F080
:1021E000F9F87B480078012828D17A48007801283E
:1021F00024D141037548FFF75DFA4FF4FA7003F0FC
:10220000ABFC4FF400517148FFF756FA4FF4FA70E7
:1022100003F0A2FC0620FFF72DFE78B100206C49E8
:1022200008704FF400516948FFF744FA042001ABED
:10223000012249210090172001F0CCF8664800786F
:10224000012828D165480078012824D181035F48FE
:10225000FFF730FA4FF4FA7003F07EFC4FF4804140
:102260005A48FFF729FA4FF4FA7003F075FC07207B
:10227000FFF700FE78B10020574908704FF4804105
:102280005248FFF717FA042001AB012249210090C0
:10229000182001F09FF852480078012828D15148B1
:1022A0000078012824D1C1034848FFF703FA4FF40E
:1022B000FA7003F051FC4FF400414448FFF7FCF979
:1022C0004FF4FA7003F048FC0820FFF7D3FD78B113
:1022D0000020434908704FF400413C48FFF7EAF9F9
:1022E000042001AB012249210090192001F072F86D
:1022F0003D480078012828D13C480078012824D1A5
:1023000001023B48FFF7D6F94FF4FA7003F024FCC2
:102310004FF480713648FFF7CFF94FF4FA7003F0AD
:102320001BFC0920FFF7A6FD78B100202E4908709C
:102330004FF480712E48FFF7BDF9042001AB012254
:10234000492100901A2001F045F82A480078012818
:1023500034D11C48007888BB1D48007870BB1E48EB
:10236000007858BB1E48007840BB1F48007828BB47
:102370004FF400711E48FFF79DF94FF4FA7003F017
:10238000EBFB4FF400711A48FFF796F94FF4FA701F
:1023900003F0E2FB0A20FFF76DFD78B1002015493C
:1023A00008704FF400711248FFF784F9042001AB64
:1023B0000122492100901B2001F00CF8142003F0A9
:1023C000CBFBE1E67500002060000020000C02401D
:1023D00076000020610000207700002062000020CD
:1023E00078000020630000207900002064000020B5
:1023F000000802407A00002070B5002534212048F2
:10240000FDF765FF34224FF480111D4802F0AAF851
:1024100030211B48FEF753FD05461948006BA842C2
:102420002DD034224FF40001154802F09BF83021E2
:102430001348FEF744FD05461148006BA8421ED024
:10244000FFF728FC4FF4801404E0200B02F046F85C
:1024500004F580540B488442F7D34FF4000408E09D
:102460002646E11704EB1151081302F037F804F582
:10247000805405488442F3DB014800F0BDFD70BD87
:1024800008010020001010000010800010B5044664
:102490004FF4FB711348FDF71AFF2046FFF7DAFCF3
:1024A00009221149204601F0A9FF104A0D49204692
:1024B00000F0BEFD0B48B0F8F401072810D1094820
:1024C000B0F8F401C01E0749085C022806D008468F
:1024D000B0F8F401C01E085C032801D1012010BD32
:1024E0000020FCE7466F0020BA6900083A7100201E
:1024F00000BFFEE710B5002400BF25E0144810F827
:10250000340000B3124800EBC4004078002809DD15
:102510000F4800EBC4004078401E0D4901EBC40198
:10252000487010E001200A4901EBC40188700020C6
:10253000074901F83400012001EBC401C870611C97
:1025400004A002F0BBF9641C082CD7DB10BD00000E
:102550009C6B0120B5E7BBFA2564B6A8CAB1C6F7E3
:10256000B3ACCAB10D0A000010B5002410E00A484F
:1025700000EBC400807850B10020074901EBC40192
:102580008870E0B2044A02EBC40251688847641CB8
:10259000082CECDB10BD00009C6B012006E000F075
:1025A00007F800F03BFC142003F0D6FAF7E7000030
:1025B00010B500240BE004EB440101EBC401054A13
:1025C00002EBC1002146FFF7D3F8601CC4B2082C0F
:1025D000F1DB10BDC00400207047000070B5002181
:1025E00000230F22C4781CB3174C246804F4E06461
:1025F000C4F5E064C4F30721C1F10404E3B20A4165
:1026000044789C40E1B28478144021430C07210EA9
:102610000E4C05786155047804F01F050124AC4088
:1026200005786D11AD0005F1E025C5F8004109E020
:10263000047804F01F050124AC40054D067876119E
:1026400045F8264070BD00000CED00E000E400E01D
:1026500080E100E002490143024A11607047000036
:102660000000FA050CED00E00246002100BF07E083
:1026700001208840104008B1C8B27047481C81B2A0
:102680001029F5DB0020F8E770B504460D466078A8
:102690002178884201D1002070BD227802EB8202AD
:1026A000A06800EB820114222846FDF7F7FD207890
:1026B000401C616890FBF1F201FB120020700120C8
:1026C000EAE710B5014600204A880B889A4201D1FA
:1026D0000A79AAB10B888A68D05C0B888A681A4488
:1026E000002313700A88521CCB8892FBF3F403FB7F
:1026F00014220A804A880B889A4201D100220A716A
:1027000010BD000010B5044637A12046FDF7EAFDD4
:10271000002868D036A002F0D1F844A002F0CEF82C
:1027200033A002F0CBF850A002F0C8F857A002F096
:10273000C5F862A002F0C2F870A002F0BFF87DA058
:1027400002F0BCF8884802F0B9F8884802F0B6F800
:10275000874802F0B3F8874802F0B0F8864802F0E4
:10276000ADF886A002F0AAF893A002F0A7F8A2485C
:1027700002F0A4F8A1A002F0A1F8B04802F09EF87F
:10278000AF4802F09BF8AF4802F098F8AE4802F06C
:1027900095F8AE4802F092F8AD4802F08FF8AD48D7
:1027A00002F08CF8AC4802F089F8AC4802F086F8E8
:1027B000AB4802F083F8AB4802F080F8AAA002F020
:1027C0007DF8B7A002F07AF8C2A002F077F8CFA0A7
:1027D00002F074F8DCA002F071F8E7A002F06EF8E5
:1027E00003A002F06BF810BD6C6973740000000068
:1027F0002A2A2A2A2A2A2A2A2A2A2A2A2A2A2A2A39
:102800002A2A2A2A2A2A2A2A2A2A2A2A2A2A2A2A28
:102810002A2A2A2A2A2A2A2A2A2A2A2A2A2A2A2A18
:102820002A2A2A2A2A2A2A2A0D0A00002A2A2A2A99
:102830002A2A202020202020202020202020202084
:1028400020B5F7CAD4B2CBB5A52020202020202067
:10285000202020202020202020202020202A2A2A5A
:102860002A2A2A0D0A000000C7EBD1A1D4F1CAE43C
:10287000C8EBC3FCC1EEA3A8CAAEC1F9BDF8D6C669
:10288000B7A2CBCDA3A90D0A00000000C3FCC1EE86
:10289000A3BA414130333042303130303030303003
:1028A000303030304135A3ACB6AFD7F7A3BABFAAAA
:1028B000BBFAB3F5CABCBBAF0D0A0000C3FCC1EE46
:1028C000A3BA414130333130313130305858285873
:1028D00058B1EDCABEC8A1BCB8BAC5BFA82930302E
:1028E000303030304135A3ACB6AFD7F7A3BAC8A16A
:1028F0005858BAC5BFA80D0A00000000C3FCC1EEBD
:10290000A3BA4141303331303132303030303030A1
:10291000303030304135A3ACB6AFD7F7A3BAB2E907
:10292000D1AFCAC7B7F1D7BCB1B8BAC3BDF8BFA859
:102930000D0A0000C3FCC1EEA3BA4141303331306F
:102940003133303030303030303030304135A3AC7E
:10295000B6AFD7F7A3BAB2A6BFA8BDF8B7B4D3A68F
:10296000C5CC0D0A00000000B86A0008286B0008FA
:10297000986B0008106C0008806C0008C3FCC1EE66
:10298000A3BA414130333030333130303030303021
:10299000303030304135A3ACB6AFD7F7A3BAD1F958
:1029A000B1BEBCDCC8EBB9ECB5E7BBFA284D54317D
:1029B00029B8B4CEBB0D0A00C3FCC1EEA3BA414195
:1029C00030333031333130303030303030303030FF
:1029D0004135A3ACB6AFD7F7A3BABFA8CCF5B3F6D1
:1029E000BAD0C7FDB6AFB5E7BBFA284D543229B807
:1029F000B4CEBB0D0A0000002C6A0008C3FCC1EE77
:102A0000A3BA41413033303333313030303030309D
:102A1000303030304135A3ACB6AFD7F7A3BABFA83A
:102A2000CCF5BBBBCFF2C7FDB6AFB5E7BBFA284DBF
:102A3000543429B8B4CEBB0D0A000000746A0008F3
:102A4000DC6D0008506E0008C46E0008386F000886
:102A5000AC6F000820700008F86C00089070000847
:102A6000646D000800710008C3FCC1EEA3BA4141C7
:102A7000303331304442303030303030303030302C
:102A80004135A3ACB6AFD7F7A3BAB1A3B4E6C9E852
:102A9000D6C3B5C4CFB5CDB3B2CECAFD0D0A0000C2
:102AA000C3FCC1EEA3BA414130333130444330302E
:102AB00030303030303030304135A3ACB6AFD7F79E
:102AC000A3BAB6C1C8A1CFB5CDB3B2CECAFD0D0A67
:102AD00000000000C3FCC1EEA3BA414130333130E5
:102AE0003430303030303030303030304135A3ACDD
:102AF000B6AFD7F7A3BABBF1C8A1CFC2CEBBBBFA62
:102B0000B0E6B1BEBAC50D0A00000000C3FCC1EEBC
:102B1000A3BA414130333130343930303030303085
:102B2000303030304135A3ACB6AFD7F7A3BABCECE8
:102B3000B2E9BFA8BAD0CEA2B6AFBFAAB9D8D7B4AF
:102B4000CCAC0D0A00000000C3FCC1EEA3BA4141A9
:102B5000303331303630303030303030303030306B
:102B60004135A3ACB6AFD7F7A3BABFAACABCC0CF92
:102B7000BBAF0D0A00000000C3FCC1EEA3BA414187
:102B8000303331303631303030303030303030303A
:102B90004135A3ACB6AFD7F7A3BACDA3D6B9C0CF52
:102BA000BBAF0D0A000000000FB410B504466078FA
:102BB000401C616890FBF1F201FB12002178884211
:102BC00003D1002010BC5DF814FB627802EB820296
:102BD000A16801EB8200142203A9FDF75FFB607876
:102BE000401C616890FBF1F201FB12006070012053
:102BF000E8E710B5024650881388984204D110794E
:102C0000012801D1002010BD53889068C15450881C
:102C1000401CD38890FBF3F403FB140050805088D1
:102C20001388984201D1012010710120EBE7014681
:102C300048880A88904203D10879012800D170475A
:102C40000020FCE729B1064A12680243044B1A60CF
:102C500004E0034A12688243014B1A607047000087
:102C60003038024029B1064A12680243044B1A6008
:102C700004E0034A12688243014B1A607047000067
:102C80004038024029B1064A12680243044B1A60D8
:102C900004E0034A12688243014B1A607047000047
:102CA0002038024029B1064A12680243044B1A60D8
:102CB00004E0034A12688243014B1A607047000027
:102CC0004438024029B1064A12680243044B1A6094
:102CD00004E0034A12688243014B1A607047000007
:102CE00024380240F0B500210022002402250026ED
:102CF0000223324F3F6807F00C0121B1042905D0AF
:102D0000082937D105E02E4F076036E02D4F0760C8
:102D100033E02A4F3F1F3F68C7F38056274F3F1FBE
:102D20003F6807F03F036EB1264FB7FBF3F7DFF8BC
:102D30008CC0ACF1040CDCF800C0CCF3881C07FBA1
:102D40000CF40CE01E4FB7FBF3F7DFF870C0ACF1EA
:102D5000040CDCF800C0CCF3881C07FB0CF4174F04
:102D60003F1F3F68C7F301477F1C7D00B4FBF5F7A9
:102D7000076002E0124F076000BF00BF0F4F3F68BF
:102D800007F0F0010909104F7A5C0768D7404760E7
:102D90000A4F3F6807F4E051890A0B4F7A5C476895
:102DA000D7408760054F3F6807F46041490B064FE5
:102DB0007A5C4768D740C760F0BD00000838024021
:102DC0000024F40040787D018200002010B5044604
:102DD00021796079814218D06079401CA16890FB0C
:102DE000F1F201FB12002179884202D107A001F023
:102DF00065FD094800210160416081600146201D98
:102E0000FFF742FC0448216B884710BDB6D3C1D000
:102E1000C2FA0D0A00000000281D002010B5002491
:102E20000AE004EB840101EBC401054A02EB8100D6
:102E3000FFF7CCFF601CC4B2012CF2DB10BD000018
:102E4000F41C002021B1028842F04002028004E01C
:102E500002884FF6BF731A40028070470246002076
:102E600013890B400BB1012000E0002070470146A0
:102E7000888970478181704710B50022028802F46A
:102E800041520B884C8823438C882343CC882343AE
:102E90000C8923434C8923438C892343CC892343C6
:102EA0001A430280838B4FF2FF74234083830B8A83
:102EB000038210BD00B587B001210C20FFF7C2FED0
:102EC00002208DF8180000208DF81A0001208DF8DE
:102ED0001B0002208DF819000C20059005A924483C
:102EE000FEF774FB0820059005A92248FEF76EFB4B
:102EF000052203211F48FEF7B1FB052202211C48D1
:102F0000FEF7ACFB052203211948FEF7A7FB0121C0
:102F10008803FFF7A7FE00211748FFF793FF002063
:102F2000ADF800004FF48270ADF802000020ADF85B
:102F300004000220ADF806000120ADF808004002B0
:102F4000ADF80A003020ADF80C000020ADF80E00FE
:102F50000720ADF8100069460748FFF78DFF0121F3
:102F60000548FFF76FFFFF2000F008F807B000BD2D
:102F700000080240000C02400038004070B50546D1
:102F8000002405E0601CC4B2C82C01DD002070BD27
:102F900002210E48FFF762FF0028F3D029460B48B4
:102FA000FFF768FF002405E0601CC4B2C82C01DDF7
:102FB0000020ECE701210548FFF750FF0028F3D07F
:102FC0000248FFF754FFC0B2E1E7000000380040BC
:102FD00010B50446074800884FF6C77108400549F8
:102FE0000880084600882043088001210148FFF737
:102FF00029FF10BD0038004010B50446302120469E
:10300000FDF75DFF206302F005FD34224FF48011CF
:10301000064801F015FB34224FF40001034801F08B
:103020000FFB02F021FD012010BD0000080100206F
:1030300070B504460D461646082C00DD70BD4FF4F1
:10304000C87002F089FD0020364908804FF4FA71FB
:103050003548FDF73CF904EB440101EBC401334A68
:1030600002EBC10101F12C00FEF728FB002856D02D
:1030700054E004EB440101EBC4012C4A02EBC10112
:1030800001F12C00FEF71AFB002843D004EB4401A9
:1030900001EBC401254A02EBC10101F12C00FFF74D
:1030A00010FB20490A880988491C1E4B19801E49BB
:1030B000885418460088C01E085C022805D01846AF
:1030C0000088C01E085C03280DD116480088072818
:1030D00024D11548016829608188A9808079A87168
:1030E00007203080AAE70F480088801E0E49085C40
:1030F000332813D10B480088401E085C31280DD1BD
:103100000846016829608188A9808079A871072014
:10311000308093E706A001F0D1FB8FE7A9E700BF5D
:103120008CE700001C000020001B0020C0040020D1
:10313000C9A8C2EBC6F7B4EDCEF30D0A000000003B
:103140001CB5002001902BE196480078012833D16E
:103150000020019093490870022101F02DFB00B37B
:103160001020914B012247210090112000F032F9EC
:103170008D48401E407830280FD18B48401E807803
:1031800030280AD18848401EC078312805D1012056
:1031900086490870864908700BE001208349087051
:1031A00007E0042001AB002247210090112000F02D
:1031B00011F9322002F0D0FC7E480078012835D188
:1031C000002001907B4908700421012001F0F4FAED
:1031D00008B31020744B11330122472100901220B4
:1031E00000F0F8F87048401E807C30280FD16E48FF
:1031F000401EC07C30280AD16B48401E007D31281B
:1032000005D101206C490870694908700BE0012064
:103210006949087007E0042001AB002247210090B3
:10322000122000F0D7F8322002F096FC63480078B4
:10323000012838D100200190604908700521022042
:1032400001F0BAFA20B31020574B22330122472154
:103250000090132000F0BEF85348401E90F8230061
:10326000302811D15048401E90F8240030280BD14E
:103270004D48401E90F82500312805D101205049C5
:1032800008704B4908700BE001204D49087007E0B9
:10329000042001AB002247210090132000F09AF88F
:1032A000322002F059FC47480078012838D100202C
:1032B0000190444908700121032001F07DFA20B3F8
:1032C0001020394B3333012247210090142000F0A5
:1032D00081F83548401E90F83400302811D132482A
:1032E000401E90F8350030280BD12F48401E90F832
:1032F0003600312805D10120334908702C49087067
:103300000BE001203049087007E0042001AB0022E7
:1033100047210090142000F05DF8322002F01CFCE0
:103320002A480078012838D10020019027490870E8
:103330000721042001F040FA20B310201A4B443337
:10334000012247210090152000F044F81648401E45
:1033500090F84500302811D11348401E90F84600DF
:1033600030280BD11048401E90F84700312805D175
:103370000120174908700E4908700BE0012014491C
:10338000087007E0042001AB0022472100901520BF
:1033900000F020F8322002F0DFFB142002F0DCFB0A
:1033A000D2E6000070000020F16E002075000020C1
:1033B0007A000020710000207600002072000020BA
:1033C00077000020730000207800002074000020A7
:1033D000790000202DE9FC478046894692461F4629
:1033E0000A9C0026002500200090019006208DF800
:1033F00000008DF801808DF802908DF803A0274819
:10340000FEF7D2FB00BF3FE0E11704EB9171B6EB92
:10341000A10F22D1E11704EB91718910A4EB810176
:1034200081B3002507E0042000FB0650395C01A8A9
:103430004155681C85B2E11704EB91718910A4EB2A
:103440008101A942EFDC00230A2269461448006882
:1034500002F01CFF0020019014E0002507E004208A
:1034600000FB0650395C01A84155681C85B2042D4B
:10347000F5DB00230A2269460948006802F006FFCE
:1034800000200190701C86B2E11704EB91710122BB
:1034900002EBA101B142B7DCBDE8FC87181D00209A
:1034A0003C00002070B505460C46012C05D1D42205
:1034B0000021284601F0B2F916E0022C05D1D522F0
:1034C0000021284601F0AAF90EE0032C05D1D622EE
:1034D0000021284601F0A2F906E0042C04D1D722ED
:1034E0000021284601F09AF970BD000010B509B11D
:1034F000012200E0002200EB0013014CE25410BD59
:10350000F06E00200CB5002001900090414800684A
:1035100040F480303F49086000BF3E48006800F436
:10352000003000900198401C0190009818B9019853
:10353000B0F5A04FF1D13748006800F4003010B169
:103540000120009001E0002000900098012860D147
:1035500030484030006840F080502E4940310860CB
:103560002D48006840F440402B4908602948083045
:1035700000682849083108600846006840F40040A7
:1035800008600846006840F4A05008602348091FFE
:103590000860081F006840F08070091F086000BFC5
:1035A0001C48006800F000700028F9D01A48006834
:1035B00040F480301849086000BF1748406800F4A4
:1035C00080300028F9D01448006840F400301249D7
:1035D000086000BF1048406800F400300028F9D0AF
:1035E00040F205700E4908600A480830006820F073
:1035F00003000849083108600846006840F00200EE
:10360000086000BF03480830006800F00C0008287C
:10361000F8D10CBD0038024000700040195440073A
:10362000003C02401CB5044600200190A07801280F
:1036300006D040281FD046282FD0492851D13EE03F
:1036400000230A2221462848006802F01FFE0128B4
:1036500008D1042001AB0122114600900B20FFF796
:10366000B9FE07E0042001AB0022BB21009010202E
:10367000FFF7B0FE36E000230A2221461A48006810
:1036800002F004FE012807D0042001AB0022BB2178
:1036900000901020FFF79EFE24E000230A2221461E
:1036A0001148006802F0F2FD012807D0042001ABA8
:1036B0000022BB2100901020FFF78CFE12E00023B7
:1036C0000A2221460848006802F0E0FD012807D0E0
:1036D000042001AB0022BB2100901020FFF77AFEEE
:1036E00000E000BF00BF1CBD2C00002010B500BFD3
:1036F0001020EFF3118180F31188BFF34F8FBFF3D8
:103700006F8F00BF02F07CFF18B14FF0805003496B
:103710000860002080F3118800BF10BD04ED00E0B8
:1037200010B5002408E004EB8401134A02EB4100C9
:1037300001F0AFFD601CC4B2102CF4DB0F48006830
:10374000401C0E490860084600686FF0004188423E
:1037500002D100200949086001F096FD0848007870
:10376000401CC0B206490870052803DB0020087021
:1037700001F08EFD10BD0000506E00204C000020B6
:103780005000002010B51548006840F4700013493F
:1037900008601348006840F00100114908600020EB
:1037A0000F49083108600E4800680E4908400C496E
:1037B00008600D48091D0860081F006820F480207B
:1037C000091F0860002006490C310860FFF79AFEC7
:1037D0004FF0006001498039086010BD88ED00E0BD
:1037E00000380240FFFFF6FE1030002410B5012122
:1037F000880700F0FFF828B10121880700F023F8BE
:10380000FEF778FE10BD000010B50121054800F05C
:10381000F1F828B1FFF784FF0121024800F013F806
:1038200010BD00000010004021B1028842F080026B
:10383000028004E002884FF67F731A4002807047CE
:10384000CA4302827047CA430282704721B102888C
:1038500042F00102028004E002884FF6FE731A4033
:103860000280704710B504465548844208D10121B2
:103870000846FFF727FA00210120FFF723FA9DE011
:10388000B4F1804F08D101210846FFF7FBF9002170
:103890000120FFF7F7F991E04A48844208D101215D
:1038A0000220FFF7EFF900210220FFF7EBF985E096
:1038B0004548844208D101210420FFF7E3F90021A3
:1038C0000420FFF7DFF979E04048844208D1012164
:1038D0000820FFF7D7F900210820FFF7D3F96DE0A2
:1038E0003B48844208D101211020FFF7CBF9002189
:1038F0001020FFF7C7F961E03648844208D1012162
:103900002020FFF7BFF900212020FFF7BBF955E089
:103910003148844208D101210220FFF7D3F9002168
:103920000220FFF7CFF949E02C48844209D1012158
:103930000804FFF7C7F900214FF48030FFF7C2F900
:103940003CE02748844209D101214804FFF7BAF935
:1039500000214FF40030FFF7B5F92FE021488442F1
:1039600009D101218804FFF7ADF900214FF480202F
:10397000FFF7A8F922E01C48844208D10121402029
:10398000FFF780F900214020FFF77CF916E0174887
:10399000844208D101218020FFF774F900218020A2
:1039A000FFF770F90AE01248844207D1012180151F
:1039B000FFF768F90021A015FFF764F910BD0000BA
:1039C000000001400004004000080040000C0040DE
:1039D000001000400014004000040140004001407D
:1039E000004401400048014000180040001C004015
:1039F0000020004030B50246002000230024158A34
:103A000005EA0103958905EA010413B10CB101200F
:103A100000E0002030BD1AB183890B43838102E0AE
:103A200083898B438381704700220288184B984218
:103A30000ED0184B98420BD0B0F1804F08D0164BE7
:103A4000984205D0154B984202D0154B984204D1AC
:103A50004FF68F731A404B881A43124B984207D087
:103A6000114B984204D04FF6FF431A400B891A437A
:103A700002804B68C3620B880385054B984202D0D5
:103A8000044B984201D18B7A0386012383827047CD
:103A90000000014000040140000400400008004014
:103AA000000C004000100040001400404FF0FF31B7
:103AB00041600021018001814180817270470000D6
:103AC00010B5024800F060FC10BD0000C8050020E1
:103AD00010B5024800F058FC10BD00002006002080
:103AE00010B5024800F050FC10BD0000D0060020C8
:103AF00010B5024800F048FC10BD00002807002067
:103B000010B5024800F040FC10BD0000C0040020C9
:103B100010B5024800F038FC10BD00001805002068
:103B200010B5024800F030FC10BD00007005002008
:103B300010B5024800F028FC10BD000078060020F7
:103B400001F40072B2F5007F00D100BFCA430280C9
:103B5000704710B50022002340F66A14A14200D13C
:103B600000BF0A1201249440A3B2DC43048010BDBC
:103B700021B1828942F40052828104E082894DF6AB
:103B8000FF731A408281704702460020B1F5007F22
:103B900000D100BF13880B400BB1012000E00020D2
:103BA000704770B50246002400230025002040F62F
:103BB0006A16B14200D100BFC1F3421501F01F03E4
:103BC000012606FA03F3012D02D19689334006E05F
:103BD000022D02D1168A334001E0968A33400C123E
:103BE000012606FA04F41688344013B10CB1012002
:103BF00000E0002070BDF0B503460024002600253B
:103C0000002040F66A17B94200D100BF1846C1F340
:103C1000421401F01F06012707FA06F5012C01D115
:103C20000C3004E0022C01D1103000E014301AB145
:103C300007682F43076002E00768AF430760F0BDE5
:103C40002DE9FF4705460E460024A14600BFA046C9
:103C5000B08900B100BF2C8A24F44054F08804439A
:103C60002C82AC8941F20C608443B08831890843CE
:103C7000718908430443AC81AC8A24F44074B08950
:103C80000443AC826846FFF72DF82048854202D0F5
:103C90001F48854202D1DDF80C9001E0DDF8089064
:103CA000A88900F4004040B109EBC90000EB0910FD
:103CB00031684900B0FBF1F707E009EBC90000EB00
:103CC000091031688900B0FBF1F76420B7FBF0F010
:103CD00004012009642101FB1078A88900F4004048
:103CE00040B1322000EBC800B0FBF1F000F007005B
:103CF000044308E0322000EB08106421B0FBF1F02F
:103D000000F00F0004432C81BDE8FF870010014044
:103D10000014014001468888C0F308007047C1F3D1
:103D200008028280704710B50446204600F02BF848
:103D300010BD10B50446204600F025F810BD10B5A2
:103D40000446204600F01FF810BD10B5044620467A
:103D500000F019F810BD10B50446204600F013F825
:103D600010BD10B50446204600F00DF810BD10B58A
:103D70000446204600F007F810BD10B50446204662
:103D800000F001F810BD704710B54FF43071FE48D7
:103D9000FCF79DFAFD48FC494860402088600021FE
:103DA000F9488173C173022101730121417302201B
:103DB000F5490860F549F44841618021816100219D
:103DC0008177C17702210177012141770220EE49F5
:103DD0000861EF49EC48416380214186ED498162E9
:103DE0008021C184EC48E84908651020C863EB488D
:103DF00088634FF4E13008640021E348A0F84410E0
:103E0000A0F84610A0F84810A0F84C100C21A0F81B
:103E10004A100020DC4948650846FDF763FFE04989
:103E2000D948C16520210166002180F8661080F81C
:103E30006710022180F86410012180F865100820C5
:103E4000D1498865D649D048C16640210167002123
:103E500080F8761080F87710022180F87410012124
:103E600080F8751008218166CE49C0F88C104FF497
:103E70008061A0F88A10CC49C0F880104FF48061AE
:103E8000A0F87E10C949C0F8A8104FF40031C0F85E
:103E90009410C749C0F890104FF41651C0F898100C
:103EA0000021A0F89C10A0F89E10A0F8A010A0F887
:103EB000A4100C21A0F8A2100021C0F8AC105830BA
:103EC000FDF710FFBB49B048C0F8B4100915C0F8A1
:103ED000B810002180F8BE1080F8BF10022180F8D1
:103EE000BC10012180F8BD100420A749C1F8B00022
:103EF000B049A548C0F8C410C914C0F8C8100021C2
:103F000080F8CE1080F8CF10022180F8CC1001216B
:103F100080F8CD100421C0F8C010A749C0F8E41003
:103F20008021A0F8E210A549C0F8D8108021A0F89F
:103F3000D610A349C0F800114FF48021C0F8EC104E
:103F4000A049C0F8E8104FF41651C0F8F010002155
:103F5000A0F8F410A0F8F610A0F8F810A0F8FC10E3
:103F60000C21A0F8FA100021C0F80411B030FDF7C0
:103F7000B9FE95498448C0F80C110121C0F8101110
:103F8000002180F8161180F81711022180F8141111
:103F9000012180F8151101207B49C1F808018A49E7
:103FA0007948C0F81C110221C0F82011002180F8C6
:103FB000261180F82711022180F82411012180F8B0
:103FC0002511C0F818118149C0F83C118021A0F8D2
:103FD0003A117F49C0F830118021A0F82E117D4997
:103FE000C0F858114FF40021C0F844117A49C0F8C4
:103FF00040114FF41651C0F848110021A0F84C119F
:10400000A0F84E11A0F85011A0F854110C21A0F8FE
:1040100052110021C0F85C1100F58470FDF762FEBA
:1040200064495948C0F864118914C0F86811002126
:1040300080F86E1180F86F11022180F86C11012157
:1040400080F86D1104205049C1F8600154494E4870
:10405000C0F874110421C0F87811002180F87E1195
:1040600080F87F11022180F87C11012180F87D11F8
:104070000821C0F870115949C0F894118021A0F8A6
:1040800092115749C0F888118021A0F8861155492E
:10409000C0F8B0114FF48011C0F89C115249C0F81B
:1040A00098114FF41651C0F8A0110021A0F8A411E6
:1040B000A0F8A611A0F8A811A0F8AC110C21A0F846
:1040C000AA110021C0F8B41100F5B070FDF70AFE86
:1040D00038492D48C0F8BC114021C0F8C01100215A
:1040E00080F8C61180F8C711022180F8C41101219F
:1040F00080F8C51104202449C1F8B8012D4922488F
:10410000C0F8CC118021C0F8D011002180F8D61160
:1041100080F8D711022180F8D411012180F8D5113F
:104120000421C0F8C8113149C0F8EC118021A0F871
:10413000EA112F49C0F8E0118021A0F8DE112D49C5
:10414000C0F808122021C0F8F4112B49C0F8F01172
:104150004FF41651C0F8F8110021A0F8FC11A0F896
:10416000FE11A0F80012A0F804120C21A0F802120F
:104170000021C0F80C1200F5DC70FDF7B3FD1F49FB
:104180000148C0F814123BE0C004002000040240C3
:104190008007002000080020273D00080010014093
:1041A000000C024080080020800C0020333D0008F5
:1041B0000044004000080240801000200011002050
:1041C0003F3D0008004800400000024080110020F0
:1041D000001200204B3D0008004C004080120020DF
:1041E00000130020573D00080050004080130020BD
:1041F00000140020633D0008001401400014024038
:104200008021C0F81812002180F81E1280F81F12B9
:10421000022180F81C12012180F81D1220204F4934
:10422000C1F810024E494D48C0F824124021C0F890
:104230002812002180F82E1280F82F12022180F817
:104240002C12012180F82D122021C0F8201245499E
:10425000C0F844128021A0F842124349C0F8381235
:104260008021A0F836124149C0F860124FF0804119
:10427000C0F84C123E49C0F848124FF41651C0F82D
:1042800050120021A0F85412A0F85612A0F85812AB
:10429000A0F85C120C21A0F85A120021C0F8641298
:1042A00000F50470FDF71EFD32492C48C0F86C1271
:1042B0000221C0F87012002180F8761280F877127F
:1042C000022180F87412012180F875121020234910
:1042D000C1F8680227492148C0F87C120121C0F8C2
:1042E0008012002180F8861280F88712022180F85F
:1042F0008412012180F885121021C0F878121E491D
:10430000C0F89C128021A0F89A121C49C0F89012A3
:104310008021A0F88E121A49C0F8B8124FF000415F
:10432000C0F8A4121749C0F8A0124FF41651C0F8F3
:10433000A8120021A0F8AC12A0F8AE12A0F8B0129A
:10434000A0F8B4120C21A0F8B2120021C0F8BC12DF
:1043500000F51A70FDF7C6FC10BD0000C004002077
:104360000014024080140020001500206F3D00085A
:104370000078004000100240801500200016002048
:104380007B3D0008007C004070B50446002540F2EB
:104390002551A06BFFF705FC98B1A06BFFF7BAFCA5
:1043A000C5B204F12C00FEF742FC20B9294604F105
:1043B0002C00FEF71EFC40F22551A06BFFF7C9FB55
:1043C0001BE040F22771A06BFFF7EBFBA8B104F1F3
:1043D0002000FDF773F9002809DD04F12000FEF745
:1043E00070F905462946A06BFFF799FC05E000220D
:1043F00040F22771A06BFFF7FEFB70BD2DE9F04185
:1044000004460E46174604EB440101EBC401214A61
:1044100002EBC10100235A1E486D194601F02AFE25
:10442000002518E004EB440101EBC401194A02EB3A
:10443000C10101F12000FEF7FAFB58B9715D04EBF0
:10444000440202EBC402134B03EBC20202F1200050
:10445000FEF7CFFB6D1CBD42E4D304EB440101EB3E
:10446000C4010C4A02EBC10100231A46486D1946EB
:1044700001F00CFF04EB440101EBC401054A02EB1F
:10448000C1010122886B40F22771FFF7B4FBBDE840
:10449000F0810000C004002000BFFEE710B500F06E
:1044A0008BF8084908800846018807A000F006FA42
:1044B000044800884EF61771884201D1002010BDD3
:1044C0000120FCE7800000205732355158585F54D6
:1044D000595045203D202530780D0A0010B504467E
:1044E000240300F009F900F0A1F810210B48FDF7B2
:1044F000E1F82020FEF742FDC4F30740FEF73EFD41
:10450000C4F30720FEF73AFDE0B2FEF737FD1021B5
:104510000248FDF7D1F800F089F810BD0010024004
:104520001CB501211020FEF78DFB1020009001200A
:104530008DF805008DF8040000208DF8060001209C
:104540008DF8070069460648FDF740F81021044839
:10455000FDF7B2F8FEF7AEFC3020FEF739FD1CBDCA
:10456000001002402DE9F04106460C461746102186
:104570001048FDF79FF80320FEF700FDC4F3074045
:10458000FEF7FCFCC4F30720FEF7F8FCE0B2FEF7F0
:10459000F5FC002505E0FF20FEF7F0FC7055681CD7
:1045A00085B2BD42F7DB10210248FDF785F8BDE872
:1045B000F08100000010024010B5002410210F48C7
:1045C000FDF778F89020FEF7D9FC0020FEF7D6FC26
:1045D0000020FEF7D3FC0020FEF7D0FCFF20FEF702
:1045E000CDFC44EA0024FF20FEF7C8FC0443102160
:1045F0000248FDF761F8204610BD0000001002409F
:1046000010B5002410210848FDF754F80520FEF7E6
:10461000B5FCFF20FEF7B2FC044610210248FDF76E
:104620004BF8204610BD00000010024010B500BF3E
:10463000FFF7E6FF00F001000028F9D110BD0000EF
:104640002DE9F05F81460F461646DFF8A8B04FEA25
:104650001738C7F30B0ACAF58054A64200DC34466B
:1046600044E04FEA08314FF480525846FFF77AFF92
:10467000002508E00AEB05001BF80000FF2800D029
:1046800003E0681C85B2A542F4DB00BFA54216DA40
:104690004046FFF723FF002507E019F8050005EB6A
:1046A0000A010BF80100681C85B2A542F5DB4FEA50
:1046B00008314FF48052584600F02EF804E02246AC
:1046C0003946484600F028F8A64200D10FE008F12C
:1046D00001084FF0000AA1442744301B86B2B6F50A
:1046E000805F02DD4FF4805400E03446B9E700BF3C
:1046F000BDE8F09F3C71002010B510210548FCF783
:10470000D9FF0620FEF73AFC10210248FCF7D4FF3F
:1047100010BD0000001002402DE9F04107460E4692
:104720001446F0B2C0F58075AC4200DC254612E0BC
:104730002A463146384600F013F8AC4200D10BE06F
:104740002F442E44601B84B2B4F5807F02DD4FF409
:10475000807500E02546EBE700BFBDE8F081000072
:104760002DE9F04106460C461746FFF7C5FF10211C
:104770001048FCF79FFF0220FEF700FCC4F307403F
:10478000FEF7FCFBC4F30720FEF7F8FBE0B2FEF7F0
:10479000F5FB002504E0705DFEF7F0FB681C85B2B8
:1047A000BD42F8DB10210348FCF786FFFFF73EFF10
:1047B000BDE8F0810010024070B504460D460026A9
:1047C00000212046FEF792FE03212846FEF76AFEEE
:1047D000322001F0C1F92846FDF73CFB13E0C82068
:1047E00001F0BAF904EB04100B49085C012805D16B
:1047F00001212846FEF756FE012070BD701CC6B28E
:10480000192E00DD00E0EAE700BF01212846FEF78F
:1048100049FE0020F1E70000F06E0020FEB50746DB
:104820000C46154600267E208DF8000000208DF8ED
:10483000010008208DF8020001208DF80300200AF5
:104840008DF80400E0B28DF805008DF80650AB201D
:104850008DF80700CD208DF8080000BF06E0092282
:1048600069463846FFF7CAFD701CC6B2092EF6DB52
:104870003846FDF7EFFA0F4AA2F5FA713846FEF70F
:10488000D7FB0D48B0F8F401072810D10A48B0F85A
:10489000F401801E0849085C332808D10846B0F8A6
:1048A000F401401E085C312801D10120FEBD00202A
:1048B000FCE700003A710020466F00200FB4054B62
:1048C00010B503A9044A029800F018F810BC5DF86E
:1048D00014FB0000E95200080401002002E008C8AF
:1048E000121F08C1002AFAD170477047002001E06A
:1048F00001C1121F002AFBD1704700002DE9FF4FB4
:104900008DB00F460546002606E025280BD0DDE9D0
:104910000F1290476D1C761C28780028F5D111B035
:104920003046BDE8F08F0024A246A1460122EC49A2
:1049300000E0044315F8013F203B02FA03F008426F
:10494000F7D128782A2810D06FF02F022878A0F10C
:104950003001092914D80AEB8A0102EB410144F025
:10496000020400EB010A6D1CF0E701CF5FEA000AC8
:1049700003D544F40054CAF1000A44F002046D1C4B
:1049800028782E2817D115F8010F44F004042A289E
:104990000ED06FF02F022878A0F1300109290AD833
:1049A00009EB890102EB410100EB01096D1CF2E703
:1049B00057F8049B6D1C28786C280FD006DC4C2817
:1049C00017D068280DD06A2814D104E0742810D0BC
:1049D0007A280FD10DE044F400140AE044F4801466
:1049E00001E044F440146978814202D104F5801456
:1049F0006D1C6D1C2A786E2A1FD00CDC632A31D006
:104A000004DC002A8BD0582A11D1A3E0642A68D094
:104A1000692A0CD165E0732A2ED004DC6F2A73D08A
:104A2000702A04D19BE0752A6FD0782A6ED0104688
:104A3000DDE90F129047761C50E1C4F302500228C2
:104A400006D0032809D0042801CF09D0066045E12B
:104A500001CFF117C0E9006140E101CF06803DE1DF
:104A600006703BE117F8040B8DF8000000208DF86C
:104A70000100EB46012003E057F804BB4FF0FF3084
:104A800061074FF0000102D40DE008F101018846F2
:104A900049450FDA8045F8DB1BF808100029F4D1EE
:104AA00008E008F1010188468142FADB1BF8081092
:104AB0000029F6D1DDE90F23AAEB08008146214643
:104AC00000F036F9304400EB080604E0DDE90F128F
:104AD0001BF8010B9047B8F10108F7D22146484670
:104AE000F7E00A21C4F302534FF0000B0891022BA8
:104AF00004D001CFC117032B09D00AE0FF1D27F016
:104B00000707F7E8020108E032E01FE020E000B20A
:104B1000C117042B01D140B2C117031E71F100036C
:104B200007DA4FF0000CD0EB0C006CEB01012D23E9
:104B300002E0230504D52B238DF82430012303E064
:104B4000E30701D02023F7E7984658E00A2110E058
:104B500010210EE010204FF0000B08900CE0102107
:104B60004FF0000B44F004044FF00809089103E0F3
:104B700008214FF0000B0891C4F30253022B04D01C
:104B800001CF0021032B06D006E0FF1D27F0070709
:104B9000F7E8020103E080B2042B00D1C0B24FF06D
:104BA000000823072BD5702A07D0DDF820C08CF031
:104BB000100C5CEA0B0C05D00EE040238DF824307D
:104BC000012308E050EA010306D030238DF8243099
:104BD0008DF8252002239846DDF820C08CF0080CC3
:104BE0005CEA0B0C0BD150EA010301D1630706D537
:104BF00030238DF824304FF00108A9F10109582A1B
:104C000004D038A20B9208AA0A920BE03AA2F9E764
:104C10005B46089AFBF778FB0B9B9B5C0A9A521E3B
:104C20000A92137050EA0102F2D10A98ADEB00002B
:104C300000F1200B600702D524F4803401E04FF02E
:104C40000109D94502DDA9EB0B0000E0002000EBD3
:104C50000B0141440890AAEB010AE00306D4DDE908
:104C60000F232146504600F063F806444FF0000938
:104C700008E009A911F80900DDE90F12904709F1D0
:104C80000109761CC145F4DBE0030CD5DDE90F23F7
:104C90002146504600F04CF8064404E0DDE90F12CE
:104CA00030209047761C0899481E08900029F5DCB2
:104CB00008E00A980A990078491C0A91DDE90F1268
:104CC0009047761CBBF10001ABF1010BF1DC2146F2
:104CD0005046DDE90F2300F019F806446D1C1BE671
:104CE00009280100303132333435363738396162C2
:104CF0006364656600000000303132333435363786
:104D00003839414243444546000000002DE9F04156
:104D1000044600251E461746880404D405E039469B
:104D20002020B0476D1C641EF9D52846BDE8F081EF
:104D30002DE9F041044600251E469046C80301D5E2
:104D4000302700E02027880404D505E04146384696
:104D5000B0476D1C641EF9D52846BDE8F0810000FF
:104D60002DE9FC4705460E4691461C460020019061
:104D7000E378A27861782078FCF78EF807464FF048
:104D80000008012E06D0402E11D0462E18D0492EF4
:104D90007ED125E0FCF7E6FA8DF80400042001AB93
:104DA0000222012100900B20FEF714FBA9E10A204A
:104DB000D54B0122402100901020FEF70BFBA0E113
:104DC000A5F11100052809D2DFE800F0030405066B
:104DD000070003E002E001E000E000BF00BF90E157
:104DE000A5F111000B2834D2DFE800F006346594F9
:104DF000C3F8EDECEBEAE9000020FDF73BF8824652
:104E0000042001AB5246492100901120FEF7E2FA3E
:104E1000142000F0A1FE0020FDF72CF88246514638
:104E2000BAA0FFF74BFD02210020FFF7C5FC40B1FF
:104E30001020BB4B0122472100901120FEF7CAFA37
:104E400007E0042001AB0022472100901120FEF76B
:104E5000C1FA53E10120FDF70DF88246042001ABB1
:104E60005246492100901220FEF7B4FA142000F0B7
:104E700073FE0120FCF7FEFF82465146A9A0FFF712
:104E80001DFD04210120FFF797FC58B1102000E020
:104E900036E1A34B11330122472100901220FEF787
:104EA00099FA07E0042001AB00224721009012206C
:104EB000FEF790FA22E10220FCF7DCFF8246042094
:104EC00001AB5246492100901320FEF783FA1420CB
:104ED00000F042FE0220FCF7CDFF8246514696A02C
:104EE000FFF7ECFC05210220FFF766FC48B110201B
:104EF0008B4B22330122472100901320FEF76AFAE0
:104F000007E0042001AB0022472100901320FEF7A8
:104F100061FAF3E00320FCF7ADFF8246042001AB09
:104F20005246492100901420FEF754FA142000F054
:104F300013FE0320FCF79EFF8246514683A0FFF735
:104F4000BDFC01210320FFF737FC48B11020744B52
:104F500033330122472100901420FEF73BFA07E08B
:104F6000042001AB0022472100901420FEF732FA02
:104F7000C4E00420FCF77EFF8246042001AB5246C9
:104F8000492100901520FEF725FA142000F0E4FDD9
:104F90000420FCF76FFF8246514671A0FFF78EFC9C
:104FA00007210420FFF708FC78B110205C4B443344
:104FB0000122472100901520FEF70CFA0DE085E054
:104FC0006CE053E03AE021E008E0042001AB00226D
:104FD000472100901520FEF7FDF98FE00520FCF732
:104FE00049FF8246042001AB524649210090162019
:104FF000FEF7F0F9142000F0AFFD0520FCF73AFFB2
:10500000824651465BA0FFF759FC77E00620FCF78B
:1050100031FF8246042001AB5246492100901720FF
:10502000FEF7D8F9142000F097FD0620FCF722FFC8
:105030008246514655A0FFF741FC5FE00720FCF790
:1050400019FF8246042001AB5246492100901820E6
:10505000FEF7C0F9142000F07FFD0720FCF70AFFDF
:10506000824651464FA0FFF729FC47E00820FCF795
:1050700001FF8246042001AB5246492100901920CD
:10508000FEF7A8F9142000F067FD0820FCF7F2FEF7
:105090008246514649A0FFF711FC2FE00920FCF79A
:1050A000E9FE8246042001AB5246492100901A20B5
:1050B000FEF790F9142000F04FFD0920FCF7DAFE0E
:1050C0008246514643A0FFF7F9FB17E00A20FCF7A0
:1050D000D1FE8246042001AB5246492100901B209C
:1050E000FEF778F9142000F037FD0A20FCF7C2FE25
:1050F000824651463DA0FFF7E1FB00BF00BF00E044
:1051000000BF00BFBDE8FC87B0690008BFA8BAD0E7
:1051100031D4DACEBBD7B4CCAC203D20256400001E
:10512000F16E0020BFA8BAD032D4DACEBBD7B4CC4F
:10513000AC203D2025640000BFA8BAD033D4DACE1D
:10514000BBD7B4CCAC203D2025640000BFA8BAD0AA
:1051500034D4DACEBBD7B4CCAC203D2025640000DB
:10516000BFA8BAD035D4DACEBBD7B4CCAC203D2062
:1051700025640000CFA1CACDD2BA31D4DACEBBD7D4
:10518000B4CCAC203D20256400000000CFA1CACDE6
:10519000D2BA32D4DACEBBD7B4CCAC203D20256411
:1051A00000000000CFA1CACDD2BA33D4DACEBBD72B
:1051B000B4CCAC203D20256400000000CFA1CACDB6
:1051C000D2BA34D4DACEBBD7B4CCAC203D202564DF
:1051D00000000000CFA1CACDD2BA35D4DACEBBD7F9
:1051E000B4CCAC203D20256400000000CFA1CACD86
:1051F000D2BA36D4DACEBBD7B4CCAC203D202564AD
:105200000000000000F058F80B48002101604160E8
:1052100011E000230A2208490848006800F02AFF2C
:1052200030B1054BDA78997858781B1DFFF798FD57
:10523000142000F091FCECE7140000202C0000206A
:1052400010B54FF44070FDF705FAFBF715F9FCF7C0
:10525000F7FEFEF799FDFBF7B5FBFFF761F9FCF7E9
:10526000B9FCFDF7C9F8FCF7ABFC02A0FFF726FB81
:1052700010BD00000D0AD3B2BCFEB3F5CABCBBAF73
:10528000CDEAB3C90D0A000010B5FDF76DF910BDE8
:105290007047D0F8021071B1D0F80210491EC0F862
:1052A000021041B9012141700178012903D1D0F8E0
:1052B0000610C0F80210704710B500220821C8017E
:1052C00000F094FE0149086010BD00002C00002091
:1052D00010B500220821C80100F088FE01490860CD
:1052E00010BD00003C00002070B504460D46E1B240
:1052F0000548FEF714FD00BF40210348FEF744FCBB
:105300000028F9D0204670BD00100140012080F334
:10531000108800BFFFF794FFFBF758F800F016FD68
:1053200000BFFEE710B504460E48006844600E4812
:105330000068844207D20B480168091D0B480068C9
:1053400000F042FB0CE007480168091D08480068AE
:1053500000F03AFB07480068844201D20548046027
:1053600010BD0000A8000020BC000020B0000020FC
:10537000AC000020D80000202DE9F04105460F4682
:105380001FB9A80000F02CFA00E03846064656B1D6
:105390005C2000F025FA04460CB1266304E0304698
:1053A00000F080FB00E0002424B1A900A522206BBE
:1053B000FAF786FF2046BDE8F081000070B523E0D3
:1053C00000F002FD1348006808B9012000E0002049
:1053D000054601F06BFABDB900F01CFB0D48C06832
:1053E000C468201D00F0CCFA0B480068401E0A4932
:1053F00008600A480068401E0849086000F034FB55
:10540000204600F062F800BF044800680028D7D1A9
:1054100070BD0000A86D0120B8000020B40000207D
:1054200070B504460D46206C70B1216CE0680844EC
:10543000E0606168E068884201D32068E060284647
:10544000226CE168FAF72AFF70BD2DE9F0410446AD
:105450000E4615460027206C40B9206878BB60686E
:1054600001F074F907460020606028E07DB93146FC
:10547000226CA068FAF712FF216CA0680844A060B3
:10548000D4E9011088421AD32068A06017E03146A1
:10549000226CE068FAF702FF216CE068401AE060D5
:1054A0002168E068884203D2216C6068401AE0609D
:1054B000022D04D1A06B10B1A06B401EA063A06BA5
:1054C000401CA0633846BDE8F08110B50446206B4F
:1054D00000F0E8FA204600F0E5FA10BD30B54FF4D0
:1054E0008033174800F007042CB1C01D20F00700DE
:1054F000134C041B1B1B0246124C22600024114D4E
:105500006C60D018083820F007000F4C2060002491
:105510000D4D2D686C600C4D2D682C601146441AA1
:105520004C60094C24680C60084D4C682C60084D98
:105530004C682C604FF00044064D2C6030BD0000DC
:10554000D06D0120EC000020F4000020FC000020C1
:10555000F80000200001002000BFFFF72FFF0648E1
:1055600000680128F9D94FF0805004490860BFF362
:105570004F8FBFF36F8FF0E7DC6B012004ED00E08D
:105580002DE9F04704460F4615469946DDF8208080
:10559000002607E0B95D04F134008155B85D00B91B
:1055A00002E0761C102EF5D300BF002143200155E8
:1055B000142D00D31325E562E56400202065201D2D
:1055C00000F0FFF904F1180000F0FBF92461C5F1C7
:1055D0001400A06164620020606584F85800BDE892
:1055E000F087000010B5002407E004EB84010F4AA7
:1055F00002EB810000F0D8F9641C142CF5D30C48A0
:1056000000F0D2F90B4800F0CFF90B4800F0CCF9CC
:105610000A4800F0C9F90A4800F0C6F904480949E7
:10562000086004480849086010BD0000DC6B0120D8
:105630006C6D0120806D0120946D0120A86D01200A
:10564000BC6D0120AC000020B000002010B5014668
:10565000164800E0006803688B42FBD302464368AB
:1056600013448B4204D143684C6823444360014691
:105670000A464B6813440468A34211D10C4C0368DA
:105680002468A34208D04B680468646823444B60D4
:1056900003681B680B6005E0054B1B680B6001E0AD
:1056A00003680B60884200D0016010BDEC00002050
:1056B000F400002070B5054600F0ACF9A86B08B9FD
:1056C000012400E0002400F0CFF9204670BD70B541
:1056D000054600F09FF9A86BE96B884201D10124CF
:1056E00000E0002400F0C0F9204670BD0A490968B6
:1056F000096809B9012100E0002121B14FF0FF3113
:10570000064A116006E004490968C968C868034A86
:105710004168116070470000AC000020D8000020F4
:105720000E480068401C08B9012000E0002050B974
:1057300000BF102080F31188BFF34F8FBFF36F8F2E
:1057400000BF00BFFEE700BF102080F31188BFF349
:105750004F8FBFF36F8F00BF00BFFEE7E000002058
:1057600010B5044600F056F911E0606A08B901204E
:1057700000E0002038B904F1240001F04BF818B122
:1057800000F030FA00E005E0A06C401EA064A06CC0
:105790000028EADC00BF4FF0FF30A06400F064F99D
:1057A00000F038F911E0206908B9012000E000207C
:1057B00050B904F1100001F02DF808B100F012FA10
:1057C000606C401E606400E002E0606C0028EADC6F
:1057D00000BF4FF0FF30606400F046F910BD0000DC
:1057E0002DE9F04104464FF0000800F0EDFA46487C
:1057F000006808B9FFF772FE44480068204000289E
:105800006BD1D4B1083404F00700B0B104F0070044
:10581000C0F10800044404F0070008B9012000E0CA
:10582000002050B900BF102080F31188BFF34F8FC4
:10583000BFF36F8F00BF00BFFEE7002C4DD0344890
:105840000068844249D8334E3046056801E02E4650
:105850002D686868A04202D228680028F7D12A483B
:105860000068854239D0306800F108082868306047
:105870006868001B102819D92F1907F0070008B90C
:10588000012000E0002050B900BF102080F31188F3
:10589000BFF34F8FBFF36F8F00BF00BFFEE7686895
:1058A000001B78606C603846FFF7D0FE18496868C6
:1058B0000968081A16490860084600681649096808
:1058C000884203D212480068134908600F4968688B
:1058D0000968084368600020286000F0E7FF08F0CE
:1058E000070008B9012000E0002050B900BF1020D7
:1058F00080F31188BFF34F8FBFF36F8F00BF00BFDE
:10590000FEE74046BDE8F081F400002000010020E1
:10591000F8000020EC000020FC0000200648006891
:1059200030B10549096801F15000096D491C016059
:105930000148006870470000A8000020001F4FF0D9
:1059400080730360001F0160001F054B0360143863
:105950000260001F6FF002030360203870470000F0
:1059600021570008014605E0002001E0421CD0B2AA
:105970000828FBDB0A1EA1F1010399B2F4D170479C
:1059800001460A69D1E901309860D1E90103586004
:105990005068884201D18868506000200861106812
:1059A000401E10601068704700F1080141604FF020
:1059B000FF31816000F10801C160016100210160D7
:1059C000704700210161704710B502460B685C1CEE
:1059D0000CB9106907E002F1080000E04068446873
:1059E00024689C42FAD944684C604C68A160886085
:1059F00041600A611468641C146010BD42684A600A
:105A000093688B60936859609160086103685B1CC0
:105A10000360704700BF102080F31188BFF34F8FE1
:105A2000BFF36F8F00BF0E480068401C0C49086030
:105A300008460068012812D10A480068C0B208B9B7
:105A4000012000E0002050B900BF102080F3118831
:105A5000BFF34F8FBFF36F8F00BF00BFFEE77047EC
:105A6000E000002004ED00E00D48006850B900BFE0
:105A7000102080F31188BFF34F8FBFF36F8F00BFEB
:105A800000BFFEE706480068401E0549086008465A
:105A9000006820B9002080F3118800BF00BF704764
:105AA000E000002070B506463546002E3FD0083D88
:105AB0002C461F4960680968084008B1012000E0D1
:105AC000002050B900BF102080F31188BFF34F8F22
:105AD000BFF36F8F00BF00BFFEE7206808B9012049
