:020000040800F2
:10000000C8D7022079020008D53D0008492C000815
:1000100095380008690F00089D9500080000000051
:10002000000000000000000000000000C101000806
:10003000751F00080000000015020008397B000849
:10004000930200089302000893020008930200083C
:10005000930200089302000893020008930200082C
:10006000930200089302000893020008930200081C
:10007000930200089302000893020008930200080C
:1000800093020008930200089302000893020008FC
:1000900085100008930200089302000893020008EC
:1000A00093020008930200089302000893020008DC
:1000B000397C0008930200089302000893020008AC
:1000C00093020008930200089302000893020008BC
:1000D00093020008198C0008298C0008398C00084C
:1000E000930200089302000893020008930200089C
:1000F000930200089302000893020008930200088C
:10010000930200089302000893020008930200087B
:10011000D98B0008E98B0008557C00089302000881
:10012000930200089302000893020008930200085B
:10013000930200089302000893020008930200084B
:100140009912000893020008930200089302000825
:10015000930200089302000893020008498C0008EB
:10016000930200089302000893020008930200081B
:10017000930200089302000893020008930200080B
:100180009302000893020008F98B0008098C00080C
:1001900093020008930200089302000893020008EB
:1001A000930200089302000893020008DFF80CD0C5
:1001B00000F082FB0048004789C50008C8D702202C
:1001C0002A4B19680868B0E8F04F80F30988BFF33C
:1001D0006F8F4FF0000080F311887047000000001F
:1001E00006480068006880F3088862B661B6BFF30D
:1001F0004F8FBFF36F8F00DF00BF00BF08ED00E03F
:10020000DFF80C00016841F470010160704700BF25
:1002100088ED00E0EFF30980BFF36F8F134B1A688E
:100220001EF0100F08BF20ED108A20E9F04F10607B
:1002300008B44FF0100080F31188BFF34F8FBFF365
:100240006F8F0CF017FF4FF0000080F3118808BC8F
:1002500019680868B0E8F04F1EF0100F08BFB0EC46
:10026000108A80F30988BFF36F8F70479C000020CD
:10027000EFF30580704700000648804706480047B6
:10028000FEE7FEE7FEE7FEE7FEE7FEE7FEE7FEE746
:10029000FEE7FEE7D17B0008AD01000840EA01035C
:1002A0009B0703D009E008C9121F08C0042AFAD22C
:1002B00003E011F8013B00F8013B521EF9D27047F0
:1002C000D2B201E000F8012B491EFBD27047002298
:1002D000F6E710B513460A4604461946FFF7F0FF45
:1002E000204610BD30B505462A460B4612F8010BD4
:1002F00013F8014B08B1A042F8D01CB1002802D07D
:100300006D1CF1E7284630BD2DE9FE4F804681EA9D
:100310000300C00F0C46009021F0004123F000457F
:10032000B8EB0200A94105D24046214690461C4642
:100330000B46024623F00040104347D0270DC7F379
:100340000A00C3F30A510290401A019040286BDA68
:10035000C3F3130040F4801B0098924620B10023A1
:10036000D2EB030A63EB0B0B01985946C0F1400234
:10037000504600F0E2F906460D4650465946019AAD
:1003800000F0FAF910EB08006141002487EA1152ED
:1003900084EAE7731A4340D0009A62B3019A012AB3
:1003A0004FEA075215DC001B61EB02014FF00042DF
:1003B00002EA0752CDE90042001C41F580113246A5
:1003C0002B4600F0FAF903B0BDE8F08F4046214615
:1003D000F9E7001B61EB0201001C41F580130018D6
:1003E0005B412018A2F5001747EB030140EAD570E6
:1003F000B6196D4111E06D084FEA360645EAC07541
:100400004FEA0752001B61EB0201001C41F580110D
:1004100049084FEA30000019514132462B4603B0DB
:10042000BDE8F04F00F0BAB9009801224000002367
:10043000D0EB020263EBE073009821464FEAE074D0
:10044000B8EB000061EB0401E9E783F000435BE7F0
:1004500081F0004158E72DE9FE4F81EA030404F0E2
:10046000004421F0004100944FF0000B23F00043C2
:1004700050EA01045ED052EA03045BD0C3F30A548D
:10048000C1F30A552C44A4F2F3340194A0FB0254A6
:10049000C1F3130141F48011C3F3130343F4801338
:1004A00001FB024400FB034E840A970A44EA81548C
:1004B00047EA8357A4FB076802958D0A05FB078569
:1004C0004FEA932C04FB0C542705029D4FEA065873
:1004D00047EA1637B5EB08056EEB070C870E920E50
:1004E00047EA811742EA8312A7FB0201B6EB0B0130
:1004F00064EB00042B0D43EA0C335E1844EB1C50F4
:10050000DA465146E7FB0201C5F313044FEA0B3309
:1005100043EA14534FEA0432019C43EA0603A4F170
:100520000C040294009CCDE900B400F046F903B03D
:10053000BDE8F08F00200146F9E72DE9F04D81EA92
:10054000030404F0004B21F0004514464FF0000A6C
:1005500023F0004150EA050220D054EA01021DD0E8
:10056000C5F30A570246C5F31303C1F31300C1F3E1
:100570000A5640F4801543F48013A7EB0608101BBD
:10058000D64608F2FD3873EB050002D308F10108E6
:1005900001E092185B41B8F1000F03DA0020014638
:1005A000BDE8F08D00204FF48011064684460EE031
:1005B000171B73EB050705D3121B63EB05030643FB
:1005C0004CEA010C49084FEA300092185B4150EAAE
:1005D0000107EDD152EA030012D082EA040083EA57
:1005E0000501084305D0101BAB4106D201220023B0
:1005F00006E000224FF0004302E06FF001025310CA
:100600001AEB06004CEB085110EB0A0041EB0B0112
:10061000BDE8F04D00F0C2B80EB5C10F80EAE07041
:100620000844CA07002140F233438DE80E000A4611
:100630000B4600F0C2F803B000BD0EB540F23341E6
:1006400002910021CDE900110A460B4600F0B5F8F1
:1006500003B000BDC1F30A5210B5C1F3130140F25B
:10066000FF3341F480119A4201DA002010BD40F2BC
:1006700033439A42A2F2334203DC524200F06CF858
:1006800010BD904010BD00F0004230F000400AD094
:10069000C10D01F56071C0F3160042EA0151C208B4
:1006A00040071143704700200146704730B50B46A4
:1006B000014600202022012409E021FA02F59D4292
:1006C00005D303FA02F5491B04FA02F52844151E66
:1006D000A2F10102F1DC30BD2DE9F05F05460020FA
:1006E00092469B4688460646814640241BE02846A3
:1006F00041464746224600F02FF853465A46C01A54
:10070000914110D311461846224600F016F82D1AD2
:1007100067EB01084F4622460120002100F00DF84A
:1007200017EB00094E41201EA4F10104DFDC48460E
:1007300031462A464346BDE8F09F202A04DB203A92
:1007400000FA02F1002070479140C2F1200320FA24
:1007500003F3194390407047202A04DB203A21FA22
:1007600002F00021704721FA02F3D040C2F12002CA
:100770009140084319467047202A06DBCB17203AE0
:1007800041FA02F043EAE07306E041FA02F3D04096
:10079000C2F12002914008431946704710B5141E5B
:1007A00073F1000408DA401C41F1000192185B412A
:1007B0001A4301D120F0010010BD2DE9F04D924601
:1007C0009B4611B1B1FA81F202E0B0FA80F2203218
:1007D0009046FFF7B2FF04460F4640EA0A0041EA9E
:1007E0000B0153465A46084313D0114653EA010001
:1007F00019D0C8F140025046FFF7AEFF05460E463D
:10080000504659464246FFF798FF084305D001205D
:1008100004E020463946BDE8F08D0020054346EA55
:10082000E0762C4337430A986305E40AA0EB0800FE
:100830000022FD0A44EA47540A3002D5002001464E
:10084000E9E7010510196941DDE908450019694129
:10085000BDE8F04DA2E7C1F30A52C1F3130140F223
:10086000FF3341F480119A4202DA002001467047BA
:1008700040F233439A42A2F2334202DC5242FFF783
:100880006BBFFFF75ABF000030B5041E71F10004C2
:1008900004DB4FF00044404264EB0101141E73F18D
:1008A000000405DB1C464FF00043524263EB040397
:1008B000994208BF904230BD064C074D06E0E06803
:1008C00040F0010394E8070098471034AC42F6D397
:1008D000FFF770FC60E8000880E8000810B58AB0F7
:1008E00004460121080203F09DFF0121022003F0CC
:1008F000C9FF00208DF8260002208DF825008DF814
:10090000240001208DF827000420089008A92F4812
:1009100001F0CAFE032202212C4801F00DFF042041
:10092000089008A9294801F0BFFE684607F084FB3B
:100930000020ADF80800ADF8020040F28F100190E1
:1009400040F2AF40ADF800006946214807F032FBA5
:1009500001211F4807F08EF901211D4807F0A5F974
:100960004FF48070ADF81C006020ADF80C00002042
:10097000ADF81E00ADF81A00ADF818000420ADF86F
:1009800010000120ADF80E00059403A9104807F0EF
:100990008FFA08210E4807F0D4FA02210C4807F01C
:1009A000C3FA60220C210A4807F0D8FA01220C2170
:1009B000074807F06BF90121054807F088F9012184
:1009C000034807F078F90AB010BD0000002002408B
:1009D0000004014070B501F0DFFE054602F046FC60
:1009E00015F8780F01F03EFA2878FFF777FF35F811
:1009F000781941A009F06CF84FF40061424801F009
:100A0000C7FE02200BF032FD4FF400613E4801F0BA
:100A1000C1FE10213D4801F0BDFEFF2004F06CF83E
:100A200020213A4801F0B6FE3C200BF01FFD0620C5
:100A300004F062F806200BF019FD32200BF016FDD1
:100A400008210A2008F0D0FF14200BF00FFD0A2027
:100A500003F0ACFF044604F0700421462CA009F01A
:100A600037F8102C0FD000260CE0642E01DD012099
:100A700070BD002003F09AFF04460A200BF0F6FC3C
:100A8000701C86B2F1E72621032008F0ADFF032099
:100A900003F08CFF0446262C08D022A009F018F899
:100AA00020211A4801F074FE0120E1E70021022014
:100AB00008F09AFF622004F01FF800F037F80121D7
:100AC000022008F091FF602004F016F800F02EF8E4
:100AD0000221084608F088FF612004F00DF800F0BC
:100AE00025F80021022008F07FFF2021074801F0AF
:100AF0004FFE0020BCE700004C656450776D203D40
:100B00002025640D0A000000001802400004024085
:100B1000414453313234365F4944203D202530343E
:100B2000780D0A004144CAA7B0DC000010B50024CB
:100B300010210C4801F02EFE08E00A200BF096FC74
:100B4000601C84B2C82C01DD012010BD08210548BD
:100B500001F015FE0128F0D01021024801F018FE26
:100B60000020F2E70004024010B503F00FF87CA06B
:100B700008F0AEFFEDE00024E4E021467BA008F0A1
:100B8000A7FF7C48406E00FB04F1022007F0F4FA56
:100B900078488169002007F0EFFA7648016C01205F
:100BA00007F0EAFA32200CF025F90021012007F0C5
:100BB000E3FA7048C169002007F0DEFA6D48416D24
:100BC000012007F0D9FA32200CF014F96422510206
:100BD000032002F0C7FE0021012007F0CDFA65488E
:100BE000016A002007F0C8FA6248416C012007F052
:100BF000C3FA32200CF0FEF80021012007F0BCFA05
:100C00005C48416A002007F0B7FA5A48416C01205D
:100C100007F0B2FA32200CF0EDF80021012007F0C5
:100C2000ABFA5448816A002007F0A6FA5148416C9B
:100C3000012007F0A1FA32200CF0DCF8002101209D
:100C400007F09AFA4B48C16A002007F095FA494824
:100C5000416C012007F090FA32200CF0CBF8002113
:100C6000012007F089FA4348016B002007F084FA5D
:100C70004048416C012007F07FFA64200CF0BAF87C
:100C80000021012007F078FA3A48416B002007F074
:100C900073FA3848416C012007F06EFA32200CF0EC
:100CA000A9F80021012007F067FA324841690020C5
:100CB00007F062FA2F48016D012007F05DFA32203B
:100CC0000CF098F80021012007F056FA2948C16B72
:100CD000002007F051FA4FF4FA71012007F04CFAA6
:100CE00032200CF087F80021012007F045FA214856
:100CF000816B002007F040FA1E48816C012007F04C
:100D00003BFA64220021032002F02CFE32200CF07A
:100D100071F80021012007F02FFA03F02BF807F0FB
:100D2000AFFE012004F0AEFF18B113A008F0D0FE12
:100D300002E015A008F0CCFE1748007800B904E0E6
:100D4000601C84B2182CFFF618AF00BF28200CF0EE
:100D500051F81148007800287FF40DAF10BD000055
:100D6000BFAACABCC0CFBBAF0D0A0000693D256455
:100D70000D0A0000FC000020B9A4B3CCB2E2CAD432
:100D8000D5FDB3A30D0A0000B9A4B3CCB2E2CAD416
:100D9000D2ECB3A30D0A00006D0000201FB50BF0CC
:100DA00087FF00202A4A0823CDE901200093039001
:100DB00003464FF4007227A12B480CF0B7FC00202B
:100DC0002A4A0423CDE901200093039003464FF4FF
:100DD000007227A12A480CF0A9FC0020294A04230C
:100DE000CDE901200093039003464FF4007226A141
:100DF00029480CF09BFC0020284A0723CDE901205C
:100E00000093039003464FF4007225A128480CF08C
:100E10008DFC0020274A0223CDE901200093039096
:100E200003464FF4007224A127480CF07FFC0020F9
:100E3000264A0123CDE90120009303900346802236
:100E400023A129480CF072FC0BF05CFF1FBD0000D1
:100E5000000000204D756C7469436F6D6D526561C3
:100E6000645F5461736B00009D3D00080400002026
:100E70006261636B4D6F746F72315F7461736B008D
:100E8000C5A30008080000206261636B4D6F746F9A
:100E900072325F7461736B0001A400080C000020C3
:100EA0004C6971756964546573745F5461736B0048
:100EB0002D3700081000002043616E53656E644DAD
:100EC00073675F5461736B00A11B0008140000205E
:100ED000436865636B5F4C69717569645F537461E6
:100EE00074655F5461736B00DB1C00081FB5012142
:100EF000102003F0A7FC1B4806F0F8FE01A807F03D
:100F00009BF80020ADF80C00ADF8060040F2E73089
:100F1000029042F2CF00ADF8040001A9114807F099
:100F200049F801210F4806F0A5FE01210D4806F001
:100F3000BCFE012211460B4806F0B1FF0121094811
:100F400006F0B9FE36208DF800000F208DF8010064
:100F500000208DF8020001208DF80300684602F0A1
:100F60003BFF1FBD0010004000BFFEE700B58BB087
:100F70000121082003F056FC092200213F4801F01E
:100F8000DBFB092201213D4801F0D6FB012009903D
:100F900002208DF828008DF8290000208DF82A0005
:100FA00001208DF82B0009A9344801F07DFB0220B7
:100FB000099009A9314801F077FB0121480603F0A7
:100FC00041FC0121880603F03DFC2D4800F0F4F9B6
:100FD00001208DF81F008DF820008DF821000020E1
:100FE0008DF822008DF81E008DF823008DF81A0070
:100FF00002208DF81B000B208DF81C0007208DF8B7
:101000001D001020ADF8180006A91D4800F00DFBCA
:1010100000208DF812008DF8130001208DF81400C7
:101020000020ADF80800ADF80A00ADF80C00ADF8EE
:101030000E00ADF8100001208DF8150002A800F098
:10104000D7F914208DF8040001208DF80500002048
:101050008DF8060001208DF8070001A802F0BCFE03
:1010600001220221064800F0D7FA0022012104489B
:1010700000F0D2FA00F02EFD0BB000BD000C0240D3
:101080000064004000B587B00221394800F034FA0E
:1010900000286AD037490868022100F039F902AA0D
:1010A0000021334800F04BFB0298012806D1039839
:1010B000042803D09DF8130004282CD09DF81300B9
:1010C00003280AD19DF814000B2806D19DF81500BD
:1010D000012802D19DF81600E8B1029803280BD12F
:1010E0009DF81300032807D19DF814000B2803D1A5
:1010F0009DF81500DD280ED00298032823D19DF815
:10110000130004281FD19DF8140010281BD19DF84E
:101110001500AB2817D19DF81300032809D19DF8BD
:1011200014000B2805D110218DF81410DD218DF845
:101130001510DDE90501CDE900010E48001D02A9E9
:101140000EC903F021FB0C49039888420DD10B48CE
:101150008079012809D10A48DDF8131001600120C7
:101160000649087006480088888007B000BD000066
:1011700000640040201400200B032001349B012058
:101180004400002000B58BB00121022003F04AFB8F
:1011900009220C213E4801F0CFFA09220D213C48DA
:1011A00001F0CAFA4FF48050099002208DF828000F
:1011B0008DF8290000208DF82A0001208DF82B00E1
:1011C00009A9334801F070FA4FF40050099009A9B9
:1011D0002F4801F069FA0121480603F033FB012191
:1011E000880603F02FFB01208DF81F008DF82000EA
:1011F0008DF8210000208DF822008DF81E008DF85A
:1012000023008DF81A0002208DF81B000B208DF8AA
:101210001C0007208DF81D001020ADF8180006A94D
:101220001C4800F002FA0E208DF8120000208DF804
:10123000130001208DF814000020ADF80800ADF86F
:101240000A00ADF80C00ADF80E00ADF8100001205A
:101250008DF8150002A800F0CBF840208DF80400AE
:1012600002208DF8050000208DF8060001208DF881
:10127000070001A802F0B0FD01220221054800F09C
:10128000CBF900220121034800F0C6F90BB000BDE4
:10129000000402400068004000B585B002211348F8
:1012A00000F02AF900B312490868022100F030F872
:1012B0006A4600210F4800F042FA0F49019888421F
:1012C00012D10E48807901280ED10D48DDF80B109F
:1012D0000160012009490870094800888880084891
:1012E000016808A008F0F4FB05B000BD00680040EC
:1012F00020140020006400400B032001349B0120D7
:1013000044000020526573203D2025640D0A000032
:10131000B1F5007F3AD00FDC202928D006DC012966
:101320001CD004291DD0082940D11DE0402921D01E
:10133000B1F5807F3AD126E0B1F5004F31D006DC1F
:10134000B1F5806F25D0B1F5006F2FD124E0B1F554
:10135000803F12D0B1F5003F28D111E0154A8260DC
:1013600025E00822C26022E01022C2601FE00822AD
:1013700002611CE01022026119E00822426016E0BE
:101380001022426013E00422426010E00422426016
:101390000DE0042242600AE00022826104224260E1
:1013A00005E0002282610422426000E000BF00BF2D
:1013B000704700000101010010B504460B4884424B
:1013C00009D10121480603F04DFA00214FF00070C9
:1013D00003F048FA08E00121880603F043FA0021EF
:1013E0004FF0806003F03EFA10BD00000064004042
:1013F00010B50021837A012202FA03F13D4A1268F6
:1014000042F001023B4B1A603A4A1C3212688A438E
:10141000384B1C331A60027BCAB9364A0C32126848
:101420008A43344B0C331A604288C38842EA034330
:10143000304A4032847A42F834300288838842EA63
:1014400003432C4A4032847A02EBC4025360027B8D
:10145000012A19D1274A0C3212680A43254B0C3352
:101460001A604288038842EA0343224A4032847A5F
:1014700042F83430C288838842EA03431D4A40322E
:10148000847A02EBC4025360C27A3AB9194A121D37
:1014900012688A43174B1B1D1A6006E0154A121D7D
:1014A00012680A43134B1B1D1A60028932B9114A94
:1014B000143212688A430F4B14331A600289012ACE
:1014C00006D10C4A143212680A430A4B14331A60CC
:1014D000427B012A06D1074A1C3212680A43054B97
:1014E0001C331A60034A126822F00102014B1A6091
:1014F00010BD00000066004070B504460D46002691
:1015000060692840002871D0B5F5807F5CD010DC80
:10151000082D35D006DC012D20D0022D24D0042D3D
:1015200072D127E0102D31D0202D35D0402D6BD138
:1015300038E0B5F5004F60D009DCB5F5007F49D043
:10154000B5F5806F4CD0B5F5006F5DD14FE0B5F5C6
:10155000803F2DD0B5F5003F56D12FE0A0682D4932
:1015600000F0A4FB064651E0E068032100F09EFB7A
:1015700006464BE0E068082100F098FB064645E08F
:10158000E068102100F092FB06463FE0206903214D
:1015900000F08CFB064639E02069082100F086FB4C
:1015A000064633E02069102100F080FB06462DE05E
:1015B0006068082100F07AFB064627E06068102189
:1015C00000F074FB064621E0A069012100F06EFBEB
:1015D00006461BE0A069022100F068FB064615E004
:1015E000A069042100F062FB06460FE00FE0A0694D
:1015F000702100F05BFB064608E06068042100F003
:1016000055FB064602E0FFE7002600BF00E000268B
:10161000304670BD010101001AB143690B434361BB
:1016200002E043698B434361704730B502460020B6
:101630000023146824F002041460146844F00104C8
:10164000146000E05B1C546804F001041CB94FF600
:10165000FF74A342F6D1546804F001040CB90020D1
:101660006CE08C79012C04D1146844F0800414607F
:1016700003E0146824F080041460CC79012C04D1B8
:10168000146844F04004146003E0146824F040043B
:1016900014600C7A012C04D1146844F02004146006
:1016A00003E0146824F0200414604C7A012C04D167
:1016B000146844F01004146003E0146824F010046B
:1016C00014608C7A012C04D1146844F0080414606E
:1016D00003E0146824F008041460CC7A012C04D1CF
:1016E000146844F00404146003E0146824F0040453
:1016F00014608C78A407CD7844EA05640D7944EA37
:1017000005444D7944EA05540D886D1E2C43D4617F
:10171000146824F001041460002300E05B1C54688A
:1017200004F001041CB14FF6FF74A342F6D15468D3
:1017300004F001040CB1002000E0012030BD10B520
:1017400000F5D87303EB01131B6803F00403137255
:10175000137A53B900F5D87303EB01131B6840F2F9
:10176000FF7404EA5353136009E000F5D87303EBE8
:1017700001131B686FF0604404EAD303536000F563
:10178000D87303EB01131B6803F00203537200F5D7
:10179000D87303EB01135B6803F00F03937200F53A
:1017A000D87303EB01135B681B0AD37400F5D8737D
:1017B00003EB01139B68D37200F5D87303EB01139D
:1017C0009B681C0A147300F5D87303EB01139B6824
:1017D0001C0C547300F5D87303EB01139B681B0EAC
:1017E000937300F5D87303EB0113DB68D37300F533
:1017F000D87303EB0113DB681C0A147400F5D8736B
:1018000003EB0113DB681C0C547400F5D87303EB75
:101810000113DB681B0E937421B9C36843F02003E6
:10182000C36003E0036943F02003036110BD10B5FA
:1018300002460020936803F08063B3F1806F00D10B
:1018400010E0936803F00063B3F1006F01D1012051
:1018500008E0936803F08053B3F1805F01D1022068
:1018600000E00420042874D002F5C07303EB0013D9
:101870001B6803F0010402F5C07303EB00131C6046
:101880000B7A7BB94B7A0C8843EA445302F5C07457
:1018900004EB00142468234302F5C07404EB001425
:1018A000236010E00B7A4C6843EAC4034C7A23436C
:1018B00002F5C07404EB00142468234302F5C074DD
:1018C00004EB001423608B7A03F00F038B7202F594
:1018D000C07303EB00135B6823F00F0402F5C073C1
:1018E00003EB00135C6002F5C07303EB00135B684D
:1018F0008C7A234302F5C07404EB001463608B7B85
:101900001C064B7B44EA03440B7B44EA0323CC7A5A
:10191000234302F5C07404EB0014A3608B7C1C0607
:101920004B7C44EA03440B7C44EA0323CC7B2343F3
:1019300002F5C07404EB0014E36002F5C07303EB1E
:1019400000131B6843F0010402F5C07303EB00139E
:101950001C6010BD10B50246002321B1012907D03B
:1019600002290FD109E090681D4C00EA04030BE046
:1019700090681C4C00EA040306E090681A4C00EAE8
:10198000040301E0002300BF00BF184C181BA34252
:1019900016D007DC83B16FF08060184470B1022864
:1019A00018D111E0B0F5007F10D0114C204448B19F
:1019B000B0F5003F0ED10BE002230DE000230BE059
:1019C000002309E0002307E0012305E0012303E0F1
:1019D000012301E0002300BF00BFD8B210BD00000A
:1019E00003000004000300080000031000010008C9
:1019F0000001FFF770B5024600201DE000EB400437
:101A0000254D05EB8404D4F8024000EB4005224E3E
:101A100006EB8505AD68631B002B01DB1C4600E06F
:101A20005C4200EE104AB8EEC00A1C4C04EB800485
:101A300084ED000A431CD8B29042DFDD2B291DD172
:101A4000164890ED000ADFED160AB4EEE00AF1EE5A
:101A500010FA11D390ED000ADFED120AB4EEE00A9D
:101A6000F1EE10FA16D290ED010ADFED0E0AB4EE97
:101A7000E00AF1EE10FA0DD2002070BD074890ED9B
:101A8000000ADFED090AB4EEE00AF1EE10FA01D225
:101A90000020F2E70120F0E7409B0120949B012009
:101AA0000000F042000048430000964310B5044691
:101AB000E07A07490870207B4870607B8870A07BC3
:101AC000C870D4F80F004860084604F071FC10BDDF
:101AD0004800002010B5184818490860011517483B
:101AE00081601749C1601748144948631422164998
:101AF00012481030FEF7D2FB1449104801634FF42E
:101B0000FA61C162243001F053FC11480B4988632B
:101B100041150A4801640F49416414220E494830B6
:101B2000FEF7BCFB0D4905488166802141665C30AB
:101B300001F03EFC10BD00000064004020140020B5
:101B4000B8140020AD1A0008A4140020B8640020C6
:101B5000006800409C6C0020886C00209C94002051
:101B600070B505460E4600240DE0084802F04FFE11
:101B700020B9295D054802F02CFE02E004A007F020
:101B8000A7FF601CC4B2B442EFDB70BD4414002058
:101B900043616EB7A2CBCDB6D3C1D0C2FA0000006C
:101BA00086B00026002537E01C4800F034FE0028EF
:101BB0002FDD04200190029000208DF80C008DF89C
:101BC0000D0008208DF80E00002407E0134802F0F5
:101BD00088F90DF10F010855601CC4B2082CF5DB23
:101BE000002001E0411CC8B20828FBDB0B49243966
:101BF000086801A9FFF71BFE064601E0681C85B2D4
:101C000031460748FFF7A6FE18B940F6FF70854237
:101C1000F4DB0A200BF0EEF8C6E7000044140020C5
:101C2000006400402DE9F04186B00546884616461E
:101C300000240195029504208DF80C0000208DF8F9
:101C40000D008DF80E6000BF06E018F804100DF1CD
:101C50000F000155601C84B2B442F6DB01A90D48A7
:101C6000FFF7E5FD0746002401E0601C84B2394619
:101C70000848FFF76FFE18B940F6FF708442F4DBA6
:101C800040F6FF70844203DB012006B0BDE8F0811E
:101C90000020FAE70064004030B50446002004EB61
:101CA000012505EB024505EB036030BD024600202F
:101CB00002EA01030BB1012000E00020704730B5BB
:101CC00002460020002305E012F8015B2C18E0B268
:101CD0005C1CE3B28B42F7DB30BD00240CE003F068
:101CE000CBFD30B1641CB4F5FA7F02D1002402F0C0
:101CF000E3FE14200BF07EF8F1E7000010B5044677
:101D00000821214800F046FD4FF4FA700BF072F8FC
:101D100064220021032001F025FE10211A4800F062
:101D200039FD28200BF066F80421174800F032FD39
:101D300028200BF05FF8642104FB01F00BF05AF847
:101D40000421114800F024FD28200BF053F8102145
:101D50000D4800F01DFD4FF4FA700BF04BF8002118
:101D6000012006F009FA012000F042FD18B9002117
:101D7000012006F001FA0821034800F009FD28209F
:101D80000BF038F810BD0000001C024070B506468C
:101D9000012000F005FD0546012000F029FD18B9DD
:101DA0000021012006F0E8F92C484169002006F0E6
:101DB000E3F92A48016D012006F0DEF908212848E0
:101DC00000F0E8FC4FF4FA700BF014F820212448DE
:101DD00000F0E0FC28200BF00DF80421204800F072
:101DE000D9FC28200BF006F8A87908B9012000E0FA
:101DF0000020014640F6AC52012006F044FB0024CE
:101E00000FE051200AF0F6FF0421154800F0C0FC55
:101E10004FF4A2700AF0EEFF0421114800F0BAFC62
:101E2000641C0A2CEDDB012006F010F904210C489B
:101E300000F0AEFC28200AF0DDFF2021084800F069
:101E4000A7FC4FF47A700AF0D5FF0821044800F08F
:101E50009FFC28200AF0CEFF70BD0000FC0000208F
:101E6000001C024010B58AB0044601214FF4C07036
:101E700002F0D8FC0121082002F0E4FC00208DF8DB
:101E8000260002208DF825008DF8240001208DF811
:101E90002700089008A9344800F006FC022200211F
:101EA000314800F049FC0120089008A92E4800F0B4
:101EB000FBFB01208DF824008DF82700C00308905B
:101EC00008A92A4800F0F0FB684606F0B5F80020A3
:101ED000ADF80800ADF8020040F28F10019040F21A
:101EE0005720ADF800006946214806F063F801214B
:101EF0001F4805F0BFFE01211D4805F0D6FE4FF436
:101F00008070ADF81C006020ADF80C000020ADF82A
:101F10001E00ADF81A00ADF818000420ADF810004E
:101F20000120ADF80E00059403A9114805F0C0FF8B
:101F300008210F4806F005F800210D4805F0F4FFD0
:101F400060220C210A4806F009F801220C210848F9
:101F500005F09CFE0121064805F0B9FE0121044868
:101F600005F0A9FE0AB010BD00200240001C02408E
:101F7000000C00407047000010B50024012003F061
:101F8000C7FD07F00DFB0446FEF724FD04EB4000FF
:101F9000C4B2214602A007F09BFD204610BD000000
:101FA000446574656374526573756C74203D2025B7
:101FB000640D0A00F8B505460C4616461F4600207B
:101FC0000090612C06D105A007F082FD0020064993
:101FD000087000E000BF00BFF8BD0000CDA3D6B977
:101FE000C0CFBBAF0D0A00006D0000201CB5012161
:101FF000084602F017FC00208DF8050001208DF83E
:10200000040000208DF8060002208DF807008002F1
:10201000009069460A4800F047FB4FF40061084809
:1020200000F0B8FB4FF4805000906946044800F07F
:102030003BFB4FF48051024800F0AAFB1CBD00009E
:10204000000002402DE9F04706460F464FF0000819
:1020500030218D48FEF73BF9B1B256E04FF0000851
:10206000002024E0894A02EB810292ED000A0A185E
:10207000521C864B03EB8202D2ED000AB4EEE00A5A
:10208000F1EE10FA11DB1A4602EB810292ED000A22
:102090000A1A521E03EB8202D2ED000AB4EEE00AE5
:1020A000F1EE10FA01DB08F10108421C90B2782829
:1020B000D8DBB8F1780F26D1744800EB810090EDA1
:1020C000000A724A01F1640002EB8000D0ED000AC0
:1020D00030EE600ADFED6E0AB4EEE00AF1EE10FABF
:1020E0000EDD69480180104600EB810090ED000A8A
:1020F000BCEEC00A10EE100A634AC2F8020002E009
:102100000020BDE8F087481C81B2B942A6D95E48DC
:10211000008818B15C48D0F8020030B99FED5D0A24
:102120005D4880ED000A0020EBE74FF0FF34564990
:102130000988A1F1640025E0002101221BE0DFF8FD
:102140004CC10CEB800C9CED000AA0EB020CDFF8FC
:102150003C9109EB8C0CDCED000A30EE600ABDEE20
:10216000C00A10EE103A002B01DB9C4601E0C3F1DF
:10217000000C6144521C322AE1D9A14201D20C4622
:1021800085B2401E40490988E6398142D4D33E4891
:10219000C580A5F1140085B20024002010E0291AA2
:1021A0003A4A02EB8101D1ED000A00EE104AB8EE86
:1021B000400A30EE800ABCEEC00A10EE104A401C05
:1021C0001428ECD31420B4FBF0F42F48846000886A
:1021D000642856DB2C48008840F2DC51884250DCF1
:1021E0009FED2C1AB0EE410A27490988643988B25C
:1021F0000AE0264901EB800191ED001A31EE001A48
:10220000B0EE410A411C88B21F49098864318142FD
:10221000EFDA214880ED000A1B48D0F802001A4985
:102220008968401A01EE100AB8EE411A1B4880ED89
:10223000001A154800886438144901EB800090EDBD
:10224000001A11480088643001EB8000D0ED001ABC
:1022500031EE211ADFED121A61EE211AB0EE002ADA
:1022600081EE821A70EE410A9FED0E1AF4EEC10A59
:10227000F1EE10FA01D2002043E70348D0F8020043
:102280003FE700203DE70000409B0120A49B012088
:102290000000C84200000000849B0120949B0120A4
:1022A0000000494300007A442DE9F0472DED048BEE
:1022B00006460F461446B7F5C86F01D34FF4C867FA
:1022C000BE4204D30020BDEC048BBDE8F087B6F518
:1022D000C86F01D30020F6E79FEDBF8A9FEDBE9A3D
:1022E00030465CE00022002123E0BC4B03EB80037E
:1022F00093ED000A43185B1CDFF8E0C20CEB83038C
:10230000D3ED000AB4EEE00AF1EE10FA10DB6346FA
:1023100003EB800393ED000A431A5B1E0CEB83036F
:10232000D3ED000AB4EEE00AF1EE10FA00DB521C25
:10233000491C3C29D9D33C2A30D100EE100AB8EE12
:10234000400AB0EE409AA54901EB800191ED000AE8
:10235000B0EE408A04EB4401A14B03EB8101D1F8BC
:10236000021000EE101AB8EE400AB4EEC80AF1EE00
:1023700010FA13D2BCEEC90A10EE101A04EB440393
:10238000DFF85CC22CF82310BCEEC80A10EE101A5D
:1023900004EB44030CEB8303C3F80210401CB84267
:1023A000A0D304EB44008E4931F82000D8B9F019CD
:1023B000C0F34F0004EB4401894A22F8210004EBEA
:1023C0004400114631F82000844901EB800090ED73
:1023D000000ABCEEC00A10EE100A04EB440102EB46
:1023E0008101C1F802004FF0FF3504EB44017C4A43
:1023F00032F821103C3188B226E0002101221BE096
:10240000DFF8D8C10CEB800C9CED000A00EB020C4D
:10241000DFF8C88108EB8C0CDCED000A30EE600AB6
:10242000BDEEC00A10EE103A002B01DB9C4601E025
:10243000C3F1000C6144521C322AE1D9A94201D2F5
:102440000D468146411C88B204EB4401644A32F8CF
:10245000211082318142D0DC04EB4400114601EBB3
:102460008000A0F806900025002011E009EB000193
:102470005A4A02EB8101D1ED000A00EE105AB8EE83
:10248000400A30EE800ABCEEC00A10EE105A401C22
:102490001428EBD31420B5FBF0F504EB44005049AD
:1024A00001EB8000856004EB440031F820006428D3
:1024B0007BDB04EB440031F8200040F2DC51884221
:1024C00073DC9FED450AF0EE408A04EB4401444A78
:1024D00032F82110643988B20AE0404901EB8001EA
:1024E00091ED000A30EE280AF0EE408A411C88B2D5
:1024F00004EB44013A4A32F8211064318142ECDAAB
:1025000000F04AF9804698ED1D0A20EE280A354869
:1025100000EB840080ED000A04EB4401304A02EB3A
:102520008101D1F8021004EB44022D4B03EB82022F
:102530009268881A002801DB014600E0414200EE63
:10254000101AB8EEC00AD8ED1D0A20EE200A26495E
:1025500001EB840181ED000A04EB4400204931F8CD
:10256000200064381D4901EB800090ED000A04EB67
:1025700044001B4931F820006430184901EB800009
:10258000D0ED000A30EE200ADFED180A60EE200AD6
:10259000B0EE001A80EE810A78EEC09AF5EEC09A8D
:1025A000F1EE10FA02D200208DE613E004EB4400B5
:1025B0000B4901EB8000D0F8020000EE100AB8EEE3
:1025C000400AD8ED1D0A20EE200ABCEEC00A10EE2B
:1025D000100A78E6002076E600000000A49B0120A7
:1025E000409B0120849B0120949B012000004943D3
:1025F00070B505460C46012000F0FAF820B96422B7
:102600000021012001F0AEF91021254800F0C0F8AA
:102610000421234800F0BCF8012000F0DDF8064654
:10262000012D02D0022D38D11BE01E48D0F88000C9
:1026300041026422032001F041F91A488169002017
:1026400005F09AFD1748016E012005F095FD610225
:102650006422032001F032F90021012005F08CFDF5
:102660001CE01048D0F8800041026422032001F0F1
:1026700025F90C48C169002005F07EFD0948C16DAF
:10268000012005F079FD61026422032001F016F9B2
:102690000021012005F070FD00E000BF00BF70BD0B
:1026A000001C0240FC000020F0B50A460021002377
:1026B000002400BF3DE0012505FA01F3156805EA95
:1026C00003049C4234D105684F000326BE40B54345
:1026D000056015794E00B5400668354305601579EB
:1026E000012D02D01579022D16D185684F000326E1
:1026F000BE40B543856055794E00B5408668354388
:102700008560456801268E40B543456045689679E9
:102710008E40B6B235434560C5684F000326BE40C3
:10272000B543C560D5794E00B540C6683543C56030
:10273000491C1029BFD3F0BDF0B5002300244D077C
:10274000ED0E02FA05F3CE1000F1200555F82650E3
:102750004E07F70E0F26BE40B543CF1000F12006FE
:1027600046F82750CE1000F1200555F8265045EACE
:102770000304CE1000F1200545F82640F0BD0246C6
:10278000002013690B400BB1012000E000207047CE
:10279000418370470183704700487047FC00002068
:1027A000014601EB4100C0EB4110024A02EBC000C0
:1027B00070470000EC97002070B50546284600F0F1
:1027C0000BF804464022125B91B2E06BFFF7D7FF93
:1027D0000646304670BD00000146C81EC0EBC00072
:1027E00000EB8000014A02EB80007047BC9500209E
:1027F00010B504460021204600F026F848B16420B8
:102800000AF0FEF90021204600F01EF808B1012070
:1028100010BD0020FCE7014600220879012802D102
:10282000088980B2704748880B88984204DB488842
:102830000B88C01A82B205E008890B88C01A4B8841
:10284000184482B21046EDE72DE9F04106460C46E9
:10285000032E1EDB3046FFF7BFFF054604EB4403A3
:1028600005F10C0202EB8302928891B204EB44035F
:1028700005F10C0252F82300FFF781FF074605F12E
:102880000800005DB84202D10120BDE8F0810020BF
:10289000FBE73046FFF784FF054604EB440305F1F0
:1028A0000C0202EB8302928891B204EB440305F11F
:1028B0000C0252F82300FFF762FF074605F10800FB
:1028C000005DB84201D10120DFE70020DDE7000014
:1028D00001480078704700006A000020014600208F
:1028E000174B0A6C9A4200D12520164B0A6C9A426B
:1028F00001D1262022E0144B0A6C9A4201D12720F4
:102900001CE0124B0A6C9A4201D1342016E0104BA5
:102910000A6C9A4201D1352010E00E4B0A6C9A42A3
:1029200001D147200AE00C4B0A6C9A4201D1522097
:1029300004E00A4B0A6C9A4200D153207047000011
:10294000001001400044004000480040004C00409E
:10295000005000400014014000780040007C00401E
:1029600010B5044603F0D4FF01F010F916A007F0EB
:10297000AFF8082C24D2DFE804F004051D1E1F2048
:1029800021221EE0204605F061FB0A200AF032FAFF
:102990000121204609F076FD32200AF031F90021AC
:1029A000204609F06FFD32200AF02AF9012005F0D7
:1029B0001DFC06E005E004E003E002E001E000E0C9
:1029C00000BF00BF10BD0000717765717700000087
:1029D0002DE9FC4704468A460020019004F13000AE
:1029E000FFF719FF0646002E6FD04FF480617F4835
:1029F000FDF76DFC208E8119A06B814207D8228ED5
:102A0000E06B811832467948FDF748FC11E0208FD1
:102A1000218E401A85B2228EE06B81182A467348B7
:102A2000FDF73CFC721B714B5819E16BFDF736FC4E
:102A300000BF6F49206C884269D1002558E06B487F
:102A4000405DAA2853D1694905F10900085CA52811
:102A50004DD1A81C085C674948706449E81C085CB3
:102A6000644988706149281D085C6249C8705F49E3
:102A7000681D085C5F4908715C49A81D095C5D48D8
:102A800041715A49E81D095C5A488171574905F15D
:102A90000800095C5748C1718078612803D0554807
:102AA0008078192812D100230A225249524800681E
:102AB0000AF03AFD01281AD0042001AB002244217B
:102AC0000090102002F0CAFD11E08CE000230A22E1
:102AD00048494A4800680AF027FD012807D0042029
:102AE00001AB002244210090102002F0B7FD6D1CC4
:102AF000B542A4D33D4801F015FA002504E004F1E5
:102B0000300001F0EEF96D1CB542F8D363E03C49AA
:102B1000206C88425FD100274FF00008002557E065
:102B20003248405D4C2809D13049681C085C532864
:102B300004D12F46394633A006F0CAFF2B48405D2A
:102B40003B2843D12949681C085C0D283ED1A84682
:102B5000414631A006F0BCFF012002F0A9FF4FF46E
:102B600080613248FDF7B3FBA8EB0700421C1F4809
:102B7000C1192E48FDF792FB2DA006F0A9FF4FF0DA
:102B8000000907E0294810F809102DA006F0A0FF61
:102B900009F10109A8EB0700401C4845F2DA29A019
:102BA00006F096FFA8EB0700401C80B21F4B0222E4
:102BB00046210090102002F051FD0A200AF01AF977
:102BC00004F1300000F0F4FBBDE8FC87681C85B21E
:102BD000B542A5DB00BFA06BB04204D104F13000C8
:102BE00000F0E6FBF0E700BFEEE70000A00F0020DA
:102BF0000010014031000020400000203C00002077
:102C000000440040486561644C6F636174696F6E95
:102C10003D25640D0A000000456E644C6F636174CD
:102C2000696F6E3D25640D0A00000000A59A002022
:102C3000CDE2C9A8C2EBBDE1B9FBCEAAA3BA0000A0
:102C4000256300000D0A000000BFFEE71CB501214E
:102C5000EE2001F0E7FD01208DF805008DF804005D
:102C600000208DF8060001208DF8070080020090FA
:102C700069462648FFF718FD4FF4806000906946CA
:102C80002348FFF711FD4FF400700090694621487A
:102C9000FFF70AFD1020009069461F48FFF704FD6A
:102CA0004FF48050009069461C48FFF7FDFC01205E
:102CB000009069461A48FFF7F7FC4FF40050009067
:102CC00069461348FFF7F0FC4FF480610F48FFF7A7
:102CD00061FD4FF480610E48FFF75CFD4FF4007119
:102CE0000C48FFF757FD10210B48FFF753FD4FF439
:102CF00080510A48FFF74EFD01210948FFF74AFDC0
:102D00004FF400510248FFF745FD1CBD000402408E
:102D1000001C0240000C0240000802400014024067
:102D2000001802401CB5012140F2FF1001F07AFDAD
:102D300000208DF8050001208DF8040000208DF89A
:102D4000060001208DF80700000200906946344813
:102D5000FFF7AAFC4FF40040009069463048FFF7A7
:102D6000A3FC4FF40060009069462D48FFF79CFCDF
:102D70004FF40060009069462A48FFF795FC4FF435
:102D80000070009069462848FFF78EFC4FF4807071
:102D9000009069462448FFF787FC4FF400600090DC
:102DA00069462148FFF780FC4FF480700090694627
:102DB0001E48FFF779FC4FF400400090694619481F
:102DC000FFF772FC4FF480711548FFF7E1FC4FF4F8
:102DD00000411348FFF7DCFC4FF400611048FFF797
:102DE000D7FC4FF400610F48FFF7D2FC4FF400719D
:102DF0000D48FFF7CDFC4FF480710B48FFF7C8FC7E
:102E00004FF400610848FFF7C3FC4FF48071074896
:102E1000FFF7BEFC4FF400410248FFF7B9FC1CBDB0
:102E20000010024000040240001C0240000C02405E
:102E300070B5012140F2FF1001F0F4FC4FF40C7169
:102E4000FE48FDF744FA002009E00121C0EBC00272
:102E500002EB8202F94B03EB8202D171401C042881
:102E6000F3D3002440E1C4EBC40000EB8000F3493D
:102E700001EB800104EB4400F14A02EB8003D3E94B
:102E800000209B68C1E90D030A63C4EBC40000EB9A
:102E90008000EA4901EB800104EB4400E94A02EBBF
:102EA0008003D3E900209B68C1E91003CA63C4EB27
:102EB000C40000EB8000E14901EB800004EB440119
:102EC000E14A02EB81030ECB54300EC02B22624349
:102ED000DE4BD118C4EBC40202EB8202D74B03EBEA
:102EE000820202F160002B22FDF7D8F9D849E01CDC
:102EF000085CC4EBC40101EB8101D04A02EB810103
:102F00004871D449E01C51F82000C4EBC40101EB26
:102F1000810142F82100D049E01C085CC4EBC401E7
:102F200001EB810102EB81018871002540E0C4EBD7
:102F3000C40000EB8000C14901EB80000C3005EBC0
:102F4000450100EB8101E01C00EB4000C34A02EBAD
:102F50008002D2E900039268C1E901320860C049E9
:102F6000E01C095CC4EBC40000EB8000B34A02EB38
:102F7000800008304155C4EBC40202EB8202AF4B23
:102F800003EB82020C3205EB450302EB8302111DB9
:102F9000C4EBC40202EB8202A84B03EB82020C32A8
:102FA00005EB450352F82300FFF77EFB681CC5B212
:102FB000C4EBC40000EB8000A04901EB8000C079A5
:102FC000A842B4DCC4EBC40202EB82020B4603EB62
:102FD000820202F13401C4EBC40202EB820203EB71
:102FE0008202106BFFF760FBC4EBC40202EB8202AB
:102FF000924B03EB820202F14001C4EBC40202EBEC
:10300000820203EB8202D06BFFF74EFBC4EBC402DB
:1030100002EB8202894B03EB820202F15801C4EBFE
:10302000C40202EB820203EB8202506DFFF73CFB0D
:10303000C4EBC40202EB8202804B03EB8202B2F8C3
:10304000582091B2C4EBC40202EB820203EB82026D
:10305000506DFFF79DFB322009F0CCFEC4EBC4029B
:1030600002EB8202754B03EB8202B2F8582091B258
:10307000C4EBC40202EB820203EB8202506DFFF745
:1030800089FBC4EBC40202EB82026C4B03EB8202AD
:10309000928E91B2C4EBC40202EB820203EB820275
:1030A000106BFFF777FB322009F0A4FEC4EBC402DB
:1030B00002EB8202614B03EB8202928E91B2C4EB6F
:1030C000C40202EB820203EB8202106BFFF760FB8B
:1030D000C4EBC40202EB8202584B03EB8201E21CF8
:1030E000D0B202F00BF9641C042CFFF4BCAE4FF418
:1030F0002E715C48FDF7EBF8002009E0012100EBA0
:103100004002C2EB4012574B03EBC202D171401C8C
:103110000328F3D300248DE04D48005DC4EBC401C7
:1031200001EB8101454A02EB81014871494850F8A1
:103130002400C4EBC40101EB810142F821004648A0
:10314000005D04EB4401C1EB4411464A02EBC101AE
:10315000887104EB440202EBC402434B03EB0211FF
:1031600004EB4402C2EB44123E4B03EBC20202F1F9
:103170003000B022FDF792F8002004EB4401C1EBCF
:103180004411384A42F8310004EB4402C2EB4412C5
:10319000344B03EBC201E0B202F058F900253EE0E7
:1031A00004EB4400C0EB44102E4901EBC0000C308E
:1031B00005EB450100EB810004EB4401274A02EBDB
:1031C0008103D3E900219B68C0E901130260244810
:1031D000015D04EB4400C0EB4410224A02EBC00046
:1031E0000830415504EB4402C2EB44121D4B03EB83
:1031F000C2020C3205EB450302EB8302111D04EB06
:103200004402C2EB4412174B03EBC2020C3205EB33
:10321000450352F82300FFF747FA681CC5B204EBD8
:103220004400C0EB44100F4901EBC000C079A84234
:10323000B6DC641C032CFFF46FAF70BDBC9500209E
:103240007CDC0008ACDC00084CDC000830DD000849
:10325000ECDF000804E00008F3DF0008DCDC000815
:10326000FADF0008EC970020DCDD000800B587B02D
:1032700001214FF4A17001F0D5FA02208DF8180059
:1032800000208DF81A0001208DF81B0002208DF817
:10329000190005220C213F48FFF74EFA4FF48050E9
:1032A000059005A93B48FFF7FFF905220E21394893
:1032B000FFF742FA4FF48040059005A93548FFF723
:1032C000F3F905220D213348FFF736FA4FF4005089
:1032D000059005A92F48FFF7E7F901208DF81800A0
:1032E0008DF81B001020059005A92B48FFF7DCF98D
:1032F00001208DF818008DF81B002020059005A9ED
:103300002548FFF7D1F901208DF818008DF81B0032
:10331000C002059005A91F48FFF7C6F900208DF8E7
:10332000180001208DF81B000820059005A91A48F7
:10333000FFF7BAF90121480501F0A4FA0021174866
:1033400001F0F8FB0020ADF800004FF48270ADF8FA
:1033500002000020ADF804000220ADF806000020B5
:10336000ADF808004FF40070ADF80A002020ADF869
:103370000C000020ADF80E000720ADF810006946E3
:10338000064801F0F1FB0121044801F0D3FB07B02E
:1033900000BD00000018024000040240005401403B
:1033A000024800210160416081607047349B012028
:1033B00010B504460020208060802071D4E90210FE
:1033C000FCF785FF10BD00001CB50121452001F070
:1033D00029FA00208DF8040001208DF807008020D4
:1033E000009069460A48FFF75FF900208DF8040055
:1033F00001208DF807004020009069460448FFF73F
:1034000053F98020009069460148FFF74DF91CBD33
:1034100000080240B7EE000A384880ED1D0A41F26C
:1034200088303649C8674620A1F878000A20C1F8DC
:1034300080000620C1F884000520C1F888004FF400
:103440001670C1F88C00C1F8900041F28830C1F8C4
:1034500094004FF4FA60C1F89C00C1F89800322043
:1034600008604860192088604FF4FA70C8600861ED
:103470001E2088614FF40060C8614FF498500862C4
:1034800041F2F860486241F6F420886241F6E66055
:10349000C86242F2E220086342F2DE60486342F60C
:1034A000FA50486144F2402088634FF49640C86364
:1034B00042F26C00086443F60400886542F6F82086
:1034C0004865486442F63C00086542F2FC10886496
:1034D00041F25860C86443F2B060C86542F22830D7
:1034E00008664FF40C7048664EF27860886640F6C5
:1034F000CA00C8660248086770470000FC00002048
:1035000050340300F8B5044600252046FFF7E6F9DD
:103510008DF8000002208DF8010000208DF80200D7
:1035200001208DF80300684600F056FC4949206CE4
:10353000884203D04849206C884204D10121606C44
:1035400001F0A0F903E00121606C01F07BF9226831
:10355000216941EA0200012101F064F93D49206C32
:10356000884201D1072528E03C49206C884201D1DE
:10357000072522E03A49206C884201D107251CE04A
:103580003849206C884201D1082516E03649206C64
:10359000884201D1082510E02F49206C884201D1D2
:1035A00008250AE03149206C884201D1082504E051
:1035B0002F49206C884200D10825218988B200F06B
:1035C00063FC06462A4631466068FFF7B5F8218B52
:1035D00088B200F059FC06462A4631466069FFF77A
:1035E000ABF80021206C05F04FFB04F10801606886
:1035F000FFF75AF804F118016069FFF755F804F174
:103600004801206C05F0A8FB012240F22551206CF6
:1036100005F07DFB002240F22771206C05F077FB5E
:103620004021206C05F018FB0121206C05F02CFBDB
:103630004021206C05F010FB04F13000FFF7B8FECC
:1036400004F12000FFF7B4FE012009F0F7FDE0656A
:10365000F8BD00000010014000140140004400408B
:1036600000480040004C00400050004000780040FE
:10367000007C004010B5044604EB4401034A02EB11
:10368000411101F13000FFF793FE10BDA0010020B1
:10369000014606480022026002461170080A507076
:1036A000080C9070080ED07010467047280000205B
:1036B00010B580210748FFF762F848B9642009F087
:1036C0009FFA80210348FFF75AF808B9012010BD7E
:1036D0000020FCE70008024010B580210748FFF7F2
:1036E0004EF848B9642009F08BFA80210348FFF7AF
:1036F00046F808B9012010BD0020FCE70008024090
:1037000010B540210848FFF73AF8012809D1642094
:1037100009F076FA40210448FFF731F8012800D17A
:1037200010BD0020FCE700000008024000242B48E8
:103730000021016041608160002211462848FEF7A7
:1037400071FA49E025488079012841D100221146CB
:103750002348FEF767FA0A2009F04CFB02E00A2032
:1037600009F048FB1D4800780028F8D044B91B48F0
:1037700080881A494881084641891AA006F0A8F9AC
:10378000601C84B2154881881AA006F0A1F90020B7
:10379000124908700846818840891030814210DD46
:1037A0000E484078401C0D4948700846407805286E
:1037B0000AD1002088710120C871002048700024BF
:1037C00002E0002005494870142009F013FB03E0D3
:1037D0000024142009F00EFBB4E70000349B012004
:1037E0008B600804BCECB2E2E3D0D6B5A3BA256482
:1037F0000D0A000025640D0A0000000070B50025C8
:10380000A4212148FCF763FDA4224FF480111E4837
:1038100005F02AFFA0211C48FEF751FA05461A4878
:10382000D0F8A000A8422ED0A4224FF400011648E0
:1038300005F01AFFA0211448FEF741FA0546124888
:10384000D0F8A000A8421ED0FFF7E4FD4FF480148A
:1038500004E0200B05F0C4FE04F580540B488442BC
:10386000F7D34FF4000408E02646E11704EB1151AA
:10387000081305F0B5FE04F5805405488442F3DBD7
:10388000014801F08BFA70BDFC0000200010100010
:103890000010800000BFFEE710B5012009F0CEFC4B
:1038A0000549086001F0E2F9FFF7D0F9FFF7C0FA27
:1038B000FFF738FA10BD0000580000202DE9F04154
:1038C00080460C4616464046FEF786FF0546002712
:1038D0004CB93146404600F0E7F810B90020BDE889
:1038E000F0810120FBE728682044B0F57A3F27DA11
:1038F0003146404600F0B4F928680719214611A066
:1039000006F0E6F8A87908B9012000E00020014699
:103910002246404602F036F83146404606F005F8A9
:1039200020B9404602F0FAF80020D8E72F60394667
:1039300008A006F0CDF8404600F0A6F90120CEE739
:103940000020CCE76D6F7665506F73203D202564B5
:103950000D0A0000637574506F73203D2025640DBF
:103960000A0000002DE9F04106460D461746304694
:10397000FEF732FF04464FF00008206850B94DB9F9
:103980003946304600F090F810B90020BDE8F081CB
:103990000120FBE73946304600F062F92068A84272
:1039A00017DA2068A5EB0008A07908B9012000E02B
:1039B000002001464246304601F0E4FF39463046D9
:1039C00005F0B3FF002857D1304602F0A7F80020D9
:1039D000DCE72068A8424FDD55B9022E01D0052E44
:1039E00006D13946304600F05FF8002844D1CDE7D3
:1039F0002068A0EB0508A1794246304601F0C2FFDD
:103A000002E0052009F0F6F93046FEF7F1FE40B974
:103A10003046FEF7D1FE20B9304600F019F90028F3
:103A2000EFD0304602F07AF835BBB4F88920A1799E
:103A3000304601F0B8FF02E0052009F0DBF930461E
:103A4000FEF7D6FE20B9304600F002F90028F3D088
:103A5000304602F063F8142009F0CCF9042E0BD1A3
:103A60000C48A179C268304601F08CFF642009F04F
:103A7000C1F9304602F052F82560032E01D0052E20
:103A800003D105A0216806F023F8304600F0FCF8C9
:103A900001207BE7FC000020637574506F73203DAC
:103AA0002025640D0A0000002DE9F04105468846F6
:103AB00000262846FEF790FE04464146284600F0C0
:103AC000CFF84146284605F030FF10B90020BDE888
:103AD000F08100273CE01EE0022E01DD0020F6E729
:103AE000284830F81520A07908B9012000E000200E
:103AF0000146284601F046FF642009F07BF9414663
:103B0000284605F012FF20B9284602F007F80020E9
:103B1000DDE7701CC6B22846FEF76AFE0028DBD13E
:103B2000B4F88920A179284601F03DFF02E0052084
:103B300009F060F92846FEF75BFE20B9284600F040
:103B400087F80028F3D0284601F0E8FF781CC7B2B8
:103B5000022FC0DB284600F097F8142009F04AF93C
:103B6000042D0BD10848A179C268284601F00AFF4C
:103B7000642009F03FF9284601F0D0FF00202060C2
:103B80000120A4E75C000020FC00002070B50024A8
:103B90000021012004F0F0FA18B944F00204204694
:103BA00070BD642200210520FFF7DCFE18B944F047
:103BB00020042046F4E7642200210420FFF7D2FE0F
:103BC00018B944F010042046EAE70021022004F06E
:103BD000D3FA18B944F004042046E1E7002108466E
:103BE00004F0CAFA18B944F001042046D8E717488F
:103BF0004169002004F0C0FA1448016D012004F06E
:103C0000BBFAC82200210320FFF7ACFE18B944F02C
:103C100008042046C4E71E20FEF7B8F82820FEF767
:103C20006DF80021084604F0A7FA00250AE04FF4D9
:103C30000C7005FB00F1022004F09EFA00F09AF8E7
:103C4000681C85B2182DF2DB2046A9E7FC00002095
:103C50000146024800EBC100C07870479CA00020DC
:103C6000084A02EBC00251700122064B03F83020D3
:103C7000002203EBC0039A70024B03EBC003DA701F
:103C8000704700009CA000200021034A02F8301079
:103C900002EBC002917070479CA0002010B504F0A8
:103CA00063FF38210748FCF712FB074805494860C5
:103CB00001460448C1604161C1614162C162416322
:103CC00010BD00009CA000206129000810B5002450
:103CD00000BF25E0144810F8340000B3124800EB90
:103CE000C4004078002809DD0F4800EBC40040788C
:103CF000401E0D4901EBC401487010E001200A4943
:103D000001EBC40188700020074901F8340001204C
:103D100001EBC401C870611C04A005F0D9FE641C4D
:103D2000072CD7DB10BD00009CA00020B5E7BBFA34
:103D30002564B6A8CAB1C6F7B3ACCAB10D0A000073
:103D400010B5002410E00A4800EBC400807850B1A0
:103D50000020074901EBC4018870E0B2044A02EB7D
:103D6000C40251688847641C072CECDB10BD0000BE
:103D70009CA0002010B564210420FFF795FE0648A2
:103D80006422816E0420FFF7EDFD03486422C16EBA
:103D90000420FFF7E7FD10BDFC00002006E000F066
:103DA00007F800F077FE142009F024F8F7E7000088
:103DB00010B5002409E004EB4401054A02EB411070
:103DC0002146FEF705FE601CC4B2082CF3DB10BDD3
:103DD000A00100207047000070B5002100230F22D1
:103DE000C4781CB3174C246804F4E064C4F5E064A0
:103DF000C4F30721C1F10404E3B20A4144789C40B2
:103E0000E1B28478144021430C07210E0E4C057852
:103E10006155047804F01F050124AC4005786D114C
:103E2000AD0005F1E025C5F8004109E0047804F093
:103E30001F050124AC40054D0678761145F8264053
:103E400070BD00000CED00E000E400E080E100E067
:103E500002490143024A1160704700000000FA0560
:103E60000CED00E010B50446012C04D1C103054857
:103E7000FEF790FC04E04FF400410248FEF788FC96
:103E800010BD0000001C02400246002100BF07E0F8
:103E900001208840104008B1C8B27047481C81B268
:103EA0001029F5DB0020F8E770B504460D46607870
:103EB0002178884201D1002070BD227802EB820275
:103EC000A06800EB820114222846FCF7E7F920786D
:103ED000401C616890FBF1F201FB12002070012090
:103EE000EAE710B5014600204A880B889A4201D1C2
:103EF0000A79AAB10B88CA68D05C0B88CA681A44D0
:103F0000002313700A88521C8B68B2FBF3F403FB86
:103F100014220A804A880B889A4201D100220A7131
:103F200010BD000070B5064639A13046FCF7DAF93D
:103F300000286CD038A005F0CBFD46A005F0C8FDE8
:103F400035A005F0C5FD52A005F0C2FD59A005F051
:103F5000BFFD644805F0BCFD634805F0B9FD63484A
:103F600005F0B6FD624805F0B3FD624805F0B0FD0E
:103F7000614805F0ADFD61A005F0AAFD6EA005F059
:103F8000A7FD7CA005F0A4FD87A005F0A1FD95A0EC
:103F900005F09EFDA24805F09BFDA24805F098FDA6
:103FA000A14805F095FDA14805F092FDA04805F057
:103FB0008FFDA04805F08CFD9F4805F089FD9FA06E
:103FC00005F086FDADA005F083FDBAA005F080FDEB
:103FD000C5A005F07DFDD24805F07AFDD14805F079
:103FE00077FDD14805F074FDD04805F071FDD0484B
:103FF00005F06EFDCF4805F06BFDCFA005F068FD24
:10400000DCA005F065FDEAA005F062FDEEE113E23B
:104010006C697374000000002A2A2A2A2A2A2A2A94
:104020002A2A2A2A2A2A2A2A2A2A2A2A2A2A2A2AF0
:104030002A2A2A2A2A2A2A2A2A2A2A2A2A2A2A2AE0
:104040002A2A2A2A2A2A2A2A2A2A2A2A2A2A2A2AD0
:104050000D0A00002A2A2A2A2A2A2020202020208D
:10406000202020202020202020B5F7CAD4B2CBB5B4
:10407000A5202020202020202020202020202020BB
:1040800020202020202A2A2A2A2A2A0D0A0000007D
:10409000C7EBD1A1D4F1CAE4C8EBC3FCC1EEA3A81D
:1040A000CAAEC1F9BDF8D6C6B7A2CBCDA3A90D0A39
:1040B00000000000C3FCC1EEA3BA414130343042DD
:1040C0003031303030303030303030304135A3ACEA
:1040D000B6AFD7F7A3BABFAABBFAB3F5CABCBBAF9A
:1040E0000D0A000094E3000804E4000874E40008EA
:1040F000DCE4000848E50008B8E50008C3FCC1EEB0
:10410000A3BA414130343030333130303030303088
:10411000303030304135A3ACB6AFD7F7A3BABBFAD5
:10412000D0B5B1DBCBAEC6BDB5E7BBFA284D543137
:1041300029B8B4CEBB0D0A00C3FCC1EEA3BA4141FD
:104140003034303133313030303030303030303066
:104150004135A3ACB6AFD7F7A3BABBFAD0B5B1DB44
:10416000B4B9D6B1B5E7BBFA284D543229B8B4CEAC
:10417000BB0D0A00C3FCC1EEA3BA4141303430325A
:104180003331303030303030303030304135A3AC26
:10419000B6AFD7F7A3BAB7B4D3A6C5CC284D54331E
:1041A00029B8B4CEBB0D0A00C3FCC1EEA3BA41418D
:1041B00030343033333130303030303030303030F4
:1041C0004135A3ACB6AFD7F7A3BABEABC3DCB1C31E
:1041D000B5E7BBFA31284D543429B8B4CEBB0D0A2B
:1041E00000000000C3FCC1EEA3BA414130343034BA
:1041F0003331303030303030303030304135A3ACB6
:10420000B6AFD7F7A3BACFA1CACDD2BAB4ABCBCD94
:10421000B5E7BBFA284D543529B8B4CEBB0D0A001A
:10422000F4E100082CE00008A8E7000834E70008E3
:10423000C4E6000880E600081CE80008C3FCC1EEE4
:10424000A3BA414130343230444130335858585881
:1042500058585858285858B1EDCABE4C45442050BB
:10426000574D294135A3ACB6AFD7F7A3BAC9E8D6A5
:10427000C34C45442050574D0D0A0000C3FCC1EE0D
:10428000A3BA4141303431304442303030303030E4
:10429000303030304135A3ACB6AFD7F7A3BAB1A3B5
:1042A000B4E6C9E8D6C3B5C4CFB5CDB3B2CECAFD66
:1042B0000D0A0000C3FCC1EEA3BA414130343130D5
:1042C0004443303030303030303030304135A3ACC2
:1042D000B6AFD7F7A3BAB6C1C8A1CFB5CDB3B2CEEA
:1042E000CAFD0D0A00000000C3FCC1EEA3BA4141A3
:1042F00030343130343030303030303030303030B5
:104300004135A3ACB6AFD7F7A3BABBF1C8A1CFC2B2
:10431000CEBBBBFAB0E6B1BEBAC50D0A00000000C4
:104320002CE60008F4E00008A0E100084CE10008D9
:1043300034E3000894E00008C3FCC1EEA3BA414195
:10434000303431303137303130303030303030305F
:104350004135A3ACB6AFD7F7A3BAC7E5CFB4D2BA4D
:10436000CDB0C2FAD7B4CCACBCECB2E2BFAAB9D8DB
:104370000D0A0000C3FCC1EEA3BA41413034313014
:104380003137303230303030303030304135A3AC1E
:10439000B6AFD7F7A3BAC7E5CFB4D2BACDB0BFD5C1
:1043A000D7B4CCACBCECB2E2BFAAB9D80D0A0000BD
:1043B000C3FCC1EEA3BA4141303431303137303320
:1043C00030303030303030304135A3ACB6AFD7F775
:1043D000A3BAB7CFD2BACDB0C2FAD7B4CCACBCEC8A
:1043E000B2E2BFAAB9D80D0A000000004AA005F049
:1043F0006FFB58A005F06CFB66A005F069FB75A08B
:1044000005F066FB7FA005F063FB8AA005F060FB6A
:10441000944805F05DFB944805F05AFB934805F07D
:1044200057FB93A005F054FB97A005F051FBAFF2AA
:10443000184005F04DFB6EE099A13046FBF752FFA6
:1044400030B11E20FDF7A2FC2820FDF757FC62E0EA
:1044500094A13046FBF746FF78B100240AE0924869
:10446000406E00FB04F1022003F086FEFFF782FCA1
:10447000601C84B2182CF2DB4DE08CA13046FBF7B7
:1044800031FF60B10021022003F076FE8648406EC5
:1044900000EB40008100022003F06EFE3BE087A1AC
:1044A0003046FBF71FFF28B1002211468648FDF772
:1044B000B9FB30E085A13046FBF714FF60B1022262
:1044C0004FF44001844805F0CFF88348001F8188ED
:1044D00082A005F0FDFA1EE082A13046FBF702FF44
:1044E00080B1002400250AE00021032003F00EF92A
:1044F00000B9641C21467FA005F0EAFA6D1C142D5A
:10450000F2DB08E07FA13046FBF7ECFE18B1642136
:10451000022003F0FBF870BDC3FCC1EEA3BA414119
:10452000303431303137303430303030303030307A
:104530004135A3ACB6AFD7F7A3BAB7CFD2BACDB097
:10454000BFD5D7B4CCACBCECB2E2BFAAB9D80D0A87
:1045500000000000C3FCC1EEA3BA41413034313049
:104560003138303030303030303030304135A3AC3D
:10457000B6AFD7F7A3BABCECB2E2D7AAC5CCBDF8A8
:10458000BFA8B4A6CAC7B7F1D3D0BFA8CCF50D0A4F
:1045900000000000C3FCC1EEA3BA41413034313009
:1045A0003234303030303030303030304135A3AC00
:1045B000B6AFD7F7A3BABDABD7AAC5CCC9CFBFA8F2
:1045C000CCF5B2A6B5BDB9E2C2B7BCECB2E2B4A6B6
:1045D0000D0A0000C3FCC1EEA3BA414130343130B2
:1045E0003630303030303030303030304135A3ACC0
:1045F000B6AFD7F7A3BABFAACABCC0CFBBAF0D0A2C
:1046000000000000C3FCC1EEA3BA41413034313098
:104610003631303030303030303030304135A3AC8E
:10462000B6AFD7F7A3BACDA3D6B9C0CFBBAF0D0AEB
:1046300000000000C3FCC1EEA3BA41413034313068
:104640003436303030303030303030304135A3AC5B
:10465000B6AFD7F7A3BAB4F2BFAACDE2C9A8C2EBEE
:104660000D0A000038E200088CE20008E0E20008D1
:10467000C3FCC1EEA3BA7178A3ACB6AFD7F7A3BAA7
:10468000C7E5CFB40D0A0000C3FCC1EEA3BA716B3D
:10469000A3ACB6AFD7F7A3BAC7E5BFA80D0A000011
:1046A00071780000716B0000FC0000207A68756171
:1046B0006E70616E63657368690000007965776587
:1046C0006974616E636500008B60080479657765C5
:1046D0006973686962616900389B012025640D0A6D
:1046E0000000000067616F6775616E74616E6365DD
:1046F00000000000CAA7B0DCB4CECAFD25640D0AD4
:104700000000000064696775616E74616E63650026
:104710001CB50121A02000F085F800208DF80500CF
:1047200001208DF8040000208DF8060002208DF88D
:1047300007000420009069461248FDF7B5FF0421E8
:104740001048FEF725F80820009069460D48FDF74F
:10475000ABFF08210B48FEF71BF8102000906946BC
:104760000848FDF7A1FF10210648FEF711F82020A8
:10477000009069460348FDF797FF20210148FEF7A6
:1047800007F81CBD001C02400FB410B50446607849
:10479000401C616890FBF1F201FB12002178884215
:1047A00003D1002010BC5DF814FB627802EB82029A
:1047B000A16801EB8200142203A9FBF76FFD60786A
:1047C000401C616890FBF1F201FB12006070012057
:1047D000E8E710B5024650881388984204D1107952
:1047E000012801D1002010BD5388D068C1545088E1
:1047F000401C9368B0FBF3F403FB14005080508816
:104800001388984201D1012010710120EBE7014685
:1048100048880A88904203D10879012800D170475E
:104820000020FCE729B1064A12680243044B1A60D3
:1048300004E0034A12688243014B1A60704700008B
:104840003038024029B1064A12680243044B1A600C
:1048500004E0034A12688243014B1A60704700006B
:104860004038024029B1064A12680243044B1A60DC
:1048700004E0034A12688243014B1A60704700004B
:104880002038024029B1064A12680243044B1A60DC
:1048900004E0034A12688243014B1A60704700002B
:1048A0004438024029B1064A12680243044B1A6098
:1048B00004E0034A12688243014B1A60704700000B
:1048C00024380240F0B500210022002402250026F1
:1048D0000223324F3F6807F00C0121B1042905D0B3
:1048E000082937D105E02E4F076036E02D4F0760CD
:1048F00033E02A4F3F1F3F68C7F38056274F3F1FC3
:104900003F6807F03F036EB1264FB7FBF3F7DFF8C0
:104910008CC0ACF1040CDCF800C0CCF3881C07FBA5
:104920000CF40CE01E4FB7FBF3F7DFF870C0ACF1EE
:10493000040CDCF800C0CCF3881C07FB0CF4174F08
:104940003F1F3F68C7F301477F1C7D00B4FBF5F7AD
:10495000076002E0124F076000BF00BF0F4F3F68C3
:1049600007F0F0010909104F7A5C0768D7404760EB
:104970000A4F3F6807F4E051890A0B4F7A5C476899
:10498000D7408760054F3F6807F46041490B064FE9
:104990007A5C4768D740C760F0BD00000838024025
:1049A0000024F40040787D017700002070B50446B3
:1049B000002510210C48FDF7EBFE032007F056FD03
:1049C00044F0200000F098F8002000F095F8FF2057
:1049D00000F092F80546012007F048FD102102483A
:1049E000FDF7D8FE284670BD0004024010B5002433
:1049F00000BF08211248FDF7C2FE0128F9D010219E
:104A00000F48FDF7C5FE122000F076F8FF2000F0F9
:104A100073F844EA0044FF2000F06EF844EA0024F2
:104A2000FF2000F069F8044310210548FDF7B2FEAD
:104A3000B4F5000F02D36FF07F40041B204610BD79
:104A40000004024010B5044621796079814218D0F3
:104A50006079401CA16890FBF1F201FB1200217902
:104A6000884202D107A005F033F80948002101600F
:104A7000416081600146201DFFF716FA0448616B12
:104A8000884710BDB6D3C1D0C2FA0D0A000000009D
:104A90009014002010B5002408E0C4EBC401054ABE
:104AA00002EBC100FFF7CEFF601CC4B2022CF4DBA6
:104AB00010BD000020140020014800210160704753
:104AC0006B000020014600BF0A4A128802F0020271
:104AD000002AF9D0074A121D118000BF054A12882A
:104AE00002F00102002AF9D0024A121D1288D0B247
:104AF00070470000083401400146002200E0521CCB
:104B0000802AFCD300BF0A4A128802F00202002A5F
:104B1000F9D0074A121D118000BF054A128802F021
:104B20000102002AF9D0024A121D1288D0B2704741
:104B30000854014021B1028842F04002028004E0A2
:104B400002884FF6BF731A40028070470246002069
:104B500013890B400BB1012000E000207047014693
:104B6000888970478181704710B50022028802F45D
:104B700041520B884C8823438C882343CC882343A1
:104B80000C8923434C8923438C892343CC892343B9
:104B90001A430280838B4FF2FF74234083830B8A76
:104BA000038210BD00B587B001210C20FFF73AFE4B
:104BB00002208DF8180000208DF81A0001208DF8D1
:104BC0001B0002208DF819000C20059005A924482F
:104BD000FDF76AFD0820059005A92248FDF764FD50
:104BE000052203211F48FDF7A7FD052202211C48CD
:104BF000FDF7A2FD052203211948FDF79DFD0121C6
:104C00008803FFF71FFE00211748FFF793FF0020DE
:104C1000ADF800004FF48270ADF802000020ADF84E
:104C200004000220ADF806000120ADF808004002A3
:104C3000ADF80A003020ADF80C000020ADF80E00F1
:104C40000720ADF8100069460748FFF78DFF0121E6
:104C50000548FFF76FFFFF2000F062F807B000BDC6
:104C600000080240000C02400038004000B587B048
:104C700001210846FFF7D6FD02208DF8180000201C
:104C80008DF81A0001208DF81B0002208DF8190004
:104C90004FF4E040059005A91F48FDF705FD0522EA
:104CA0000C211D48FDF748FD05220D211A48FDF78E
:104CB00043FD05220E211848FDF73EFD0121480362
:104CC000FFF7E0FD00211548FFF734FF0020ADF8A5
:104CD00000004FF48270ADF802000020ADF804002F
:104CE0000220ADF806000120ADF808004002ADF842
:104CF0000A003020ADF80C000020ADF80E000720AF
:104D0000ADF8100069460548FFF72EFF0121034862
:104D1000FFF710FF07B000BD001002400034014053
:104D200070B50546002405E0601CC4B2C82C01DD46
:104D3000002070BD02210E48FFF708FF0028F3D0C5
:104D400029460B48FFF70EFF002405E0601CC4B2A3
:104D5000C82C01DD0020ECE701210548FFF7F6FE35
:104D60000028F3D00248FFF7FAFEC0B2E1E70000E6
:104D70000038004010B50446074800884FF6C77158
:104D80000840054908800846008820430880012122
:104D90000148FFF7CFFE10BD0038004010B50446B3
:104DA000A0212046FCF78BFFC4F8A00007F080FF8D
:104DB000A4224FF48011064804F0C4FCA4224FF44E
:104DC0000001034804F0BEFC07F09CFF012010BD69
:104DD000FC000020704700002DE9F0432DED028B10
:104DE0008DB0814600209A49087034216846FBF74F
:104DF0006EFA9848C08AC838002805D49548C08AF9
:104E0000C830B0F5C86F08DB93A004F061FE012044
:104E10000DB0BDEC028BBDE8F0838E48C08AC83867
:104E200084B23EE00027002626E08F4800EB840095
:104E300090ED000AA019401C8B4901EB8000D0EDD9
:104E4000000AB4EEE00AF1EE10FA12DB084600EBBD
:104E5000840090ED000AA01B401E01EB8000D0ED05
:104E6000000AB4EEE00AF1EE10FA02DB781C87B219
:104E700000E003E0701C86B2782ED6DB00BF782FEE
:104E80000DD1ADF80040784800EB840090ED000AA9
:104E9000BCEEC00A10EE100ACDF8020006E0601C5D
:104EA00084B26C48C08AC830A042BBDC00BF6948ED
:104EB000C08AC830A04204DC6CA004F009FE0120C6
:104EC000A6E79FED708ADFED6F8A0024B4E0002032
:104ED0005F49087080465F48C18A801C30F8140022
:104EE000081A7838C82802DA4FF0780815E05948CF
:104EF000C18A801C30F81400081A7830B0F5C86FE9
:104F000002DB40F2C75808E0BDF800105148801C91
:104F100030F81400081A1FFA80F8A8F1780085B25A
:104F200067E00027002626E04F4800EB850090ED63
:104F3000000AA81B401E4C4901EB8000D0ED000A7E
:104F4000B4EEE00AF1EE10FA12DB084600EB850041
:104F500090ED000AA819401C01EB8000D0ED000A7A
:104F6000B4EEE00AF1EE10FA02DB781C87B200E042
:104F700003E0701C86B23C2ED6DB00BF3C2F36DB34
:104F800001203349087000EE105AB8EE400AF0EEE6
:104F9000408A354800EB850090ED000AB0EE408A6B
:104FA000601C00EB4000694601EB8000D0F8020075
:104FB00000EE100AB8EE400AB4EEC80AF1EE10FA9C
:104FC00015D2BCEEE80A10EE100A81B2601C00EBAC
:104FD00040002DF82010BCEEC80A10EE100A611C2B
:104FE00001EB41016A4602EB8101C1F80200681C35
:104FF00085B208F17800854293DB15480078C8B97E
:10500000214621A004F064FD601C00EB40002DF857
:105010002080154800EB880090ED000ABCEEC00A25
:1050200010EE100A611C01EB41016A4602EB81019E
:10503000C1F80200601C84B206484078A0423FF7E5
:1050400046AF312269461E48FBF728F90020DFE60B
:1050500076000020A4B4012043B7E5CEBBD6C3B48C
:10506000EDCEF30D0A000000A49B0120D1B043B7A0
:10507000E5CAA7B0DC2C43CEBBD6C3B4EDCEF30D4E
:105080000A00000000000000D1B0B5DA2564B8F6CF
:1050900054B7E5CAA7B0DCD6B1BDD3C8A1B2CEBF64
:1050A000BCB5E328CEAAB7C0D6B9D2F5D0D4D1F9D1
:1050B000B1BEC3BBD3D054CFDF290D0A000000001E
:1050C000409B01202DE9F04107460021EEE07A4B9C
:1050D00000267A4890F83000884272D001EB4100F7
:1050E000DFF8D8C13CF82000002807DD01EB4100C3
:1050F0003CF82000C830B0F5C86F02DD0020BDE8E4
:10510000F08101EB4100DFF8B4C13CF8200000F170
:105110003C0425E0002501221BE0DFF8A4C10CEBD4
:10512000840C9CED000A04EB020CDFF8948108EB80
:105130008C0CDCED000A30EE600ABDEEC00A10EE09
:10514000100A002801DB844601E0C0F1000C654430
:10515000521C322AE1D99D4201D22B46A6B2641CD0
:1051600001EB4100DFF854C13CF82000BE30A04202
:10517000D0D801EB41000CEB8000C6800023002258
:1051800011E0B018DFF838C10CEB8000D0ED000A58
:1051900000EE103AB8EE400A30EE800ABCEEC00ACB
:1051A00010EE103A521C142AEBD31420B3FBF0F388
:1051B00001EB4100DFF804C10CEB8000836073E079
:1051C000FFE701EB4100DFF8F4C03CF82000B0F548
:1051D000C86F06DC01EB41003CF82000C83800280D
:1051E00001D500208BE701EB4100DFF8D0C03CF88F
:1051F0002000A0F13C0425E0002501221BE0DFF89F
:10520000C0C00CEB840C9CED000AA4EB020CDFF890
:10521000B08008EB8C0CDCED000A30EE600ABDEECD
:10522000C00A10EE100A002801DB844601E0C0F13C
:10523000000C6544521C322AE1D99D4201D22B4612
:10524000A6B2641E01EB4100DFF870C03CF82000FC
:10525000C838A042D0D301EB41000CEB8000C680DF
:10526000A6F1140086B20023002211E0B018DFF886
:1052700050C00CEB8000D0ED000A00EE103AB8EE02
:10528000400A30EE800ABCEEC00A10EE103A521C02
:10529000142AEBD31420B3FBF0F301EB4100DFF849
:1052A0001CC00CEB80008360481CC1B2781C81429A
:1052B000FFF60DAF012022E7E0930400409B0120A0
:1052C000A49B012030B501460022002010E002EB33
:1052D0004203094C34F82340431C03EB4303064DBF
:1052E00035F823309C4201DA431CDAB2431CD8B2B1
:1052F0008842ECDB104630BD409B012070B505466E
:105300000C46042304F160020121284600F05EF9F6
:10531000022304F164021946284600F057F90423D9
:1053200004F166020321284600F050F9042304F139
:105330006A021946284600F049F9022304F16E0278
:105340000521284600F042F9022304F170020621EB
:10535000284600F03BF9022304F172020721284697
:1053600000F034F9022304F174020821284600F009
:105370002DF9022304F176021521284600F026F9C2
:10538000012304F178020921284600F01FF90123C6
:1053900004F179020A21284600F018F9012304F1EA
:1053A0007A020B21284600F011F9012304F17B0257
:1053B0000C21284600F00AF9022304F17C020D2199
:1053C000284600F003F9012304F17E020E2128464D
:1053D00000F0FCF8012304F17F020F21284600F0C1
:1053E000F5F8012304F180021021284600F0EEF8C0
:1053F000012304F181021121284600F0E7F801237E
:1054000004F183021321284600F0E0F8012304F19F
:1054100084021421284600F0D9F8012304F1850202
:105420001621284600F0D2F8012304F18602172144
:10543000284600F0CBF8022304F187021821284601
:1054400000F0C4F8142007F0D5FC70BD70B5054617
:105450000C4600212846226B02F0CDFF1021284681
:10546000E26C02F0C8FF20212846226E02F0C3FF42
:1054700021212846626E02F0BEFF23212846A26E3B
:1054800002F0B9FF24212846E26E02F0B4FF252184
:105490002846226F02F0AFFF26212846626F02F0F5
:1054A000AAFF27212846A26F02F0A5FF282128463F
:1054B000E26F02F0A0FF802002592A21284602F064
:1054C0009AFF842002592B21284602F094FF88205D
:1054D00002592C21284602F08EFF8C2002592D21E2
:1054E000284602F088FF902002593321284602F016
:1054F00082FF942002593421284602F07CFF982034
:1055000002593821284602F076FFA02002593A219C
:10551000284602F070FFA42002593D21284602F0DF
:105520006AFFA82002596021284602F064FFAC20DF
:1055300002596121284602F05EFF62212846D4F814
:10554000B02002F058FF63212846D4F8B42002F0BE
:1055500052FF64212846D4F8B82002F04CFF6521A0
:105560002846D4F8BC2002F046FF66212846D4F82D
:10557000C02002F040FF67212846D4F8C42002F082
:105580003AFF68212846D4F8C82002F034FF692188
:105590002846D4F8CC2002F02EFF6C212846D4F8FF
:1055A000D02002F028FF6D212846D4F8D42002F044
:1055B00022FF6E212846D4F8D82002F01CFF70216B
:1055C0002846D4F8DC2002F016FF70BD2DE9F04724
:1055D00080460C4617461D4600235A1E19461E4893
:1055E000006807F095FE0121404600F0EDF9052026
:1055F00007F006FB2046FFF765FA052007F000FBE1
:105600000021404600F0E0F94FF00009032D02DDD3
:105610004FF0030900E0A946A9F1010611E00121BC
:10562000404600F0D1F9052007F0EAFAB85DFFF72F
:1056300049FA052007F0E4FA0021404600F0C4F9D9
:10564000761E002EEBDA00231A461946024800683F
:1056500007F06AFFBDE8F087580000202DE9FC47FD
:105660008046894692461F460A9C00260025002057
:105670000090019004208DF800008DF801808DF8D5
:1056800002908DF803A02448FDF792FE00BF39E098
:10569000E11704EB9171B6EBA10F1FD1E11704EBF9
:1056A00091718910A4EB810151B3002507E004201A
:1056B00000FB0650395C01A84155681C85B2E11712
:1056C00004EB91718910A4EB8101A942EFDC082160
:1056D0006846FCF745FA0020019011E0002507E03C
:1056E000042000FB0650395C01A84155681C85B2B6
:1056F000042DF5DB08216846FCF732FA0020019002
:10570000701C86B2E11704EB9171012202EBA1013A
:10571000B142BDDCBDE8FC87441400202DE9FC5FEC
:105720000746884691469A46DDE90CB400260025D6
:105730000020009001908DF800708DF801808DF8A8
:1057400002908DF803A02548FDF732FE00BF3BE034
:10575000E11704EB9171B6EBA10F20D1E11704EB37
:1057600091718910A4EB810161B3002508E0042048
:1057700000FB06501BF8001001A84155681C85B2BB
:10578000E11704EB91718910A4EB8101A942EEDCD1
:1057900008216846FCF7E4F90020019012E000259A
:1057A00008E0042000FB06501BF8001001A841553A
:1057B000681C85B2042DF4DB08216846FCF7D0F99B
:1057C00000200190701C86B2E11704EB9171012258
:1057D00002EBA101B142BBDCBDE8FC9F44140020F8
:1057E0001CB50446FDF774F800B91CBD012C02D0AD
:1057F000022C38D11BE01D480078B8B901201B49A4
:1058000008700020019001208DF80400022118A0EA
:1058100004F05EF9322007F0EDFA042001AB032218
:10582000172100901020FFF719FF00BF1BE00F4861
:105830004078B8B901200D4948700020019001203E
:105840008DF8040001210AA004F042F9322007F08B
:10585000D1FA042001AB0222172100901020FFF79B
:10586000FDFE00BF00BF00BF00BFBEE76B00002011
:1058700025640D0A0000000010B5FDF741FF10B1CE
:105880000120FFF7ADFFFDF713FF10B10220FFF776
:10589000A7FFFDF735FF10B9FDF70AFF08B101209A
:1058A00010BD0020FCE7000030B52DED068B81B067
:1058B00005460C46002000902046FAF7BEFE41EC5B
:1058C0001A0B9FED120B53EC102BFAF7C4FD41ECB1
:1058D000190B9FED100B53EC102BFAF715FD41EC53
:1058E000180BFAF7B7FE80B2009002236A46052132
:1058F0002846FFF76BFE02236A4606212846FFF77B
:1059000065FE01B0BDEC068B30BD000011EA2D81B3
:105910009997B13F000000000000E03F30B52DED49
:10592000068B81B005460C46002000902046FAF711
:1059300084FE41EC1A0B9FED0F0B53EC102BFAF782
:105940008AFD41EC190B9FED0D0B53EC102BFAF770
:10595000DBFC41EC180BFAF77DFE80B200900223CD
:105960006A4607212846FFF731FE01B0BDEC068BE1
:1059700030BD00008DEDB5A0F7C6B03F00000000BF
:105980000000E03F37B582B005460C46002001908C
:105990000498019044F04001042304AA2846FFF72C
:1059A00015FE05B030BD37B582B005460C46002067
:1059B00001900498019044F05001042304AA284661
:1059C000FFF704FE05B030BD70B504460D46012D4D
:1059D00030D1072C2DD2DFE804F0040A10161B2169
:1059E00026004FF480612C48FCF7D2FE21E04FF4F2
:1059F00080612A48FCF7CCFE1BE04FF40071284878
:105A0000FCF7C6FE15E010212648FCF7C1FE10E0A9
:105A10004FF480512448FCF7BBFE0AE001212348E3
:105A2000FCF7B6FE05E04FF400511C48FCF7B0FE51
:105A300000BF30E0072C2DD2DFE804F0040A101676
:105A40001B2126004FF480611348FCF7A3FE21E0E0
:105A50004FF480611148FCF79DFE1BE04FF400718C
:105A60000F48FCF797FE15E010210E48FCF792FE58
:105A700010E04FF480510C48FCF78CFE0AE0012145
:105A80000A48FCF787FE05E04FF400510348FCF795
:105A900081FE00BF00BF70BD00040240001C024038
:105AA000000C0240000802400014024000180240AE
:105AB00008B1012100E00021014A11707047000087
:105AC000A49A002070B505460C46012C05D1D422BD
:105AD0000021284603F0ACFF16E0022C05D1D522A8
